:020000040800F2
:10000000004E0020ED010008F5010008292000083D
:10001000F9010008FB010008FD01000800000000D4
:10002000000000000000000000000000FF010008C8
:100030000102000800000000030200084D20000833
:10004000070200080702000807020008070200086C
:10005000070200080702000807020008070200085C
:10006000070200080702000807020008070200084C
:10007000070200080702000807020008070200083C
:10008000070200080702000807020008070200082C
:10009000070200080702000807020008070200081C
:1000A000070200080702000807020008070200080C
:1000B00007020008070200080702000807020008FC
:1000C00007020008070200080702000807020008EC
:1000D00007020008070200080702000807020008DC
:1000E00007020008070200080702000807020008CC
:1000F00007020008070200080702000807020008BC
:1001000007020008070200080702000807020008AB
:10011000BD200008070200080702000807020008C7
:100120000702000807020008C5080008D1080008F7
:1001300000F002F800F04BF80AA090E8000C8244AE
:100140008344AAF10107DA4501D100F040F8AFF28B
:10015000090EBAE80F0013F0010F18BFFB1A43F0A5
:1001600001031847442F0000642F0000103A24BFF9
:1001700078C878C1FAD8520724BF30C830C144BF0C
:1001800004680C607047000000230024002500264E
:10019000103A28BF78C1FBD8520728BF30C148BFEA
:1001A0000B607047702900F02181642900F0AE8057
:1001B000752900F0AB80782900F00B81732900F0DD
:1001C000CA82002070471FB51FBD10B510BD00F0DA
:1001D00049FB1146FFF7F7FF02F032FE00F067FB24
:1001E00003B4FFF7F2FF03BC02F090F9094880471F
:1001F00009480047FEE7FEE7FEE7FEE7FEE7FEE709
:10020000FEE7FEE7FEE7FEE704480549054A064B20
:1002100070470000B92000083101000800480020A4
:10022000004E0020004A0020004A00207047B2F132
:1002300020030AD5C2F1200320FA02F001FA03F3E9
:1002400021FA02F140EA0300704721FA03F04FF06F
:10025000000170470FB4044910B503AA029800F0DA
:100260007FFA10BC5DF814FB1000002070B5044646
:1002700085690068C10601D5302600E02026C00748
:1002800007D070BDD4E9012130469047206A401C58
:1002900020626D1EF6D570BD70B504468569007884
:1002A000C00707D170BDD4E9012120209047206A02
:1002B000401C20626D1EF6D570BD70B50C4605461B
:1002C000012A05D02878800600D5EA69002302E0DB
:1002D000012305E05B1C934202D2E05C0028F9D1C7
:1002E000A869E618C01AA861286A18442862284636
:1002F000FFF7BCFF04E0D5E9012114F8010B90479A
:10030000B442F8D32846FFF7C7FF70BD2DE9F0418E
:100310000646002410687529314616A510D0AFF3A3
:100320000080002802DA404213A507E031688A07FE
:1003300001D512A502E0490704D511A5012401E069
:10034000AFF3008000210A2206F1240709E0B0FB88
:10035000F2FCB0FBF2F302FB1C003030785418467C
:10036000491C0028F3D123462A463046BDE8F04117
:1003700000F086B9000000002D0000002B000000F6
:1003800020000000F0B40D460188090502D51B4C81
:100390007C4402E0194C7C440E34002100F124031B
:1003A00005E002F00F061209A65D5E54491C002A02
:1003B000F7D102780023120704D5702D06D009B1B9
:1003C000022311342246F0BC00F05AB90123103444
:1003D000F8E770B504460D4621461068AFF300807B
:1003E000024629462046BDE87040CBE70368126804
:1003F00043F0200303600823C361C3E7DA2C000045
:100400002DE9F05F894604464FF0000ADFF824B179
:10041000FB44C0F820A02046E168884700287DD032
:10042000252806D0D4E901219047206A401C20628B
:10043000F1E700255F462046E16888472028064608
:1004400007DB312E05D2B81910F8200C08B105438E
:10045000F1E7A80701D525F00405C4F81CA0002782
:10046000C4F818A02A2E09D0304602F047F838B355
:1004700004EB8708303EC8F8186019E059F8041BEF
:10048000204604EB87029161E1688847012F064608
:1004900018D1E069002820DA25F020051DE0D8F801
:1004A000180000EB800006EB40003038C8F8180058
:1004B0002046E1688847064602F020F80028EED181
:1004C000012F0AD02E2E08D12046E16888477F1CD4
:1004D0000646022F45F02005C4DBA069002803DA98
:1004E000404245F00105A061E80701D025F0100564
:1004F000A6B1A6F14100192802D8203645F40065BE
:100500004A463146204625604D46FFF74BFE60B116
:10051000012807D0ED1D25F0070000E007E000F1FD
:10052000080978E705F1040975E730467AE7206A9B
:10053000BDE8F09F822C000040EA010310B59B0744
:100540000FD1042A0DD310C808C9121F9C42F8D03D
:1005500020BA19BA884201D9012010BD4FF0FF30EE
:1005600010BD1AB1D30703D0521C07E0002010BD04
:1005700010F8013B11F8014B1B1B07D110F8013B90
:1005800011F8014B1B1B01D1921EF1D1184610BD71
:10059000032A40F2308010F0030C00F0158011F8AF
:1005A000013BBCF1020F624498BF11F801CB00F887
:1005B000013B38BF11F8013BA2F1040298BF00F8DB
:1005C00001CB38BF00F8013B11F0030300F0DA80E3
:1005D000083AC0F0088051F8043B083A51F804CBBF
:1005E000A0E80810F5E7121D5CBF51F8043B40F885
:1005F000043BAFF30080D20724BF11F8013B11F890
:1006000001CB48BF11F8012B24BF00F8013B00F8D3
:1006100001CB48BF00F8012B704702F0FF0343EA0B
:10062000032242EA024200F0E1B84FF0000200B5B6
:10063000134694469646203922BFA0E80C50A0E805
:100640000C50B1F12001BFF4F7AF090728BFA0E8B3
:100650000C5048BF0CC05DF804EB890028BF40F87F
:10066000042B08BF704748BF20F8022B11F0804FC1
:1006700018BF00F8012B70477047704770477047EC
:100680002DE9F0470D4699469246044600F12408AC
:100690000168880604D5E06921F01001216000E0BE
:1006A0000120A84201DD471B00E00027A1697A195B
:1006B00002EB0900081AA0612078C00602D4204687
:1006C000FFF7D4FD002608E0D4E901211AF806005E
:1006D0009047206A401C761C20624E45F4DB20784F
:1006E000C0060AD52046FFF7C1FD06E0D4E9012186
:1006F00030209047206A401C2062381EA7F1010775
:10070000F4DC07E0D4E9012118F805009047206ADD
:10071000401C2062281EA5F10105F3DC2046FFF7EE
:10072000BBFD2078000602D50220BDE8F08701203D
:10073000FBE710B5436913B1AFF3008001E0FFF7A9
:10074000BCFD012010BD127800F124010A700022C6
:100750004A700122EDE711684FF0FF32E9E700002F
:10076000074B70B50D467B4400F065F804462846FB
:1007700000F074F810B14FF0FF3070BD204670BD2E
:100780006F25000010B5203AC0F00B80B1E818507A
:10079000203AA0E81850B1E81850A0E81850BFF46B
:1007A000F5AF5FEA027C24BFB1E81850A0E818500A
:1007B00044BF18C918C0BDE810405FEA827C24BF5E
:1007C00051F8043B40F8043B08BF7047D20728BFEC
:1007D00031F8023B48BF11F8012B28BF20F8023B3B
:1007E00048BF00F8012B70474FF000020429C0F009
:1007F000128010F0030C3FF41AAFCCF1040CBCF1E2
:10080000020F18BF00F8012BA8BF20F8022BA1EBA4
:100810000C01FFF70CBF5FEAC17C24BF00F8012B7D
:1008200000F8012B48BF00F8012B704701694A1CF2
:1008300002610878704700B58FB0CDE90131002121
:10084000059105497944CDE9031011466846FFF743
:10085000D7FD0FB000BD0000E5FFFFFF007B00F0FB
:1008600080007047754600F029F8AE4605006946DD
:10087000534620F00700854618B020B5FFF7C4FCAA
:10088000BDE820404FF000064FF000074FF0000891
:100890004FF0000B21F00701AC46ACE8C009ACE812
:1008A000C009ACE8C009ACE8C0098D4670470446F1
:1008B000AFF300802046FFF793FC0000004870472C
:1008C000A0470020014800F089B900006C0000201A
:1008D000014800F083B900002800002030B590F8EE
:1008E00040500124AC40C56B6C6004686360436891
:1008F000102B036803D099600068C26030BD9A6015
:100900000068C16030BD000010B5012804D040F27D
:10091000562108A001F02AFE13490020C86113489F
:10092000016941F004010161016941F04001016187
:1009300010BD000053544D3332463178785F484142
:100940004C5F4472697665725C5372635C73746D5C
:100950003332663178785F68616C5F666C617368AA
:100960005F65782E63000000804700200020024071
:10097000064A0021D16106490A6942F002020A6171
:100980004861086940F040000861704780470020D6
:1009900000200240044B0022DA61044A136943F04C
:1009A000010313610180704780470020002002404E
:1009B00014480022C168CB06134904D5CA6942F025
:1009C0000202CA611022C3685B0705D5CB6943F0F8
:1009D0000103CB6142F00402C369DB0707D0CB6996
:1009E00043F00403CB61C16921F00101C161A2F5AB
:1009F0008071013901D0C2607047C16921F00101E5
:100A0000C1617047002002408047002070B5054654
:100A100000F05AFE0646114C09E0681C07D025B1CB
:100A200000F052FE801BA84201D9032070BDE0688F
:100A3000C007F2D1E068800601D52020E060E068C0
:100A4000C00605D4E069C00702D1E068400703D5BD
:100A5000FFF7AEFF012070BD002070BD00200240F6
:100A600010B590F821100022022905D004218163DD
:100A700080F82020012010BD01680B6823F00E03D0
:100A80000B6001680B6823F001030B6090F84030A5
:100A9000C46B012101FA03F3636080F8211080F830
:100AA0002020104610BD00002DE9F05F90F82110C5
:100AB0000024022903D004218163012485E0016818
:100AC0000A6822F00E020A6001680A6822F0010238
:100AD0000A603F4E3E4FB215DFF8F4C0DFF8F090E9
:100AE000DFF8ECA0DFF8E8B0DFF8E4E00168783F79
:100AF00013011502ACF1640CA9F15009AAF13C0AEA
:100B0000ABF1280BAEF1140E4FF48018B14227D987
:100B1000B9420ED0614512D049451DD0514518D07B
:100B2000594518D0714501D1424615E0294EB142D0
:100B300001D1012210E0274E1436B14201D110221A
:100B40000AE0244E2836B14206D0224A3C32914275
:100B500001D11A4600E02A461E49091F0A602BE00F
:100B6000B94213D0614517D0494522D051451DD017
:100B700059451DD0714501D142461AE0B14202D11A
:100B80004FF0807215E0134EB14201D1012210E006
:100B9000104E1436B14201D110220AE00D4E283613
:100BA000B14206D00B4A3C32914201D11A4600E0D4
:100BB0002A46074980394A60012180F82110002126
:100BC00080F82010416B01B188472046BDE8F09FB6
:100BD0008000024008040240806B70472DE9F05FFE
:100BE000C16B0A6801680B68046C4FF0040808FACE
:100BF00004F8844D844E854FDFF814C2DFF8149258
:100C0000DFF814A2DFF814B2DFF814E218EA020FDA
:100C100065D05FEA437862D50A68920603D40A6811
:100C200022F004020A60DFF8F0814FF4806201686C
:100C300008F1140813011402414524D9A9420DD02A
:100C4000B1420FD0B9421AD0614515D0494515D0EF
:100C5000514501D1120312E0594501D104220EE0A1
:100C6000714501D140220AE06D4D1435A94206D0EC
:100C70006B4A2832914201D11A4600E02246674968
:100C8000091F0A6029E0A94213D0B14215D0B94228
:100C900020D061451BD049451BD0514502D14FF4AE
:100CA000800217E0414502D14FF0806212E05945C1
:100CB00001D104220EE0714501D140220AE0584DD5
:100CC0001435A94206D0564A2832914201D11A461B
:100CD00000E022464B4908394A60C16A71E04FF092
:100CE000020808FA04F818EA020F70D05FEA837865
:100CF0006DD50A68920606D40A6822F00A020A60D4
:100D0000012180F82110DFF810814FF40072016892
:100D100008F1140813011402414524D9A9420DD049
:100D2000B1420FD0B9421AD0614515D0494515D00E
:100D3000514501D1120312E0594501D102220EE0C2
:100D4000714501D120220AE0354D1435A94206D063
:100D5000334A2832914201D11A4600E022462F49F7
:100D6000091F0A6029E0A94213D0B14215D0B94247
:100D700020D061451BD049451BD0514502D14FF4CD
:100D8000001217E0414502D14FF0007212E05945C0
:100D900001D102220EE0714501D120220AE0204D4E
:100DA0001435A94206D01E4A2832914201D11A4672
:100DB00000E02246134908394A60002180F82010DB
:100DC000816A00291CD0BDE8F05F0847FFE70825CD
:100DD000A540154214D01A0712D50A6822F00E0257
:100DE0000A6090F84020C36B012101FA02F25A60B8
:100DF000816380F82110002180F82010016BE0E76A
:100E0000BDE8F09F080002401C0002403000024094
:100E100044000240580002406C00024008040240B6
:100E20001C04024070B504007ED05A4920685A4D17
:100E300088422DD057491431884229D0554928314C
:100E4000884225D053493C31884221D05149503104
:100E500088421DD04F496431884219D04D497831BC
:100E6000884215D0A84213D04B49143188420FD084
:100E70004949283188420BD047493C31884207D044
:100E800045495031884203D09A2144A001F06EFBBD
:100E9000606840B1102806D0B0F5804F03D09B2188
:100EA0003EA001F063FBA068402804D018B19C214B
:100EB0003AA001F05BFBE068802804D018B19D21C6
:100EC00036A001F053FB206948B1B0F5807F06D011
:100ED000B0F5007F03D09E2130A001F047FB606990
:100EE00048B1B0F5806F06D0B0F5006F03D09F21F8
:100EF0002AA001F03BFBA06928B1202803D0A02143
:100F000026A001F033FBE06960B1B0F5805F09D045
:100F1000B0F5005F06D0B0F5405F03D0A1211FA05F
:100F200001F024FB142000E00CE02168A9420BD260
:100F3000184A52420A44B2FBF0F08000206415487F
:100F400008380AE0012070BD134A52420A44B2FB3D
:100F5000F0F08000206410480838E063022084F834
:100F600021000A6843F6F0708243F4E90103184354
:100F7000D4E902352B4318432369184363691843A6
:100F8000A369184310430860002060630121617762
:100F9000207770BD080002400804024053544D33CE
:100FA00032463178785F48414C5F447269766572A9
:100FB0005C5372635C73746D3332663178785F684A
:100FC000616C5F646D612E63000000002DE9F041EB
:100FD000884604460025581E4FF6FF711E461746E8
:100FE000884204D340F26F111DA001F0BFFA94F8BB
:100FF000200001280DD0012084F8200094F8211051
:101000000020012907D084F8200002252846BDE8E9
:10101000F0810220FBE7022184F82110A063206800
:10102000016821F00101016033463A4641462046FD
:10103000FFF754FCE06A00282068016802D041F004
:101040000E0106E021F0040101602068016841F012
:101050000A0101602068016841F001010160D5E7E3
:1010600053544D3332463178785F48414C5F447277
:10107000697665725C5372635C73746D333266318A
:1010800078785F68616C5F646D612E6300000000BA
:10109000064810B54FF0FF31C16000220261C16007
:1010A000C26000F051FB002010BD000000100240A3
:1010B00070B5044600F008FB0546601C02D00448E9
:1010C0000078044400F000FB401BA042FAD370BD3E
:1010D000180000202DE9F05F044649480F4601261C
:1010E000017E012941D0012183460176DFF8149168
:1010F00020684CF2503A40B1022839D0A82142A0D1
:1011000001F034FA2068022832D0A068DFF82C8180
:101110004FF0FF35B0F1006F0AD3B8F80010B1F509
:10112000007F38D0B1F5C07F3FD0454988420BD908
:10113000E92135A001F01AFAB8F80000B0F5007FF7
:101140002CD0B0F5C07F33D0D4E9020105EBC1212A
:1011500001443B48814203D9EA212BA001F006FA61
:101160005046FFF753FC50B344E00220BDE8F09F27
:1011700054465046FFF74AFC98BB0120FFF7C4FBDA
:101180002046FFF743FCD9F81010064621F0040171
:10119000C9F810102EE02B498842C9D8D4E90201C1
:1011A00005EBC12101442748D4E727498842BFD82D
:1011B000D4E9020105EBC12101442348CAE73D609F
:1011C000A56811E02846FFF7D3FB5046FFF71EFC49
:1011D000D9F81010060021F00201C9F8101001D052
:1011E0003D6007E005F50065D4E9020100EBC12090
:1011F000A842E7D800218BF818103046B6E7000067
:10120000804700200020024053544D33324631784D
:10121000785F48414C5F4472697665725C537263D3
:101220005C73746D3332663178785F68616C5F66C9
:101230006C6173685F65782E63000000E0F7FF1F44
:10124000FFFF0308FFFF0708FFFF050803480169C8
:1012500041F0800101610020704700000020024041
:101260002DE9F05F06462C480D460024017E174606
:101270009846012925D0012181460176012E07D00B
:10128000022E05D0032E03D0B22124A001F06EF966
:10129000B5F1006F0AD32D480088B0F5007F13D058
:1012A000B0F5C07F12D02A48854203D9B3211BA0D4
:1012B00001F05CF94CF2503A5046FFF7A7FB38B109
:1012C00026E00220BDE8F09F2248EDE72248EBE748
:1012D000012E02D0022E00D00426D346DFF87CA0D7
:1012E000220141463846FEF7A2FF81B205EB4400D9
:1012F000FFF750FB5846FFF789FBDAF8102022F081
:101300000102CAF8102018B9641CE4B2B442E7D351
:10131000002289F81820D5E78047002053544D3328
:1013200032463178785F48414C5F44726976657225
:101330005C5372635C73746D3332663178785F68C6
:10134000616C5F666C6173682E630000E0F7FF1FDD
:10135000FFFF0308FFFF0708FFFF0508002002400A
:10136000064900200A69120607D5054A4A60054A5F
:101370004A600969090600D5012070470020024033
:1013800023016745AB89EFCD2DE9F84F0027DFF842
:10139000BCA2DFF8BCB20D460446B946504514D095
:1013A0005C4512D0AB4884420FD0AB4884420CD08D
:1013B000AA48844209D0AA48844206D0A948844257
:1013C00003D0BD21A8A001F0D1F828680104090CC0
:1013D00001D0000C03D0BE21A3A001F0C7F86868BB
:1013E00000281FD00128FCD01128FAD00228F8D0FC
:1013F0001228F6D0A8498842F3D0A8498842F0D0F4
:10140000A7498842EDD0A7498842EAD0A649884238
:10141000E7D0A6498842E4D00328E2D0BF2192A0B9
:1014200001F0A4F80BE1012000FA07F801EA080630
:10143000464574D1544514D05C4512D08548844249
:101440000FD0854884420CD08448844209D0844817
:10145000844206D08348844203D0CD2182A001F08B
:1014600085F88D4869680A1A814259D00EDC032933
:1014700075D006DC002953D0012919D0022969D181
:1014800031E0112921D0122964D13AE0B2F5881F48
:1014900046D006DCB2F5803F42D0B2F5801F59D16C
:1014A0003EE0B2F5001F3BD0B2F5041F52D137E049
:1014B000E868022807D0012805D0032803D0D521E9
:1014C00069A001F053F8E8683EE0E868022807D018
:1014D000012805D0032803D0DC2163A001F046F8E1
:1014E000E868001D30E0E868022807D0012805D030
:1014F000032803D0E3215CA001F038F8E868083045
:1015000022E0E868022807D0012805D0032803D08C
:10151000EA2155A001F02AF8E8680C3014E08DE0CB
:10152000A86880B1012811D0022807D0F7214EA069
:1015300001F01CF8A86830B1012807D04FF0080965
:10154000C4F8148006E00420814603E04FF0080947
:10155000C4F81080FF2E05D8224605E0FFE74FF0C3
:101560000000F1E704F104024FEA870001D9A0F17D
:10157000200013684FF00F0101FA00FC23EA0C036E
:1015800009FA00FC43EA0C0313606868C00055D5F3
:101590004748826942F001028261806927F00302B4
:1015A00000F001000090434813189868BA07120F22
:1015B00091408843544501D1002118E05C4501D198
:1015C000012114E023498C4201D102210FE022497C
:1015D0008C4201D103210AE020498C4201D104212F
:1015E00005E01F498C4201D1052100E00621914010
:1015F000014399606868C0032F48016801D53143F1
:1016000000E0B1430160686880032C48016801D59F
:10161000314300E0B14301606868C00228480168B6
:1016200001D5314300E0B14301606868800225487C
:10163000016801D5314300E0B14301607F1C2E6891
:101640003146FE407FF4EFAEBDE8F88F0008014060
:10165000000C01400010014000140140001801403E
:10166000001C01400020014053544D333246317874
:10167000785F48414C5F4472697665725C5372636F
:101680005C73746D3332663178785F68616C5F6764
:1016900070696F2E6300000000001110000021101F
:1016A0000000311000001210000022100000321063
:1016B0000010024000000140000401400404014009
:1016C000080401400C040140014880687047000094
:1016D0001800002002488168027811448160704738
:1016E00018000020074810B5016841F010010160A2
:1016F000032000F0D1F80F2000F006F800F025F8E4
:10170000002010BD0020024070B50D4D04464FF47E
:101710007A712878B1FBF0F00A490968B1FBF0F062
:1017200000F014F948B9102C07D200222146501EAF
:1017300000F068F800206C6070BD012070BD0000F2
:1017400018000020240000207047704710B50400E6
:1017500003D5CE2109A000F009FF002C0DDB04F019
:101760001F01012088406109890001F1E021C1F8D1
:101770008001BFF34F8FBFF36F8F10BD53544D33B4
:1017800032463178785F48414C5F447269766572C1
:101790005C5372635C73746D3332663178785F6862
:1017A000616C5F636F727465782E630010B504001E
:1017B00003D5BE2107A000F0D9FE002C09DB04F000
:1017C0001F01012088406109890001F1E021C1F871
:1017D000000110BD53544D3332463178785F484193
:1017E0004C5F4472697665725C5372635C73746DAE
:1017F0003332663178785F68616C5F636F727465ED
:10180000782E630070B515460C460646102A03D3A1
:10181000AA2114A000F0AAFE102C03D3AB2111A022
:1018200000F0A4FE1B480068C0F30223C3F10702C6
:101830002046042A00D90422191D072901D20023B9
:1018400000E0DB1E012404FA02F1491E0140994028
:101850009C40641E2C4021433046BDE8704000F09F
:101860003DBE000053544D3332463178785F4841D5
:101870004C5F4472697665725C5372635C73746D1D
:101880003332663178785F68616C5F636F7274655C
:10189000782E63000CED00E010B5044607280BD04D
:1018A000062C09D0052C07D0042C05D0032C03D01E
:1018B000922108A000F05AFE124904F007020868BD
:1018C0004FF6FF03184040EA02200F4A1043086019
:1018D00010BD000053544D3332463178785F484193
:1018E0004C5F4472697665725C5372635C73746DAD
:1018F0003332663178785F68616C5F636F727465EC
:10190000782E63000CED00E00000FA05044805495C
:1019100000684968044AC1F30221515CC84070471D
:1019200024000020001002406630000804480549E9
:1019300000684968044AC1F3C221515CC84070473D
:1019400024000020001002406630000810B5401E40
:10195000B0F1807F01D3012010BD4FF0E024606121
:101960000F21601700F0BAFD0020A0610720206160
:10197000002010BD704770B504460068C16821F4AE
:10198000F071C1602068416921F001014161206B63
:10199000012804D12068C16821F01001C1602068CD
:1019A00041694FF0100609064FF000050FD5416957
:1019B00021F080014161606B48B14563606BFFF7C6
:1019C0004FF820B1606BFFF707F920281ED0206880
:1019D000416949060FD5416921F040014161A06B81
:1019E00048B14563A06BFFF73BF820B1A06BFFF750
:1019F000F3F820280AD0E584E5852564202084F8C2
:101A00003E0084F83D002563002070BD266403205D
:101A100070BD0000074A0168914202D1016C06A026
:101A200004E00B4A914203D1016C0AA0FEF712BCFC
:101A30007047000000380140555341525431206531
:101A400072726F723A2030782578210A0000000007
:101A5000004C00405541525434206572726F723A06
:101A60002030782578210A00F8B50268044610680D
:101A7000D168536910F00F0F4FF0000554D003F0F8
:101A8000010601F4907737435FD0C20705D0CA053D
:101A900003D5226C42F001022264420705D5DA0721
:101AA00003D0226C42F002022264820705D5DA07D5
:101AB00003D0226C42F004022264020707D501F031
:101AC0002002324303D0226C42F008022264226CCE
:101AD000002A35D0800604D5880602D5204600F0BD
:101AE00097FB20684069216CC0F3801001F0080169
:101AF0000143204625D000F06AFB20684169490671
:101B00001BD5416921F040014161A06BA8B1584942
:101B10004163A06BFEF7C8FF002811D0A06B416B9A
:101B200001B0BDE8F040084783060ED58B060CD502
:101B30002046BDE8F84000F06BBB2046FFF76AFF87
:101B4000F8BDFFF767FF2564F8BD266B2023012E43
:101B500052D1C60650D5CE064ED5106850680090BA
:101B6000506940062AD5A16B086840680004000C43
:101B7000EAD0A68D8642E7D9E0858869202818D06A
:101B8000D06820F48070D0602068416921F00101A4
:101B900041612068416921F04001416184F83E3093
:101BA00025632068C16821F01001C160A06BFEF7B9
:101BB00057FFA08DE18D401A81B219E0A08DE18D13
:101BC000401A81B2E08D0028BED00029BCD0D06878
:101BD00020F49070D0602068426922F001024261D6
:101BE00084F83E3025632068C26822F01002C2608B
:101BF0002046FFF7BFFEF8BD05062BD50D0629D5FB
:101C000094F83D002128F6D1A068B0F5805F01D19D
:101C10002069B0B1206A411C2162216800784860C7
:101C2000E08C401E0004000CE084E4D12068C16810
:101C300021F08001C1602068C16841F04001C160AD
:101C4000F8BD206A0088C0F308005060206A801C3C
:101C50002062E5E74006F3D54806F1D5D168204675
:101C600021F04001D16084F83D3000F0D9F9F8BD91
:101C7000C920000870B5040020D0A06933490028AD
:101C8000334A344B20681BD088420AD0904208D097
:101C9000984206D04FF4B6712FA000F067FCA069FF
:101CA000F8B1A069B0F5807F1BD0B0F5007F18D0E7
:101CB000B0F5407F15D040F26D110FE0012070BDEE
:101CC00088420ED090420CD098420AD02E498842C9
:101CD00007D02E49884204D040F271111EA000F0B6
:101CE00045FCA06838B1B0F5805F04D040F27311B4
:101CF00019A000F03BFC94F83D00002520B984F8C1
:101D00003C50204600F044F8242084F83D00206830
:101D1000C16821F40051C160204600F0D5FA206866
:101D2000016921F4904101612068416921F02A0193
:101D300041612068C16841F40051C16025642020E0
:101D400084F83D0084F83E00002070BD003801405A
:101D5000004400400048004053544D33324631782F
:101D6000785F48414C5F4472697665725C53726378
:101D70005C73746D3332663178785F68616C5F755F
:101D80006172742E63000000004C0040005000405F
:101D9000704700002DE9F84F044690F83E009A463F
:101DA00016460D46202853D1FDB1F6B194F83C00FB
:101DB00001284DD0012084F83C0000272764222010
:101DC00084F83E002763FFF77FFCA6858146E68501
:101DD000A0684FF48058404501D1206940B12E469B
:101DE0005FF0000584F83C7027E00120BDE8F88F23
:101DF0000026F7E74B46002220212046CDF800A020
:101E000000F03AFB08B10320F0E726B1A068404596
:101E10001BD038B108E020684068C0F3080025F8FE
:101E2000020B07E0206980B12068406800F07F0065
:101E300006F8010BE08D401EE085E08D0028D9D129
:101E4000202084F83E000020D0E720684068EFE7BB
:101E50000220CBE790F83E30202B0ED159B152B181
:101E600090F83C30012B08D0012380F83C3000234F
:101E7000036300F0C9BA01207047022070470000D8
:101E800070B5114D114C69686078114A00EB402023
:101E90001044491C00F084FB40B10EA0FEF7DAF9B3
:101EA0000020A070BDE8704000F0CEBE6078232115
:101EB000401CB0FBF1F201FB120060706868E16841
:101EC0000844E060ECE70000D3460020000000205A
:101ED000B000002044617461204352432066616970
:101EE0006C6564210A000000704700002DE9F8438A
:101EF000044690F83D001F4616460D4620284CD15A
:101F0000C5B1BEB194F83C00012846D0012084F848
:101F10003C004FF00008C4F84080212084F83D00C8
:101F2000FFF7D2FBA6848146E684A068B0F5805F07
:101F300003D004E00120BDE8F883206928B12E46D3
:101F40005FF0000584F83C800EE00026FAE780216F
:101F5000204600F091FAA0B9AEB116F8010B216845
:101F60004860E08C401EE084E08C4B464FF000025D
:101F700000970028EBD14FF04001204600F07CFA9A
:101F800030B10320D7E735F8020BC0F30800E6E7CD
:101F9000202084F83D000020CDE70220CBE70000A0
:101FA00070B5044690F83D00202830D169B362B383
:101FB00094F83C0001282AD0012084F83C002162DA
:101FC000A284E28400252564212084F83D00636B0F
:101FD00010489862636B1048D862636B0F481863AF
:101FE000606B134645632668606B321DFEF7EEFF9B
:101FF00021686FF04000086084F83C502068416917
:1020000041F080014161002070BD012070BD0220BF
:1020100070BD000097210008C5210008D9200008E4
:1020200000F012BE7047000003490120086003A0C1
:10203000FEF710F9FEE7000014000020486172640A
:10204000204572726F72210A00000000FFF742BB48
:10205000144910B54868144A10F00C03134803D013
:10206000042B01D0082B09D002604968104AC1F343
:102070000311515C0268CA40026010BD4A684B6897
:1020800002F470124FF0020413F4803F04EB92420A
:1020900002D04B689B0301D5064B00E0024B5A432C
:1020A000E2E700000010024000127A002400002045
:1020B0005630000800093D00704700000148FFF756
:1020C000D3BC00003847002010B5406A0021C1850C
:1020D000C184FFF79FFC10BD70B5446A2068406959
:1020E00094F83D10C0F3C0100025212904D118B187
:1020F000E584204600F083F82068406994F83E109B
:10210000C0F38010222904D118B1E585204600F0E3
:102110005EF8206C40F0100020642046FFF77AFC47
:1021200070BD10B50146406A0968096889061BD46C
:102130000021C1850168CA6822F48072CA60016802
:102140004A6922F001024A6101684A6922F04002AC
:102150004A61202180F83E10016B012904D10168F9
:10216000CA6822F01002CA60016B012902D0FFF791
:1021700087FE10BD818DFFF7FDFB10BD10B5406AD5
:10218000016B012902D0FFF7AFFE10BD818D490818
:10219000FFF7F0FB10BD10B50146406A09680968F9
:1021A00089060CD40021C18401684A6922F08002AA
:1021B0004A610068C16841F04001C16010BDFFF78D
:1021C0002FFF10BD10B5406AFFF72CFF10BD01684E
:1021D000CA6822F49072CA6001684A6922F001025A
:1021E0004A61016B012904D10168CA6822F010021A
:1021F000CA60202180F83E10002101637047016809
:10220000CA6822F0C002CA60202180F83D107047E1
:1022100008B590F83E10222901D0022008BD82683E
:102220004FF480539A4201D1016921B1816A9A42E7
:102230001BD04AB10AE00268816A5268C2F3080200
:102240000A80816A891C08E0026972B102685268DA
:1022500002F07F020A70816A491C8162C18D491EA9
:102260000904090CC18503D019E002685268F1E73E
:102270000168CA6822F02002CA600168CA6822F4B4
:102280008072CA6001684A6922F001024A61202115
:1022900080F83E10016B012903D0FFF7F1FD00200B
:1022A00008BD002101630168CA6822F01002CA60FB
:1022B00001680A68D20602D50A6849680091818DD2
:1022C000FFF758FBEBE7000070B504464068404953
:1022D000884204D940F653613EA000F047F9E06817
:1022E00038B1B0F5005F04D040F6546139A000F079
:1022F0003DF9206950B1B0F5806F07D0B0F5C06FDF
:1023000004D040F6556133A000F030F960694FF613
:10231000F371084200D120B940F656612DA000F0BB
:1023200025F920680169E26821F4405111430161F7
:102330002169A0680843616908432168CA6841F2BD
:102340000C639A430243CA6020684169A26921F480
:102350004071114341612B492068884202D1FFF747
:10236000E5FA01E0FFF7D2FA00EBC00101EB001241
:10237000606864218000B2FBF0F3B3FBF1F36FF00F
:1023800018067343B2FBF0F5B2FBF0F605EB8305DC
:10239000322303EB0515B5FBF1F5B6FBF1F605F0BD
:1023A000F00505EB0615B2FBF0F6B2FBF0F0B0FB62
:1023B000F1F06FF01802504306EB800003EB0010C1
:1023C000B0FBF1F0216800F00F002844886070BD78
:1023D00020AA440053544D3332463178785F484147
:1023E0004C5F4472697665725C5372635C73746DA2
:1023F0003332663178785F68616C5F756172742E14
:10240000630000000038014038B5816282850025F4
:10241000134604460564222084F83E00A26B13484C
:102420009062A26B1248D062A26B12481063A06B3C
:102430000A4645632168A06B091DFEF7C7FD2068A9
:1024400001684168009184F83C50C16841F4807192
:10245000C1602068416941F0010141612068416922
:1024600041F040014161002038BD000023210008F7
:102470007D210008D92000082DE9F0419846174633
:102480000E460446069D1DE0681C1BD02DB1FFF7CB
:102490001BF9A0EB0800A84214D92068C16821F4F8
:1024A000D071C1602068416921F0010141612020A3
:1024B00084F83D0084F83E00002084F83C000320AE
:1024C000BDE8F0812068006836EA000004D00020F2
:1024D000B842D9D00020F3E70120F9E70907090E37
:1024E000002804DB00F1E02080F80014704700F0C1
:1024F0000F0000F1E02080F8141D704730380A28E2
:1025000001D2012070470020704700000121034ADA
:102510001160014602A0FDF79DFEFEE714000020B9
:10252000457869746564212072657475726E636F95
:1025300064653D25640A000001B50948006800286B
:1025400009D000984FF0FF330A2805D001226946D0
:102550000448FFF7CBFC08BD022203A1F8E7000006
:1025600014000020F44600200D0A00000122044B54
:102570001A600B460246034903A0FDF76BFEFEE717
:10258000140000204830000825733A2066696C6505
:10259000202573206F6E206C696E652025640A000B
:1025A000F0B50022B1B1027848F280361202012360
:1025B0004FF6FF750CE001D0C45C224300241704E1
:1025C00000D57240641C05EA4202082CF7DB5B1C54
:1025D0008B42F0DD4FEA1220F0BD00002DE9F843F8
:1025E0001A4C206800282ED11948416941F0020197
:1025F00041614069002500F002000090154820600C
:1026000065618027A561C4E903754FF40058102067
:10261000C4F81C80C4E901052046FEF703FC0E4EF9
:102620000C487463666244342838C4E90005656167
:10263000A561C4E90375C4F81C802046A560FEF7B7
:10264000F1FBB4636662BDE8F88300002800002057
:102650000010024058040240384700202DE9F04F96
:102660008BB00026CD22102105A8FDF7D6FF731EE2
:10267000102205A94248FFF739FC42A0FDF7EAFD08
:10268000DFF81491DFF8148100254FF4007A4FF43D
:10269000534B544651464148FDF7C7FF4FF47A73F8
:1026A00022463E493648FFF775FB002041460A5C4A
:1026B000AB2A02D1401CA042F9DBC0F50074042C07
:1026C0003EDB40440A90076817EB090012D05845DA
:1026D00023D133A0FDF7BEFD162C22D31622384895
:1026E0000A99FDF755FF3648162100BFFFF758FF3E
:1026F00070B116E033A0FDF7ADFD062C11D30A989A
:10270000016801918088ADF80800062101A8EDE775
:10271000012133A0FDF79EFD08E0394635A0FDF705
:1027200099FD31462EA0FDF795FD4EB117EB09003E
:102730001ED0584520D100F0D5F80BB0BDE8F08F81
:1027400032A0FDF787FD6D1C052D15D01C4F4FF0F5
:10275000FF34093F08213C607C603846FFF720FFCA
:1027600038722346092239460548FFF7BFFB90E738
:1027700001A800F059F8E0E74FF0FF30DDE7000076
:1027800038470020456E74657220444655206D6FB1
:102790006465210A0000000038CF0FCDB000002092
:1027A0006865616465723D4845414445525F4649EC
:1027B000524D574152455F494E464F0A00000000B6
:1027C000DC4600206865616465723D4845414445CA
:1027D000525F4352435F434F4E4649470A00000051
:1027E0006865616465725F76616C69643D25640A41
:1027F00000000000496E76616C6964206865616460
:1028000065723A20307825780A0000004661696CCC
:10281000656420746F2072656365697665206865FC
:1028200061646572210A0000F0B52B4E87B0741FF9
:10283000D4E90012CDE90012007908B1002000E0CF
:1028400054208DF805003178814229D04FF00820BE
:1028500001254FF00067811400F50060A04202D806
:102860006D1C8D42F8DBFEF77BFD01200021CDE9D8
:10287000021007EBC521CDE9041006A902A8FEF756
:1028800029FC002321460220009AFEF7E9FC1249A8
:102890000023491E0220019AFEF7E2FCFEF7D6FC57
:1028A0000E4D082269462E602046FDF745FE80B198
:1028B0000020686008210948FFF772FE28724FF077
:1028C000FF33092205490648FFF710FB07B0002037
:1028D000F0BD0120EDE7000005480008D3460020C8
:1028E000384700202DE9F04F9B489C4985B000886F
:1028F00001EB802739469AA0FDF7ACFCDFF878821F
:102900009EA04446D8F80410FDF7A4FCD4E90212B6
:102910009DA0521EFDF79EFCA2A02169FDF79AFC26
:10292000217DA6A0FDF796FC62680024A8F1090AA3
:102930004FF0FF36BA4205D9CAF800405546CAF8EA
:1029400004700CE0A24FD8F80810B94215D0A1A02D
:10295000FDF780FCCAF800705546CAF80440864866
:1029600008210938FFF71CFE8349287233460922E3
:1029700009399F48FFF7BAFAE9E0D8F80C0011448A
:10298000C346814203D09BA0FDF764FCDFE03B20FF
:10299000FEF70CFF3A20FEF709FF3420FEF706FF92
:1029A000FFF71CFE9A48A146047087604470816856
:1029B000C16000F049F9FEF7D3FCDBF80C704FF072
:1029C0000064FF22102168467F1EFDF726FEDFF817
:1029D0004482002004F2FF71444503D8414501D3ED
:1029E00005460294A74205D38F4203D8401B401CE2
:1029F000039004E04C1C401CB0F5007FEADB012092
:102A0000CDE900900399681E0A18294682A0FDF7B7
:102A100021FC04A96846FEF75DFB5D4600234146A4
:102A20000220DBF80420FEF71BFC7A492A7D0023F4
:102A3000091D0220FEF714FCDFF8D48155E000BF29
:102A4000CDF81090FEF740FE074640F6AC5B17E06D
:102A5000FEF73AFEC11B594512D974A0FDF7FAFBE7
:102A60006348FEF788FF08B984F802900498401C78
:102A70000490032808D0FEF727FE074600F0E4F88C
:102A8000207861788842E3D020786178884232D01B
:102A9000E968A068A046081A4FF40074A04202D268
:102AA0000446002710E0002798F80010634A01EB65
:102AB000412111443944D8F808000A68C11900239B
:102AC0000220FEF7CDFB3F1DA742EDD398F8001082
:102AD0002322491CB1FBF2F302FB131188F800100A
:102AE000D8F808102144C8F80810E868D8F8081089
:102AF00044468842A4D198F80200444620B140F2EE
:102B0000A1114FA0FFF732FD0E20FEF71FFE0F2090
:102B1000FEF71CFE3420FEF719FEE868A168884223
:102B200013D1A068CAF8000013485446CAF80490AC
:102B300008210938FFF734FD0F4920723346092276
:102B400009392B48FFF7D2F90026FEF77FFB05B0C5
:102B50003046BDE8F08F0000E0F7FF1F00B0FFFF38
:102B6000417661696C61626C6520666C6173683A7C
:102B70002025750A00000000DC46002053697A65B4
:102B80003A2025750A000000416464726573733A47
:102B900020307825303878202D203078253038784E
:102BA0000A000000456E74727920506F696E743AA5
:102BB000203078253038780A0000000043686563CB
:102BC0006B73756D3A203078253032780A0000003A
:102BD00000500008496E76616C6964206669726D08
:102BE000776172652061646472657373210A000005
:102BF00038470020496E636F72726563742066699E
:102C0000726D776172652073697A65210A00000030
:102C10000000002000480008457261736520706163
:102C200067652025647E25640A00000044617461A4
:102C30002074696D656F7574210A0000B000002072
:102C40006D61696E2E63000070B51F4CA1784FF066
:102C5000FF30002937D11D4991F83D10202932D18C
:102C600061782322491CB1FBF2F302FB1311227895
:102C7000914228D01649E268C968891A23D00120F8
:102C8000A070E068124D093D28604FF40070686044
:102C9000814200D269600E4808210938FFF780FCA4
:102CA0000B492872092209390848FFF779F9A888E1
:102CB000401C82B26078074900EB40200144034881
:102CC000FFF7C8F8002070BD000000203847002042
:102CD000DC460020B000002010B509680446012938
:102CE00004D0022902D04FF0FF3010BDFFF724FCC2
:102CF000204610BD2DE9F0412748264E0278311FAD
:102D00002648022A14D0051D044672784FF0FF377A
:102D1000542A10D0224B09684FF0006C1B880A1807
:102D20000CEB83239A4208D91EA0FDF793FA2FE0FB
:102D3000224D2C1FE9E722A006E0FFF731FC317895
:102D40000246914221D126A0FDF784FA2246294667
:102D500027A0FDF77FFA20680221B1EB107FE3D1B5
:102D600028680821B1EB106FDED127A0FDF772FAB9
:102D700028682B4D6860FEF78BF9206880F308887F
:102D8000686880470020BDE8F08126A0FDF762FA60
:102D90003846F8E70448000800F807080050000823
:102DA000E0F7FF1F50726F6772616D20646174619C
:102DB000206572726F72210A00000000042004086E
:102DC00043524320636865636B20686173206265CA
:102DD000656E2064697361626C6564210A0000009D
:102DE00043524320706173736564210A0000000040
:102DF00061707020616464723D25702C206D737069
:102E00003D25700A000000004A756D7020746F2027
:102E10006170706C69636174696F6E2E2E2E0A008A
:102E200000000020435243206661696C65642120E4
:102E3000307825303278213D3078253032780A00DC
:102E40008AB00324FFF704F9FEF74CFC4FF4E1309D
:102E500000F090F8012000F087F82AA0FDF7FAF9B9
:102E60002C4801682CA0FDF7F5F9251F64231022DA
:102E700004A92E48641EFEF78DFF48B9002004A95E
:102E80000A5CAB2A02D1401C1028F9D3102802D0CA
:102E9000002CEBDC2FE00024FFF7E0FB0646FEF7FA
:102EA0005FFA0120CDE90040214CCDE9024008A99C
:102EB0006846FEF70FF90122002321461046FEF76F
:102EC000CFF9FEF7C3F921781AA0FDF7C3F9174C23
:102ED00005E02B46012223491448FEF75BFF2168D9
:102EE0000868C0438006F4D40EB10A24BEE74FF44C
:102EF000FA60FEF7DDF8FFF7FDFEFA20FEF7D8F8DE
:102F00000124B3E753544D333246313078204446E0
:102F1000550A00002400002053797374656D436FD7
:102F20007265436C6F636B3D25750A00384700205E
:102F300000F8070853656E6420616E7920636F6D39
:102F40006D616E6420746F20636F6E74696E756559
:102F50002E2E2E20426F6F74466C61673D25640AE9
:102F600000000000B0000020014908607047000028
:102F7000140000202DE9F0432D49054685B08869ED
:102F800040F004008861886900F0040004908869BA
:102F900040F010008861886900F010000490886992
:102FA00040F480408861886900F480400490C869DA
:102FB00040F40020C861C869022400F40020049095
:102FC0004815CDE90004DFF86C9069464846039443
:102FD000FEF7DAF900266702CDE900764FF0010826
:102FE00069464846CDF80880FEF7CEF9CDE9007471
:102FF0000394114C69462046FEF7C6F9E0148DE8AB
:10300000410169462046FEF7BFF90D480C240B49E3
:103010004461C0E90015FEF72DFE09480949443016
:103020004461C0E90015FEF725FE05B0BDE8F08358
:10303000001002400008014000100140003801402B
:10304000F4460020004C00406173736572745F6643
:1030500061696C656400000000000000000001026E
:1030600003040607080900000000010203043031D0
:10307000323334353637383941424344454640309F
:103080005800303132333435363738396162636451
:103090006566403078000400000800000000000071
:1030A0000002000100001000C830000800000020ED
:1030B000280000006C010008F03000082800002003
:1030C000D84D00008801000800000000000000004A
:1030D00000000000000000000100000000000000EF
:1030E0000100000010000000000000000024F400B7
:020000040800F2
:044804005454545460
:0400000508000131BD
:020000040800F2
:10500000A8D200204551000899640008A163000857
:1050100095640008F95700089F91000800000000FF
:105020000000000000000000000000008789000868
:10503000C55B000800000000316A0008998A00087A
:105040005F5100085F5100085F5100085F51000880
:105050005F5100085F5100085F5100085F51000870
:105060005F5100085F5100085F5100085F51000860
:105070005F5100085F5100085F5100085F51000850
:105080005F5100085F5100085F5100085F51000840
:105090005F5100085F5100085F5100085F51000830
:1050A0005F5100085F5100085F5100085F51000820
:1050B0005F5100085F510008F58C00085F5100083F
:1050C0005F5100085F5100085F5100085F51000800
:1050D0005F510008DD8E00085F5100085F51000835
:1050E0005F5100085F5100085F5100085F510008E0
:1050F0005F5100085F5100085F5100085F510008D0
:105100005F510008C96C00085F5100085F5100083A
:105110005F5100085F5100085F5100085F510008AF
:105120005F5100085F5100085F5100085F5100089F
:10513000DFF80CD000F01AFB00480047C9C3000894
:10514000A8D200200648804706480047FEE7FEE751
:10515000FEE7FEE7FEE7FEE7FEE7FEE7FEE7FEE727
:10516000D98A0008315100082DE9F05F054600207A
:1051700092469B4688460646814640241BE02846C8
:1051800041464746224600F04DFA53465A46C01A59
:10519000914110D311461846224600F034FA2D1AD8
:1051A00067EB01084F4622460120002100F02BFA50
:1051B00017EB00094E41201EA4F10104DFDC484634
:1051C00031462A464346BDE8F09F2DE9F0410024D0
:1051D000061B254671F1000605DA01240027D0EBF5
:1051E000070067EB0101161E73F1000605DA0027C0
:1051F000D2EB0702012567EB0303FFF7B5FF8646F5
:105200000E4617469C46AC4204D00025D0EB050E56
:1052100065EB010624B10020D2EB000760EB030C24
:10522000704631463A466346BDE8F08140EA0103E4
:105230009B0703D009E008C9121F08C0042AFAD24C
:1052400003E011F8013B00F8013B521EF9D2704710
:10525000D2B201E000F8012B491EFBD270470022B8
:10526000F6E710B513460A4604461946FFF7F0FF65
:10527000204610BD30B504460020034600E05B1C0C
:10528000934203D2E05CCD5C401BF8D030BDF0B45B
:1052900080EA0102D40F4200B2EB410F02D2024673
:1052A000084611464A0042D0C30DDDB2C1F3C752D1
:1052B000AD1A202D35DAC1F3160141F4000204B114
:1052C0005242C5F1200602FA06F12A411044B3EB1E
:1052D000D05F23D0C4B1012DA0EBC35009DCF0BCDA
:1052E0004FF0004202EAC352DBB200F5000000F0CA
:1052F000B2B9400000F1807000EBC350A0F18070A3
:1053000040EAD170490009E0490841EAC071A0EBC8
:10531000C35000F50000400800EBC350F0BC00F0A3
:1053200091B96142012202EB4101001BF6E7F0BC9A
:10533000704781F00041AAE780F00040A7E780EACB
:10534000010210B502F00043400022D04A001FD0F5
:10535000010E01EB1261C0F35600C2F3560240F495
:10536000000042F40002A0FB022000047F39140474
:1053700000D0401C50EA124001D44000491EC2B285
:105380000C0604EBD010401C4008802A02D003E039
:10539000002010BD20F00100002900DA0020184391
:1053A00010BD2DE9FE4F81EA030404F0004421F012
:1053B000004100944FF0000B23F0004350EA010439
:1053C0005ED052EA03045BD0C3F30A54C1F30A551A
:1053D0002C44A4F2F3340194A0FB0254C1F3130152
:1053E00041F48011C3F3130343F4801301FB02441F
:1053F00000FB034E840A970A44EA815447EA835724
:10540000A4FB076802958D0A05FB07854FEA932CDC
:1054100004FB0C542705029D4FEA065847EA16374D
:10542000B5EB08056EEB070C870E920E47EA811765
:1054300042EA8312A7FB0201B6EB0B0164EB000406
:105440002B0D43EA0C335E1844EB1C50DA465146F0
:10545000E7FB0201C5F313044FEA0B3343EA14538D
:105460004FEA0432019C43EA0603A4F10C040294BF
:10547000009CCDE900B400F02BF903B0BDE8F08F3B
:1054800000200146F9E72DE9F04D81EA030404F01C
:10549000004B21F0004514464FF0000A23F0004174
:1054A00050EA050220D054EA01021DD0C5F30A5784
:1054B0000246C5F31303C1F31300C1F30A5640F4C7
:1054C000801543F48013A7EB0608101BD64608F29C
:1054D000FD3873EB050002D308F1010801E09218D2
:1054E0005B41B8F1000F03DA00200146BDE8F08D02
:1054F00000204FF48011064684460EE0171B73EB24
:10550000050705D3121B63EB050306434CEA010CA8
:1055100049084FEA300092185B4150EA0107EDD18B
:1055200052EA030012D082EA040083EA050108432C
:1055300005D0101BAB4106D20122002306E0002259
:105540004FF0004302E06FF0010253101AEB060027
:105550004CEB085110EB0A0041EB0B01BDE8F04D9C
:1055600000F0A7B8C10F80EAE0700844CA0796238C
:10557000002100F070B896230022114600F06BB8AD
:1055800020F00040C10DC0F3160040F400007F2958
:1055900001DA00207047962903DCC1F19601C8406A
:1055A000704796398840704700F0004230F0004064
:1055B0000AD0C10D01F56071C0F3160042EA015135
:1055C000C20840071143704700200146704701F0B0
:1055D000004330B421F0004150EA010206D00A0D28
:1055E000A2F56072C1F31301002A02DC30BC002076
:1055F0007047440F44EAC104C100E01830BC00EB1E
:10560000C25000F01FB8202A04DB203A00FA02F151
:10561000002070479140C2F1200320FA03F31943A0
:1056200090407047202A04DB203A21FA02F0002142
:10563000704721FA02F3D040C2F1200291400843A2
:10564000194670470029A8BF7047401C490008BF91
:1056500020F00100704710B4B0FA80FC00FA0CF0A2
:1056600050EA010404BF10BC704749B1CCF12004DA
:1056700021FA04F411FA0CF118BF01212143084367
:10568000A3EB0C01CB1D4FEA00614FEA102042BF93
:10569000002010BC704700EBC35010440029A4BF89
:1056A00010BC7047401C490008BF20F0010010BC2E
:1056B000704710B5141E73F1000408DA401C41F164
:1056C000000192185B411A4301D120F0010010BD86
:1056D0002DE9F04D92469B4611B1B1FA81F202E0FC
:1056E000B0FA80F220329046FFF78DFF04460F4655
:1056F00040EA0A0041EA0B0153465A46084313D0D8
:10570000114653EA010019D0C8F140025046FFF794
:1057100089FF05460E46504659464246FFF773FF3D
:10572000084305D0012004E020463946BDE8F08D4D
:105730000020054346EAE0762C4337430A98630588
:10574000E40AA0EB08000022FD0A44EA47540A30AC
:1057500002D500200146E9E7010510196941DDE99C
:10576000084500196941BDE8F04DA2E7064C074D18
:1057700006E0E06840F0010394E807009847103421
:10578000AC42F6D3FFF7D8FCBC810308DC810308E8
:10579000F0B5ADF5157D0446214611A003F002FDDC
:1057A000122211A1684605F0AFF9054655B9DDE9A9
:1057B00004633246684604F074FF054615B1684636
:1057C00004F0A9FE2146684605F0FCFA09A16846E6
:1057D00005F0F8FA684604F09EFE0DF5157DF0BD63
:1057E00025730D0A000000006C6F6766696C652EFA
:1057F00074787400200A000000BFFEE770B504460C
:105800000225B4F5167F01DA20250AE0B4F5165F0B
:1058100001DD012505E04FF4967094FBF0F0C0F136
:105820002005284600F072FF70BD70B500254FF4CA
:10583000803404E0802001F033FA00B103E020005E
:10584000A4F10104F6D100BF0CB9032070BD40F2F1
:10585000FF5001F0DFF92846F8E7000070B5044674
:1058600005E01548456B05F0450000B100E0F8E79C
:1058700000BF042001F014FA20B1042001F0CAF99D
:10588000032070BD012001F00BFA20B1012001F0CE
:10589000C1F90120F5E708480069A04201D01020B5
:1058A000EFE740F2FF500449886308464069082149
:1058B0000840C0B2E5E700000080014070B5002656
:1058C0004FF4803505E01148446B04F0450000B109
:1058D00003E02800A5F10105F5D100BF15B104F0E2
:1058E000040028B10326042001F094F9304670BD6D
:1058F000012001F0D5F918B10126012001F08AF943
:1059000040F2FF5001F086F93046F0E70080014098
:1059100010B505E00B48446B04F0450000B100E011
:10592000F8E700BF042001F0BBF920B1042001F02A
:1059300071F9032010BD40F2FF5001F06BF9002017
:10594000F8E70000008001402DE9F04105460E46D1
:105950004FF0000805E01F48476B07F0450000B115
:1059600000E0F8E700BF042001F09AF928B1042014
:1059700001F050F90320BDE8F081012001F090F919
:1059800020B1012001F046F90120F4E71148006937
:10599000A84201D01020EEE740F2FF5001F03AF9A2
:1059A0000C48446904F4604018B9200C308040462B
:1059B000E1E704F4005008B11320DCE704F4804070
:1059C00008B11020D7E704F4004008B10F20D2E757
:1059D0004046D0E70080014070B500264FF4803586
:1059E00005E00F48446B04F0450000B103E02800D7
:1059F000A5F10105F5D100BF15B104F0040028B1EF
:105A00000326042001F006F9304670BD04F0400082
:105A100018B10026402001F0FDF83046F5E70000FF
:105A20000080014021B1026842F00102026004E0FE
:105A300002684FF6FE731A400260704701684FF625
:105A4000FE72114001600021016041608160C1600F
:105A50004B49884208D14A490839496841F00F0149
:105A6000474A083A51608AE045491431884208D1D2
:105A700043490839496841F0F001414A083A516008
:105A80007DE03F492831884208D13D4908394968BD
:105A900041F470613A4A083A516070E038493C314B
:105AA000884208D136490839496841F47041344A7E
:105AB000083A516063E032495031884208D1304998
:105AC0000839496841F470212D4A083A516056E07E
:105AD0002B496431884208D129490839496841F481
:105AE0007001274A083A516049E0254978318842D7
:105AF00008D123490839496841F07061204A083AC1
:105B000051603CE01F49884206D1011F096841F0FD
:105B10000F01021F116032E01A491431884208D186
:105B20001849091F096841F0F001164A121F116057
:105B300025E014492831884208D11249091F096813
:105B400041F470610F4A121F116018E00D493C3199
:105B5000884208D10B49091F096841F47041094A7C
:105B6000121F11600BE007495031884207D10549E7
:105B7000091F096841F47021024A121F1160704721
:105B8000080002400804024010B50022026847F6EF
:105B9000F0739A430C6A8B6823430C6923434C6966
:105BA00023438C692343CC6923434C6A23438C6A87
:105BB00023431A430260CB6843600B6883604B68E1
:105BC000C36010BD7047000010B50446214610A008
:105BD00003F0E8FA240300F037F900F0CFF80020D2
:105BE0000D490860202002F0CBFDC4F3074002F00D
:105BF000C7FDC4F3072002F0C3FDE0B202F0C0FD10
:105C000001200649C1F8B00100F0B8F810BD00004D
:105C100066653A25780D0A00B08121420080214254
:105C200008B501214FF4847000F024FF4FF4805038
:105C3000ADF8000010208DF8030003208DF802005D
:105C40006946124800F0F4FA4FF480510F4800F012
:105C50007AFB8020ADF8000069460D4800F0E8FAB4
:105C600080210B4800F06FFB01200A49086002F018
:105C700041FD002002F0A0FD00F046F80649088032
:105C80000846018805A003F08DFA08BD000C01400C
:105C900000200140B081214214000020CAB9D3C3C2
:105CA000B5C4464C415348D0BEC6AC4944CAC7A34C
:105CB000BA25580D0A0000002DE9F04106460C46B1
:105CC000174600200F490860032002F059FDC4F375
:105CD000074002F055FDC4F3072002F051FDE0B289
:105CE00002F04EFD002505E0FF2002F049FD705551
:105CF000681C85B2BD42F7DB012002490860BDE89F
:105D0000F0810000B081214210B5002400200E492E
:105D10000860902002F034FD002002F031FD0020E8
:105D200002F02EFD002002F02BFDFF2002F028FDE6
:105D300044EA0024FF2002F023FD0443012003492C
:105D4000C1F8B001204610BDB0812142008021423F
:105D500010B50024002007490860052002F010FD5E
:105D6000FF2002F00DFD044601200349C1F8B001F7
:105D7000204610BDB08121420080214210B500BFF5
:105D8000FFF7E6FF00F001000028F9D110BD000088
:105D90002DE9F05F81460F461646DFF8A8B04FEABE
:105DA0001738C7F30B0ACAF58054A64200DC344604
:105DB00044E04FEA08314FF480525846FFF77CFF29
:105DC000002508E00AEB05001BF80000FF2800D0C2
:105DD00003E0681C85B2A542F4DB00BFA54216DAD9
:105DE0004046FFF7F1FE002507E019F8050005EB36
:105DF0000A010BF80100681C85B2A542F5DB4FEAE9
:105E000008314FF48052584600F02EF804E0224644
:105E10003946484600F028F8A64200D10FE008F1C4
:105E200001084FF0000AA1442744301B86B2B6F5A2
:105E3000805F02DD4FF4805400E03446B9E700BFD4
:105E4000BDE8F09F5C04002010B500200449086004
:105E5000062002F095FC01200249C1F8B00110BDF6
:105E6000B0812142008021422DE9F04107460E46D3
:105E70001446F0B2C0F58075AC4200DC254612E055
:105E80002A463146384600F013F8AC4200D10BE008
:105E90002F442E44601B84B2B4F5807F02DD4FF4A2
:105EA000807500E02546EBE700BFBDE8F08100000B
:105EB0002DE9F04106460C461746FFF7C5FF0020C6
:105EC0000F490860022002F05BFCC4F3074002F0B7
:105ED00057FCC4F3072002F053FCE0B202F050FC80
:105EE000002504E0705D02F04BFC681C85B2BD42E9
:105EF000F8DB012002490860FFF740FFBDE8F081B0
:105F0000B081214210B500240EE04FF40D71002045
:105F100006F006FD184941F82400084650F8240010
:105F200000B903E0601CC4B2042CEEDB00BF4FF4E8
:105F30001471002006F0F4FC104908604FF414714D
:105F4000002006F0EDFC0E4908604FF400710020BF
:105F500006F0E6FC0B490860042C0AD107480068EB
:105F600038B10748006820B10846006808B1002031
:105F700010BD0120FCE7000030CD002044000020CF
:105F8000480000205400002030B5044604254FF49A
:105F9000302000F06FF80546042D17D10C48006939
:105FA00040F002000A49086108464461006940F077
:105FB000400008614FF4302000F05CF805460448CA
:105FC000006941F6FD71084001490861284630BD6D
:105FD0000020024004200B49C96801F0010109B109
:105FE00001200EE00749C96801F0040109B102204F
:105FF00007E00449C96801F0100109B1032000E07D
:1060000004207047002002400348006940F08000EF
:1060100001490861704700000020024070B5044645
:106020000D460426F00200F025F80646042E11D194
:106030000948006940F00100074908612580F00225
:1060400000F018F806460448006941F6FE71084061
:1060500001490861304670BD0020024002480349F2
:1060600048600348486070472301674500200240AC
:10607000AB89EFCD00B502460423FFF7ABFF034623
:1060800003E0FFF7A7FF0346521E012B01D1002AB0
:10609000F7D102B90523184600BD00002DE9FC41E7
:1060A00007460D460026002400200090019008209D
:1060B0005B49086010204860402088600020C8606C
:1060C0004FF480600861084600F020FE1020FFF7C2
:1060D000C5FB044614B12046BDE8FC815148008848
:1060E00000044F4908603720486040208860002045
:1060F000C8604FF480600861084600F007FE372052
:10610000FFF7ACFB04460CB12046E5E74FF0FF304B
:106110004549086008204860302088600220C86037
:106120000020086101204861084600F08FFD002032
:106130003B49086033204860402088600020C860E8
:106140004FF480600861084600F0E0FD3320FFF75F
:1061500085FB04460CB12046BEE70CE04FF400106E
:1061600000F09EFD38B100F0CBFD4DF82600761C06
:10617000022E00D306E02D48406B40F22A61084011
:106180000028EBD000BF082000F08AFD20B10820D5
:1061900000F040FD04209FE7022000F081FD20B1C7
:1061A000022000F037FD022096E7202000F078FD65
:1061B00020B1202000F02EFD06208DE74FF4007066
:1061C00000F06EFD28B14FF4007000F023FD0720B1
:1061D00082E740F2FF5000F01DFD00980006009994
:1061E00001F47F4140EA0120009901F47F0140EA77
:1061F0001120009940EA1160686001980006019939
:1062000001F47F4140EA0120019901F47F0140EA55
:106210001120019940EA1160286020465CE70000E7
:10622000781400201C0000208C1400200080014005
:106230002DE9F0410246002500260020002300241D
:10624000002791F803C00CF00F0591F803C00CF083
:10625000100CBCF1000F03D091F802C04CEA050508
:1062600091F800C0BCF1000F31D0146800202BE081
:106270004FF0010C0CFA00F3B1F800C00CEA030671
:106280009E4220D183004FF00F0C0CFA03F7BC4361
:1062900005FA03FC4CEA040491F803C0BCF1280F92
:1062A00006D14FF0010C0CFA00FCC2F814C00AE051
:1062B00091F803C0BCF1480F05D14FF0010C0CFA66
:1062C00000FCC2F810C0401C0828D1D31460B1F8FB
:1062D00000C0BCF1FF0F34DD546800202EE000F157
:1062E000080C4FF0010808FA0CF3B1F800C00CEAF2
:1062F00003069E4221D183004FF00F0C0CFA03F7E6
:10630000BC4305FA03FC4CEA040491F803C0BCF159
:10631000280F05D100F1080C08FA0CF8C2F8148017
:1063200091F803C0BCF1480F07D100F1080C4FF001
:10633000010808FA0CF8C2F81080401C0828CED3D7
:106340005460BDE8F081016170470AB1016100E06D
:106350004161704710B5074802F0FEFC401C064939
:1063600091FBF0F4034802F0E0FC401C94FBF0F0D9
:1063700010BD00000004004000A24A0410B5074808
:1063800002F0D6FC401C642100FB01F4034802F03B
:10639000CCFC401C94FBF0F010BD00000004004059
:1063A00000BFFEE772B6704762B670471CB5044680
:1063B00000200190009021480088000420490860D6
:1063C0000D204860402088600020C8604FF4806045
:1063D0000861084600F09AFC1A48406B009002E001
:1063E0001848406B0090009800F045000028F7D056
:1063F000012000F055FC20B1012000F00BFC012031
:106400001CBD042000F04CFC20B1042000F002FC74
:106410000320F5E70B4800690D2801D01020EFE7B5
:1064200040F2FF5000F0F6FB0648406901900198E9
:10643000C0F3432020700020E2E700001C00002091
:10644000781400200080014008B50121482000F0A8
:1064500011FB2020ADF8000010208DF80300032070
:106460008DF8020069460948FFF7E2FE202107483F
:10647000FFF769FF2020ADF8000069460448FFF7E8
:10648000D7FE20210248FFF75EFF08BD000C014047
:106490000018014000BFFEE77047000070B5002102
:1064A00000230F22C47804B3154C246804F4E0647C
:1064B000C4F5E064210AC1F10403CA40447804FA37
:1064C00003F184781440214309010E4C0678A1554C
:1064D000047804F01F050124AC4005786D11AD006F
:1064E00005F1E025C5F8004109E0047804F01F0536
:1064F0000124AC40044D0678761145F8264070BD65
:106500000CED00E000E400E080E100E0024901431E
:10651000024A1160704700000000FA050CED00E02F
:1065200070B500240EE00021204600F001FA00259D
:1065300004E0002000F06CFA681CC5B2802DF8DB86
:10654000601CC4B2082CEEDB70BD0000002006E029
:10655000044901EBC00100220A604A60401C802807
:10656000F6DB704720170020F0B5144600267F2880
:1065700001DC3F2900DDF0BD0B46CF1701EB57775B
:10658000C7F3C702CF1701EB5777FF10A1EBC7077F
:10659000FDB20123AB40DEB24CB10A4B03EBC003AA
:1065A0009B5C3343074F07EBC007BB5408E0054B28
:1065B00003EBC0039B5CB343024F07EBC007BB5424
:1065C00000BFD8E7201700202DE9FF4F8FB082468B
:1065D0008846934600200C90ABEB0A051298A0EB7E
:1065E0000809CDF838A0CDF83480002D01DD012652
:1065F00005E00DB9002602E04FF0FF366D42B9F11B
:10660000000F01DD012708E0B9F1000F01D10027DB
:1066100003E04FF0FF37C9F1000986B9002409E013
:106620000D9A04FB0722D1B20E9AD0B20122FFF7D5
:106630009BFF641C09F101008442F1D960E07FB93D
:10664000002409E00D9AD1B20E9A04FB0622D0B2C2
:106650000122FFF789FF641C681C8442F2D94FE0D5
:106660005046FEF788FF04905846FEF784FF0390DB
:106670000499FEF75EFE0590FEF796FFCDE908014E
:106680004046FEF778FF02901298FEF774FF0190E3
:106690000299FEF74EFE0390FEF786FF00221A4B8A
:1066A000CDE90401FEF77DFECDE90601DDE9082311
:1066B000FEF7E9FECDE90A01FEF789FF0C90002400
:1066C0001BE02046FEF757FF07900C99FEF737FEB8
:1066D00009900D98FEF746FF08900999FEF7D7FD3F
:1066E0000A90FEF74DFFC0B20B900E992144C8B23C
:1066F00001220B99FFF738FF641C681C8442E0D923
:1067000013B0BDE8F08F00000000F03F70B5044604
:1067100000251DE02A19382319462846FFF754FFA3
:106720002A19281920233821FFF74EFF29190A19A1
:10673000281920231946FFF747FF29190A19291993
:10674000081938232021FFF73FFF022000FB0455E2
:10675000802DDFDB70BD000008B50121082000F0AE
:1067600089F914208DF8030003208DF80200012020
:10677000ADF8000069460A48FFF75AFD0220ADF85F
:10678000000069460648FFF753FD01221146044800
:10679000FFF7DBFD012202210148FFF7D6FD08BD0E
:1067A0000010014070B50546002413E08020204110
:1067B00000EA050202210E48FFF7C7FD012211463B
:1067C0000B48FFF7C2FD002201210948FFF7BDFD7C
:1067D000601CC4B2082CE9DB012211460448FFF713
:1067E000B4FD002201210248FFF7AFFD70BD00009B
:1067F0000010014010B5012202210948FFF7A5FD54
:10680000012211460648FFF7A0FD0022022104489C
:10681000FFF79BFD002201210148FFF796FD10BD07
:106820000010014010B5002202210748FFF78DFD3E
:10683000012211460448FFF788FD01220221024887
:10684000FFF783FD10BD00000010014070B500246B
:1068500006E0002500E06D1CB5F57A7FFBD3641CD3
:10686000B4F57A7FF5D3FFF777FFAE2000F0C0F8DC
:10687000D52000F0BDF8802000F0BAF8A82000F084
:10688000B7F83F2000F0B4F8D32000F0B1F80020B2
:1068900000F0AEF8402000F0ABF8A12000F0A8F81E
:1068A000C82000F0A5F8DA2000F0A2F8122000F0CD
:1068B0009FF8812000F09CF8CF2000F099F8D920B3
:1068C00000F096F8F12000F093F8DB2000F090F84B
:1068D000302000F08DF8A42000F08AF8A62000F007
:1068E00087F88D2000F084F8142000F081F8AF20A4
:1068F00000F07EF8FFF714FE70BD000070B50024B4
:1069000011E00021204600F013F8002507E00749B8
:1069100001EBC501085D00F07BF8681CC5B2802D55
:10692000F5DB601CC4B2082CEBDB70BD2017002027
:1069300070B505460C4645F0B00000F059F810213E
:1069400041EA141000F054F804F00F0000F050F881
:1069500070BD00002DE9F04105460E461746721E37
:10696000D206110E6A1E5206100EFFF7E1FF002438
:1069700009E0A7F12001134A02EB0111085D00F0C4
:1069800047F8601CC4B2082CF3DB721ED206110E4D
:106990006A1E012303EB4202D0B2FFF7C9FF0024B5
:1069A0000BE0A7F12001074A02EB011204F10801F4
:1069B000505C00F02DF8601CC4B2082CF1DBBDE87F
:1069C000F0810000BECF00082DE9F04107460E46D9
:1069D0001546002407E02A5D3019C1B23846FFF79A
:1069E000B9FF601CC4B2285D0028F4D1BDE8F08175
:1069F00010B50446FFF7FEFE7820FFF7D3FE002017
:106A0000FFF7D0FE2046FFF7CDFEFFF70BFF10BDCE
:106A100010B50446FFF7EEFE7820FFF7C3FE4020D6
:106A2000FFF7C0FE2046FFF7BDFEFFF7FBFE10BDDF
:106A30007047000029B1064A52690243044B5A616B
:106A400004E0034A52698243014B5A6170470000D7
:106A50000010024029B1064AD2690243044BDA61B0
:106A600004E0034AD2698243014BDA6170470000B7
:106A70000010024029B1064A92690243044B9A6110
:106A800004E0034A92698243014B9A617047000017
:106A90000010024030B500210022002400232D4DBB
:106AA0006D6805F00C0121B1042905D0082923D116
:106AB00005E0294D056022E0274D05601FE0254DCA
:106AC0006D6805F47012234D6D6805F4803402255D
:106AD00005EB92421CB9214D554305600BE01D4D5D
:106AE0006D6805F400351DB11C4D5543056002E08D
:106AF000194D5543056002E0174D056000BF00BF0A
:106B0000144D6D6805F0F0010909154D6B5C0568C1
:106B1000DD4045600F4D6D6805F4E061090A104DD8
:106B20006B5C4568DD4085600A4D6D6805F4605119
:106B3000C90A0B4D6B5C4568DD40C560054D6D684D
:106B400005F44041890B074D6B5CC568B5FBF3F557
:106B5000056130BD0010024000127A0000093D00BE
:106B600000000020100000207CB505460024002015
:106B70000090019000260DB1022600E00026224878
:106B8000406900F0007008B10E207CBD1F490988E3
:106B900088B26946FFF782FA04460CB12046F4E752
:106BA000019800F4802060B3184800880004184958
:106BB000086037204860402088600020C8604FF49B
:106BC00080600861084600F0A1F83720FEF746FE15
:106BD00004460CB12046D8E70D48066006200C4953
:106BE0004860402088600020C8604FF480600861E1
:106BF000084600F08BF80620FEF730FE04462046DB
:106C0000C3E72520C1E70000008001401C000020F0
:106C1000781400200149886370470000008001401B
:106C20000149086070470000A00030420146034A55
:106C3000506820F0FF00084350607047008001401A
:106C400001490860704700008C05304200210A4B62
:106C500002685A6242689A621A46D16A21F0F701C4
:106C6000D0E902231A4303691A4343691A431143C3
:106C7000014AD162704700000080014000200649AF
:106C8000086048608860C86048628862C8620348DB
:106C900088630020C863704700800140FF07C00080
:106CA00001460020034A526B0A400AB1012000E06D
:106CB00000207047008001400248006800F0030097
:106CC000704700000080014010B500F07FFD10BD4E
:106CD00000210A4A516847F6FF629143027D8368AA
:106CE0001A4343681A43C3681A4303681A43036983
:106CF0001A431143014A516070470000008001406F
:106D00000148006870470000808001400021094B65
:106D100002689A601A46D1686FF30A01D0E901232C
:106D20001A43C3681A4303691A431143014AD160E5
:106D300070470000008001400549096821F0030107
:106D4000034A116011460968014311607047000051
:106D500000800140014908607047000080800140C8
:106D600070B58CB006460C46154601210220FFF78F
:106D700061FE1348FEF762FE00211148FEF752FE45
:106D80001048019002960395A008049000200590F9
:106D900080200690800007908000089000200990D5
:106DA0004FF400500A9000200B9001A90448FEF710
:106DB000EBFE00210248FEF735FE0CB070BD00006E
:106DC000440402408080014070B504460025164806
:106DD0000078032801D1272070BD1348007838B10E
:106DE00011480078012803D00F480078022818D1F4
:106DF000022C01D32720EFE7E0B2FFF7B5FE0546EE
:106E00007DB90A48406820F4C050084948600846E7
:106E10004068A1B240EAC120044948600846406881
:106E200048602846D8E70000180000200080014094
:106E3000F0B5ADF5177D06460020019000240090C6
:106E4000012239A102A803F05FFE07464FB139467F
:106E500037A002F0A7F939A002F0A4F90DF5177DCB
:106E6000F0BD022E01D1424D00E0424D42A002F0A1
:106E700099F900BF01AB4FF40072494902A804F030
:106E8000DBF8074637B147A002F08CF902A803F0FF
:106E900042FBE3E7291951A002F084F928194FF4C5
:106EA00080723F4901F0E8FC28194FF48072514983
:106EB00001F0CEFC4FF400724E493948FEF7DAF982
:106EC00038B102A803F027FB21464BA002F06AF973
:106ED000C4E74FF400713248FEF7C1F94FF4007176
:106EE0004448FEF7BCF9291952A002F05BF904F5F9
:106EF000007401980028BDD1022E01D1012000E0CC
:106F000002200090BDF8001050A002F04BF90122C1
:106F100069465C4801F0B0FC02A803F0FCFA02A04C
:106F200004F065FA00BF99E76170702E62696E0027
:106F3000726574203D2025640D0A000053442063CF
:106F40006172643A206E6F20657869737420617095
:106F5000702E62696E2E206E6F7420646F206F66D3
:106F6000666C696E652075706772616465210000EA
:106F700000500008002004085374617274206F668A
:106F8000666C696E6520757067726164652E20702D
:106F90006C6561736520776169742E2E2E0D0A0071
:106FA0005C0000204F66666C696E65204657205570
:106FB000706772616465206661696C65643A20522D
:106FC00065616420736463617264206170702E6215
:106FD000696E206572726F722E0D0A0055706772AD
:106FE000616465206164647220257020737461722D
:106FF000740D0A005C0200204F66666C696E6520A5
:1070000046572055706772616465206661696C65DA
:10701000643A20577269746520666C6173682066F3
:1070200061696C65642E206F66667365743D2564C6
:107030000D0A0000557067726164652061646472B6
:1070400020257020656E640D0A0000004F66666C96
:10705000696E6520465720557067726164652073BC
:1070600075636365737321212E206E6578742062C9
:107070006F6F742066726F6D2061707025640D0AE9
:107080000000000000F80708F0B5014600200022CB
:10709000BE4B1B7881F85630BD4B1B88A1F854308D
:1070A000BC4B1B681A0E93090B70C2F383034B7021
:1070B00002F003038B70B74B1B68C3F30742CA701F
:1070C000B44B1B88C3F307220A71B24B1A784A717A
:1070D0005B681A0E1301CB80AE4B5B68C3F30742AB
:1070E000CB8843EA1213CB8002F00F030B72A94B3B
:1070F0009B88C3F30722D3094B72C2F380138B72B0
:10710000C2F34013CB72C2F300130B7300234B7313
:107110009E4B1B783BB19D4B1B78012B03D09B4BA7
:107120001B78032B4FD193071B0D0B61994B1A79D9
:107130000B6943EA82030B61964B9B681A0E0B693D
:1071400043EA92130B61C2F3C2030B7502F007030B
:107150004B75904B9B68C3F3074253098B75C2F381
:107160008203CB7593075B0F0B768A4B1B89C3F3A6
:1071700007220B7E43EAD2130B760B695B1C0024BB
:10718000C1E912340B7E9B1C012404FA03F3DC17C3
:10719000D1E91256A5FB037C06FB03C305FB0433B0
:1071A000C1E912730C7A0123A3400B650024D1E9D5
:1071B00012650B6DA6FB037C05FB03C306FB0433C2
:1071C000C1E912732EE0714B1B78022B2AD1714B4F
:1071D0001A7993069B0A0B616E4B9B681A0E0B691A
:1071E00043EA02230B616B4B9B68C3F307420B69B5
:1071F00013430B61674B1B89C3F307220B695B1CAD
:107200004FF40074A3FB04464FF480630025A4FBF5
:10721000037C06FB03C304FB0533C1E912734FF47F
:1072200000730B65C2F3801301F8193F93065B0EE0
:107230004B70584B1A7A4B7843EAD2134B7002F0DA
:107240007F038B70534BDB681A0ED309CB70C2F3EC
:1072500041130B71C2F382034B7193071B0F8B71A8
:107260004C4BDB68C3F307428B7943EA92138B7173
:10727000C2F34013CB7100230B7202F001034B7277
:10728000444B9B89C3F30722D3098B72C2F380134B
:10729000CB72C2F340130B73C2F300134B73C2F3F0
:1072A00081038B7302F00303CB733A4B1A7B5308B1
:1072B0000B7401234B74384B1B681A0ECA741939AE
:1072C000354B1B68C3F307421402CC85324B1B8835
:1072D000C3F30722CB8D1343CB852F4B1A781406AB
:1072E0000C635B681A0E0B6B43EA02440C632A4B77
:1072F0005B68C3F307420B6B43EA02240C63264B23
:107300009B88C3F307220B6B13430B63224B1A7941
:1073100034235A54204B9B681A0E35235A541E4B63
:107320009B68C3F3074214068C631B4B1B89C3F392
:1073300007228B6B43EA02448C63174B1A7A8B6BE0
:1073400043EA02248C63144BDB681A0E8B6B1343E5
:107350008B63114BDB68C3F307423C235B5C43EA5E
:1073600012143C235C5413071C0DCC870A4B9B89D9
:10737000C3F30722CB8F1343CB87074B1A7B5408E9
:1073800040235C54012441235C54F0BD18000020CC
:107390001C000020A4140020B41400207CB500259B
:1073A000002401213020FFF765FB012140F202405B
:1073B000FFF740FB4FF4F850ADF8000018208DF8AF
:1073C000030003208DF8020069463048FEF730FFC5
:1073D0000420ADF8000018208DF8030003208DF87C
:1073E000020069462A48FEF723FF8020ADF800001E
:1073F00048208DF8030003208DF8020069462448D8
:10740000FEF716FFFFF73AFC31208DF8040000204C
:107410008DF805008DF8060001208DF8070001A801
:10742000FFF73CF800F0E4F8044614B900F036F831
:1074300004461CB91748FFF727FE044634B915491E
:10744000B1F85410080400F04BFD04461CB90020AC
:10745000FFF7BAFC04461CB10F480078032812D18C
:107460000C4890F8560020B10A4890F856000128C0
:1074700001D10A2500E004252846FFF7D7FB0020AC
:1074800000F046FD044620467CBD0000001001408F
:1074900000140140C81400201800002038B5002452
:1074A00001200090FFF708FC08B9252038BD4A48A4
:1074B0000078042821D00020484908600220486054
:1074C000C02088600020C8604FF4806008610846D2
:1074D000FFF71CFCFEF7F2F904460CB12046E5E785
:1074E0003F4840693F4908603D48806948603C48E2
:1074F000C06988603A48006AC8603748007858B167
:1075000035480078012807D033480078062803D092
:1075100031480078022816D1002030490860032045
:107520004860402088600020C8604FF48060086197
:107530000846FFF7EBFB69460320FEF705FA044611
:107540000CB12046B2E724480078032816D1BDF8D4
:107550000000000421490860032048604020886042
:107560000020C8604FF4806008610846FFF7CEFB3A
:10757000FEF7A4F904460CB1204697E716480078B8
:10758000042827D0BDF8000017490860BDF80000A6
:1075900000041249086009204860C020886000206B
:1075A000C8604FF4806008610846FFF7AFFBFEF744
:1075B00085F904460CB1204678E7094840690B4933
:1075C00008600748806948600548C06988600448C9
:1075D000006AC860002069E71800002078140020C5
:1075E00000800140B41400201C000020A4140020DE
:1075F0002DE9F0470027002400260025A046A146DB
:10760000B2206C4908750020086048608860C86036
:1076100008610846FFF75CFB0320FFF78DFB0120A4
:10762000FFF7FEFA00BF12E00020634908604860DF
:107630008860C8604FF4806008610846FFF766FB09
:10764000FEF7F3F8044604B903E0781CC7B24A2FEA
:10765000EADB00BF14B12046BDE8F0874FF4D570D7
:107660005549086008204860402088600020C860B4
:107670004FF4806008610846FFF748FBFEF7ACF95D
:10768000044624B901204D4908704FF0804900207C
:107690004949086037204860402088600020C86061
:1076A0004FF4806008610846FFF730FB3720FEF793
:1076B000D5F80446002C4BD134E000203E49086048
:1076C00037204860402088600020C8604FF4806008
:1076D00008610846FFF71AFB3720FEF7BFF804469B
:1076E0000CB12046B8E7364849EA00003249086044
:1076F00029204860402088600020C8604FF48060E6
:1077000008610846FFF702FBFEF702F904460CB1D8
:107710002046A1E72B484669012080EAD67080F018
:1077200001086D1CB8F1000F03D14FF6FF708542C0
:10773000C3D34FF6FF70854202D31B2420468BE74C
:1077400006F08040060032D002201C4908702EE06E
:107750001CE01D48184908600120486040208860EE
:107760000020C8604FF4806008610846FFF7CEFA39
:10777000FEF7CEF804460CB120466DE71148466985
:10778000012080EAD67080F001086D1CB8F1000F6E
:1077900003D14FF6FF708542DBD34FF6FF70854271
:1077A00002D31B24204657E70320044908702046D3
:1077B00052E7000060140020781400201800002018
:1077C00000001080008001400080FF8010B5494813
:1077D000406B00F4807070B347480078012814D1E2
:1077E0000020464908600C20486040208860002046
:1077F000C8604FF4806008610846FFF787FA0C20E4
:10780000FEF72CF83E49087002E000203C49087061
:107810003848806B40F48070364988630846C06BF6
:107820004CF23A3188433349C86301203549087026
:107830003348007810BDFFE70220FFF731FA68B146
:107840000220FFF7E7F92B48C06B4CF23A3188432E
:107850002849C86302202A490870EBE70820FFF78F
:107860001FFA68B10820FFF7D5F92248C06B4CF227
:107870003A3188431F49C863042021490870D9E779
:107880002020FFF70DFA68B12020FFF7C3F919484F
:10789000C06B4CF23A3188431649C8630620184938
:1078A0000870C7E71020FFF7FBF968B11020FFF759
:1078B000B1F91048C06B4CF23A3188430D49C863A6
:1078C00005200F490870B5E74FF40070FFF7E8F99D
:1078D00070B14FF40070FFF79DF90648C06B4CF291
:1078E0003A3188430349C863072005490870A1E776
:1078F00000209FE700800140210000207814002034
:1079000022000020230000202DE9F84F8146174671
:1079100098460A9C4FF0000AD3464D464FF0FF367A
:10792000B9F1000F02D12620BDE8F88F002082496E
:10793000C86282480078022805D10402780A40EA29
:10794000C8574FEA682800207D4988604860401E7B
:107950000860012048610020C86008610846FFF700
:1079600075F97548406900F0007008B10E20DBE73A
:10797000002C21DDB4F5006F1EDC601E2040D8B95C
:10798000204601F0C3FE00906E48046010206D494F
:107990004860402088600020C8604FF48060086123
:1079A0000846FFF7B3F91020FDF758FF8246BAF1F9
:1079B000000F03D05046B7E72620B5E70098000136
:1079C0005F498860084644604FF0FF30086001203E
