:020000040800F2
:10500000C0060020E1510008E9510008D1680008FD
:10501000ED510008EF510008F151000800000000B8
:10502000000000000000000000000000F351000834
:10503000F551000800000000F75100083D6C000821
:10504000FB510008FB510008FB510008FB51000810
:10505000FB510008FB510008FB510008FB51000800
:10506000FB510008FB510008FB510008FB510008F0
:10507000FB510008FB510008FB510008FB510008E0
:10508000FB510008FB510008FB510008FB510008D0
:10509000FB510008FB510008FB510008FB510008C0
:1050A000FB510008FB510008FB510008FB510008B0
:1050B000FB510008FB510008FB510008FB510008A0
:1050C000FB510008FB510008FB510008FB51000890
:1050D000FB510008FB510008FB510008FB51000880
:1050E000FB510008FB510008FB510008FB51000870
:1050F000FB510008FB510008FB510008FB51000860
:10510000FB510008FB510008FB510008FB5100084F
:10511000FB510008FB510008FB510008FB5100083F
:10512000FB510008FB510008FB510008FB5100082F
:1051300000F002F800F045F80AA090E8000C824464
:105140008344AAF10107DA4501D100F03AF8AFF241
:10515000090EBAE80F0013F0010F18BFFB1A43F055
:1051600001031847B4250000D4250000103A24BFDD
:1051700078C878C1FAD8520724BF30C830C144BFBC
:1051800004680C60704700000023002400250026FE
:10519000103A28BF78C1FBD8520728BF30C148BF9A
:1051A0000B607047642900F07380752900F07080EF
:1051B000732900F0DB81002070471FB51FBD10B5BB
:1051C00010BD00F005FA1146FFF7F7FF01F0FEFEF3
:1051D00000F023FA03B4FFF7F2FF03BC01F062FE14
:1051E0000948804709480047FEE7FEE7FEE7FEE77B
:1051F000FEE7FEE7FEE7FEE7FEE7FEE704480549B7
:10520000054A064B70470000456C00083151000804
:10521000C0000020C0060020C0020020C002002004
:10522000704700000FB4044910B503AA029800F0BB
:10523000A1F910BC5DF814FB0000002070B50C460D
:105240000546012A05D02878800600D5EA690023A2
:1052500002E0012305E05B1C934202D2E05C0028DF
:10526000F9D1A869E618C01AA861286A184428620A
:105270002846AFF3008004E0D5E9012114F8010BC2
:105280009047B442F8D32846AFF3008070BD0000C9
:105290002DE9F0410646002410687529314616A50F
:1052A00010D0AFF30080002802DA404213A507E0D7
:1052B00031688A0701D512A502E0490704D511A576
:1052C000012401E0AFF3008000210A2206F1240747
:1052D00009E0B0FBF2FCB0FBF2F302FB1C00303043
:1052E00078541846491C0028F3D123462A463046F4
:1052F000BDE8F04100F0CFB8000000002D00000034
:105300002B000000200000002DE9F05F89460446D4
:105310004FF0000ADFF824B1FB44C0F820A020467B
:10532000E168884700287DD0252806D0D4E90121EE
:105330009047206A401C2062F1E700255F46204626
:10534000E16888472028064607DB312E05D2B819C8
:1053500010F8200C08B10543F1E7A80701D525F0A6
:105360000405C4F81CA00027C4F818A02A2E09D0F0
:10537000304601F08FFD38B304EB8708303EC8F8A3
:10538000186019E059F8041B204604EB870291616C
:10539000E1688847012F064618D1E069002820DA25
:1053A00025F020051DE0D8F8180000EB800006EB82
:1053B00040003038C8F818002046E16888470646A3
:1053C00001F068FD0028EED1012F0AD02E2E08D161
:1053D0002046E16888477F1C0646022F45F02005DD
:1053E000C4DBA069002803DA404245F00105A06152
:1053F000E80701D025F01005A6B1A6F14100192853
:1054000002D8203645F400654A46314620462560DC
:105410004D46FFF7C7FE60B1012807D0ED1D25F00E
:10542000070000E007E000F1080978E705F104094A
:1054300075E730467AE7206ABDE8F09FEA2300006E
:105440004FF0000200B5134694469646203922BF1D
:10545000A0E80C50A0E80C50B1F12001BFF4F7AF68
:10546000090728BFA0E80C5048BF0CC05DF804EB4A
:10547000890028BF40F8042B08BF704748BF20F8B8
:10548000022B11F0804F18BF00F8012B70477047B6
:105490007047704770472DE9F0470D469946924690
:1054A000044600F124080168880604D5E06921F06B
:1054B0001001216000E00120A84201DD471B00E04F
:1054C0000027A1697A1902EB0900081AA061207867
:1054D000C00602D42046AFF30080002608E0D4E9DD
:1054E00001211AF806009047206A401C761C2062B1
:1054F0004E45F4DB2078C0060AD52046AFF3008085
:1055000006E0D4E9012130209047206A401C206247
:10551000381EA7F10107F4DC07E0D4E9012118F8EF
:1055200005009047206A401C2062281EA5F1010555
:10553000F3DC2046AFF300802078000602D502207D
:10554000BDE8F0870120FBE710B5436913B1AFF365
:10555000008001E0FFF772FE012010BD127800F11B
:1055600024010A7000224A700122EDE711684FF011
:10557000FF32E9E7074B70B50D467B4400F011F8A8
:105580000446284600F020F810B14FF0FF3070BDFF
:10559000204670BD2B1A000001694A1C0261087880
:1055A000704700B58FB0CDE9013100210591054963
:1055B0007944CDE9031011466846FFF7A5FE0FB008
:1055C00000BD0000E5FFFFFF007B00F0800070479A
:1055D000754600F029F8AE4605006946534620F0AE
:1055E0000700854618B020B5FFF708FEBDE820404B
:1055F0004FF000064FF000074FF000084FF0000B8F
:1056000021F00701AC46ACE8C009ACE8C009ACE841
:10561000C009ACE8C0098D4670470446AFF300806E
:105620002046FFF7D7FD0000004870475C000020CF
:1056300070B5044600F052FA06462546681C10B1C3
:1056400004480078054400BF00F048FA801BA842D7
:10565000FAD370BD100000202DE9FC5F05460C4612
:10566000002700200190E648854211D0E548854298
:105670000ED0E54885420BD0E448854208D0E44886
:10568000854205D0E348854202D0E348854200D1F7
:1056900003E0BD21E1A001F031FC208880B220B1FF
:1056A00020686FF30F0000B903E0BE21DBA001F01A
:1056B00025FC606830B36068012823D06068112839
:1056C00020D0606802281DD0606812281AD0DF49F7
:1056D0006068884216D0DE496068884212D0DD4991
:1056E000606888420ED0DC49606888420AD0DB4995
:1056F0006068884206D0DA496068884202D06068F3
:10570000032800D103E0BF21C4A001F0F7FB6FE143
:10571000012000FA07F8206800EA0806464575D11E
:10572000B748854211D0B74885420ED0B648854269
:105730000BD0B648854208D0B548854205D0B5485B
:10574000854202D0B448854200D103E0CD21B3A008
:1057500001F0D4FBBD4A6068811A90426AD00EDC29
:10576000032875D006DC002863D0012819D0022850
:105770006FD139E0112825D01228F9D147E0B1F5D1
:10578000881F5BD006DCB1F5803F56D0B1F5801F95
:1057900079D150E0B1F5001F4ED0B1F5041F72D1A0
:1057A0004DE0E068022805D0E068012802D0E068FA
:1057B000032800D103E0D52198A001F09FFBE06809
:1057C000019061E0E068022805D0E068012802D07D
:1057D000E068032800D103E0DC2190A001F08EFBFB
:1057E000E068001D01904FE0E068022805D0E06805
:1057F000012802D0E068032800D103E0E32187A05C
:1058000001F07CFBE068083001903DE0D2E0E06808
:10581000022805D0E068012802D0E068032800D102
:1058200003E0EA217DA001F069FBE0680C30019003
:105830002AE000BF00BF00BF00BF00BF00BFA068DC
:1058400028B1A068012802D0A068022802D105E092
:1058500016E018E0F72171A001F050FBA06810B924
:10586000042001900BE0A068012804D108200190D9
:10587000C5F8108003E008200190C5F8148003E00B
:105880000020019000E000BF00BFFF2E01D8284695
:1058900000E0281D8246FF2E01D8B80002E0A7F1E3
:1058A000080080008346DAF800000F2101FA0BF1AE
:1058B0008843019901FA0BF10843CAF800006068B7
:1058C00000F08050B0F1805F74D100BF65488069FE
:1058D00040F00100634988610846806900F00100DA
:1058E000009000BF00BF4FEAB130B90850F82190D6
:1058F000B807010F0F20884029EA00094048854277
:1059000001D1002019E03F48854201D1012014E077
:105910003D48854201D102200FE03C48854201D13B
:1059200003200AE03A48854201D1042005E03948C5
:10593000854201D1052000E00620B907090F884003
:1059400040EA09094848B90840F82190606800F425
:105950008030B0F5803F05D144480068304343496A
:10596000086004E041480068B0434049086060684E
:1059700000F40030B0F5003F07D13C48001D00683E
:1059800030433A49091D086006E03848001D0068A8
:10599000B0433649091D0860606800F48010B0F516
:1059A000801F08D131480830006830432F49083142
:1059B000086007E01BE02D4808300068B0432B4921
:1059C00008310860606800F40010B0F5001F07D1CE
:1059D00026480C300068304324490C31086006E04A
:1059E00022480C300068B04320490C3108607F1C0D
:1059F0002068F84000287FF48BAEBDE8FC9F0000D3
:105A000000080140000C014000100140001401405A
:105A100000180140001C01400020014053544D3348
:105A200032463178785F48414C5F447269766572DE
:105A30005C5372635C73746D3332663178785F687F
:105A4000616C5F6770696F2E6300000000001110C9
:105A50000000211000003110000012100000221080
:105A60000000321000100240080001400004014014
:105A700070B506460C461546A0B218B1200C0004BD
:105A800000B904E04FF4EA7108A001F037FA0DB153
:105A9000012D00D104E040F2D51104A001F02EFA4E
:105AA0000DB1346101E02004306170BD53544D33B9
:105AB00032463178785F48414C5F4472697665724E
:105AC0005C5372635C73746D3332663178785F68EF
:105AD000616C5F6770696F2E6300000001480068A9
:105AE0007047000008000020034800680349097857
:105AF0000844014908607047080000201000002099
:105B000010B50848006840F01000064908600320FE
:105B100000F096F80F2000F007F800F02BF80020B6
:105B200010BD00000020024070B504460E48007809
:105B30004FF47A71B1FBF0F00C490968B1FBF0F554
:105B4000284600F099FD08B1012070BD102C07D245
:105B500000222146501E00F00FF80548046001E0C5
:105B60000120F2E70020F0E71000002014000020E0
:105B70000C000020704700002DE9F05F80460C46C5
:105B800015460027102D00D203E0AA2120A001F025
:105B9000B5F9102C00D203E0AB211DA001F0AEF945
:105BA00001F05CF90746394622462B4601F0070012
:105BB000C0F1070ABAF1040F02D94FF0040A01E05C
:105BC000C0F1070AD14600F1040ABAF1070F02D268
:105BD0004FF0000A01E0A0F1030AD4464FF0010A99
:105BE0000AFA09FAAAF1010A0AEA020A0AFA0CFAFE
:105BF0004FF0010B0BFA0CFBABF1010B0BEA030BA3
:105C00004AEA0B063146404601F030F9BDE8F09F04
:105C100053544D3332463178785F48414C5F44727B
:105C2000697665725C5372635C73746D333266318E
:105C300078785F68616C5F636F727465782E63005B
:105C400010B50446072C07D0062C05D0052C03D030
:105C5000042C01D0032C00D103E0922109A001F013
:105C60004DF900BF04F00701124A10684FF6FF0219
:105C70001040114A024342EA01200E4A106000BF60
:105C800010BD000053544D3332463178785F48419F
:105C90004C5F4472697665725C5372635C73746DB9
:105CA0003332663178785F68616C5F636F727465F8
:105CB000782E63000CED00E00000FA0570B5044694
:105CC0000D460CB9012070BD207800F0010070B9BC
:105CD000207800F00200022809D0207800F00400AB
:105CE000042804D0207800F00800082800D104E03F
:105CF0004FF44E7190A001F001F91DB1012D01D0BA
:105D0000022D00D104E040F239318BA001F0F6F809
:105D10009548006800F00700A8420ED2924800683B
:105D200020F007002843904908600846006800F00A
:105D30000700A84201D00120C5E7207800F002004A
:105D400002283DD1207800F00400042805D18748BE
:105D5000406840F4E06085494860207800F0080021
:105D6000082805D18148406840F460507F49486068
:105D7000A068B8B1A068802814D0A068902811D07D
:105D8000A068A0280ED0A068B0280BD0A068C028BA
:105D900008D0A068D02805D0A068E02802D0A0686C
:105DA000F02800D104E040F25F3163A001F0A6F8D2
:105DB0006E48406820F0F000A16808436B494860D5
:105DC000207800F00100002845D0606828B16068A4
:105DD000012802D06068022800D104E040F2663158
:105DE00055A001F08BF86068012806D15F48006873
:105DF00000F4003090B9012065E76068022806D100
:105E00005A48006800F0007040B901205BE757482D
:105E1000006800F0020008B9012054E753484068C8
:105E200020F003006168084350494860FFF756FEC0
:105E3000064608E0FFF752FE801B41F28831884297
:105E400001D903203FE74948406800F00C00616831
:105E5000B0EB810FEED14448006800F00700A84283
:105E60000ED94148006820F0070028433E490860E9
:105E70000846006800F00700A84201D0012022E790
:105E8000207800F0040004281FD1E06878B1E068B1
:105E9000B0F5806F0BD0E068B0F5A06F07D0E06878
:105EA000B0F5C06F03D0E068B0F5E06F00D104E05A
:105EB0004FF4697120A001F021F82C48406820F4CB
:105EC000E060E168084329494860207800F0080054
:105ED000082820D1206978B12069B0F5806F0BD0F7
:105EE0002069B0F5A06F07D02069B0F5C06F03D06E
:105EF0002069B0F5E06F00D104E040F2AB310EA0B4
:105F000000F0FCFF1948406820F46050216940EA25
:105F1000C1001649486000F057F814494968C1F3B8
:105F20000311134A515CC8401249086012480068C6
:105F3000FFF7FAFD0020C6E653544D333246317860
:105F4000785F48414C5F4472697665725C53726356
:105F50005C73746D3332663178785F68616C5F7240
:105F600063632E6300000000002002400010024026
:105F7000EE760008140000200C00002001480068A4
:105F8000704700001400002000B5FFF7F7FF044938
:105F90004968C1F30221034A515CC84000BD0000BA
:105FA00000100240FE76000800B5FFF7E7FF044945
:105FB0004968C1F3C221034A515CC84000BD0000DA
:105FC00000100240FE760008F0B585B00FF26C0CB0
:105FD0009CE8E01001A8A0E8E0101CA52D68009541
:105FE00000210022002300240020194D696801F0DF
:105FF0000C05F5B1042D02D0082D19D101E015488A
:1060000019E001ADC1F38346AC5D01F4803555B1B3
:106010000F4D6D68C5F340451DF805200D4D6543D6
:10602000B5FBF2F302E00C4D04FB05F3184602E069
:1060300000BF084800BF00BF05B0F0BD0203040563
:10604000060708090A0B0C0D0E0F101001020000C4
:106050000010024000127A0000093D00F8B5044625
:106060000CB90120F8BD206890B1207800F0010043
:1060700070B9207800F00200022809D0207800F0E2
:106080000800082804D0207800F00400042800D17B
:1060900004E040F26711FAA000F030FF207800F031
:1060A0000100002870D0606838B16068B0F5803FAA
:1060B00003D06068B0F5A02F00D104E040F26D116C
:1060C000EFA000F01BFFFA48406800F00C00042825
:1060D0000CD0F748406800F00C00082811D1F448B3
:1060E000406800F48030B0F5803F0AD1F048006885
:1060F00000F40030002860D0606800285DD10120E5
:10610000B0E700BF6068B0F5803F06D1E84800689E
:1061100040F48030E649086028E0606858B9E448F7
:10612000006820F48030E24908600846006820F4E6
:10613000802008601AE06068B0F5A02F0BD1DC4821
:10614000006840F48020DA4908600846006840F49E
:10615000803008600AE0D648006820F48030D449D6
:1061600008600846006820F48020086000BF60686E
:1061700090B1FFF7B3FC054607E0FFF7AFFC401B0B
:10618000642802D903206DE717E0C948006800F4CD
:1061900000300028F1D010E0FFF7A0FC054606E033
:1061A000FFF79CFC401B642801D903205AE7C04834
:1061B000006800F400300028F2D1207800F00200DE
:1061C00002286BD1206910B12069012800D104E0B8
:1061D00040F2A111AAA000F091FE60691F2800D82A
:1061E00004E04FF4D171A6A000F088FEB0484068EA
:1061F00000F00C0050B1AE48406800F00C000828D8
:1062000018D1AB48406800F4803098B9A8480068BD
:1062100000F0020020B12069012801D0012021E70F
:10622000A348006820F0F800616940EAC100A04975
:10623000086033E02069E8B101209E490860FFF75B
:106240004DFC054606E0FFF749FC401B022801D93A
:10625000032007E79648006800F002000028F2D00B
:106260009348006820F0F800616940EAC100904955
:10627000086013E000208F490860FFF72FFC0546F7
:1062800006E0FFF72BFC401B022801D90320E9E6BA
:106290008748006800F002000028F2D1207800F062
:1062A0000800082838D1A06910B1A069012800D1E0
:1062B00004E04FF4F17172A000F020FEA069B8B1C3
:1062C00001207D490860FFF709FC054606E0FFF75D
:1062D00005FC401B022801D90320C3E67448406A2C
:1062E00000F002000028F2D0012000F093FC13E03F
:1062F000002071490860FFF7F1FB054606E0FFF753
:10630000EDFB401B022801D90320ABE66848406A38
:1063100000F002000028F2D1207800F004000428E8
:1063200078D10027E06828B1E068012802D0E06851
:10633000052800D104E040F2112151A000F0DEFD5B
:106340005B48C06900F0805070B900BF5848C06910
:1063500040F080505649C8610846C06900F080503E
:10636000009000BF00BF01275448006800F480700F
:10637000B0B95248006840F4807050490860FFF797
:10638000ADFB054606E0FFF7A9FB401B642801D9D9
:10639000032067E64948006800F480700028F2D0C6
:1063A00000BFE068012806D14148006A40F00100C2
:1063B0003F49086227E0E06858B93D48006A20F08C
:1063C00001003B4908620846006A20F004000862A8
:1063D00019E0E06805280BD13548006A40F0040058
:1063E000334908620846006A40F0010008620AE08A
:1063F0002F48006A20F001002D4908620846006A13
:1064000020F00400086200BFE068A0B1FFF766FB5F
:10641000054609E02BE0FFF761FB401B41F28831A4
:10642000884201D903201DE62148006A00F00200DD
:106430000028F0D012E0FFF751FB054608E0FFF717
:106440004DFB401B41F28831884201D9032009E607
:106450001748006A00F002000028F0D1012F05D192
:106460001348C06920F080501149C86100BFE0693D
:1064700028B1E069012802D0E069022820D125E096
:1064800053544D3332463178785F48414C5F447203
:10649000697665725C5372635C73746D3332663116
:1064A00078785F68616C5F7263632E630000000040
:1064B000001002400000424280044242007000404E
:1064C00040F2AF21AFF2480000F018FDE06900286B
:1064D00075D06748406800F00C00082870D0E0696B
:1064E00002286ED1206A18B1206AB0F5803F00D131
:1064F00005E04FF42E71AFF2780000F0FFFC606A07
:10650000B8B3606AB0F5802F33D0606AB0F5002F61
:106510002FD0606AB0F5402F2BD0606AB0F5801F95
:1065200027D0606AB0F5A01F23D0606AB0F5C01F05
:106530001FD0606AB0F5E01F1BD0606AB0F5001F85
:1065400017D0606AB0F5101F13D0606AB0F5201F35
:106550000FD0606AB0F5301F0BD0606AB0F5401FF5
:1065600007D0606AB0F5501F03D0606AB0F5601FB5
:1065700000D105E040F2B921AFF2FC0000F0BEFC12
:1065800000203C490866FFF7A9FA054606E0FFF738
:10659000A5FA401B022801D9032063E534480068AE
:1065A00000F000700028F2D1206AB0F5803F17D1CA
:1065B000A06818B1A068B0F5003F03D108E055E02D
:1065C00042E02CE040F2CF21AFF24C1000F096FCFC
:1065D0002748406820F40030A168084324494860F7
:1065E000D4E9080108432249496821F47411084399
:1065F0001F49486001201F490866FFF76FFA0546EA
:1066000006E0FFF76BFA401B022801D9032029E5B9
:106610001748006800F000700028F2D026E0002043
:1066200014490866FFF75AFA054606E0FFF756FADE
:10663000401B022801D9032014E50D48006800F032
:1066400000700028F2D111E0E069012800D109E5CD
:106650000748466806F48031206A814204D106F476
:106660007011606A814201D00120FBE40020F9E44E
:10667000001002400000424270B504462546681EE4
:10668000B0F1807F01D301200FE0681E4FF0E021C0
:1066900048610F214FF0FF3000F0E8FB00204FF081
:1066A000E021886107200861002070BD10B5044614
:1066B0000CB9012010BDA069002826D03E492068F1
:1066C000884207D03D492068884203D03C49206871
:1066D000884200D104E04FF4B6713AA000F00EFCFD
:1066E000A06958B1A069B0F5807F07D0A069B0F566
:1066F000007F03D0A069B0F5407F00D11FE040F2D9
:106700006D1130A000F0FAFB19E02B492068884297
:106710000FD02A49206888420BD029492068884236
:1067200007D034492068884203D033492068884222
:1067300000D104E040F2711122A000F0DFFBA0685C
:1067400018B1A068B0F5805F00D104E040F2731189
:106750001CA000F0D3FB94F83D0028B9002084F879
:106760003C00204600F04AF8242084F83D002068D0
:10677000C06820F400502168C860204600F06AFA22
:106780002068006920F49040216808612068406911
:1067900020F02A00216848612068C06840F4005059
:1067A0002168C86000202064202084F83D0084F81F
:1067B0003E0000207EE70000003801400044004019
:1067C0000048004053544D3332463178785F484199
:1067D0004C5F4472697665725C5372635C73746D6E
:1067E0003332663178785F68616C5F756172742EE0
:1067F00063000000004C00400050004070472DE94D
:10680000F84F04460E46174699464FF0000A94F892
:106810003D0020285AD106B117B90120BDE8F88FF4
:1068200000BF94F83C00012801D10220F6E70120C6
:1068300084F83C0000BF00202064212084F83D0043
:10684000FFF74CF98246A784E784A068B0F5805F23
:1068500004D1206910B90025B04602E035464FF05A
:10686000000800BF002084F83C0000BF1BE0534636
:10687000002280212046CDF8009000F0B9FA08B13E
:106880000320CBE745B9B8F80000C0F30800216841
:10689000486008F1020803E02878216848606D1C10
:1068A000E08C401EE084E08C0028E0D153460022BA
:1068B00040212046CDF8009000F09AFA08B103205C
:1068C000ACE7202084F83D000020A7E70220A5E7E0
:1068D00002A0FEF7A7FC00BFFEE70000486172645B
:1068E000204572726F72210A0000000070B500240A
:1068F0000EE00021204600F00EF9002504E0002003
:1069000000F078F9681CC5B2802DF8DB601CC4B2B9
:10691000082CEEDB70BD000000B585B000BF174845
:10692000806940F00800154988610846806900F0D8
:106930000800009000BF00BF0220019001200290DB
:10694000032004900120039001A90D48FEF784FE66
:106950000420019001A90A48FEF77EFE00BF012233
:1069600002210748FFF784F800BF00BF012204217D
:106970000348FFF77DF800BF05B000BD00100240DE
:10698000000C014070B50546002420E000BF8020C7
:106990002041284028B1012204211548FFF768F85A
:1069A00004E0002204211248FFF762F800BF00BF94
:1069B000012202210E48FFF75BF800BF00BF002252
:1069C00002210B48FFF754F800BF601CC4B2082C2A
:1069D000DCDB00BF012202210548FFF749F800BFB8
:1069E00000BF002202210248FFF742F800BF70BD3D
:1069F000000C014010B500BF012204210C48FFF734
:106A000037F800BF00BF012202210948FFF730F824
:106A100000BF00BF002204210548FFF729F800BF8E
:106A200000BF002202210248FFF722F800BF10BD7C
:106A3000000C014010B500BF002204210948FFF7F7
:106A400017F800BF00BF012202210648FFF710F827
:106A500000BF00BF012204210248FFF709F800BF70
:106A600010BD0000000C014070B5002406E00025B8
:106A700000E06D1CB5F57A7FFBD3641CB4F57A7F1A
:106A8000F5D3FFF749FFAE2000F0A4F8D52000F0C1
:106A9000A1F8802000F09EF8A82000F09BF83F208D
:106AA00000F098F8D32000F095F8002000F092F85C
:106AB000402000F08FF8A12000F08CF8C82000F0F2
:106AC00089F8DA2000F086F8122000F083F881209F
:106AD00000F080F8CF2000F07DF8D92000F07AF89F
:106AE000F12000F077F8DB2000F074F8302000F09F
:106AF00071F8A42000F06EF8A62000F06BF88D204D
:106B000000F068F8142000F065F8AF2000F062F89B
:106B1000FFF7ECFE70BD70B505460C4645F0B000C1
:106B200000F058F8102141EA141000F053F804F076
:106B30000F0000F04FF870BD2DE9F04105460E46FC
:106B40001746721ED206110E6A1E5206100EFFF76D
:106B5000E2FF002409E0A7F12001134A02EB011132
:106B6000085D00F047F8601CC4B2082CF3DB721E0D
:106B7000D206110E6A1E012303EB4202D0B2FFF7C8
:106B8000CAFF00240BE0A7F12001074A02EB011223
:106B900004F10801505C00F02DF8601CC4B2082C10
:106BA000F1DBBDE8F0810000FE7000082DE9F04146
:106BB00007460E461546002407E02A5D3019C1B28B
:106BC0003846FFF7B9FF601CC4B2285D0028F4D135
:106BD000BDE8F08110B50446FFF70CFF7820FFF701
:106BE000D1FE0020FFF7CEFE2046FFF7CBFEFFF7D9
:106BF00021FF10BD10B50446FFF7FCFE7820FFF71B
:106C0000C1FE4020FFF7BEFE2046FFF7BBFEFFF7A8
:106C100011FF10BD08B508490968C9084FF47A7218
:106C2000B1FBF2F14143009100BF00BF00994A1E41
:106C300000920029F9D108BD1400002010B5FEF71C
:106C400053FF10BD0148024908607047005000081A
:106C500008ED00E070B5044657496068884200D8E6
:106C600004E040F6536155A000F048F9E06818B11F
:106C7000E068B0F5005F00D104E040F654614FA039
:106C800000F03CF9206938B12069B0F5806F03D07D
:106C90002069B0F5C06F00D104E040F6556147A00F
:106CA00000F02CF94FF6F3716069084010B9606983
:106CB00000B104E040F6566140A000F01FF92068E2
:106CC000006920F44050E1680843216808612169A7
:106CD000A0680843616940EA01062068C06841F283
:106CE0000C61884330432168C8602068406920F403
:106CF0004070A1690843216848613C492068884286
:106D000003D1FFF751F9054602E0FFF73DF90546CB
:106D100005EBC50000EB051061688900B0FBF1F0E0
:106D200005EBC50101EB051162689200B1FBF2F1C0
:106D30006422B1FBF2F101EBC10202EB0111A0EB05
:106D40008100322101EB00106421B0FBF1F000F072
:106D5000F00005EBC50101EB051162689200B1FB83
:106D6000F2F16422B1FBF2F100EB011105EBC50079
:106D700000EB051062689200B0FBF2F005EBC50273
:106D800002EB051263689B00B2FBF3F26423B2FBD3
:106D9000F3F202EBC20303EB0212A0EB82003222F9
:106DA00002EB00106422B0FBF2F000F00F00084488
:106DB0002168886070BD000020AA440053544D3300
:106DC00032463178785F48414C5F4472697665722B
:106DD0005C5372635C73746D3332663178785F68CC
:106DE000616C5F756172742E6300000000380140B1
:106DF0002DE9F04104460D4617469846069E21E0CF
:106E0000701CF8B12EB1FEF769FEA0EB0800B0428D
:106E100018D92068C06820F4D0702168C860206844
:106E2000406920F0010021684861202084F83D007D
:106E300084F83E0000BF002084F83C0000BF03201F
:106E4000BDE8F081206800682840A84201D10120F7
:106E500000E00020B842D3D00020F1E702480068EB
:106E6000C0F30220704700000CED00E010B50028D0
:106E700004DB0A07130E054A135406E00A07140E32
:106E8000034A00F00F031B1FD45410BD00E400E0C0
:106E900018ED00E030380A2801D2012070470020A8
:106EA000704700000446214602A0FEF7BBF900BF70
:106EB000FEE7000045786974656421207265747589
:106EC000726E636F64653D25640A000001B5009829
:106ED0000A2807D14FF0FF33022206A10648FFF728
:106EE0008EFC06E04FF0FF33012269460248FFF7AF
:106EF00086FC08BD0D0A00001800002004460D465F
:106F00002B462246024903A0FEF78CF900BFFEE79C
:106F1000F070000825733A2066696C65202573209F
:106F20006F6E206C696E652025640A0010B590B004
:106F300014210BA8FEF784FA282101A8FEF780FA95
:106F400001200190000402904FF4E0110A910146E3
:106F500009910220089001A8FFF780F804464CB17F
:106F6000002002904FF460110A910021099101A8BC
:106F7000FFF774F80B48406820F4404040F40040AC
:106F8000084948600F200B9002200C9000200D90C3
:106F900008150E9000200F9002210BA8FEF78EFE20
:106FA00010B010BD0010024070B505460C462068B8
:106FB000012802D02068022804D12846FFF786FF66
:106FC000284670BD4FF0FF30FBE700000024FEF7BD
:106FD00097FDFFF7ABFF4FF4E13000F043F8FFF708
:106FE00043FDFFF783FC0C4801680CA0FEF71AF97B
:106FF0000FA0FEF717F90DE0214610A0FEF712F9D9
:1070000014A201210220FFF7D1FD4FF47A70FEF7A0
:107010000FFB641CF0E70000140000205379737428
:10702000656D436F7265436C6F636B3D25750A0038
:10703000496E205768696C650A00000056332E308F
:107040003020617070746573742C20636E743D25FC
:10705000640A000056332E303020617070746573FE
:107060007421000010B586B0044600BF1C4880693A
:1070700040F004001A4988610846806900F0040065
:10708000019000BF00BF00BF0846806940F4804007
:1070900088610846806900F48040019000BF00BF0D
:1070A00002200390000202900220059002A90D48E0
:1070B000FEF7D2FA002003904FF480600290012086
:1070C000049002A90748FEF7C7FA07480749086075
:1070D000084644600C214161FFF7E8FA06B010BD94
:1070E0000010024000080140003801401800002054
:1070F0006173736572745F6661696C65640000003A
:10710000000000000000000000000000000000007F
:1071100000F8000000000000003330000000001004
:107120000C06100C0600000000000000000040C02B
:107130007840C0784000043F04043F04040000701D
:1071400088FC08300000001820FF211E0000F00815
:10715000F000E018000000211C031E211E0000F0BA
:107160000888700000001E21232419272110101602
:107170000E00000000000000000000000000000001
:1071800000E0180402000000000718204000000280
:107190000418E000000000402018070000004040F4
:1071A00080F0804040000202010F01020200000056
:1071B00000F0000000000101011F010101000000BA
:1071C00000000000000080B070000000000000001F
:1071D00000000000000000010101010101010000A8
:1071E000000000000000003030000000000000003F
:1071F000000080601804006018060100000000E034
:1072000010080810E000000F102020100F000010E0
:1072100010F8000000000020203F20200000007037
:10722000080808887000003028242221300000302F
:107230000888884830000018202020110E00000027
:10724000C02010F8000000070424243F240000F8A8
:107250000888880808000019212020110E0000E08D
:10726000108888180000000F112020110E0000382F
:107270000808C83808000000003F00000000007047
:10728000880808887000001C222121221C0000E0D0
:1072900010080810E0000000312222110F00000049
:1072A00000C0C000000000000030300000000000FE
:1072B000008000000000000080600000000000006E
:1072C0008040201008000001020408102000404007
:1072D000404040404000040404040404040000084A
:1072E00010204080000000201008040201000070FF
:1072F00048080808F0000000003036010000C030E7
:10730000C828E810E0000718272423140B00000009
:10731000C038E0000000203C23020227382008F893
:10732000888888700000203F202020110E00C03087
:10733000080808083800071820202010080008F85E
:1073400008080810E000203F202020100F0008F857
:107350008888E8081000203F20202320180008F823
:107360008888E8081000203F200003000000C0309B
:1073700008080838000007182020221E020008F81C
:1073800008000008F808203F210101213F200008E3
:1073900008F8080800000020203F2020000000001E
:1073A0000808F8080800C08080807F00000008F806
:1073B00088C028180800203F20012638200008F83F
:1073C000080000000000203F20202020300008F8A6
:1073D000F800F8F80800203F003F003F200008F8C0
:1073E00030C00008F808203F200007183F00E010D8
:1073F00008080810E0000F10202020100F0008F8E7
:1074000008080808F000203F210101010000E010F9
:1074100008080810E0000F18242438504F0008F81E
:10742000888888887000203F2000030C302000707E
:107430008808080838000038202121221C0018087C
:1074400008F8080818000000203F2000000008F895
:1074500008000008F808001F202020201F000878DE
:10746000880000C83808000007380E010000F8083E
:1074700000F80008F800033C0700073C0300081868
:1074800068808068180820302C03032C30200838CE
:10749000C800C83808000000203F20000000100885
:1074A0000808C838080020382621202018000000CD
:1074B00000FE020202000000007F40404000000C7D
:1074C00030C000000000000000010638C0000002CB
:1074D0000202FE000000004040407F00000000006B
:1074E000040202020400000000000000000000008E
:1074F000000000000000808080808080808000028A
:107500000204000000000000000000000000000075
:107510008080808000000019242222223F2008F869
:10752000008080000000003F112020110E000000AC
:10753000008080800000000E11202020110000003B
:1075400000808088F800000E112020103F200000ED
:10755000808080800000001F2222222213000080F1
:1075600080F0888888180020203F2020000000003C
:10757000808080808000006B94949493600008F871
:10758000008080800000203F210000203F200080FC
:107590009898000000000020203F202000000000FC
:1075A00000809898000000C08080807F000008F86C
:1075B000000080808000203F24022D302000000841
:1075C00008F8000000000020203F202000008080FC
:1075D000808080808000203F20003F20003F80800E
:1075E000008080800000203F210000203F2000001C
:1075F000808080800000001F202020201F008080CD
:1076000000808000000080FFA12020110E000000FB
:10761000008080808000000E112020A0FF808080EC
:1076200080008080800020203F2120000100000099
:10763000808080808000003324242424190000806E
:1076400080E0808000000000001F2020000080807B
:10765000000000808000001F202020103F2080803C
:1076600080000080808000010E30080601008080CC
:107670000080008080800F300C030C300F000080F1
:107680008000808080000020312E0E31200080801C
:1076900080000080808080818E701806010000804C
:1076A0008080808080000021302C2221300000006A
:1076B0000000807C020200000000003F404000000B
:1076C0000000FF00000000000000FF0000000002BA
:1076D000027C800000000040403F000000000006E7
:1076E000010102020404000000000000000000008C
:1076F0000000000000000102030406070809000062
:107700000000010203040400000800000000000063
:10771000000200010000100038770008000000207F
:10772000180000006C510008507700081800002075
:10773000A8060000885100080100000002000000B7
:107740000000000010000000010000000024F40010
:04000005080051316D
:00000001FF
