:020000040800F2
:10500000C0060020E1510008E95100086568000869
:10501000ED510008EF510008F151000800000000B8
:10502000000000000000000000000000F351000834
:10503000F551000800000000F7510008A9680008B9
:10504000FB510008FB510008FB510008FB51000810
:10505000FB510008FB510008FB510008FB51000800
:10506000FB510008FB510008FB510008FB510008F0
:10507000FB510008FB510008FB510008FB510008E0
:10508000FB510008FB510008FB510008FB510008D0
:10509000FB510008FB510008FB510008FB510008C0
:1050A000FB510008FB510008FB510008FB510008B0
:1050B000FB510008FB510008FB510008FB510008A0
:1050C000FB510008FB510008FB510008FB51000890
:1050D000FB510008FB510008FB510008FB51000880
:1050E000FB510008FB510008FB510008FB51000870
:1050F000FB510008FB510008FB510008FB51000860
:10510000FB510008FB510008FB510008FB5100084F
:10511000FB510008FB510008FB510008FB5100083F
:10512000FB510008FB510008FB510008FB5100082F
:1051300000F002F800F045F80AA090E8000C824464
:105140008344AAF10107DA4501D100F03AF8AFF241
:10515000090EBAE80F0013F0010F18BFFB1A43F055
:10516000010318470C1C00002C1C0000103A24BF3F
:1051700078C878C1FAD8520724BF30C830C144BFBC
:1051800004680C60704700000023002400250026FE
:10519000103A28BF78C1FBD8520728BF30C148BF9A
:1051A0000B607047642900F07380752900F07080EF
:1051B000732900F0DB81002070471FB51FBD10B5BB
:1051C00010BD00F005FA1146FFF7F7FF01F034FDBE
:1051D00000F023FA03B4FFF7F2FF03BC01F098FCE0
:1051E0000948804709480047FEE7FEE7FEE7FEE77B
:1051F000FEE7FEE7FEE7FEE7FEE7FEE704480549B7
:10520000054A064B70470000B1680008315100089C
:10521000C0000020C0060020C0020020C002002004
:10522000704700000FB4044910B503AA029800F0BB
:10523000A1F910BC5DF814FB0000002070B50C460D
:105240000546012A05D02878800600D5EA690023A2
:1052500002E0012305E05B1C934202D2E05C0028DF
:10526000F9D1A869E618C01AA861286A184428620A
:105270002846AFF3008004E0D5E9012114F8010BC2
:105280009047B442F8D32846AFF3008070BD0000C9
:105290002DE9F0410646002410687529314616A50F
:1052A00010D0AFF30080002802DA404213A507E0D7
:1052B00031688A0701D512A502E0490704D511A576
:1052C000012401E0AFF3008000210A2206F1240747
:1052D00009E0B0FBF2FCB0FBF2F302FB1C00303043
:1052E00078541846491C0028F3D123462A463046F4
:1052F000BDE8F04100F0CFB8000000002D00000034
:105300002B000000200000002DE9F05F89460446D4
:105310004FF0000ADFF824B1FB44C0F820A020467B
:10532000E168884700287DD0252806D0D4E90121EE
:105330009047206A401C2062F1E700255F46204626
:10534000E16888472028064607DB312E05D2B819C8
:1053500010F8200C08B10543F1E7A80701D525F0A6
:105360000405C4F81CA00027C4F818A02A2E09D0F0
:10537000304601F0C5FB38B304EB8708303EC8F86F
:10538000186019E059F8041B204604EB870291616C
:10539000E1688847012F064618D1E069002820DA25
:1053A00025F020051DE0D8F8180000EB800006EB82
:1053B00040003038C8F818002046E16888470646A3
:1053C00001F09EFB0028EED1012F0AD02E2E08D12D
:1053D0002046E16888477F1C0646022F45F02005DD
:1053E000C4DBA069002803DA404245F00105A06152
:1053F000E80701D025F01005A6B1A6F14100192853
:1054000002D8203645F400654A46314620462560DC
:105410004D46FFF7C7FE60B1012807D0ED1D25F00E
:10542000070000E007E000F1080978E705F104094A
:1054300075E730467AE7206ABDE8F09F421A00001F
:105440004FF0000200B5134694469646203922BF1D
:10545000A0E80C50A0E80C50B1F12001BFF4F7AF68
:10546000090728BFA0E80C5048BF0CC05DF804EB4A
:10547000890028BF40F8042B08BF704748BF20F8B8
:10548000022B11F0804F18BF00F8012B70477047B6
:105490007047704770472DE9F0470D469946924690
:1054A000044600F124080168880604D5E06921F06B
:1054B0001001216000E00120A84201DD471B00E04F
:1054C0000027A1697A1902EB0900081AA061207867
:1054D000C00602D42046AFF30080002608E0D4E9DD
:1054E00001211AF806009047206A401C761C2062B1
:1054F0004E45F4DB2078C0060AD52046AFF3008085
:1055000006E0D4E9012130209047206A401C206247
:10551000381EA7F10107F4DC07E0D4E9012118F8EF
:1055200005009047206A401C2062281EA5F1010555
:10553000F3DC2046AFF300802078000602D502207D
:10554000BDE8F0870120FBE710B5436913B1AFF365
:10555000008001E0FFF772FE012010BD127800F11B
:1055600024010A7000224A700122EDE711684FF011
:10557000FF32E9E7074B70B50D467B4400F011F8A8
:105580000446284600F020F810B14FF0FF3070BDFF
:10559000204670BD9716000001694A1C0261087818
:1055A000704700B58FB0CDE9013100210591054963
:1055B0007944CDE9031011466846FFF7A5FE0FB008
:1055C00000BD0000E5FFFFFF007B00F0800070479A
:1055D000754600F029F8AE4605006946534620F0AE
:1055E0000700854618B020B5FFF708FEBDE820404B
:1055F0004FF000064FF000074FF000084FF0000B8F
:1056000021F00701AC46ACE8C009ACE8C009ACE841
:10561000C009ACE8C0098D4670470446AFF300806E
:105620002046FFF7D7FD0000004870475C000020CF
:1056300070B5044600F01CFA06462546681C10B1F9
:1056400004480078054400BF00F012FA801BA8420D
:10565000FAD370BD100000202DE9FC5F05460C4612
:10566000002700200190E648854211D0E548854298
:105670000ED0E54885420BD0E448854208D0E44886
:10568000854205D0E348854202D0E348854200D1F7
:1056900003E0BD21E1A001F067FA208880B220B1CB
:1056A00020686FF30F0000B903E0BE21DBA001F01A
:1056B0005BFA606830B36068012823D06068112805
:1056C00020D0606802281DD0606812281AD0DF49F7
:1056D0006068884216D0DE496068884212D0DD4991
:1056E000606888420ED0DC49606888420AD0DB4995
:1056F0006068884206D0DA496068884202D06068F3
:10570000032800D103E0BF21C4A001F02DFA6FE10E
:10571000012000FA07F8206800EA0806464575D11E
:10572000B748854211D0B74885420ED0B648854269
:105730000BD0B648854208D0B548854205D0B5485B
:10574000854202D0B448854200D103E0CD21B3A008
:1057500001F00AFABD4A6068811A90426AD00EDCF4
:10576000032875D006DC002863D0012819D0022850
:105770006FD139E0112825D01228F9D147E0B1F5D1
:10578000881F5BD006DCB1F5803F56D0B1F5801F95
:1057900079D150E0B1F5001F4ED0B1F5041F72D1A0
:1057A0004DE0E068022805D0E068012802D0E068FA
:1057B000032800D103E0D52198A001F0D5F9E068D5
:1057C000019061E0E068022805D0E068012802D07D
:1057D000E068032800D103E0DC2190A001F0C4F9C7
:1057E000E068001D01904FE0E068022805D0E06805
:1057F000012802D0E068032800D103E0E32187A05C
:1058000001F0B2F9E068083001903DE0D2E0E068D4
:10581000022805D0E068012802D0E068032800D102
:1058200003E0EA217DA001F09FF9E0680C300190CF
:105830002AE000BF00BF00BF00BF00BF00BFA068DC
:1058400028B1A068012802D0A068022802D105E092
:1058500016E018E0F72171A001F086F9A06810B9F0
:10586000042001900BE0A068012804D108200190D9
:10587000C5F8108003E008200190C5F8148003E00B
:105880000020019000E000BF00BFFF2E01D8284695
:1058900000E0281D8246FF2E01D8B80002E0A7F1E3
:1058A000080080008346DAF800000F2101FA0BF1AE
:1058B0008843019901FA0BF10843CAF800006068B7
:1058C00000F08050B0F1805F74D100BF65488069FE
:1058D00040F00100634988610846806900F00100DA
:1058E000009000BF00BF4FEAB130B90850F82190D6
:1058F000B807010F0F20884029EA00094048854277
:1059000001D1002019E03F48854201D1012014E077
:105910003D48854201D102200FE03C48854201D13B
:1059200003200AE03A48854201D1042005E03948C5
:10593000854201D1052000E00620B907090F884003
:1059400040EA09094848B90840F82190606800F425
:105950008030B0F5803F05D144480068304343496A
:10596000086004E041480068B0434049086060684E
:1059700000F40030B0F5003F07D13C48001D00683E
:1059800030433A49091D086006E03848001D0068A8
:10599000B0433649091D0860606800F48010B0F516
:1059A000801F08D131480830006830432F49083142
:1059B000086007E01BE02D4808300068B0432B4921
:1059C00008310860606800F40010B0F5001F07D1CE
:1059D00026480C300068304324490C31086006E04A
:1059E00022480C300068B04320490C3108607F1C0D
:1059F0002068F84000287FF48BAEBDE8FC9F0000D3
:105A000000080140000C014000100140001401405A
:105A100000180140001C01400020014053544D3348
:105A200032463178785F48414C5F447269766572DE
:105A30005C5372635C73746D3332663178785F687F
:105A4000616C5F6770696F2E6300000000001110C9
:105A50000000211000003110000012100000221080
:105A60000000321000100240080001400004014014
:105A700001480068704700000800002003480068E3
:105A8000034909780844014908607047080000206C
:105A90001000002010B50848006840F010000649CA
:105AA0000860032000F096F80F2000F007F800F0DF
:105AB0002BF8002010BD00000020024070B5044605
:105AC0000E4800784FF47A71B1FBF0F00C49096888
:105AD000B1FBF0F5284600F099FD08B1012070BD3A
:105AE000102C07D200222146501E00F00FF8054866
:105AF000046001E00120F2E70020F0E71000002040
:105B0000140000200C000020704700002DE9F05F19
:105B100080460C4615460027102D00D203E0AA212E
:105B200020A001F021F8102C00D203E0AB211DA031
:105B300001F01AF800F0C8FF0746394622462B4606
:105B400001F00700C0F1070ABAF1040F02D94FF0C3
:105B5000040A01E0C0F1070AD14600F1040ABAF1D3
:105B6000070F02D24FF0000A01E0A0F1030AD44669
:105B70004FF0010A0AFA09FAAAF1010A0AEA020A2E
:105B80000AFA0CFA4FF0010B0BFA0CFBABF1010B0C
:105B90000BEA030B4AEA0B063146404600F09CFF35
:105BA000BDE8F09F53544D3332463178785F484119
:105BB0004C5F4472697665725C5372635C73746D9A
:105BC0003332663178785F68616C5F636F727465D9
:105BD000782E630010B50446072C07D0062C05D09C
:105BE000052C03D0042C01D0032C00D103E092211A
:105BF00009A000F0B9FF00BF04F00701124A1068C5
:105C00004FF6FF021040114A024342EA01200E4AB9
:105C1000106000BF10BD000053544D333246317840
:105C2000785F48414C5F4472697665725C53726379
:105C30005C73746D3332663178785F68616C5F6372
:105C40006F727465782E63000CED00E00000FA05B9
:105C500070B504460D460CB9012070BD207800F0E7
:105C6000010070B9207800F00200022809D02078E5
:105C700000F00400042804D0207800F00800082870
:105C800000D104E04FF44E7190A000F06DFF1DB103
:105C9000012D01D0022D00D104E040F239318BA05A
:105CA00000F062FF9548006800F00700A8420ED29D
:105CB0009248006820F00700284390490860084691
:105CC000006800F00700A84201D00120C5E7207855
:105CD00000F0020002283DD1207800F004000428E2
:105CE00005D18748406840F4E060854948602078E5
:105CF00000F00800082805D18148406840F4605051
:105D00007F494860A068B8B1A068802814D0A06816
:105D1000902811D0A068A0280ED0A068B0280BD081
:105D2000A068C02808D0A068D02805D0A068E028C6
:105D300002D0A068F02800D104E040F25F3163A0F7
:105D400000F012FF6E48406820F0F000A1680843A0
:105D50006B494860207800F00100002845D0606859
:105D600028B16068012802D06068022800D104E0F0
:105D700040F2663155A000F0F7FE6068012806D1B8
:105D80005F48006800F4003090B9012065E7606862
:105D9000022806D15A48006800F0007040B901207E
:105DA0005BE75748006800F0020008B9012054E79B
:105DB0005348406820F00300616808435049486038
:105DC000FFF756FE064608E0FFF752FE801B41F241
:105DD0008831884201D903203FE74948406800F0F4
:105DE0000C006168B0EB810FEED14448006800F010
:105DF0000700A8420ED94148006820F00700284358
:105E00003E4908600846006800F00700A84201D03B
:105E1000012022E7207800F0040004281FD1E06868
:105E200078B1E068B0F5806F0BD0E068B0F5A06F96
:105E300007D0E068B0F5C06F03D0E068B0F5E06F60
:105E400000D104E04FF4697120A000F08DFE2C48D1
:105E5000406820F4E060E168084329494860207800
:105E600000F00800082820D1206978B12069B0F539
:105E7000806F0BD02069B0F5A06F07D02069B0F516
:105E8000C06F03D02069B0F5E06F00D104E040F2AC
:105E9000AB310EA000F068FE1948406820F4605055
:105EA000216940EAC1001649486000F057F81449DA
:105EB0004968C1F30311134A515CC8401249086094
:105EC00012480068FFF7FAFD0020C6E653544D3330
:105ED00032463178785F48414C5F4472697665722A
:105EE0005C5372635C73746D3332663178785F68CB
:105EF000616C5F7263632E6300000000002002404B
:105F000000100240466D0008140000200C00002024
:105F100001480068704700001400002000B5FFF73A
:105F2000F7FF04494968C1F30221034A515CC840A4
:105F300000BD000000100240566D000800B5FFF7DC
:105F4000E7FF04494968C1F3C221034A515CC840D4
:105F500000BD000000100240566D0008F0B585B08D
:105F60000FF26C0C9CE8E01001A8A0E8E0101CA562
:105F70002D68009500210022002300240020194DE7
:105F8000696801F00C05F5B1042D02D0082D19D176
:105F900001E0154819E001ADC1F38346AC5D01F4A1
:105FA000803555B10F4D6D68C5F340451DF805208E
:105FB0000D4D6543B5FBF2F302E00C4D04FB05F318
:105FC000184602E000BF084800BF00BF05B0F0BDA2
:105FD00002030405060708090A0B0C0D0E0F10102A
:105FE000010200000010024000127A0000093D008A
:105FF000F8B504460CB90120F8BD206890B12078AE
:1060000000F0010070B9207800F00200022809D0E9
:10601000207800F00800082804D0207800F0040060
:10602000042800D104E040F26711FAA000F09CFDC2
:10603000207800F00100002870D0606838B16068F6
:10604000B0F5803F03D06068B0F5A02F00D104E028
:1060500040F26D11EFA000F087FDFA48406800F0B3
:106060000C0004280CD0F748406800F00C00082809
:1060700011D1F448406800F48030B0F5803F0AD177
:10608000F048006800F40030002860D06068002804
:106090005DD10120B0E700BF6068B0F5803F06D158
:1060A000E848006840F48030E649086028E060680D
:1060B00058B9E448006820F48030E2490860084696
:1060C000006820F4802008601AE06068B0F5A02F16
:1060D0000BD1DC48006840F48020DA4908600846AB
:1060E000006840F4803008600AE0D648006820F478
:1060F0008030D44908600846006820F48020086099
:1061000000BF606890B1FFF7B3FC054607E0FFF7FA
:10611000AFFC401B642802D903206DE717E0C94893
:10612000006800F400300028F1D010E0FFF7A0FC78
:10613000054606E0FFF79CFC401B642801D90320BC
:106140005AE7C048006800F400300028F2D12078F7
:1061500000F0020002286BD1206910B120690128EB
:1061600000D104E040F2A111AAA000F0FDFC60699A
:106170001F2800D804E04FF4D171A6A000F0F4FC71
:10618000B048406800F00C0050B1AE48406800F0E4
:106190000C00082818D1AB48406800F4803098B94A
:1061A000A848006800F0020020B12069012801D051
:1061B000012021E7A348006820F0F800616940EA67
:1061C000C100A049086033E02069E8B101209E4980
:1061D0000860FFF74DFC054606E0FFF749FC401B51
:1061E000022801D9032007E79648006800F0020062
:1061F0000028F2D09348006820F0F800616940EA76
:10620000C1009049086013E000208F490860FFF743
:106210002FFC054606E0FFF72BFC401B022801D9A6
:106220000320E9E68748006800F002000028F2D168
:10623000207800F00800082838D1A06910B1A069C2
:10624000012800D104E04FF4F17172A000F08CFC41
:10625000A069B8B101207D490860FFF709FC054637
:1062600006E0FFF705FC401B022801D90320C3E626
:106270007448406A00F002000028F2D0012000F0CB
:10628000FFFA13E0002071490860FFF7F1FB0546B3
:1062900006E0FFF7EDFB401B022801D90320ABE627
:1062A0006848406A00F002000028F2D1207800F02F
:1062B0000400042878D10027E06828B1E0680128AC
:1062C00002D0E068052800D104E040F2112151A07D
:1062D00000F04AFC5B48C06900F0805070B900BF14
:1062E0005848C06940F080505649C8610846C069A6
:1062F00000F08050009000BF00BF012754480068A4
:1063000000F48070B0B95248006840F48070504981
:106310000860FFF7ADFB054606E0FFF7A9FB401B51
:10632000642801D9032067E64948006800F48070BA
:106330000028F2D000BFE068012806D14148006A79
:1063400040F001003F49086227E0E06858B93D4845
:10635000006A20F001003B4908620846006A20F00C
:106360000400086219E0E06805280BD13548006A8E
:1063700040F00400334908620846006A40F001001A
:1063800008620AE02F48006A20F001002D490862E7
:106390000846006A20F00400086200BFE068A0B16F
:1063A000FFF766FB054609E02BE0FFF761FB401BAA
:1063B00041F28831884201D903201DE62148006A54
:1063C00000F002000028F0D012E0FFF751FB054674
:1063D00008E0FFF74DFB401B41F28831884201D9AC
:1063E000032009E61748006A00F002000028F0D1F7
:1063F000012F05D11348C06920F080501149C861B0
:1064000000BFE06928B1E069012802D0E0690228F4
:1064100020D125E053544D3332463178785F4841DE
:106420004C5F4472697665725C5372635C73746D21
:106430003332663178785F68616C5F7263632E63B4
:10644000000000000010024000004242800442426E
:106450000070004040F2AF21AFF2480000F084FB32
:10646000E069002875D06748406800F00C000828F3
:1064700070D0E06902286ED1206A18B1206AB0F5A8
:10648000803F00D105E04FF42E71AFF2780000F0AC
:106490006BFB606AB8B3606AB0F5802F33D0606A76
:1064A000B0F5002F2FD0606AB0F5402F2BD0606A76
:1064B000B0F5801F27D0606AB0F5A01F23D0606AB6
:1064C000B0F5C01F1FD0606AB0F5E01F1BD0606A36
:1064D000B0F5001F17D0606AB0F5101F13D0606AC6
:1064E000B0F5201F0FD0606AB0F5301F0BD0606A86
:1064F000B0F5401F07D0606AB0F5501F03D0606A46
:10650000B0F5601F00D105E040F2B921AFF2FC0008
:1065100000F02AFB00203C490866FFF7A9FA05466F
:1065200006E0FFF7A5FA401B022801D9032063E526
:106530003448006800F000700028F2D1206AB0F5FD
:10654000803F17D1A06818B1A068B0F5003F03D113
:1065500008E055E042E02CE040F2CF21AFF24C10D1
:1065600000F002FB2748406820F40030A16808438F
:1065700024494860D4E9080108432249496821F4C4
:10658000741108431F49486001201F490866FFF73E
:106590006FFA054606E0FFF76BFA401B022801D9A7
:1065A000032029E51748006800F000700028F2D0A9
:1065B00026E0002014490866FFF75AFA054606E06F
:1065C000FFF756FA401B022801D9032014E50D48B5
:1065D000006800F000700028F2D111E0E0690128A5
:1065E00000D109E50748466806F48031206A8142F7
:1065F00004D106F47011606A814201D00120FBE4ED
:106600000020F9E4001002400000424270B5044648
:106610002546681EB0F1807F01D301200FE0681E7F
:106620004FF0E02148610F214FF0FF3000F054FAA5
:1066300000204FF0E021886107200861002070BD34
:1066400010B504460CB9012010BDA069002826D061
:106650003E492068884207D03D492068884203D0DF
:106660003C492068884200D104E04FF4B6713AA05A
:1066700000F07AFAA06958B1A069B0F5807F07D020
:10668000A069B0F5007F03D0A069B0F5407F00D1CC
:106690001FE040F26D1130A000F066FA19E02B49BE
:1066A000206888420FD02A49206888420BD02949A7
:1066B0002068884207D034492068884203D0334993
:1066C0002068884200D104E040F2711122A000F05D
:1066D0004BFAA06818B1A068B0F5805F00D104E063
:1066E00040F273111CA000F03FFA94F83D0028B965
:1066F000002084F83C00204600F04AF8242084F86A
:106700003D002068C06820F400502168C860204621
:1067100000F0D6F82068006920F4904021680861F4
:106720002068406920F02A00216848612068C0681C
:1067300040F400502168C86000202064202084F8C4
:106740003D0084F83E0000207EE700000038014054
:10675000004400400048004053544D3332463178E5
:10676000785F48414C5F4472697665725C5372632E
:106770005C73746D3332663178785F68616C5F7515
:106780006172742E63000000004C00400050004015
:1067900070472DE9F84F04460E46174699464FF0CC
:1067A000000A94F83D0020285AD106B117B90120FB
:1067B000BDE8F88F00BF94F83C00012801D1022009
:1067C000F6E7012084F83C0000BF0020206421206F
:1067D00084F83D00FFF74CF98246A784E784A0685F
:1067E000B0F5805F04D1206910B90025B04602E001
:1067F00035464FF0000800BF002084F83C0000BF81
:106800001BE05346002280212046CDF8009000F086
:1068100025F908B10320CBE745B9B8F80000C0F36B
:1068200008002168486008F1020803E02878216820
:1068300048606D1CE08C401EE084E08C0028E0D1B4
:106840005346002240212046CDF8009000F006F982
:1068500008B10320ACE7202084F83D000020A7E722
:106860000220A5E702A0FEF7DDFC00BFFEE7000066
:1068700048617264204572726F72210A0000000044
:1068800008B508490968C9084FF47A72B1FBF2F1FA
:106890004143009100BF00BF00994A1E00920029A9
:1068A000F9D108BD1400002010B5FFF7E7F810BDBE
:1068B00001480249086070470050000808ED00E0F8
:1068C00070B5044657496068884200D804E040F635
:1068D000536155A000F048F9E06818B1E068B0F5E0
:1068E000005F00D104E040F654614FA000F03CF995
:1068F000206938B12069B0F5806F03D02069B0F508
:10690000C06F00D104E040F6556147A000F02CF9BB
:106910004FF6F3716069084010B9606900B104E096
:1069200040F6566140A000F01FF92068006920F48D
:106930004050E1680843216808612169A068084364
:10694000616940EA01062068C06841F20C61884331
:1069500030432168C8602068406920F44070A16914
:106960000843216848613C492068884203D1FFF709
:10697000E5FA054602E0FFF7D1FA054605EBC5004A
:1069800000EB051061688900B0FBF1F005EBC50173
:1069900001EB051162689200B1FBF2F16422B1FBD8
:1069A000F2F101EBC10202EB0111A0EB81003221F7
:1069B00001EB00106421B0FBF1F000F0F00005EBFA
:1069C000C50101EB051162689200B1FBF2F164228E
:1069D000B1FBF2F100EB011105EBC50000EB051076
:1069E00062689200B0FBF2F005EBC50202EB051203
:1069F00063689B00B2FBF3F26423B2FBF3F202EB99
:106A0000C20303EB0212A0EB8200322202EB001061
:106A10006422B0FBF2F000F00F00084421688860A7
:106A200070BD000020AA440053544D3332463178E3
:106A3000785F48414C5F4472697665725C5372635B
:106A40005C73746D3332663178785F68616C5F7542
:106A50006172742E63000000003801402DE9F0419E
:106A600004460D4617469846069E21E0701CF8B174
:106A70002EB1FEF7FDFFA0EB0800B04218D9206848
:106A8000C06820F4D0702168C8602068406920F098
:106A9000010021684861202084F83D0084F83E0010
:106AA00000BF002084F83C0000BF0320BDE8F08157
:106AB000206800682840A84201D1012000E00020A1
:106AC000B842D3D00020F1E702480068C0F30220AA
:106AD000704700000CED00E010B5002804DB0A0749
:106AE000130E054A135406E00A07140E034A00F079
:106AF0000F031B1FD45410BD00E400E018ED00E0AC
:106B000030380A2801D20120704700207047000069
:106B10000446214602A0FEF785FB00BFFEE7000009
:106B2000457869746564212072657475726E636F4F
:106B300064653D25640A000001B500980A2807D164
:106B40004FF0FF33022206A10648FFF722FE06E0BF
:106B50004FF0FF33012269460248FFF71AFE08BDD5
:106B60000D0A00001800002004460D462B46224660
:106B7000024903A0FEF756FB00BFFEE7386D000890
:106B800025733A2066696C65202573206F6E206C32
:106B9000696E652025640A0010B590B014210BA819
:106BA000FEF74EFC282101A8FEF74AFC01200190C7
:106BB000000402904FF4E0110A910146099102206D
:106BC000089001A8FFF714FA04464CB10020029087
:106BD0004FF460110A910021099101A8FFF708FA0A
:106BE0000B48406820F4404040F4004008494860A9
:106BF0000F200B9002200C9000200D9008150E9095
:106C000000200F9002210BA8FFF722F810B010BD52
:106C10000010024070B505460C462068012802D0DD
:106C20002068022804D12846FFF786FF284670BD59
:106C30004FF0FF30FBE700000024FEF72BFFFFF7CB
:106C4000ABFF4FF4E13000F031F80948016809A0CA
:106C5000FEF7E8FA0CA0FEF7E5FA08E021460DA0E1
:106C6000FEF7E0FA4FF47A70FEF7E2FC641CF5E7F9
:106C70001400002053797374656D436F7265436C23
:106C80006F636B3D25750A00496E205768696C6516
:106C90000A00000056332E30302061707074657326
:106CA000742C20636E743D25640A000010B586B014
:106CB000044600BF1C48806940F004001A498861FE
:106CC0000846806900F00400019000BF00BF00BFCB
:106CD0000846806940F4804088610846806900F475
:106CE0008040019000BF00BF02200390000202908C
:106CF0000220059002A90D48FEF7AEFC002003908B
:106D00004FF4806002900120049002A90748FEF72A
:106D1000A3FC074807490860084644600C2141610C
:106D2000FFF78EFC06B010BD0010024000080140C5
:106D300000380140180000206173736572745F664B
:106D400061696C6564000000000000000000010241
:106D50000304060708090000000001020304040000
:106D60000008000000000000000200010000100008
:106D7000906D000800000020180000006C51000811
:106D8000A86D000818000020A8060000885100081F
:106D900001000000020000000000000010000000E0
:086DA000010000000024F400D2
:04000005080051316D
:00000001FF
