:020000040800F2
:10000000F82E00204501000825040008D10300084F
:100010002104000851020008770D000800000000CC
:10002000000000000000000000000000B107000810
:10003000B502000800000000AD040008C508000873
:100040005F0100085F0100085F0100085F01000810
:100050005F0100085F0100085F0100085F01000800
:100060005F0100085F0100085F0100085F010008F0
:100070005F0100085F0100085F0100085F010008E0
:100080005F0100085F0100085F0100085F010008D0
:100090005F0100085F0100085F0100085F010008C0
:1000A0005F0100085F0100085F0100085F010008B0
:1000B0005F0100085F010008650900085F01000892
:1000C0005F0100085F0100085F0100085F01000890
:1000D0005F010008D10900085F010008C10A00089B
:1000E0005F0100085F0100085F0100085F01000870
:1000F0005F0100085F0100085F0100085F01000860
:100100005F010008410600085F0100085F01000868
:100110005F0100085F0100085F0100085F0100083F
:100120005F0100085F0100085F0100085F0100082F
:10013000DFF80CD000F07AF800480047ED10000816
:10014000F82E00200648804706480047FEE7FEE7F5
:10015000FEE7FEE7FEE7FEE7FEE7FEE7FEE7FEE777
:1001600005090008310100082DE9F05F054600206F
:1001700092469B4688460646814640241BE0284618
:1001800041464746224600F041F853465A46C01AB7
:10019000914110D311461846224600F028F82D1A36
:1001A00067EB01084F4622460120002100F01FF8AE
:1001B00017EB00094E41201EA4F10104DFDC484684
:1001C00031462A464346BDE8F09FD2B201E000F82E
:1001D000012B491EFBD270470022F6E710B51346EB
:1001E0000A4604461946FFF7F0FF204610BD202AB4
:1001F00004DB203A00FA02F1002070479140C2F17E
:10020000200320FA03F3194390407047202A04DBAF
:10021000203A21FA02F00021704721FA02F3D0407F
:10022000C2F120029140084319467047064C074D21
:1002300006E0E06840F0010394E8070098471034B6
:10024000AC42F6D3FFF778FF701100089011000858
:1002500000BFFEE770B5044605E01548456B05F0A4
:10026000450000B100E0F8E700BF042000F0DCF931
:1002700020B1042000F0D2F9032070BD012000F06D
:10028000D3F920B1012000F0C9F90120F5E70848B1
:100290000069A04201D01020EFE740F2FF5004496E
:1002A00088630846406908210840C0B2E5E70000BD
:1002B0000080014070472DE9F041024600250026EC
:1002C000002000230024002791F803C00CF00F0544
:1002D00091F803C00CF0100CBCF1000F03D091F8A2
:1002E00002C04CEA050591F800C0BCF1000F31D006
:1002F000146800202BE04FF0010C0CFA00F3B1F869
:1003000000C00CEA03069E4220D183004FF00F0C80
:100310000CFA03F7BC4305FA03FC4CEA040491F819
:1003200003C0BCF1280F06D14FF0010C0CFA00FC01
:10033000C2F814C00AE091F803C0BCF1480F05D11F
:100340004FF0010C0CFA00FCC2F810C0401C082849
:10035000D1D31460B1F800C0BCF1FF0F34DD546894
:1003600000202EE000F1080C4FF0010808FA0CF311
:10037000B1F800C00CEA03069E4221D183004FF081
:100380000F0C0CFA03F7BC4305FA03FC4CEA040417
:1003900091F803C0BCF1280F05D100F1080C08FA50
:1003A0000CF8C2F8148091F803C0BCF1480F07D1D3
:1003B00000F1080C4FF0010808FA0CF8C2F81080A0
:1003C000401C0828CED35460BDE8F081016170471D
:1003D00000BFFEE708B50121482000F0A5F8202065
:1003E000ADF8000010208DF8030003208DF8020006
:1003F00069460948FFF75FFF20210748FFF7E6FF3E
:100400002020ADF8000069460448FFF754FF202182
:100410000248FFF7DBFF08BD000C01400018014057
:1004200000BFFEE77047000070B5002100230F22D7
:10043000C47804B3154C246804F4E064C4F5E064A3
:10044000210AC1F10403CA40447804FA03F1847814
:100450001440214309010E4C0678A155047804F09C
:100460001F050124AC4005786D11AD0005F1E025B4
:10047000C5F8004109E0047804F01F050124AC40F0
:10048000044D0678761145F8264070BD0CED00E06D
:1004900000E400E080E100E002490143024A11600B
:1004A000704700000000FA050CED00E070470146BF
:1004B0004FF42050425C401C405C824201D101203C
:1004C00070470020FCE710B503460C461846FFF7BE
:1004D000EEFF10B14FF0FF3010BD4FF42050C05C64
:1004E000185C20704FF42050C05C401C42F60201A2
:1004F000C95A90FBF1F201FB1200C1B24FF4205037
:10050000C1540020E8E7000029B1064AD26902433D
:10051000044BDA6104E0034AD2698243014BDA6199
:10052000704700000010024029B1064A9269024358
:10053000044B9A6104E0034A92698243014B9A6139
:10054000704700000010024030B500210022002456
:1005500000232D4D6D6805F00C0121B1042905D053
:10056000082923D105E0294D056022E0274D0560CB
:100570001FE0254D6D6805F47012234D6D6805F47C
:100580008034022505EB92421CB9214D554305608C
:100590000BE01D4D6D6805F400351DB11C4D554334
:1005A000056002E0194D5543056002E0174D0560F6
:1005B00000BF00BF144D6D6805F0F0010909154D2D
:1005C0006B5C0568DD4045600F4D6D6805F4E061CA
:1005D000090A104D6B5C4568DD4085600A4D6D6809
:1005E00005F46051C90A0B4D6B5C4568DD40C56080
:1005F000054D6D6805F44041890B074D6B5CC5687E
:10060000B5FBF3F5056130BD0010024000127A0021
:1006100000093D000000002010000020014988630F
:10062000704700000080014001460020034A526BE1
:100630000A400AB1012000E000207047008001401C
:1006400010B500F017F810BD0021094B02689A6040
:100650001A46D1686FF30A01D0E901231A43C3682F
:100660001A4303691A431143014AD16070470000DD
:100670000080014010B54948406B00F4807070B3B1
:1006800047480078012814D10020464908600C2012
:100690004860402088600020C8604FF48060086196
:1006A0000846FFF7D1FF0C20FFF7D4FD3E49087044
:1006B00002E000203C4908703848806B40F48070AC
:1006C000364988630846C06B4CF23A318843334957
:1006D000C8630120354908703348007810BDFFE732
:1006E0000220FFF7A1FF68B10220FFF797FF2B4818
:1006F000C06B4CF23A3188432849C86302202A492A
:100700000870EBE70820FFF78FFF68B10820FFF7BC
:1007100085FF2248C06B4CF23A3188431F49C863B9
:10072000042021490870D9E72020FFF77DFF68B138
:100730002020FFF773FF1948C06B4CF23A31884311
:100740001649C863062018490870C7E71020FFF74C
:100750006BFF68B11020FFF761FF1048C06B4CF2CF
:100760003A3188430D49C86305200F490870B5E741
:100770004FF40070FFF758FF70B14FF40070FFF7AF
:100780004DFF0648C06B4CF23A3188430349C863B9
:10079000072005490870A1E700209FE7008001407D
:1007A0001D000020480000201E0000201F00002027
:1007B000704710B500F002F810BD00000CB5002025
:1007C000019000903348006840F48030314908605F
:1007D00000BF3048006800F4003000900198401CD1
:1007E0000190009818B90198B0F5A06FF1D129488F
:1007F000006800F4003010B10120009001E00020FA
:1008000000900098012843D12348006840F0100070
:10081000214908600846006820F003000860084687
:10082000006840F0020008601A48406819494860B2
:100830000846406848600846406840F48060486068
:100840000846406820F47C1048600846406840F440
:10085000E81048600846006840F08070086000BFFB
:100860000C48006800F000700028F9D00948406882
:1008700020F00300074948600846406840F0020045
:10088000486000BF0348406800F00C000828F9D118
:100890000CBD00000010024000200240042808D1D6
:1008A0004FF0E021096941F004014FF0E0221161AD
:1008B00007E04FF0E021096921F004014FF0E02248
:1008C000116170477047000010B504466FF00400D6
:1008D000FFF7E4FFE11704EB5171C1F3C701074AC9
:1008E00011701046007800EB4001C1EBC0104FF6CC
:1008F000FF7101EAC0000249088010BD24000020F9
:100900002600002010B51348006840F0010011498E
:10091000086008464068104908400E49486008468B
:1009200000680E4908400B4908600846006820F43A
:10093000802008600846406820F4FE0048604FF4BC
:100940001F008860FFF735FF4FF000600449086022
:1009500010BD0000001002400000FFF8FFFFF6FE8F
:1009600008ED00E008B501210C4800F020F880B146
:1009700069460B48FFF7A7FD58B99DF800100948D4
:1009800000F0F5F900BF4021064800F022F90128E7
:10099000F9D10121014800F007F808BD0008004026
:1009A000F002002000480040CA430282704730B580
:1009B0000246002000230024158A05EA01039589D8
:1009C00005EA010413B10CB1012000E0002030BDA4
:1009D00010B540F225510A4800F008F970B10848F6
:1009E00000F0C0F9C4B22146064800F0C0F900BFCB
:1009F0004021044800F0EDF80128F9D110BD0000B5
:100A0000003801400048004010B586B0044601217E
:100A10000420FFF789FD01218803FFF785FD0121EF
:100A20000846FFF781FD4FF40070ADF81400032075
:100A30008DF8160018208DF8170005A91E48FFF73D
:100A40003AFC4FF48060ADF8140004208DF81700D4
:100A500005A91948FFF72FFC01940020ADF8080004
:100A6000ADF80A00ADF80C00ADF810000C20ADF8A0
:100A70000E0001A9114800F009F901210F4800F00A
:100A80009CF840210D4800F08FF8012240F22551DA
:100A90000A4800F0D5F825208DF8000003208DF8D5
:100AA00001008DF8020001208DF803006846FFF771
:100AB000BBFC06B010BD000000080140003801403A
:100AC00010B540F225510A4800F090F870B108487E
:100AD00000F048F9C4B22146064800F048F900BFCA
:100AE0004021044800F075F80128F9D110BD00003C
:100AF000004800400038014010B586B0044601218E
:100B00000820FFF711FD01218804FFF7FDFC4FF4D9
:100B10008060ADF8140003208DF8160018208DF8C1
:100B2000170005A91E48FFF7C6FB4FF40060ADF89B
:100B3000140004208DF8170005A91948FFF7BBFB26
:100B400001940020ADF80800ADF80A00ADF80C00E3
:100B5000ADF810000C20ADF80E0001A9114800F00E
:100B600095F801210F4800F028F840210D4800F0C9
:100B70001BF8012240F225510A4800F061F82720B5
:100B80008DF8000003208DF801008DF8020001208F
:100B90008DF803006846FFF747FC06B010BD000063
:100BA000000C01400048004001F40072B2F5007FE3
:100BB00000D100BFCA430280704721B1828942F44C
:100BC0000052828104E082894DF6FF731A408281CF
:100BD000704702460020B1F5007F00D100BF1388A6
:100BE0000B400BB1012000E00020704770B50246B9
:100BF000002400230025002040F66A16B14200D1EF
:100C000000BFC1F3421501F01F03012606FA03F3EA
:100C1000012D02D19689334006E0022D02D1168AB9
:100C2000334001E0968A33400C12012606FA04F4A0
:100C30001688344013B10CB1012000E0002070BDD3
:100C4000F0B50346002400260025002040F66A1770
:100C5000B94200D100BF1846C1F3421401F01F068B
:100C6000012707FA06F5012C01D10C3004E0022C13
:100C700001D1103000E014301AB107682F4307602B
:100C800002E00768AF430760F0BD00002DE9F047C0
:100C900086B005460E460024A24600BFA1460027A6
:100CA000B08900B100BF2F462C8A4CF6FF7004407B
:100CB000F08804432C82AC894EF6F3100440B088CF
:100CC00031890843718908430443AC81AC8A4FF6EB
:100CD000FF400440B0890443AC8201A8FFF734FC14
:100CE0001F48874202D1DDF810A001E0DDF80CA01A
:100CF000A88900F4004040B10AEBCA0000EB0A10DA
:100D000031684900B0FBF1F807E00AEBCA0000EBDC
:100D10000A1031688900B0FBF1F86420B8FBF0F0EC
:100D200004012009642101FB1089A88900F4004016
:100D300040B1322000EBC900B0FBF1F000F0070039
:100D4000044308E0322000EB09106421B0FBF1F00D
:100D500000F00F0004432C8106B0BDE8F0870000CE
:100D60000038014001468888C0F308007047C1F38D
:100D700008028280704700BFFEE700000FB4054BF9
:100D800010B503A9044A029800F018F810BC5DF8E9
:100D900014FB0000C91000082800002002E008C869
:100DA000121F08C1002AFAD170477047002001E0E5
:100DB00001C1121F002AFBD1704700002DE9FF4F2F
:100DC0008DB09B460F460446002606E025280BD032
:100DD0005A460F999047641C761C20780028F5D15C
:100DE00011B03046BDE8F08F0025A8460122984991
:100DF00000E0054314F8013F203B02FA03F00842EB
:100E0000F7D120782E2817D114F8010F45F00405EA
:100E10002A280ED06FF02F022078A0F13001092986
:100E20000AD808EB880102EB410100EB0108641CC1
:100E3000F2E757F8048B641C20786C280DD004DC92
:100E40004C2812D06A2811D104E074280DD07A28D9
:100E50000CD10AE045F4001507E0617845F48015EF
:100E6000814202D1641C05F58015641C2278692A30
:100E700045D008DC002AB3D0582A69D0632A10D0A4
:100E8000642A08D13BE0702A67D0732A13D0752AF0
:100E90005CD0782A5CD010465A460F999047761C51
:100EA000D3E017F8040B8DF8000000208DF8010046
:100EB000E946012003E057F8049B4FF0FF30690733
:100EC0004FF0000501D40AE06D1C45450DDA85425E
:100ED000FADB19F805100029F6D106E06D1C8542F1
:100EE000FCDB19F805100029F8D12E4404E019F8AC
:100EF000010B5A460F9990476D1EF8D2A5E00A20C3
:100F00000021CDE90801C5F3025002280DD001CF20
:100F1000C117031E71F100030DDA4FF0000CD0EB86
:100F20000C006CEB01012D2308E0FF1D27F00707E3
:100F3000F7E80201EDE72B0504D52B238DF82830C7
:100F400001233BE0EB0739D02023F7E70A2000E03C
:100F500010200021CDE9080107E01020002145F014
:100F60000405CDE908014FF00808C5F30250022836
:100F70000FD001CF00214FF0000A2B071FD5702A98
:100F80000DD0DDE908C38CF0100C5CEA030C0CD02A
:100F900015E0FF1D27F00707F7E80201EBE7402205
:100FA0008DF828204FF0010A0BE050EA010306D02B
:100FB00030238DF828308DF8292002239A46582AAC
:100FC00004D024A20DF120090B9209E026A2F9E732
:100FD000DDE90823FFF7C8F80B9B9B5C09F8013D8E
:100FE00050EA0102F4D1ADEB090020300890680707
:100FF00001D44FF001080899884502DDA8EB0100F3
:1010000000E000208046002506E00AA85A46405D20
:101010000F9990476D1C761C5545F6DB04E0302097
:101020005A460F999047761CB8F10001A8F10108C3
:10103000F5DC05E019F8010B5A460F999047761C2C
:101040000899481E08900029F4DC641CC5E60000DD
:10105000092801003031323334353637383961628E
:101060006364656600000000303132333435363752
:101070003839414243444546000000000146114AC8
:1010800012884A434FF0E0235A6100229A611A46BF
:10109000126942F001021A6100BF4FF0E0221069AC
:1010A00000F001021AB100F48032002AF5D04FF0AE
:1010B000E022126922F001024FF0E0231A610022BF
:1010C0009A6170472600002070B504460D46E1B2D3
:1010D0000548FFF74CFE00BF80210348FFF779FD6C
:1010E0000028F9D0204670BD00380140A8B000BFEC
:1010F00000BF202120A8FFF76FF880216846FFF786
:101100006BF800244820FFF7DFFB4FF4A060FFF7E7
:10111000C3F9FFF75FF94FF4E130FFF775FC4FF4C7
:10112000E130FFF7E9FC2078022800D100E001203F
:10113000014608A0FFF722FE0BE00C48006808B942
:10114000012000E00020094908604FF4FA70FFF721
:1011500095FFF2E753746172742052756E204170EE
:101160007025642E2E2E0D0A0000000094012342EB
:1011700090110008000000202C0000009C0D0008C9
:10118000BC1100082C000020CC2E0000AC0D000883
:10119000000000000102030401020304060708091D
:1011A000020406080000000000000000010000002A
:0C11B00000000000000000000000000033
:0400000508000131BD
:00000001FF
