:020000040800F2
:100000000007002045010008B50D00082F0A000870
:10001000B10D0008B1040008FF2500080000000031
:10002000000000000000000000000000892100081E
:10003000AD06000800000000490E00089D220008DF
:100040005F0100085F0100085F0100081912000845
:100050005F0100085F0100085F0100085F01000800
:100060005F0100085F0100085F0100085F010008F0
:100070005F0100085F0100085F0100085F010008E0
:100080005F0100085F0100085F0100085F010008D0
:100090005F0100085F0100085F0100085F010008C0
:1000A0005F0100085F0100085F0100085F010008B0
:1000B0005F0100085F0100085F0100085F010008A0
:1000C0005F0100085F0100085F0100085F01000890
:1000D0005F0100083D2300085F0100085F01000880
:1000E0005F0100085F0100085F0100085F01000870
:1000F0005F0100085F0100085F0100085F01000860
:100100005F010008991600085F0100085F01000800
:100110005F0100085F0100085F0100085F0100083F
:100120005F0100085F0100085F0100085F0100082F
:10013000DFF80CD000F068F800480047C12900083B
:10014000000700200648804706480047FEE7FEE714
:10015000FEE7FEE7FEE7FEE7FEE7FEE7FEE7FEE777
:10016000DD220008310100082DE9F05F054600207E
:1001700092469B4688460646814640241BE0284618
:1001800041464746224600F02FF853465A46C01AC9
:10019000914110D311461846224600F016F82D1A48
:1001A00067EB01084F4622460120002100F00DF8C0
:1001B00017EB00094E41201EA4F10104DFDC484684
:1001C00031462A464346BDE8F09F202A04DB203A08
:1001D00000FA02F1002070479140C2F1200320FA9A
:1001E00003F3194390407047202A04DB203A21FA98
:1001F00002F00021704721FA02F3D040C2F1200240
:100200009140084319467047064C074D06E0E068E8
:1002100040F0010394E8070098471034AC42F6D34D
:10022000FFF78AFF182C0008382C000821B18268DB
:1002300042F00102826003E0826822F001028260E3
:100240007047014600208A6802F004020AB10120CA
:1002500000E000207047014600208A6802F0080292
:100260000AB1012000E000207047000030B50246CE
:100270000020002350680F4C20400D790C6844EAA0
:1002800005242043506090680B4C2040D1E9025473
:100290002C434D7944EA450420439060D06A20F411
:1002A00070000C7C641EE4B2234340EA0350D06229
:1002B00030BD0000FFFEF0FFFDF7F1FF816841F067
:1002C00008018160704721B1826842F4A002826017
:1002D00003E0826822F4A00282607047816841F0E6
:1002E000040181607047000030B10749096841F49A
:1002F0000001054A116005E00349096821F4000185
:10030000014A1160704700000824014000B585B023
:100310000121480200F0C6FD4FF4004000F096FDB8
:100320000120FFF7E1FF002000908DF804008DF818
:1003300005004FF4602002900020039001208DF80A
:10034000100069460F48FFF791FF01210D48FFF7A4
:100350006DFF0C48FFF7B2FF00BF0A48FFF77BFFB5
:100360000028FAD10748FFF7B9FF00BF0548FFF79B
:1003700068FF0028FAD101210248FFF7A4FF05B069
:1003800000BD00000024014010B5FF2000F017F868
:100390000446362C01D1002010BD3621FF2000F08C
:1003A0003AF8FF2000F00BF80446362C01D100206B
:1003B000F2E70120F0E710B500F058FB10BD70B572
:1003C0000446002600F0F2FB2546E11704EB11611C
:1003D0000912A02202EB4101C8B200F0B5FB00F007
:1003E0001DFCE11704EB11610912A4EB0121C8B255
:1003F00000F0AAFB00F012FC00F0D8FBA12000F0F6
:10040000A3FB00F00BFC002000F072FB064600F09E
:10041000E9FB304670BD70B504460E4600F0C6FBE1
:100420002546E11704EB11610912A02202EB4101FC
:10043000C8B200F089FB00F0F1FBE11704EB116199
:100440000912A4EB0121C8B200F07EFB00F0E6FB2C
:10045000304600F079FB00F0E1FB00F0C3FB0A201E
:1004600002F050FA70BD10B5012000F02BFD002005
:1004700000F028FD10BD000008B5014600200090E6
:10048000034800900098084400900098008808BD38
:10049000006C004008B500220092044A0092009AC5
:1004A00002440092009A116008BD0000006C0040F8
:1004B00000BFFEE770B500254FF4803404E08020D3
:1004C00001F0D6F800B103E0201EA4F10104F6D13A
:1004D00000BF0CB9032070BD40F2FF5001F088F856
:1004E0002846F8E770B5044605E01548456B05F069
:1004F000450000B100E0F8E700BF042001F0B8F8C3
:1005000020B1042001F074F8032070BD012001F037
:10051000AFF820B1012001F06BF80120F5E70848A1
:100520000069A04201D01020EFE740F2FF500449DB
:1005300088630846406908210840C0B2E5E700002A
:100540000080014070B500264FF4803505E0114869
:10055000446B04F0450000B103E0281EA5F101053D
:10056000F5D100BF15B104F0040028B10326042022
:1005700001F03EF8304670BD012001F079F818B165
:100580000126012001F034F840F2FF5001F030F86C
:100590003046F0E70080014010B505E00B48446BA1
:1005A00004F0450000B100E0F8E700BF042001F0CE
:1005B0005FF820B1042001F01BF8032010BD40F2C9
:1005C000FF5001F015F80020F8E70000008001401E
:1005D0002DE9F04105460E464FF0000805E01F48A2
:1005E000476B07F0450000B100E0F8E700BF0420CA
:1005F00001F03EF828B1042000F0FAFF0320BDE826
:10060000F081012001F034F820B1012000F0F0FF6A
:100610000120F4E711480069A84201D01020EEE75C
:1006200040F2FF5000F0E4FF0C48446904F46040DD
:1006300018B9200C30804046E1E704F4005008B1BE
:100640001320DCE704F4804008B11020D7E704F45D
:10065000004008B10F20D2E74046D0E700800140BB
:1006600070B500264FF4803505E00F48446B04F068
:10067000450000B103E0281EA5F10105F5D100BF3A
:1006800015B104F0040028B10326042000F0B0FFE7
:10069000304670BD04F0400018B10026402000F044
:1006A000A7FF3046F5E700000080014070470000DA
:1006B00008B501214FF4847000F0F4FB4FF4805032
:1006C000ADF8000010208DF8030003208DF8020023
:1006D0006946114800F01EF94FF480510E4800F0B1
:1006E000A4F98020ADF8000069460C4800F012F92A
:1006F00080210A4800F099F901200949086001F0B9
:10070000A9FC00F01FF8074908800846018806A0E8
:1007100001F078FF08BD0000000C014000200140FE
:10072000B081214218000020CAB9D3C3B5C4464CD9
:10073000415348D0BEC6AC4944CAC7A3BA25580DD8
:100740000A00000010B5002400200C490860902029
:1007500001F0C6FC002001F0C3FC002001F0C0FC49
:10076000002001F0BDFCFF2001F0BAFC44EA0024A7
:10077000FF2001F0B5FC0443204610BDB0812142AA
:100780002DE9FC4107460D4600260024002000907C
:10079000019008205B490860102048604020886074
:1007A0000020C8604FF480600861084600F096FFA2
:1007B0001020FFF797FE044614B12046BDE8FC81E7
:1007C0005148008800044F490860372048604020A5
:1007D00088600020C8604FF480600861084600F01F
:1007E0007DFF3720FFF77EFE04460CB12046E5E78B
:1007F0004FF0FF304549086008204860302088608D
:100800000220C8600020086101204861084600F00D
:1008100005FF00203B490860332048604020886085
:100820000020C8604FF480600861084600F056FF61
:100830003320FFF757FE04460CB12046BEE70CE01C
:100840004FF4001000F014FF38B100F041FF4DF8F4
:100850002600761C022E00D306E02D48406B40F2A5
:100860002A6108400028EBD000BF082000F000FFFC
:1008700020B1082000F0BCFE04209FE7022000F019
:10088000F7FE20B1022000F0B3FE022096E7202000
:1008900000F0EEFE20B1202000F0AAFE06208DE739
:1008A0004FF4007000F0E4FE28B14FF4007000F047
:1008B0009FFE072082E740F2FF5000F099FE00986B
:1008C0000006009901F47F4140EA0120009901F4FB
:1008D0007F0140EA1120009940EA116068600198A8
:1008E0000006019901F47F4140EA0120019901F4D9
:1008F0007F0140EA1120019940EA116028602046FA
:100900005CE7000058000020200000206C00002060
:10091000008001402DE9F04102460025002600201C
:1009200000230024002791F803C00CF00F0591F874
:1009300003C00CF0100CBCF1000F03D091F802C002
:100940004CEA050591F800C0BCF1000F31D01468E5
:1009500000202BE04FF0010C0CFA00F3B1F800C0BE
:100960000CEA03069E4220D183004FF00F0C0CFAD4
:1009700003F7BC4305FA03FC4CEA040491F803C0F6
:10098000BCF1280F06D14FF0010C0CFA00FCC2F8A4
:1009900014C00AE091F803C0BCF1480F05D14FF034
:1009A000010C0CFA00FCC2F810C0401C0828D1D37E
:1009B0001460B1F800C0BCF1FF0F34DD54680020B2
:1009C0002EE000F1080C4FF0010808FA0CF3B1F822
:1009D00000C00CEA03069E4221D183004FF00F0CA9
:1009E0000CFA03F7BC4305FA03FC4CEA040491F843
:1009F00003C0BCF1280F05D100F1080C08FA0CF86F
:100A0000C2F8148091F803C0BCF1480F07D100F17F
:100A1000080C4FF0010808FA0CF8C2F81080401CCE
:100A20000828CED35460BDE8F0810161704700BF53
:100A3000FEE7000010B500200A49086000F070FDD4
:100A400000200949C1F89C01022001F081FF01202A
:100A500004490860052001F07BFF00200249C1F82D
:100A6000980110BD988121420080214208B50121E2
:100A7000082000F017FA4020ADF8000003208DF8A0
:100A8000020010208DF8030069460848FFF742FF76
:100A90008020ADF8000069460448FFF73BFF0120C5
:100AA000034908600349C1F89C0108BD000C0140DE
:100AB000988121420080214210B500200A49086037
:100AC00000F02EFD01200949C1F89C01022001F02F
:100AD0003FFF012004490860052001F039FF002094
:100AE0000249C1F8980110BD98812142008021423D
:100AF00070B50546002400F005FD002616E0002034
:100B00000F490860022001F023FF01200D49C1F8C0
:100B100098016006040E0A487C38006808B1601C21
:100B2000C4B2012001F014FF701CC6B2082EE6DB2F
:100B300015B9FFF7C1FF01E0FFF77CFF204670BD4C
:100B4000988121420080214270B5044600F0E8FC03
:100B5000002014490860002520E004F080000028EF
:100B600004DD01200F49091D086003E000200D4944
:100B7000091D08606006040E022001F0E9FE012054
:100B800008490860022001F0E3FE00200649C1F890
:100B90009801022001F0DCFE681CC5B2082DDCDBE8
:100BA00070BD0000988121420080214210B500F004
:100BB000B7FC0120094908600949C1F898010520DE
:100BC00001F0C6FE002005490860062001F0C0FEC5
:100BD00000200349C1F8980110BD00009C8121420A
:100BE0000080214210B500F09BFC002009490860FC
:100BF0000949C1F89C01012006490860062001F05E
:100C0000A7FE01200449C1F89C01062001F0A0FEC6
:100C100010BD0000988121420080214210B50024BF
:100C200001200F49086001F093FE00F06BFC0120E9
:100C30000C49C1F8980101F08BFE07E0601CC4B2BA
:100C4000FA2C03DDFFF7CEFF012010BD04488038E9
:100C500000680028F2D10249091F086000BFF4E7CC
:100C60009C812142008021420146CA1701EB927209
:100C70009210A1EB820292B9642091FBF0F200FB8A
:100C8000121050B94FF4C87091FBF0F200FB121033
:100C900008B9012070470020FCE70120FAE7002096
:100CA000F8E7000008B50121442000F0FBF801201E
:100CB000ADF8000028208DF8030069460648FFF7CC
:100CC00029FE1820ADF8000048208DF80300694681
:100CD0000248FFF71FFE08BD000801400018014050
:100CE00010B50446012C01D11B4908701A48007840
:100CF000012820D119480068012806D0184800684A
:100D000018B11748001F0068A8B90A2001F0FAFDC1
:100D100000201149087011480068012800D110BD59
:100D20000F48006808B90220F9E70D48001F006865
:100D300078B90320F3E70948006850B9084800680B
:100D4000012806D10648001F0068012801D1024988
:100D500008700020E3E70000140000200001214299
:100D60001001234208B50121482000F09BF8202003
:100D7000ADF8000010208DF8030003208DF802006C
:100D800069460948FFF7C6FD20210748FFF74DFED9
:100D90002020ADF8000069460448FFF7BBFD202184
:100DA0000248FFF742FE08BD000C01400018014058
:100DB00000BFFEE77047000070B5002100230F223E
:100DC000C47804B3154C246804F4E064C4F5E0640A
:100DD000210AC1F10403CA40447804FA03F184787B
:100DE0001440214309010E4C0678A155047804F003
:100DF0001F050124AC4005786D11AD0005F1E0251B
:100E0000C5F8004109E0047804F01F050124AC4056
:100E1000044D0678761145F8264070BD0CED00E0D3
:100E200000E400E080E100E002490143024A116071
:100E3000704700000000FA050CED00E0014908626F
:100E40007047000000000E4270470000014600207D
:100E5000034A506820F44040084350607047000047
:100E60000010024029B1064A52690243044B5A61FC
:100E700004E0034A52698243014B5A617047000003
:100E80000010024029B1064AD2690243044BDA61DC
:100E900004E0034AD2698243014BDA6170470000E3
:100EA0000010024029B1064A92690243044B9A613C
:100EB00004E0034A92698243014B9A617047000043
:100EC000001002400149086070470000400442429F
:100ED00030B500210022002400232D4D6D6805F05F
:100EE0000C0121B1042905D0082923D105E0294DA1
:100EF000056022E0274D05601FE0254D6D6805F473
:100F00007012234D6D6805F48034022505EB924282
:100F10001CB9214D554305600BE01D4D6D6805F46E
:100F200000351DB11C4D5543056002E0194D554378
:100F3000056002E0174D056000BF00BF144D6D68ED
:100F400005F0F0010909154D6B5C0568DD40456051
:100F50000F4D6D6805F4E061090A104D6B5C456842
:100F6000DD4085600A4D6D6805F46051C90A0B4D7E
:100F70006B5C4568DD40C560054D6D6805F440411A
:100F8000890B074D6B5CC568B5FBF3F5056130BD9A
:100F90000010024000127A0000093D00000000200D
:100FA0001000002010B501460022002300204A1145
:100FB000012A02D1094C236806E0022A02D1074C1B
:100FC000236A01E0054C636A01F01F02012494408A
:100FD0001C400CB1012000E0002010BD00100240B8
:100FE00000210B4A11700A4A203A82F82010012889
:100FF00002D0042808D103E00121054A117004E061
:101000000521034A117000E000BF00BF70470000D7
:101010002010024001490860704700003C04424231
:101020000249096A0143014A1162704700100240F7
:10103000024909888143014A118070470428004011
:101040000348008840F01000014908807047000004
:1010500004280040034800884FF6EF71084001491A
:10106000088070470428004070B500260024002541
:1010700000F07AF806463848B6FBF0F437480088A6
:10108000A0423CD035490C8040F2B27510E02846B1
:10109000FFF7EAFD40B1B4F5B77F02D3A4F5B7740A
:1010A00004E0681C85B206E0A4F26D14681C85B2E9
:1010B000B4F5B67FEBD800BF29488580002516E03F
:1010C00027498888FFF7D0FD30B1012D04D11D2CB0
:1010D00001D31D3C09E00CE02248405DA04203D84A
:1010E0002048405D241A00E003E0681C85B21C2CF7
:1010F000E6D200BF681C1A498871601CC871164886
:10110000B6FBF0F100FB11644FF46160B4FBF0F04A
:10111000134908704FF46160B4FBF0F100FB11401B
:101120003C21B0FBF1F00E4948704FF46160B4FB14
:10113000F0F100FB11403C21B0FBF1F201FB120089
:10114000074988700B46DA799979988800F028F871
:1011500003490872002070BD805101001600002074
:10116000340000200C2C0008002103480188001FD7
:10117000008841EA004070471C28004001460020DA
:10118000064A12880A40D0B2044A121F12880A4046
:1011900012B108B1012000E000207047042800408F
:1011A000F0B503460C461546642093FBF0F0C6B23A
:1011B000642093FBF0F700FB1730C1B2132E02DD61
:1011C00001F16400C1B20846CF1701EB977701EB3C
:1011D000A707BAB2072092FBF0F700FB172082B2F4
:1011E0005719601EDFF82CC01CF80000384482B28A
:1011F000CF1701EB9777BF10A1EB87071FB9032C1F
:1012000001DA501E82B2072092FBF0F700FB172094
:10121000C0B2F0BD002C00080EB50120FFF7AEFFF4
:1012200088B1FFF721FF1748807816494978154A99
:101230001278CDE9002102901248C3798279818821
:1012400011A001F0DFF90220FFF798FFA0B1022002
:10125000FFF7EEFEFFF708FF0A4880780949497852
:10126000084A1278CDE9002102900648C3798279B4
:1012700081880DA001F0C6F90520FFF7D9FE00F026
:1012800025F90EBD340000205254432054696D6589
:101290003A25642D25642D25642025643A25643A79
:1012A00025640D0A00000000416C61726D205469D4
:1012B0006D653A25642D25642D25642025643A2525
:1012C000643A25640D0A000029B1064A12880243D7
:1012D000044B1A8004E0034A12888243014B1A80AF
:1012E00070470000002800401CB5002401214FF089
:1012F000C050FFF7C7FD0120FFF7A0FD0420FFF756
:10130000BBF84AF2A001884240D0FFF7ACF80120B8
:10131000FFF766FE04E0601CC4B20A2001F0F2FA96
:101320004120FFF73FFE08B9FA2CF4DBFA2C01DB71
:1013300001201CBD4FF48070FFF772FE0120FFF703
:1013400069FE00F0C3F800F0CBF801210846FFF772
:10135000BBFF00F0BBF8FFF773FE47F6FF7000F02D
:10136000A5F800F0B3F83720222111230122CDE99E
:1013700000100B2140F2E37000F026F8FFF76AFE40
:101380004AF2A0010420FFF785F807E000F0A8F872
:1013900001210846FFF798FF00F098F800F004F8E4
:1013A000FFF762FE0020C4E708B503208DF80000B7
:1013B00000208DF801008DF8020001208DF8030057
:1013C0006846FFF7F9FC08BD2DE9F05F06460F46B9
:1013D00090469946DDE90AAB002440F2B27086429D
:1013E00003DB40F63300864202DD0120BDE8F09FBA
:1013F00040F2B2750AE02846FFF736FC10B12048EB
:10140000044401E01F480444681C85B2B542F2DB85
:10141000781EC7B2002510E01B48405D40F2A321B2
:10142000484304EBC0143046FFF71EFC18B1012DF1
:1014300001D116480444681C85B2BD42ECDBA8F11A
:10144000010040F2A321484304EBC014C9EB49104A
:10145000C0EB092004EB0014CAEB0A1004EB800473
:101460005C4401214FF0C050FFF70CFD0120FFF755
:10147000E5FC204600F00CF800F028F80020B5E765
:101480000085E2018033E1010C2C0008805101004D
:1014900000B50246FFF7D4FD100C03490880091D72
:1014A0000A80FFF7D7FD00BD1828004000B50246AE
:1014B000FFF7C6FDC2F3034003490880091D0A80F7
:1014C000FFF7C8FD00BD00000828004000BF03482A
:1014D000008800F020000028F9D070470428004060
:1014E000074800884FF6F77108400549088000BF9B
:1014F0000348008800F008000028F9D07047000079
:101500000428004008B58020ADF8000048208DF880
:10151000030069460148FFF7FDF908BD000C0140D2
:1015200008B58020ADF8000003208DF802001020DF
:101530008DF8030069460248FFF7ECF908BD00008A
:10154000000C01407CB5054600240020009001906D
:1015500000260DB1022600E000262248406900F076
:10156000007008B10E207CBD1F49098888B2694609
:10157000FFF706F904460CB12046F4E7019800F4A1
:10158000802060B31848008800041849086037209C
:101590004860402088600020C8604FF48060086187
:1015A000084600F09BF83720FEF79CFF04460CB17C
:1015B0002046D8E70D48066006200C4948604020C8
:1015C00088600020C8604FF480600861084600F021
:1015D00085F80620FEF786FF04462046C3E725204F
:1015E000C1E70000008001402000002058000020DA
:1015F000014988637047000000800140014908608C
:1016000070470000A00030420146034A506820F0B5
:10161000FF000843506070470080014000210A4BE2
:1016200002685A6242689A621A46D16A21F0F7014A
:10163000D0E902231A4303691A4343691A43114349
:10164000014AD16270470000008001400020064935
:10165000086048608860C86048628862C862034861
:1016600088630020C863704700800140FF07C00006
:1016700001460020034A526B0A400AB1012000E0F3
:1016800000207047008001400248006800F003001D
:10169000704700000080014010B500F019FC10BD3B
:1016A00000210A4A516847F6FF629143027D836830
:1016B0001A4343681A43C3681A4303681A43036909
:1016C0001A431143014A51607047000000800140F5
:1016D0000148006870470000808001400021094BEC
:1016E00002689A601A46D1686FF30A01D0E90123B3
:1016F0001A43C3681A4303691A431143014AD1606C
:1017000070470000008001400549096821F003018D
:10171000034A1160114609680143116070470000D7
:101720000080014070B50446002516480078032863
:1017300001D1272070BD1348007838B111480078D6
:10174000012803D00F480078022818D1022C01D3B9
:101750002720EFE7E0B2FFF7F5FE05467DB90A481E
:10176000406820F4C0500849486008464068A1B26B
:1017700040EAC1200449486008464068486028465D
:10178000D8E700001C00002000800140F0B50146B1
:1017900000200022BE4B1B7881F85630BD4B1B88C1
:1017A000A1F85430BC4B1B681A0E93090B70C2F39E
:1017B00083034B7002F003038B70B74B1B68C3F3BA
:1017C0000742CA70B44B1B88C3F307220A71B24B9D
:1017D0001A784A715B681A0E1301CB80AE4B5B68B6
:1017E000C3F30742CB8843EA1213CB8002F00F0306
:1017F0000B72A94B9B88C3F30722D3094B72C2F328
:1018000080138B72C2F34013CB72C2F300130B73BD
:1018100000234B739E4B1B783BB19D4B1B78012BD8
:1018200003D09B4B1B78032B4FD193071B0D0B61F0
:10183000994B1A790B6943EA82030B61964B9B68BB
:101840001A0E0B6943EA92130B61C2F3C2030B75C4
:1018500002F007034B75904B9B68C3F30742530993
:101860008B75C2F38203CB7593075B0F0B768A4BA4
:101870001B89C3F307220B7E43EAD2130B760B6955
:101880005B1C0024C1E912340B7E9B1C012404FA6A
:1018900003F3DC17D1E91256A5FB037C06FB03C357
:1018A00005FB0433C1E912730C7A0123A3400B65D5
:1018B0000024D1E912650B6DA6FB037C05FB03C375
:1018C00006FB0433C1E912732EE0714B1B78022B27
:1018D0002AD1714B1A7993069B0A0B616E4B9B6858
:1018E0001A0E0B6943EA02230B616B4B9B68C3F32F
:1018F00007420B6913430B61674B1B89C3F3072234
:101900000B695B1C4FF40074A3FB04464FF4806327
:101910000025A4FB037C06FB03C304FB0533C1E9DC
:1019200012734FF400730B65C2F3801301F8193F73
:1019300093065B0E4B70584B1A7A4B7843EAD213DE
:101940004B7002F07F038B70534BDB681A0ED30988
:10195000CB70C2F341130B71C2F382034B71930737
:101960001B0F8B714C4BDB68C3F307428B7943EA47
:1019700092138B71C2F34013CB7100230B7202F0F0
:1019800001034B72444B9B89C3F30722D3098B722B
:10199000C2F38013CB72C2F340130B73C2F3001374
:1019A0004B73C2F381038B7302F00303CB733A4B87
:1019B0001A7B53080B7401234B74384B1B681A0EA7
:1019C000CA741939354B1B68C3F307421402CC851E
:1019D000324B1B88C3F30722CB8D1343CB852F4B90
:1019E0001A7814060C635B681A0E0B6B43EA024408
:1019F0000C632A4B5B68C3F307420B6B43EA022478
:101A00000C63264B9B88C3F307220B6B13430B63BA
:101A1000224B1A7934235A54204B9B681A0E3523D3
:101A20005A541E4B9B68C3F3074214068C631B4B2E
:101A30001B89C3F307228B6B43EA02448C63174B69
:101A40001A7A8B6B43EA02248C63144BDB681A0E00
:101A50008B6B13438B63114BDB68C3F307423C234F
:101A60005B5C43EA12143C235C5413071C0DCC87C7
:101A70000A4B9B89C3F30722CB8F1343CB87074BBA
:101A80001A7B540840235C54012441235C54F0BD6C
:101A90001C00002020000020840000209400002072
:101AA0007CB50025002401213020FFF7FBF901213E
:101AB00040F20240FFF7D6F94FF4F850ADF80000BD
:101AC00018208DF8030003208DF802006946304885
:101AD000FEF720FF0420ADF8000018208DF8030069
:101AE00003208DF8020069462A48FEF713FF802084
:101AF000ADF8000048208DF8030003208DF80200A7
:101B000069462448FEF706FFFFF7A0FD31208DF857
:101B1000040000208DF805008DF8060001208DF8E6
:101B2000070001A8FFF748F900F0E4F8044614B9EB
:101B300000F036F804461CB91748FFF727FE0446A4
:101B400034B91549B1F85410080400F05FFA04469E
:101B50001CB90120FFF7E6FD04461CB10F480078D0
:101B6000032812D10C4890F8560020B10A4890F88A
:101B70005600012801D10A2500E004252846FFF778
:101B800043FD002000F05AFA044620467CBD0000C8
:101B90000010014000140140A80000201C0000209B
:101BA00038B5002401200090FFF76EFD08B925200C
:101BB00038BD4A480078042821D0002048490860F0
:101BC00002204860C02088600020C8604FF4806018
:101BD00008610846FFF782FDFEF7B4FC04460CB12D
:101BE0002046E5E73F4840693F4908603D48806935
:101BF00048603C48C06988603A48006AC860374815
:101C0000007858B135480078012807D0334800786B
:101C1000062803D031480078022816D10020304928
:101C2000086003204860402088600020C8604FF4AE
:101C3000806008610846FFF751FD69460320FEF702
:101C4000C7FC04460CB12046B2E7244800780328BC
:101C500016D1BDF800000004214908600320486047
:101C6000402088600020C8604FF48060086108460A
:101C7000FFF734FDFEF766FC04460CB1204697E7FB
:101C800016480078042827D0BDF8000017490860DE
:101C9000BDF8000000041249086009204860C02017
:101CA00088600020C8604FF4806008610846FFF734
:101CB00015FDFEF747FC04460CB1204678E70948BD
:101CC00040690B4908600748806948600548C06959
:101CD00088600448006AC860002069E71C00002092
:101CE00058000020008001409400002020000020C7
:101CF000840000202DE9F04700270024002600255D
:101D0000A046A146B2206C490875002008604860D2
:101D10008860C86008610846FFF7C2FC0320FFF72F
:101D2000F3FC0120FFF76AFC00BF12E000206349CA
:101D3000086048608860C8604FF4806008610846A9
:101D4000FFF7CCFCFEF7B6FB044604B903E0781CB1
:101D5000C7B24A2FEADB00BF14B12046BDE8F087C6
:101D60004FF4D570554908600820486040208860CD
:101D70000020C8604FF4806008610846FFF7AEFCA1
:101D8000FEF76EFC044624B901204D4908704FF05F
:101D90008049002049490860372048604020886019
:101DA0000020C8604FF4806008610846FFF796FC89
:101DB0003720FEF797FB0446002C4BD134E000207F
:101DC0003E49086037204860402088600020C86095
:101DD0004FF4806008610846FFF780FC3720FEF76B
:101DE00081FB04460CB12046B8E7364849EA0000BA
:101DF0003249086029204860402088600020C8607F
:101E00004FF4806008610846FFF768FCFEF7C4FBEA
:101E100004460CB12046A1E72B484669012080EA20
:101E2000D67080F001086D1CB8F1000F03D14FF699
:101E3000FF708542C3D34FF6FF70854202D31B2447
:101E400020468BE706F08040061E32D002201C4957
:101E500008702EE01CE01D48184908600120486009
:101E6000402088600020C8604FF480600861084608
:101E7000FFF734FCFEF790FB04460CB120466DE7FB
:101E800011484669012080EAD67080F001086D1C77
:101E9000B8F1000F03D14FF6FF708542DBD34FF648
:101EA000FF70854202D31B24204657E703200449D4
:101EB0000870204652E70000400000205800002033
:101EC0001C00002000001080008001400080FF8086
:101ED00010B54948406B00F4807070B347480078F3
:101EE000012814D10020464908600C204860402099
:101EF00088600020C8604FF4806008610846FFF7E2
:101F0000EDFB0C20FEF7EEFA3E49087002E00020DF
:101F10003C4908703848806B40F4807036498863CB
:101F20000846C06B4CF23A3188433349C8630120FC
:101F3000354908703348007810BDFFE70220FFF7ED
:101F400097FB68B10220FFF753FB2B48C06B4CF2A4
:101F50003A3188432849C86302202A490870EBE7D0
:101F60000820FFF785FB68B10820FFF741FB2248F6
:101F7000C06B4CF23A3188431F49C86304202149A1
:101F80000870D9E72020FFF773FB68B12020FFF726
:101F90002FFB1948C06B4CF23A3188431649C8638D
:101FA000062018490870C7E71020FFF761FB68B1E9
:101FB0001020FFF71DFB1048C06B4CF23A318843EC
:101FC0000D49C86305200F490870B5E74FF400704C
:101FD000FFF74EFB70B14FF40070FFF709FB0648A6
:101FE000C06B4CF23A3188430349C8630720054966
:101FF0000870A1E700209FE7008001402500002035
:1020000058000020260000202700002010B50446BC
:102010000948046007200849486040208860002083
:10202000C8604FF4806008610846FFF757FB07203F
:10203000FEF758FA10BD00005800002001460020AD
:10204000012900D011B9024B197000E02620704719
:102050002400002000B587B001210820FEF722FFF0
:1020600001218803FEF70EFF4FF46040ADF8180021
:1020700018208DF81B0003208DF81A0006A91648B9
:10208000FEF748FC0020ADF804004FF48270ADF874
:1020900006000020ADF808000220ADF80A0001207B
:1020A000ADF80C004002ADF80E003820ADF810007D
:1020B0000020ADF812000720ADF8140001A9074870
:1020C00000F044F80121054800F026F8FF2000F058
:1020D00007F807B000BD0000000C014000380040C8
:1020E00010B5044600BF02210A4800F021F800287C
:1020F000F9D02146074800F027F800BF0121054824
:1021000000F016F80028F9D0024800F01AF8C0B222
:1021100010BD00000038004021B1028842F04002AA
:10212000028004E002884FF6BF731A4002807047B5
:102130000246002013890B400BB1012000E0002073
:1021400070470146888970478181704710B5002229
:10215000028802F441520B884C8823438C88234325
:10216000CC8823430C8923434C8923438C89234304
:10217000CC8923431A430280838B4FF2FF742340A0
:1021800083830B8A038210BD704710B500F002F8FC
:1021900010BD00000CB5002001900090334800688D
:1021A00040F480303149086000BF3048006800F4D6
:1021B000003000900198401C0190009818B90198D7
:1021C000B0F5A06FF1D12948006800F4003010B1DB
:1021D0000120009001E0002000900098012843D1E8
:1021E0002348006840F01000214908600846006854
:1021F00020F0030008600846006840F00200086014
:102200001A484068194948600846406848600846CE
:10221000406840F4806048600846406820F47C10C4
:1022200048600846406840F4E81048600846006886
:1022300040F08070086000BF0C48006800F000703B
:102240000028F9D00948406820F003000749486099
:102250000846406840F00200486000BF03484068FC
:1022600000F00C000828F9D10CBD0000001002405D
:1022700000200240042808D14FF0E021096941F014
:1022800004014FF0E022116107E04FF0E0210969FD
:1022900021F004014FF0E022116170477047000007
:1022A00010B504466FF00400FFF7E4FFE11704EBFC
:1022B0005171C1F3C701074A11701046007800EB55
:1022C0004001C1EBC0104FF6FF7101EAC0000249A6
:1022D000088010BD2C0000202E00002010B51348EF
:1022E000006840F001001149086008464068104944
:1022F00008400E494860084600680E4908400B49EE
:1023000008600846006820F480200860084640689D
:1023100020F4FE0048604FF41F008860FFF735FF8F
:102320004FF000600449086010BD0000001002403A
:102330000000FFF8FFFFF6FE08ED00E010B540F2E8
:1023400025510C4800F096F870B10A4800F04EF99B
:10235000C4B22146074800F04EF900BF40210548AD
:1023600000F07BF80128F9D14021024800F060F824
:1023700010BD00000038014010B586B004460121B0
:102380000420FEF78FFD01218803FEF78BFD01215C
:102390000846FEF787FD4FF40070ADF814000320E7
:1023A0008DF8160018208DF8170005A91E48FEF7B5
:1023B000B1FA4FF48060ADF8140004208DF81700D6
:1023C00005A91948FEF7A6FA01940020ADF8080007
:1023D000ADF80A00ADF80C00ADF810000C20ADF817
:1023E0000E0001A9114800F095F801210F4800F0F6
:1023F00028F840210D4800F01BF8012240F2255139
:102400000A4800F061F825208DF8000003208DF8BF
:1024100001008DF8020001208DF803006846FEF7E8
:10242000CBFC06B010BD00000008014000380140A0
:1024300001F40072B2F5007F00D100BFCA430280F0
:10244000704721B1828942F40052828104E082897E
:102450004DF6FF731A408281704702460020B1F5A5
:10246000007F00D100BF13880B400BB1012000E0BA
:102470000020704770B5024600240023002500208C
:1024800040F66A16B14200D100BFC1F3421501F017
:102490001F03012606FA03F3012D02D1968933406A
:1024A00006E0022D02D1168A334001E0968A3340BD
:1024B0000C12012606FA04F41688344013B10CB14C
:1024C000012000E0002070BDF0B503460024002686
:1024D0000025002040F66A17B94200D100BF184617
:1024E000C1F3421401F01F06012707FA06F5012C7B
:1024F00001D10C3004E0022C01D1103000E0143086
:102500001AB107682F43076002E00768AF4307600E
:10251000F0BD00002DE9F04786B005460E460024C8
:10252000A24600BFA1460027B08900B100BF2F46D8
:102530002C8A4CF6FF700440F08804432C82AC894E
:102540004EF6F3100440B08831890843718908437E
:102550000443AC81AC8A4FF6FF400440B089044389
:10256000AC8201A8FEF7B4FC1F48874202D1DDF817
:1025700010A001E0DDF80CA0A88900F4004040B1F3
:102580000AEBCA0000EB0A1031684900B0FBF1F811
:1025900007E00AEBCA0000EB0A1031688900B0FBC3
:1025A000F1F86420B8FBF0F004012009642101FB7C
:1025B0001089A88900F4004040B1322000EBC90026
:1025C000B0FBF1F000F00700044308E0322000EB1C
:1025D00009106421B0FBF1F000F00F0004432C81DE
:1025E00006B0BDE8F0870000003801400146888849
:1025F000C0F308007047C1F308028280704700BF33
:10260000FEE700000FB4054B10B503A9044A029879
:1026100000F018F810BC5DF814FB00009D290008BC
:102620003000002002E008C8121F08C1002AFAD1B9
:1026300070477047002001E001C1121F002AFBD142
:10264000704700002DE9FF4F8DB09B460F460446B2
:10265000002606E025280BD05A460F999047641CA7
:10266000761C20780028F5D111B03046BDE8F08FF7
:102670000025A8460122984900E0054314F8013FCF
:10268000203B02FA03F00842F7D120782E2817D118
:1026900014F8010F45F004052A280ED06FF02F0220
:1026A0002078A0F1300109290AD808EB880102EB53
:1026B000410100EB0108641CF2E757F8048B641C2D
:1026C00020786C280DD004DC4C2812D06A2811D157
:1026D00004E074280DD07A280CD10AE045F40015E6
:1026E00007E0617845F48015814202D1641C05F54C
:1026F0008015641C2278692A45D008DC002AB3D0F2
:10270000582A69D0632A10D0642A08D13BE0702A85
:1027100067D0732A13D0752A5CD0782A5CD0104613
:102720005A460F999047761CD3E017F8040B8DF8A2
:10273000000000208DF80100E946012003E057F871
:10274000049B4FF0FF3069074FF0000501D40AE009
:102750006D1C45450DDA8542FADB19F80510002994
:10276000F6D106E06D1C8542FCDB19F80510002946
:10277000F8D12E4404E019F8010B5A460F999047FE
:102780006D1EF8D2A5E00A200021CDE90801C5F3AD
:10279000025002280DD001CFC117031E71F10003B2
:1027A0000DDA4FF0000CD0EB0C006CEB01012D2387
:1027B00008E0FF1D27F00707F7E80201EDE72B050A
:1027C00004D52B238DF8283001233BE0EB0739D0CB
:1027D0002023F7E70A2000E010200021CDE90801BE
:1027E00007E01020002145F00405CDE908014FF075
:1027F0000808C5F3025002280FD001CF00214FF086
:10280000000A2B071FD5702A0DD0DDE908C38CF014
:10281000100C5CEA030C0CD015E0FF1D27F0070735
:10282000F7E80201EBE740228DF828204FF0010A7B
:102830000BE050EA010306D030238DF828308DF8E4
:10284000292002239A46582A04D024A20DF12009F7
:102850000B9209E026A2F9E7DDE90823FDF784FCE5
:102860000B9B9B5C09F8013D50EA0102F4D1ADEBF2
:10287000090020300890680701D44FF0010808993A
:10288000884502DDA8EB010000E00020804600251D
:1028900006E00AA85A46405D0F9990476D1C761CC9
:1028A0005545F6DB04E030205A460F999047761CD8
:1028B000B8F10001A8F10108F5DC05E019F8010BF9
:1028C0005A460F999047761C0899481E089000298F
:1028D000F4DC641CC5E60000092801003031323305
:1028E000343536373839616263646566000000004C
:1028F0003031323334353637383941424344454636
:10290000000000000146114A12884A434FF0E023BC
:102910005A6100229A611A46126942F001021A6154
:1029200000BF4FF0E022106900F001021AB100F47C
:102930008032002AF5D04FF0E022126922F0010225
:102940004FF0E0231A6100229A6170472E000020A8
:102950000146114A12784A434FF0E0235A6100229F
:102960009A611A46126942F001021A6100BF4FF0E3
:10297000E022106900F001021AB100F48032002A4E
:10298000F5D04FF0E022126922F001024FF0E0236F
:102990001A6100229A6170472C00002070B504462D
:1029A0000D46E1B20548FFF726FE00BF802103482F
:1029B000FFF753FD0028F9D0204670BD00380140D4
:1029C000002400254820FFF76BFC4FF4A060FEF7C1
:1029D0002BFA4FF4E130FFF7CFFCFEF7C3F9FEF717
:1029E00061F9FDF793FCFDF7E6FC31A0FFF70AFE65
:1029F00038A0FFF707FE40A0FFF704FE06E042A064
:102A0000FFF700FE4FF47A70FFF77CFFFDF7BCFC88
:102A10000028F4D142A0FFF7F5FDFDF749FEFEF7CF
:102A200063FC44E00020FEF75BF90546012D04D06D
:102A3000022D0BD0032D1BD111E03E48006808B9D0
:102A4000012000E000203B49086011E0394800689F
:102A500008B9012000E000203649086008E0354848
:102A6000006808B9012000E000203249086000BF7A
:102A700000BF601CC4B2142094FBF0F100FB1140B5
:102A800038B92D48006808B9012000E000202A4923
:102A90000860FFF705F838B9642094FBF0F100FBFB
:102AA000114008B900F04AF80A20FFF72BFFB9E7F8
:102AB000C6D5D6D0463130332DD7BCB6CB2D5A3102
:102AC0003030D7DBBACFB2E2CAD4CAB5D1E90D0AE9
:102AD00000000000D3B2BCFEB0E6B1BEA3BA5631CE
:102AE0002E302020C8EDBCFEB0E6B1BEA3BA5631F0
:102AF0002E300D0A00000000BFAACABCB2E2CAD440
:102B00002E2E2E0D0A0000000D0A4154323443309F
:102B100032BCECB2E24572726F72210D0A00000005
:102B20000D0A41543234433032BCECB2E24F4B21F7
:102B30000D0A0000940123429481214210B51348EC
:102B400090F8560030B1012808D002280AD0032896
:102B500010D10BE00EA0FFF755FD0BE012A0FFF720
:102B600051FD07E016A0FFF74DFD03E01AA0FFF7A7
:102B700049FD00BF00BF0548D0E91220030343EA26
:102B800012511AA0FFF73EFD10BD0000A800002062
:102B90005344BFA8C0E0D0CD3A53445343205631EC
:102BA0002E310D0A000000005344BFA8C0E0D0CD74
:102BB0003A534453432056322E300D0A0000000091
:102BC0005344BFA8C0E0D0CD3A53444843205632C6
:102BD0002E300D0A000000005344BFA8C0E0D0CD45
:102BE0003A4D4D4320436172640D0A005344BFA81F
:102BF000C8DDC1BF3A2564204D420D0A0000000027
:102C00000003030601040602050003051F1C1F1E26
:102C10001F1E1F1F1E1F1E1F382C00080000002033
:102C200034000000242600086C2C0008340000202A
:102C3000CC06000034260008000000000102030456
:102C40000102030406070809020406080100000047
:102C500016C200000000000000000000010000009B
:0C2C600000000000000000000000000068
:0400000508000131BD
:00000001FF
