:020000040800F2
:10000000C8C2002045010008CD120008DB0D000821
:10001000C9120008B5020008434A000800000000A9
:10002000000000000000000000000000F52E0008A5
:1000300051060008000000005513000809300008B0
:100040005F0100085F0100085F0100085F01000810
:100050005F0100085F0100085F0100085F01000800
:100060005F0100085F0100085F0100085F010008F0
:100070005F0100085F0100085F0100085F010008E0
:100080005F0100085F0100085F0100085F010008D0
:100090005F0100085F0100085F0100085F010008C0
:1000A0005F0100085F0100085F0100085F010008B0
:1000B0005F0100085F0100085F0100085F010008A0
:1000C0005F0100085F0100085F0100085F01000890
:1000D0005F010008814700085F0100085F01000818
:1000E0005F0100085F0100085F0100085F01000870
:1000F0005F0100085F0100085F0100085F01000860
:100100005F010008ED1500085F0100085F010008AD
:100110005F0100085F0100085F0100085F0100083F
:100120005F0100085F0100085F0100085F0100082F
:10013000DFF80CD000F0ACF8004800475968000820
:10014000C8C200200648804706480047FEE7FEE791
:10015000FEE7FEE7FEE7FEE7FEE7FEE7FEE7FEE777
:1001600049300008310100082DE9F05F0546002004
:1001700092469B4688460646814640241BE0284618
:1001800041464746224600F072F853465A46C01A86
:10019000914110D311461846224600F059F82D1A05
:1001A00067EB01084F4622460120002100F050F87D
:1001B00017EB00094E41201EA4F10104DFDC484684
:1001C00031462A464346BDE8F09F2DE9F041002420
:1001D000061B254671F1000605DA01240027D0EB45
:1001E000070067EB0101161E73F1000605DA002710
:1001F000D2EB0702012567EB0303FFF7B5FF864645
:100200000E4617469C46AC4204D00025D0EB050EA6
:1002100065EB010624B10020D2EB000760EB030C74
:10022000704631463A466346BDE8F08140EA010334
:100230009B0703D009E008C9121F08C0042AFAD29C
:1002400003E011F8013B00F8013B521EF9D2704760
:10025000202A04DB203A00FA02F100207047914086
:10026000C2F1200320FA03F3194390407047202A7B
:1002700004DB203A21FA02F00021704721FA02F350
:10028000D040C2F120029140084319467047000057
:10029000064C074D06E0E06840F0010394E80700D3
:1002A00098471034AC42F6D3FFF746FFF039030805
:1002B000103A030800BFFEE770B500254FF4803404
:1002C00004E0802001F07EF900B103E0201EA4F1DB
:1002D0000104F6D100BF0CB9032070BD40F2FF50FD
:1002E00001F02AF92846F8E770B5044605E01548FC
:1002F000456B05F0450000B100E0F8E700BF0420C1
:1003000001F060F920B1042001F016F9032070BD5E
:10031000012001F057F920B1012001F00DF9012071
:10032000F5E708480069A04201D01020EFE740F24D
:10033000FF50044988630846406908210840C0B25C
:10034000E5E700000080014070B500264FF48035DD
:1003500005E01148446B04F0450000B103E0281E9D
:10036000A5F10105F5D100BF15B104F0040028B1D5
:100370000326042001F0E0F8304670BD012001F0B2
:1003800021F918B10126012001F0D6F840F2FF5002
:1003900001F0D2F83046F0E70080014010B505E0EA
:1003A0000B48446B04F0450000B100E0F8E700BFE3
:1003B000042001F007F920B1042001F0BDF803206A
:1003C00010BD40F2FF5001F0B7F80020F8E7000040
:1003D000008001402DE9F04105460E464FF000082F
:1003E00005E01F48476B07F0450000B100E0F8E763
:1003F00000BF042001F0E6F828B1042001F09CF8C9
:100400000320BDE8F081012001F0DCF820B10120DB
:1004100001F092F80120F4E711480069A84201D0E8
:100420001020EEE740F2FF5001F086F80C484469D6
:1004300004F4604018B9200C30804046E1E704F431
:10044000005008B11320DCE704F4804008B110200C
:10045000D7E704F4004008B10F20D2E74046D0E7C8
:100460000080014070B500264FF4803505E00F484C
:10047000446B04F0450000B103E0281EA5F101051E
:10048000F5D100BF15B104F0040028B10326042003
:1004900001F052F8304670BD04F0400018B100265B
:1004A000402001F049F83046F5E7000000800140A7
:1004B00021B1026842F00102026004E002684FF6D6
:1004C000FE731A400260704701684FF6FE721140D9
:1004D00001600021016041608160C1604B49884238
:1004E00008D14A490839496841F00F01474A083A9A
:1004F00051608AE045491431884208D1434908399E
:10050000496841F0F001414A083A51607DE03F49B5
:100510002831884208D13D490839496841F4706161
:100520003A4A083A516070E038493C31884208D173
:1005300036490839496841F47041344A083A5160F3
:1005400063E032495031884208D13049083949685E
:1005500041F470212D4A083A516056E02B4964312C
:10056000884208D129490839496841F47001274A6D
:10057000083A516049E025497831884208D1234939
:100580000839496841F07061204A083A51603CE0FE
:100590001F49884206D1011F096841F00F01021F5F
:1005A000116032E01A491431884208D11849091FF4
:1005B000096841F0F001164A121F116025E0144944
:1005C0002831884208D11249091F096841F4706135
:1005D0000F4A121F116018E00D493C31884208D1C2
:1005E0000B49091F096841F47041094A121F116043
:1005F0000BE007495031884207D10549091F0968B6
:1006000041F47021024A121F116070470800024035
:100610000804024010B50022026847F6F0739A43BE
:100620000C6A8B6823430C6923434C6923438C6910
:100630002343CC6923434C6A23438C6A23431A43E4
:100640000260CB6843600B6883604B68C36010BD79
:100650007047000010B50446214610A004F0F4F9DC
:10066000240300F035F900F0CDF800200D490860B2
:10067000202002F0EBFBC4F3074002F0E7FBC4F3D9
:10068000072002F0E3FBE0B202F0E0FB01200649A4
:10069000C1F8B00100F0B6F810BD000066653A255B
:1006A000780D0A00B08121420080214208B5012165
:1006B0004FF4847000F070FE4FF48050ADF80000ED
:1006C00010208DF8030003208DF8020069461148C0
:1006D00000F0F6FA4FF480510E4800F07CFB8020C9
:1006E000ADF8000069460C4800F0EAFA80210A489B
:1006F00000F071FB01200949086002F061FB00F085
:1007000047F8074908800846018806A004F09CF9CC
:1007100008BD0000000C014000200140B0812142D2
:1007200020000020CAB9D3C3B5C4464C415348D0B9
:10073000BEC6AC4944CAC7A3BA25580D0A0000007A
:100740002DE9F04106460C46174600200F49086087
:10075000032002F07BFBC4F3074002F077FBC4F3F5
:10076000072002F073FBE0B202F070FB002505E009
:10077000FF2002F06BFB7055681C85B2BD42F7DBB1
:10078000012002490860BDE8F0810000B0812142EB
:1007900010B5002400200E490860902002F056FB9E
:1007A000002002F053FB002002F050FB002002F07A
:1007B0004DFBFF2002F04AFB44EA0024FF2002F038
:1007C00045FB044301200349C1F8B001204610BD98
:1007D000B08121420080214210B500240020074949
:1007E0000860052002F032FBFF2002F02FFB0446D8
:1007F00001200349C1F8B001204610BDB08121425B
:100800000080214210B500BFFFF7E6FF00F00100B5
:100810000028F9D110BD00002DE9F05F81460F4698
:100820001646DFF8A8B04FEA1738C7F30B0ACAF527
:100830008054A64200DC344644E04FEA08314FF4CD
:1008400080525846FFF77CFF002508E00AEB0500C0
:100850001BF80000FF2800D003E0681C85B2A54209
:10086000F4DB00BFA54216DA4046FFF7F3FE002591
:1008700007E019F8050005EB0A010BF80100681CF8
:1008800085B2A542F5DB4FEA08314FF48052584655
:1008900000F02EF804E022463946484600F028F8D9
:1008A000A64200D10FE008F101084FF0000AA14470
:1008B0002744301B86B2B6F5805F02DD4FF48054CA
:1008C00000E03446B9E700BFBDE8F09F70000020AB
:1008D00010B5002004490860062002F0B7FA012094
:1008E0000249C1F8B00110BDB0812142008021420F
:1008F0002DE9F04107460E461446F0B2C0F580756A
:10090000AC4200DC254612E02A463146384600F06B
:1009100013F8AC4200D10BE02F442E44601B84B28C
:10092000B4F5807F02DD4FF4807500E02546EBE7EB
:1009300000BFBDE8F08100002DE9F04106460C46FD
:100940001746FFF7C5FF00200F490860022002F09C
:100950007DFAC4F3074002F079FAC4F3072002F0ED
:1009600075FAE0B202F072FA002504E0705D02F060
:100970006DFA681C85B2BD42F8DB012002490860AF
:10098000FFF740FFBDE8F081B081214210B500249F
:100990000EE04FF40D71002006F0ECF9184941F813
:1009A0002400084650F8240000B903E0601CC4B2DB
:1009B000042CEEDB00BF4FF41471002006F0DAF9CE
:1009C000104908604FF41471002006F0D3F90E4965
:1009D00008604FF40071002006F0CCF90B49086064
:1009E000042C0AD10748006838B10748006820B1D4
:1009F0000846006808B1002010BD0120FCE7000097
:100A000050BD0020580000205C000020680000203D
:100A100051B18200A2F1C042126842F0010382008B
:100A2000A2F1C042136009E08200A2F1C042126844
:100A3000034B1A408300A3F1C0431A6070470000C3
:100A4000FEFF0F00D0E901121143C2681143026991
:100A500011434269114382691143C2691143026A19
:100A60001143426A1143826A1143C26A1143026B05
:100A7000114302689200A2F1C04211608168082906
:100A80000BD101688900A1F1C041096841F0400221
:100A900001688900A1F1C0410A60416B0968426B9D
:100AA000526841EA0211426B926841EA0221426BAC
:100AB000928941EA0241426B128A41EA0251426B39
:100AC000127D41EA0261426B926911430268521C35
:100AD0009200A2F1C0421160C16AB1F5804F1BD1F2
:100AE000816B0968826B526841EA0211826B9268DD
:100AF00041EA0221826B128A41EA0251826B127D25
:100B000041EA0261826B9269114302689200A2F18C
:100B1000C042C2F8041107E06FF07042016889001A
:100B2000A1F1C041C1F80421704700002DE9FC414A
:100B300007460D4600260024002000900190082062
:100B40005B49086010204860402088600020C86031
:100B50004FF480600861084600F06AFD1020FFF73E
:100B6000C3FB044614B12046BDE8FC81514800880F
:100B700000044F490860372048604020886000200A
:100B8000C8604FF480600861084600F051FD3720CE
:100B9000FFF7AAFB04460CB12046E5E74FF0FF3013
:100BA0004549086008204860302088600220C860FD
:100BB0000020086101204861084600F0D9FC0020AF
:100BC0003B49086033204860402088600020C860AE
:100BD0004FF480600861084600F02AFD3320FFF7DB
:100BE00083FB04460CB12046BEE70CE04FF4001036
:100BF00000F0E8FC38B100F015FD4DF82600761C39
:100C0000022E00D306E02D48406B40F22A610840D6
:100C10000028EBD000BF082000F0D4FC20B1082051
:100C200000F08AFC04209FE7022000F0CBFC20B1FA
:100C3000022000F081FC022096E7202000F0C2FC98
:100C400020B1202000F078FC06208DE74FF40070E2
:100C500000F0B8FC28B14FF4007000F06DFC0720E4
:100C600082E740F2FF5000F067FC00980006009910
:100C700001F47F4140EA0120009901F47F0140EA3C
:100C80001120009940EA11606860019800060199FE
:100C900001F47F4140EA0120019901F47F0140EA1B
:100CA0001120019940EA1160286020465CE70000AD
:100CB00088100020280000209C10002000800140A7
:100CC0002DE9F041024600250026002000230024E3
:100CD000002791F803C00CF00F0591F803C00CF049
:100CE000100CBCF1000F03D091F802C04CEA0505CE
:100CF00091F800C0BCF1000F31D0146800202BE047
:100D00004FF0010C0CFA00F3B1F800C00CEA030636
:100D10009E4220D183004FF00F0C0CFA03F7BC4326
:100D200005FA03FC4CEA040491F803C0BCF1280F57
:100D300006D14FF0010C0CFA00FCC2F814C00AE016
:100D400091F803C0BCF1480F05D14FF0010C0CFA2B
:100D500000FCC2F810C0401C0828D1D31460B1F8C0
:100D600000C0BCF1FF0F34DD546800202EE000F11C
:100D7000080C4FF0010808FA0CF3B1F800C00CEAB7
:100D800003069E4221D183004FF00F0C0CFA03F7AB
:100D9000BC4305FA03FC4CEA040491F803C0BCF11F
:100DA000280F05D100F1080C08FA0CF8C2F81480DD
:100DB00091F803C0BCF1480F07D100F1080C4FF0C7
:100DC000010808FA0CF8C2F81080401C0828CED39D
:100DD0005460BDE8F0810161704700BFFEE772B664
:100DE000704762B6704700001CB5044600200190B1
:100DF0000090214800880004204908600D204860C8
:100E0000402088600020C8604FF480600861084678
:100E100000F00EFC1A48406B009002E01848406B4E
:100E20000090009800F045000028F7D0012000F065
:100E3000C9FB20B1012000F07FFB01201CBD042074
:100E400000F0C0FB20B1042000F076FB0320F5E7A2
:100E50000B4800690D2801D01020EFE740F2FF5049
:100E600000F06AFB0648406901900198C0F34320F6
:100E700020700020E2E700002800002088100020F9
:100E80000080014070B506460F484088401E83B27E
:100E90000D480088401E82B20021084600F08AF802
:100EA00000240CE0002504E0304600F0E1F9681C65
:100EB00085B205484088A842F6DC601C84B202482E
:100EC0000088A042EEDC70BD1800002000B502468C
:100ED0001048827172B94FF4585000F0BDF90020EB
:100EE00000F0C0F94FF448700A4948804FF4F070A0
:100EF00008800DE04FF4585000F0AEF9602000F08B
:100F0000B1F94FF4F070034948804FF448700880FD
:100F100000BD00001800002070B504460D461646BE
:100F20002B4622462946204600F044F8304600F081
:100F30009FF970BD2DE9F04304460D4616461F4645
:100F4000DDF81C80B44201DCBD4201DDBDE8F08368
:100F50003B4632462946204600F02CF8301B401C08
:100F600084B2781B401C85B20BE0A94602E04046E3
:100F700000F07EF9B9F10000A9F101011FFA81F931
:100F8000F5D1201EA4F101018CB2EED100BFDDE746
:100F900010B50246012000E050430B1EA1F10104F0
:100FA000E1B2F9D110BD000001480088704700008F
:100FB0000008006C30B504460D464FF4285000F090
:100FC0004BF9201200F04EF942F6012000F044F9EE
:100FD000E0B200F047F942F6022000F03DF91012AD
:100FE00000F040F942F6032000F036F9D0B200F0EC
:100FF00039F94FF42C5000F02FF9281200F032F993
:1010000042F6013000F028F9E8B200F02BF942F680
:10101000023000F021F9181200F024F942F60330F2
:1010200000F01AF9D8B200F01DF94FF4305000F07A
:1010300013F930BD2DE9F84F80460E4617461C4681
:10104000B3462046E31704EB5373DB1021464FEA07
:10105000E47C04EB5C7C4FEAEC0CA4EBCC0CBCF124
:10106000000F02D04FF0010C01E04FF0000C634480
:10107000224604EBD27C4FEA6C0C03FB0CF3DBB290
:101080000093A7F12000C7B2002556E00C2C07D131
:1010900007EB47002B4901EB800010F8059013E0A7
:1010A000102C05D1284800EB071010F805900BE034
:1010B000182C07D107EBC700244901EB800010F87A
:1010C000059001E0BDE8F88F4FF0000A2FE009F02D
:1010D000800030B11E48028831464046FFF71CFFB1
:1010E00007E00A9828B91B48028831464046FFF7B6
:1010F00013FF4FEA49604FEA1069701C86B2164828
:101100004088B04200DCDDE7A6EB0B00A0420AD12C
:101110005E4608F101001FFA80F80F48008840453C
:1011200000DCCFE706E00AF1010000F0FF0ABAF1A7
:10113000080FCCDB00BF681CC5B200988542A5DB58
:1011400000BFBFE7DC70000850750008407B000856
:101150001400002016000020180000202DE9FF4F89
:1011600081B0074691461E460E9D4FF0000A0024AE
:1011700039E0301B401EC1B20A20FFF709FFB9FB5E
:10118000F0F00A21B0FBF1F201FB1208BAF1000FF6
:1011900016D1701EA04213DDB8F1000F0ED1002051
:1011A000AB4605EBDB71491001FB0471009088B27E
:1011B0002B4620220299FFF73DFF12E04FF0010A73
:1011C0000020AB4605EBDB71491001FB0471009078
:1011D00088B208F13001CAB22B460299FFF72AFF04
:1011E00000BF601CC4B2B442C3DB05B0BDE8F08FE1
:1011F0002DE9F84704460D4690469946DDE9096712
:1012000004F0FF0A08EB04001FFA80F809EB050060
:101210001FFA80F916E0444502DB5446A81985B24E
:101220004D4500DB14E0002000903A783346294613
:101230002046FFF7FFFE304606EBD07104EB61015C
:101240008CB27F1C38787E2802DC38782028E2DADD
:1012500000BFBDE8F8870000014908807047000022
:10126000FE07006C01490880704700000008006C10
:1012700001490880704700000008006C08B5012192
:10128000482000F089F82020ADF8000010208DF8EB
:10129000030003208DF8020069460948FFF710FD9E
:1012A00020210748FFF797FD2020ADF80000694690
:1012B0000448FFF705FD20210248FFF78CFD08BD1B
:1012C000000C01400018014000BFFEE7704700001D
:1012D00070B5002100230F22C47804B3154C246894
:1012E00004F4E064C4F5E064210AC1F10403CA40D7
:1012F000447804FA03F184781440214309010E4C28
:101300000678A155047804F01F050124AC40057847
:101310006D11AD0005F1E025C5F8004109E0047844
:1013200004F01F050124AC40044D0678761145F801
:10133000264070BD0CED00E000E400E080E100E03C
:1013400002490143024A1160704700000000FA059B
:101350000CED00E07047000029B1064A52690243D3
:10136000044B5A6104E0034A52698243014B5A61BB
:10137000704700000010024029B1064AD2690243BA
:10138000044BDA6104E0034AD2698243014BDA611B
:10139000704700000010024029B1064A92690243DA
:1013A000044B9A6104E0034A92698243014B9A61BB
:1013B000704700000010024030B5002100220024D8
:1013C00000232D4D6D6805F00C0121B1042905D0D5
:1013D000082923D105E0294D056022E0274D05604D
:1013E0001FE0254D6D6805F47012234D6D6805F4FE
:1013F0008034022505EB92421CB9214D554305600E
:101400000BE01D4D6D6805F400351DB11C4D5543B5
:10141000056002E0194D5543056002E0174D056077
:1014200000BF00BF144D6D6805F0F0010909154DAE
:101430006B5C0568DD4045600F4D6D6805F4E0614B
:10144000090A104D6B5C4568DD4085600A4D6D688A
:1014500005F46051C90A0B4D6B5C4568DD40C56001
:10146000054D6D6805F44041890B074D6B5CC568FF
:10147000B5FBF3F5056130BD0010024000127A00A3
:1014800000093D0000000020100000207CB505464A
:10149000002400200090019000260DB1022600E0FB
:1014A00000262248406900F0007008B10E207CBD83
:1014B0001F49098888B26946FFF738FB04460CB11A
:1014C0002046F4E7019800F4802060B318480088B3
:1014D00000041849086037204860402088600020D8
:1014E000C8604FF480600861084600F0A1F837201A
:1014F000FEF7FAFE04460CB12046D8E70D48066018
:1015000006200C494860402088600020C8604FF4E5
:1015100080600861084600F08BF80620FEF7E4FEC4
:1015200004462046C3E72520C1E7000000800140B3
:1015300028000020881000200149886370470000BF
:10154000008001400149086070470000A00030425F
:101550000146034A506820F0FF000843506070477E
:101560000080014001490860704700008C0530424E
:1015700000210A4B02685A6242689A621A46D16A8E
:1015800021F0F701D0E902231A4303691A434369A2
:101590001A431143014AD1627047000000800140A4
:1015A00000200649086048608860C8604862886218
:1015B000C862034888630020C86370470080014008
:1015C000FF07C00001460020034A526B0A400AB1DF
:1015D000012000E0002070470080014002480068C0
:1015E00000F00300704700000080014010B500F0DB
:1015F00053FC10BD00210A4A516847F6FF6291432F
:10160000027D83681A4343681A43C3681A43036818
:101610001A4303691A431143014A5160704700009D
:101620000080014001480068704700008080014050
:101630000021094B02689A601A46D1686FF30A01CB
:10164000D0E901231A43C3681A4303691A431143BB
:10165000014AD160704700000080014005490968D7
:1016600021F00301034A116011460968014311602A
:101670007047000000800140014908607047000089
:101680008080014070B58CB006460C46154601219D
:101690000220FFF761FE1348FEF716FF00211148F4
:1016A000FEF706FF1048019002960395A0080490EB
:1016B0000020059080200690800007908000089010
:1016C000002009904FF400500A9000200B9001A9CF
:1016D0000448FEF79FFF00210248FEF7E9FE0CB028
:1016E00070BD0000440402408080014070B5044693
:1016F000002516480078032801D1272070BD134823
:10170000007838B111480078012803D00F480078DC
:10171000022818D1022C01D32720EFE7E0B2FFF70F
:10172000B5FE05467DB90A48406820F4C050084916
:10173000486008464068A1B240EAC12004494860B8
:101740000846406848602846D8E70000240000208A
:1017500000800140F0B5014600200022BE4B1B78FE
:1017600081F85630BD4B1B88A1F85430BC4B1B6828
:101770001A0E93090B70C2F383034B7002F003033C
:101780008B70B74B1B68C3F30742CA70B44B1B88FE
:10179000C3F307220A71B24B1A784A715B681A0EBA
:1017A0001301CB80AE4B5B68C3F30742CB8843EA9F
:1017B0001213CB8002F00F030B72A94B9B88C3F36B
:1017C0000722D3094B72C2F380138B72C2F340130A
:1017D000CB72C2F300130B7300234B739E4B1B7829
:1017E0003BB19D4B1B78012B03D09B4B1B78032BEC
:1017F0004FD193071B0D0B61994B1A790B6943EA83
:1018000082030B61964B9B681A0E0B6943EA921395
:101810000B61C2F3C2030B7502F007034B75904BCB
:101820009B68C3F3074253098B75C2F38203CB75E0
:1018300093075B0F0B768A4B1B89C3F307220B7E42
:1018400043EAD2130B760B695B1C0024C1E9123406
:101850000B7E9B1C012404FA03F3DC17D1E912561A
:10186000A5FB037C06FB03C305FB0433C1E912732C
:101870000C7A0123A3400B650024D1E912650B6D9E
:10188000A6FB037C05FB03C306FB0433C1E912730B
:101890002EE0714B1B78022B2AD1714B1A799306DB
:1018A0009B0A0B616E4B9B681A0E0B6943EA02237D
:1018B0000B616B4B9B68C3F307420B6913430B61CE
:1018C000674B1B89C3F307220B695B1C4FF4007441
:1018D000A3FB04464FF480630025A4FB037C06FBB6
:1018E00003C304FB0533C1E912734FF400730B65A6
:1018F000C2F3801301F8193F93065B0E4B70584BEF
:101900001A7A4B7843EAD2134B7002F07F038B7044
:10191000534BDB681A0ED309CB70C2F341130B7122
:10192000C2F382034B7193071B0F8B714C4BDB6827
:10193000C3F307428B7943EA92138B71C2F34013CE
:10194000CB7100230B7202F001034B72444B9B8955
:10195000C3F30722D3098B72C2F38013CB72C2F395
:1019600040130B73C2F300134B73C2F381038B73E9
:1019700002F00303CB733A4B1A7B53080B74012319
:101980004B74384B1B681A0ECA741939354B1B68D7
:10199000C3F307421402CC85324B1B88C3F30722E2
:1019A000CB8D1343CB852F4B1A7814060C635B68E1
:1019B0001A0E0B6B43EA02440C632A4B5B68C3F3B9
:1019C00007420B6B43EA02240C63264B9B88C3F34C
:1019D00007220B6B13430B63224B1A7934235A549F
:1019E000204B9B681A0E35235A541E4B9B68C3F339
:1019F000074214068C631B4B1B89C3F307228B6BB6
:101A000043EA02448C63174B1A7A8B6B43EA022435
:101A10008C63144BDB681A0E8B6B13438B63114B77
:101A2000DB68C3F307423C235B5C43EA12143C23AC
:101A30005C5413071C0DCC870A4B9B89C3F3072208
:101A4000CB8F1343CB87074B1A7B540840235C543E
:101A5000012441235C54F0BD240000202800002014
:101A6000B4100020C41000207CB500250024012102
:101A70003020FFF791FC012140F20240FFF76CFC9F
:101A80004FF4F850ADF8000018208DF80300032043
:101A90008DF8020069463048FFF712F90420ADF8CE
:101AA000000018208DF8030003208DF8020069461D
:101AB0002A48FFF705F98020ADF8000048208DF88E
:101AC000030003208DF8020069462448FFF7F8F868
:101AD000FFF766FD31208DF8040000208DF8050029
:101AE0008DF8060001208DF8070001A8FFF7F0FB34
:101AF00000F0E4F8044614B900F036F804461CB9C6
:101B00001748FFF727FE044634B91549B1F85410B9
:101B1000080400F04BFD04461CB90120FFF7E6FD68
:101B200004461CB10F480078032812D10C4890F8E5
:101B3000560020B10A4890F85600012801D10A2524
:101B400000E004252846FFF703FD002000F046FDD5
:101B5000044620467CBD00000010014000140140F6
:101B6000D81000202400002038B500240120009067
:101B7000FFF734FD08B9252038BD4A48007804280D
:101B800021D000204849086002204860C0208860B9
:101B90000020C8604FF4806008610846FFF748FDE8
:101BA000FEF7D2FB04460CB12046E5E73F4840690A
:101BB0003F4908603D48806948603C48C06988608A
:101BC0003A48006AC8603748007858B1354800780C
:101BD000012807D033480078062803D03148007820
:101BE000022816D1002030490860032048604020B8
:101BF00088600020C8604FF4806008610846FFF7E5
:101C000017FD69460320FEF7E5FB04460CB12046AC
:101C1000B2E724480078032816D1BDF8000000047C
:101C20002149086003204860402088600020C86087
:101C30004FF4806008610846FFF7FAFCFEF784FB6A
:101C400004460CB1204697E716480078042827D0B0
:101C5000BDF8000017490860BDF8000000041249F3
:101C6000086009204860C02088600020C8604FF4E8
:101C7000806008610846FFF7DBFCFEF765FB044661
:101C80000CB1204678E7094840690B4908600748CD
:101C9000806948600548C06988600448006AC86077
:101CA000002069E724000020881000200080014007
:101CB000C410002028000020B41000202DE9F047B7
:101CC0000027002400260025A046A146B2206C492A
:101CD00008750020086048608860C8600861084690
:101CE000FFF788FC0320FFF7B9FC0120FFF72AFC6F
:101CF00000BF12E000206349086048608860C86047
:101D00004FF4806008610846FFF792FCFEF7D4FAB2
:101D1000044604B903E0781CC7B24A2FEADB00BFCF
:101D200014B12046BDE8F0874FF4D57055490860DE
:101D300008204860402088600020C8604FF4806020
:101D400008610846FFF774FCFEF78CFB044624B9D3
:101D500001204D4908704FF0804900204949086032
:101D600037204860402088600020C8604FF48060C1
:101D700008610846FFF75CFC3720FEF7B5FA044619
:101D8000002C4BD134E000203E49086037204860E9
:101D9000402088600020C8604FF4806008610846D9
:101DA000FFF746FC3720FEF79FFA04460CB12046A9
:101DB000B8E7364849EA00003249086029204860FF
:101DC000402088600020C8604FF4806008610846A9
:101DD000FFF72EFCFEF7E2FA04460CB12046A1E71D
:101DE0002B484669012080EAD67080F001086D1CFE
:101DF000B8F1000F03D14FF6FF708542C3D34FF601
:101E0000FF70854202D31B2420468BE706F08040FA
:101E1000061E32D002201C4908702EE01CE01D482E
:101E20001849086001204860402088600020C86090
:101E30004FF4806008610846FFF7FAFBFEF7AEFA40
:101E400004460CB120466DE711484669012080EA3E
:101E5000D67080F001086D1CB8F1000F03D14FF669
:101E6000FF708542DBD34FF6FF70854202D31B24FF
:101E7000204657E7032004490870204652E7000037
:101E80007010002088100020240000200000108026
:101E9000008001400080FF8010B54948406B00F48D
:101EA000807070B347480078012814D1002046495B
:101EB00008600C204860402088600020C8604FF413
:101EC000806008610846FFF7B3FB0C20FEF70CFAB0
:101ED0003E49087002E000203C4908703848806B99
:101EE00040F48070364988630846C06B4CF23A3142
:101EF00088433349C8630120354908703348007866
:101F000010BDFFE70220FFF75DFB68B10220FFF77D
:101F100013FB2B48C06B4CF23A3188432849C86305
:101F200002202A490870EBE70820FFF74BFB68B155
:101F30000820FFF701FB2248C06B4CF23A3188437E
:101F40001F49C863042021490870D9E72020FFF702
:101F500039FB68B12020FFF7EFFA1948C06B4CF24B
:101F60003A3188431649C863062018490870C7E704
:101F70001020FFF727FB68B11020FFF7DDFA1048AB
:101F8000C06B4CF23A3188430D49C86305200F49B4
:101F90000870B5E74FF40070FFF714FB70B14FF411
:101FA0000070FFF7C9FA0648C06B4CF23A3188431B
:101FB0000349C863072005490870A1E700209FE78F
:101FC000008001402D000020881000202E000020FD
:101FD0002F0000202DE9F84F8146174698460A9CAD
:101FE0004FF0000AD3464D464FF0FF36B9F1000FCF
:101FF00002D12620BDE8F88F00208249C8628248BD
:102000000078022805D10402780A40EAC8574FEA4E
:10201000682800207D4988604860401E08600120D3
:1020200048610020C86008610846FFF7A1FA7548BA
:10203000406900F0007008B10E20DBE7002C21DDC4
:10204000B4F5006F1EDC601E2040D8B9204602F0B7
:1020500018FF00906E48046010206D4948604020D1
:1020600088600020C8604FF4806008610846FFF770
:10207000DFFA1020FEF738F98246BAF1000F03D0DC
:102080005046B7E72620B5E7009800015F49886011
:10209000084644604FF0FF3008600120486102208C
:1020A000C860002008610846FFF762FA58480760D8
:1020B000112057494860402088600020C8604FF4D4
:1020C000806008610846FFF7B3FA1120FEF70CF9AB
:1020D0008246BAF1000F01D050468BE74D48007898
:1020E00000285AD1FEF77BFE18E04FF40040FFF7BE
:1020F00069FA78B14FF0000B06E042488030006882
:1021000045F82B000BF1010BBBF1080FF5D320357F
:10211000414E03E00EB904206CE7761E3948406B4F
:1021200040F22A6108400028DFD00820FFF74AFA71
:1021300020B10820FFF700FA04205BE70220FFF738
:1021400041FA20B10220FFF7F7F9022052E72020E0
:10215000FFF738FA20B12020FFF7EEF9062049E713
:102160004FF40070FFF72EFA28B14FF40070FFF71C
:10217000E3F907203EE703E0FFF754FA28602D1D3E
:102180004FF40010FFF71EFA0028F5D1FEF729FEE4
:1021900040F2FF50FFF7D0F931E01E4800780128E7
:1021A0002DD1002221464846FFF76CFA00201B493A
:1021B00008701B4908701B4908701248C06B40F238
:1021C0002A3108430F49C8630120FFF7CBF900E02B
:1021D000761E1548006800F4005038B911480078A0
:1021E00020B90E48007808B9002EF1D10EB90420AC
:1021F00000E70A48007810B1084890F800A050465F
:10220000F8E6000000800140240000209C1000201F
:10221000881000202C000020FFFF7F002E000020EF
:102220002D0000202F000020000402402DE9FE4F69
:1022300083460C46914600200290002625462C46F7
:10224000700240EAD5566D020BF00300F0B14FF07A
:10225000000A18E04FF4007000904FEA4A20471936
:1022600046EBE0733A461648FFF7B4FE02904FF48F
:10227000007213495846FDF7D9FF0BF5007B0AF1B0
:10228000010000F0FF0ACA45E4DB16E0B9F1010FD6
:1022900009D14FF400702A46334600905846FFF7A4
:1022A00099FE029009E04FF400702A463346CDE9CA
:1022B0000009584600F006F802900298BDE8FE8F2B
:1022C000301100202DE9FF5F17469846DDE90E46E4
:1022D0004FF00009CA464FF0FF35A9490098086041
:1022E0000020A849C862A8480078022805D1040245
:1022F000780A40EAC8574FEA68280020A349886056
:102300004860401E0860012048610020C8600861E4
:102310000846FFF72DF99B48406900F0007018B19E
:102320000E2004B0BDE8F09F002C21DDB4F5006F55
:102330001EDC601E2040D8B9204602F0A2FD834674
:102340009348046010209249486040208860002033
:10235000C8604FF4806008610846FFF769F91020F3
:10236000FDF7C2FF8146B9F1000F03D04846D8E718
:102370002620D6E7012E70D906FB04F0B0F1007FCD
:1023800001D32620CDE74FEA0B108049886006FB79
:1023900004F048604FF0FF300860012048610220DF
:1023A000C860002008610846FFF7E2F87848076037
:1023B000122077494860402088600020C8604FF4B0
:1023C000806008610846FFF733F91220FDF78CFFA3
:1023D0008146B9F1000F01D04846A2E76D48007868
:1023E00000287DD1FEF7FBFC1EE04FF40040FFF714
:1023F000E9F8A8B14FF0000A08E0624880300068B0
:102400005F49096841F82A000AF1010ABAF1080F88
:10241000F3D35B4800682030594908605E4D03E003
:102420000DB904207DE76D1E5648406B40F22A31FD
:1024300008400028D9D00820FFF7C4F820B10820B0
:10244000FFF77AF804206CE70220FFF7BBF828B109
:102450000220FFF771F8022063E78EE02020FFF7EB
:10246000B1F820B12020FFF767F8062059E74FF4B4
:102470000070FFF7A7F828B14FF40070FFF75CF881
:1024800007204EE709E0FFF7CDF83D4909680860ED
:102490003B480068001D3A4908604FF40010FFF700
:1024A00091F80028EFD14FF48070FFF78BF820B33C
:1024B0003548007838B134480078012803D03248D4
:1024C0000078022819D10020314908600C204860AA
:1024D000402088600020C8604FF48060086100E000
:1024E00012E00846FFF7A4F80C20FDF7FDFE814638
:1024F000B9F1000F01D0484613E7FEF772FC40F235
:10250000FF50FFF719F838E022480078012834D14D
:1025100006FB04F100220098FFF7B4F800201F49E1
:10252000087001201E49087000201E4908701548D7
:10253000C06B40F22A3108431249C8630846C06A9A
:1025400040F00800C86200E06D1E1748006800F403
:10255000005008B9002DF7D10DB90420E1E600BF05
:102560001048007818B90D4800780028F8D00B48BA
:10257000007810B1094890F800904846D1E6000074
:102580003000002000800140240000209C1000202A
:10259000881000202C000020FFFF7F002E0000206C
:1025A0002D0000202F0000200004024010B504463A
:1025B00009480460072008494860402088600020DE
:1025C000C8604FF4806008610846FFF731F80720C3
:1025D000FDF78AFE10BD0000881000200146002093
:1025E000012900D011B9024B197000E02620704774
:1025F0002C0000202DE9FF5F86B017469846149DF9
:102600000026002005900490002481460390824615
:1026100002900195DDF818B0DDF818B0BBF1000F9D
:1026200003D126200AB0BDE8F09F0020C449C8624B
:10263000C44988604860401E08600120486100204D
:10264000C86008610846FEF793FFBD48406900F086
:10265000007008B10E20E5E7BB480078022805D1DC
:102660000502780A40EAC8574FEA6828002D1FDDA6
:10267000B5F5006F1CDC681E2840C8B9284602F07A
:1026800000FC0590B14805601020B049486040202A
:1026900088600020C8604FF4806008610846FEF73B
:1026A000C7FF1020FDF720FE06461EB13046B9E7F1
:1026B0002620B7E7A64800880004A44908600D203A
:1026C0004860402088600020C8604FF48060086146
:1026D0000846FEF7ADFF0D20FDF706FE06460EB1DB
:1026E00030469FE79648406903904FF0FF341BE067
:1026F000641E974800880004944908600D204860D3
:10270000402088600020C8604FF48060086108465F
:10271000FEF78EFF0D20FDF7E7FD06460EB13046B1
:1027200080E7874840690390039800F4807008B9F7
:10273000002CDDD10CB9292074E7844807601820EB
:1027400082494860402088600020C8604FF4806063
:1027500008610846FEF76CFF1820FDF7C5FD064628
:102760000EB130465EE700207A49087005980001F6
:1027700074498860084645604FF0FF3008600120CA
:1027800048610020C86008610846FEF7F1FE4FF07E
:10279000FF347148007800287BD1FEF720FB43E02E
:1027A0004FF48040FEF70EFFC8B30198A0EB09007C
:1027B000202821D20198A0EB090000F0030020B9E5
:1027C0000198A0EB0900800804E00198A0EB090043
:1027D0008008401C02904FF0000A09E0DBF800007E
:1027E000FEF74AFF0AF1010A0BF1040B09F1040993
:1027F00002988245F2D30FE04FF0000A05E05BF843
:102800002A00FEF739FF0AF1010ABAF1080FF6D3E0
:102810000BF1200B09F120096FF0404404E0FFE7C1
:102820000CB90420FEE6641E4548406B40F21A6174
:1028300008400028B4D00820FEF7C4FE20B10820CC
:10284000FEF77AFE0420EDE60220FEF7BBFE20B183
:102850000220FEF771FE0220E4E61020FEF7B2FE31
:1028600020B11020FEF768FE0520DBE64FF4007073
:10287000FEF7A8FE30B14FF40070FEF75DFE0720B2
:10288000D0E606E0FEF7ADFA40F2FF502C4988632F
:102890003EE03148007801283AD1102229460698B6
:1028A000FEF7F0FE00202D4908702A4908702C49D7
:1028B00008702348C06B40F21A3108432049C863AE
:1028C0000846C06A40F00800C86200E0641E25485F
:1028D000006800F4005008B9002CF7D11CB9FFF7CC
:1028E000C3F804209EE64FF0FF3400E0641E1C484D
:1028F000007820B91948007808B9002CF6D10CB935
:1029000004208FE61548007810B11448007889E655
:1029100040F2FF50FEF710FE04A8FEF765FA0646E7
:1029200003E004A8FEF760FA06463EB99DF81000E1
:102930000728F6D09DF810000628F2D0304671E640
:10294000008001409C1000202400002088100020FE
:10295000280000202D0000202C0000202E00002048
:102960002F000020000402402DE9FE4F81460C4656
:10297000924600200290002625462C46700240EA2E
:10298000D5566D0209F00300F0B14FF0000B18E0CE
:102990004FF4007249461948FDF748FC4FF40070A7
:1029A00000904FEA4B20471946EBE0733A46134834
:1029B000FFF720FE029009F500790BF1010000F00D
:1029C000FF0BD345E4DB16E0BAF1010F09D14FF458
:1029D00000702A46334600904846FFF70BFE0290EF
:1029E00009E04FF400702A463346CDE9000A484614
:1029F00000F006F802900298BDE8FE8F301100202A
:102A00002DE9FF5F84B0DDE9124700260020039026
:102A10000290002580468146019007FB04FBDDF80B
:102A200010A0DDF810A0BAF1000F03D1262008B0E5
:102A3000BDE8F09F0020D849C862D8498860486046
:102A4000401E0860012048610020C86008610846F7
:102A5000FEF78EFDD048406900F0007008B10E20EE
:102A6000E5E7CF480078022808D10402DDE9060135
:102A7000400A40EAC1504912CDE90601002C1FDD91
:102A8000B4F5006F1CDC601E2040C8B9204602F07F
:102A9000F8F90390C34804601020C2494860402000
:102AA00088600020C8604FF4806008610846FEF727
:102AB000BFFD1020FDF718FC06461EB13046B6E7F4
:102AC0002620B4E7012F6FD907FB04F0B0F1007F97
:102AD00001D32620ABE7B248007838B1B04800787F
:102AE000012803D0AE48007802282DD1AE480088D6
:102AF0000004AC490860372048604020886000200E
:102B0000C8604FF4806008610846FEF791FD3720E9
:102B1000FDF7EAFB06460EB1304688E7A14807609C
:102B20001720A0494860402088600020C8604FF40A
:102B3000806008610846FEF77BFD1720FDF7D4FB97
:102B400006460EB1304672E796490698086019208D
:102B50004860402088600020C8604FF480600861B1
:102B60000846FEF765FD1920FDF7BEFB06460EB1CF
:102B700030465CE7039800018849886007FB04F051
:102B800048604FF0FF300860012048610020C860B5
:102B900008610846FEF7ECFC84480078002871D1F3
:102BA000451EFEF71CF940E0DEE07B48406B00F478
:102BB0008040A8B3ABEB080020281ED2ABEB080086
:102BC00000F0030018B9ABEB0800800803E0ABEBA2
:102BD00008008008401C01904FF0000909E0DAF875
:102BE0000000FEF749FD09F101090AF1040A08F1A4
:102BF000040801988145F2D30FE04FF0000905E089
:102C00005AF82900FEF738FD09F10109B9F1080F5A
:102C1000F6D30AF1200A08F120086FF0404504E0DD
:102C2000FFE70DB9042002E76D1E5B48406B40F2E0
:102C30001A3108400028B8D00820FEF7C3FC20B1A4
:102C40000820FEF779FC0420F1E60220FEF7BAFC2A
:102C500020B10220FEF770FC0220E8E61020FEF70B
:102C6000B1FC20B11020FEF767FC0520DFE64FF431
:102C70000070FEF7A7FC30B14FF40070FEF75CFC6B
:102C80000720D4E62CE04FF48070FEF79BFC00B3E5
:102C90004348007838B142480078012803D04048C2
:102CA0000078022815D100203E4908600C204860B9
:102CB000402088600020C8604FF4806008610846AA
:102CC000FEF7B6FC0C20FDF70FFB06460EB13046B2
:102CD000ADE6FEF786F840F2FF50FEF72DFC43E02C
:102CE0003248007801283FD107FB04F110220498F4
:102CF000FEF7C8FC00202E49087001202D490870FD
:102D000000202D4908702448C06B40F21A31084356
:102D10002149C8630846C06A40F00800C8624FF005
:102D2000FF3500E06D1E2548006800F4005008B92A
:102D3000002DF7D11DB9FEF797FE042077E64FF07E
:102D4000FF3500E06D1E1C48007820B91848007857
:102D500008B9002DF6D10DB9042068E614480078B2
:102D600010B11348007862E640F2FF50FEF7E4FB32
:102D700002A8FEF739F8064603E002A8FEF734F889
:102D800006463EB99DF808000728F6D09DF80800D1
:102D90000628F2D030464AE6008001409C10002010
:102DA0002400002088100020280000202C00002093
:102DB0002E0000202D0000202F00002000040240E3
:102DC00000B587B001210820FEF7E6FA012188034B
:102DD000FEF7D2FA4FF46040ADF8180018208DF8D5
:102DE0001B0003208DF81A0006A91648FDF768FF9E
:102DF0000020ADF804004FF48270ADF8060000200A
:102E0000ADF808000220ADF80A000120ADF80C0072
:102E10004002ADF80E003820ADF810000020ADF8EB
:102E200012000720ADF8140001A9074800F044F88B
:102E30000121054800F026F8FF2000F007F807B050
:102E400000BD0000000C01400038004010B50446F1
:102E500000BF02210A4800F021F80028F9D02146DD
:102E6000074800F027F800BF0121054800F016F8D8
:102E70000028F9D0024800F01AF8C0B210BD0000D6
:102E80000038004021B1028842F04002028004E094
:102E900002884FF6BF731A40028070470246002036
:102EA00013890B400BB1012000E000207047014660
:102EB000888970478181704710B50022028802F42A
:102EC00041520B884C8823438C882343CC8823436E
:102ED0000C8923434C8923438C892343CC89234386
:102EE0001A430280838B4FF2FF74234083830B8A43
:102EF000038210BD704710B500F002F810BD00004D
:102F00000CB50020019000903348006840F48030F8
:102F10003149086000BF3048006800F4003000907C
:102F20000198401C0190009818B90198B0F5A06F65
:102F3000F1D12948006800F4003010B10120009060
:102F400001E0002000900098012843D12348006848
:102F500040F01000214908600846006820F0030096
:102F600008600846006840F0020008601A4840689F
:102F7000194948600846406848600846406840F47F
:102F8000806048600846406820F47C10486008462D
:102F9000406840F4E81048600846006840F08070DF
:102FA000086000BF0C48006800F000700028F9D0ED
:102FB0000948406820F00300074948600846406817
:102FC00040F00200486000BF0348406800F00C0079
:102FD0000828F9D10CBD000000100240002002407A
:102FE000042808D14FF0E021096941F004014FF0B5
:102FF000E022116107E04FF0E021096921F00401AE
:103000004FF0E022116170477047000010B5044690
:103010006FF00400FFF7E4FFE11704EB5171C1F317
:10302000C701074A11701046007800EB4001C1EB60
:10303000C0104FF6FF7101EAC0000249088010BDC0
:10304000340000203600002010B51348006840F01E
:1030500001001149086008464068104908400E49BF
:103060004860084600680E4908400B490860084659
:10307000006820F4802008600846406820F4FE00C4
:1030800048604FF41F008860FFF735FF4FF0006085
:103090000449086010BD0000001002400000FFF865
:1030A000FFFFF6FE08ED00E000B59DB0012108022B
:1030B000FEF752F901200790002008900F20099098
:1030C00000200A900B900C900D901520009001901C
:1030D00005200290002003900490059006900620A1
:1030E0000E9000200F901090102011900020129050
:1030F00014901390159016904FF480501790002064
:1031000018904FF48040199000201A9007A81B9047
:10311000CDF870D00EA8FDF795FC01210620FDF733
:1031200077FC1DB000BD000008B501214FF4B4705C
:10313000FEF732F94CF23370ADF8000018208DF82C
:10314000030003208DF8020069461848FDF7B8FD1A
:103150004FF68070ADF8000018208DF803000320B2
:103160008DF8020069461248FDF7AAFD41F2010000
:10317000ADF8000018208DF8030003208DF8020040
:1031800069460C48FDF79CFD0120ADF800001020B9
:103190008DF8030003208DF8020069460648FDF70C
:1031A0008FFD01200549086008BD000000140140A2
:1031B0000018014000200140000C014080812142A4
:1031C00010B5FFF7B1FFFFF76FFF322001F012FFDC
:1031D0004FF45A40FEF740F8FDF7E6FEFE498880BE
:1031E0004FF45B40FEF738F8FDF7DEFEFA498880C1
:1031F000084680884FF6FF7101EA0020F649888072
:103200004FF45C40FEF728F8FDF7CEFEF2498988BE
:103210000843F149888008468188F0A001F014FC39
:103220004FF47040FEF718F85520FEF71BF84FF2E8
:103230000100FEF711F8AA20FEF714F84FF2020081
:10324000FEF70AF85220FEF70DF84FF20300FEF7E2
:1032500003F80820FEF706F84FF20400FDF7FCFF24
:103260000120FDF7FFFF4FF43040FDF7F5FF002090
:10327000FDF7F8FF4BF20100FDF7EEFF0020FDF730
:10328000F1FF4BF20200FDF7E7FF0020FDF7EAFF38
:103290004FF43640FDF7E0FF3420FDF7E3FF4BF23B
:1032A0000160FDF7D9FF3420FDF7DCFF4BF202602F
:1032B000FDF7D2FF3420FDF7D5FF4FF43140FDF785
:1032C000CBFF0020FDF7CEFF4BF20110FDF7C4FF4E
:1032D0000020FDF7C7FF4BF20210FDF7BDFF0020F5
:1032E000FDF7C0FF4FF43740FDF7B6FF3420FDF780
:1032F000B9FF4BF20170FDF7AFFF3420FDF7B2FFCD
:103300004BF20270FDF7A8FF3420FDF7ABFF4FF43E
:103310003240FDF7A1FF0020FDF7A4FF4BF2012092
:10332000FDF79AFF0020FDF79DFF4BF20220FDF70D
:1033300093FF0020FDF796FF4FF43840FDF78CFF18
:103340000520FDF78FFF4BF60100FDF785FF0520F7
:10335000FDF788FF4BF60200FDF77EFF0520FDF725
:1033600081FF4FF43F40FDF777FF0120FDF77AFF23
:103370004FF43340FDF770FF0F20FDF773FF4BF262
:103380000130FDF769FF0F20FDF76CFF4BF20230B3
:10339000FDF762FF0F20FDF765FF4FF43940FDF7A1
:1033A0005BFF2420FDF75EFF4BF60110FDF754FF95
:1033B0002420FDF757FF4BF60210FDF74DFF2420A8
:1033C000FDF750FF4FF43540FDF746FF0820FDF7AD
:1033D00049FF4BF20150FDF73FFF0820FDF742FF88
:1033E0004BF20250FDF738FF0820FDF73BFF4FF48A
:1033F0003A40FDF731FF1420FDF734FF4BF6012072
:10340000FDF72AFF1420FDF72DFF4BF60220FDF7F4
:1034100023FF1420FDF726FF4FF43C40FDF71CFF6F
:103420000020FDF71FFF4BF60140FDF715FFBC2004
:10343000FDF718FF4BF60240FDF70EFF0020FDF7E9
:1034400011FF4FF43D40FDF707FF0020FDF70AFF95
:103450004BF60150FDF700FFBC20FDF703FF4BF6D4
:103460000250FDF7F9FE0020FDF7FCFE4FF43E4050
:10347000FDF7F2FE0020FDF7F5FE4BF60160FDF7CB
:10348000EBFE2D20FDF7EEFE4FF45140FDF7E4FE7C
:103490000020FDF7E7FE4DF20110FDF7DDFE3720BD
:1034A000FDF7E0FE4DF20210FDF7D6FE0020FDF71D
:1034B000D9FE4DF20310FDF7CFFE4920FDF7D2FEF5
:1034C0004DF20410FDF7C8FE0020FDF7CBFE4DF2D3
:1034D0000510FDF7C1FE6B20FDF7C4FE4DF206108E
:1034E000FDF7BAFE0020FDF7BDFE4DF20710FDF717
:1034F000B3FE8620FDF7B6FE4DF20810FDF7ACFED8
:103500000020FDF7AFFE4DF20910FDF7A5FE9D204E
:10351000FDF7A8FE4DF20A10FDF79EFE0020FDF714
:10352000A1FE4DF20B10FDF797FEC320FDF79AFEAA
:103530004DF20C10FDF790FE0020FDF793FE4DF2CA
:103540000D10FDF789FEE020FDF78CFE4DF20E1008
:10355000FDF782FE0120FDF785FE4DF20F10FDF70D
:103560007BFE0D20FDF77EFE4DF21010FDF774FE80
:103570000120FDF777FE4DF21110FDF76DFE2F20B3
:10358000FDF770FE4DF21210FDF766FE0120FDF70B
:1035900069FE4DF21310FDF75FFE6120FDF762FE3C
:1035A0004DF21410FDF758FE0120FDF75BFE4DF2C1
:1035B0001510FDF751FE8620FDF754FE4DF2161052
:1035C000FDF74AFE0120FDF74DFE4DF21710FDF705
:1035D00043FEBD200AE0000018000020204C4344B8
:1035E0002049443A25780D0A00000000FDF73AFE14
:1035F0004DF21810FDF730FE0120FDF733FE4DF2BD
:103600001910FDF729FEE720FDF72CFE4DF21A10E8
:10361000FDF722FE0120FDF725FE4DF21B10FDF700
:103620001BFEE820FDF71EFE4DF21C10FDF714FEF8
:103630000220FDF717FE4DF21D10FDF70DFE0C20C8
:10364000FDF710FE4DF21E10FDF706FE0220FDF7FD
:1036500009FE4DF21F10FDF7FFFD3020FDF702FEC1
:103660004DF22010FDF7F8FD0220FDF7FBFD4DF2B5
:103670002110FDF7F1FD4520FDF7F4FD4DF222107C
:10368000FDF7EAFD0220FDF7EDFD4DF22310FDF7F9
:10369000E3FD6320FDF7E6FD4DF22410FDF7DCFDB0
:1036A0000220FDF7DFFD4DF22510FDF7D5FD7E2050
:1036B000FDF7D8FD4DF22610FDF7CEFD0220FDF7F7
:1036C000D1FD4DF22710FDF7C7FDB120FDF7CAFD72
:1036D0004DF22810FDF7C0FD0220FDF7C3FD4DF2AD
:1036E0002910FDF7B9FDE020FDF7BCFD4DF22A10D1
:1036F000FDF7B2FD0320FDF7B5FD4DF22B10FDF7F0
:10370000ABFD2620FDF7AEFD4DF22C10FDF7A4FD1C
:103710000320FDF7A7FD4DF22D10FDF79DFD602064
:10372000FDF7A0FD4DF22E10FDF796FD0320FDF7ED
:1037300099FD4DF22F10FDF78FFDB420FDF792FD9E
:103740004DF23010FDF788FD0320FDF78BFD4DF2A3
:103750003110FDF781FDB920FDF784FD4DF23210E7
:10376000FDF77AFD0320FDF77DFD4DF23310FDF7E7
:1037700073FDC120FDF776FD4FF45240FDF76CFD5F
:103780000020FDF76FFD4DF20120FDF765FD3720AC
:10379000FDF768FD4DF20220FDF75EFD0020FDF70C
:1037A00061FD4DF20320FDF757FD4920FDF75AFD5D
:1037B0004DF20420FDF750FD0020FDF753FD4DF2C2
:1037C0000520FDF749FD6B20FDF74CFD4DF206206D
:1037D000FDF742FD0020FDF745FD4DF20720FDF706
:1037E0003BFD8620FDF73EFD4DF20820FDF734FD40
:1037F0000020FDF737FD4DF20920FDF72DFD9D203E
:10380000FDF730FD4DF20A20FDF726FD0020FDF703
:1038100029FD4DF20B20FDF71FFDC320FDF722FD12
:103820004DF20C20FDF718FD0020FDF71BFD4DF2B9
:103830000D20FDF711FDE020FDF714FD4DF20E20E7
:10384000FDF70AFD0120FDF70DFD4DF20F20FDF7FC
:1038500003FD0D20FDF706FD4DF21020FDF7FCFCE9
:103860000120FDF7FFFC4DF21120FDF7F5FC2F20A4
:10387000FDF7F8FC4DF21220FDF7EEFC0120FDF7FC
:10388000F1FC4DF21320FDF7E7FC6120FDF7EAFCA7
:103890004DF21420FDF7E0FC0120FDF7E3FC4DF2B2
:1038A0001520FDF7D9FC8620FDF7DCFC4DF2162033
:1038B000FDF7D2FC0120FDF7D5FC4DF21720FDF7F6
:1038C000CBFCBD20FDF7CEFC4DF21820FDF7C4FC6B
:1038D0000120FDF7C7FC4DF21920FDF7BDFCE720E4
:1038E000FDF7C0FC4DF21A20FDF7B6FC0120FDF7F4
:1038F000B9FC4DF21B20FDF7AFFCE820FDF7B2FC50
:103900004DF21C20FDF7A8FC0220FDF7ABFC4DF2A8
:103910001D20FDF7A1FC0C20FDF7A4FC4DF21E209C
:10392000FDF79AFC0220FDF79DFC4DF21F20FDF7EC
:1039300093FC3020FDF796FC4DF22020FDF78CFC27
:103940000220FDF78FFC4DF22120FDF785FC45207C
:10395000FDF788FC4DF22220FDF77EFC0220FDF7EA
:1039600081FC4DF22320FDF777FC6320FDF77AFC04
:103970004DF22420FDF770FC0220FDF773FC4DF2A0
:103980002520FDF769FC7E20FDF76CFC4DF226201A
:10399000FDF762FC0220FDF765FC4DF22720FDF7E4
:1039A0005BFCB120FDF75EFC4DF22820FDF754FCD6
:1039B0000220FDF757FC4DF22920FDF74DFCE020D9
:1039C000FDF750FC4DF22A20FDF746FC0320FDF7E1
:1039D00049FC4DF22B20FDF73FFC2620FDF742FC71
:1039E0004DF22C20FDF738FC0320FDF73BFC4DF297
:1039F0002D20FDF731FC6020FDF734FC4DF22E2028
:103A0000FDF72AFC0320FDF72DFC4DF22F20FDF7DA
:103A100023FCB420FDF726FC4DF23020FDF71CFC02
:103A20000320FDF71FFC4DF23120FDF715FCB920F6
:103A3000FDF718FC4DF23220FDF70EFC0320FDF7D8
:103A400011FC4DF23320FDF707FCC120FDF70AFC05
:103A50004FF45340FDF700FC0020FDF703FC4DF24E
:103A60000130FDF7F9FB3720FDF7FCFB4DF202308A
:103A7000FDF7F2FB0020FDF7F5FB4DF20330FDF7FB
:103A8000EBFB4920FDF7EEFB4DF20430FDF7E4FBC4
:103A90000020FDF7E7FB4DF20530FDF7DDFB6B2065
:103AA000FDF7E0FB4DF20630FDF7D6FB0020FDF7F9
:103AB000D9FB4DF20730FDF7CFFB8620FDF7D2FB97
:103AC0004DF20830FDF7C8FB0020FDF7CBFB4DF2AF
:103AD0000930FDF7C1FB9D20FDF7C4FB4DF20A3014
:103AE000FDF7BAFB0020FDF7BDFB4DF20B30FDF7F3
:103AF000B3FBC320FDF7B6FB4DF20C30FDF7ACFB7A
:103B00000020FDF7AFFB4DF20D30FDF7A5FBE020E7
:103B1000FDF7A8FB4DF20E30FDF79EFB0120FDF7EF
:103B2000A1FB4DF20F30FDF797FB0D20FDF79AFB3F
:103B30004DF21030FDF790FB0120FDF793FB4DF2A5
:103B40001130FDF789FB2F20FDF78CFB4DF2123071
:103B5000FDF782FB0120FDF785FB4DF21330FDF7E9
:103B60007BFB6120FDF77EFB4DF21430FDF774FB0B
:103B70000120FDF777FB4DF21530FDF76DFB862038
:103B8000FDF770FB4DF21630FDF766FB0120FDF7E7
:103B900069FB4DF21730FDF75FFBBD20FDF762FBBF
:103BA0004DF21830FDF758FB0120FDF75BFB4DF29D
:103BB0001930FDF751FBE720FDF754FB4DF21A30A9
:103BC000FDF74AFB0120FDF74DFB4DF21B30FDF7E1
:103BD00043FBE820FDF746FB4DF21C30FDF73CFBB4
:103BE0000220FDF73FFB4DF21D30FDF735FB0C20A9
:103BF000FDF738FB4DF21E30FDF72EFB0220FDF7DE
:103C000031FB4DF21F30FDF727FB3020FDF72AFB7B
:103C10004DF22030FDF720FB0220FDF723FB4DF293
:103C20002130FDF719FB4520FDF71CFB4DF222303A
:103C3000FDF712FB0220FDF715FB4DF22330FDF7D7
:103C40000BFB6320FDF70EFB4DF22430FDF704FB68
:103C50000220FDF707FB4DF22530FDF7FDFA7E202F
:103C6000FDF700FB4DF22630FDF7F6FA0220FDF7D6
:103C7000F9FA4DF22730FDF7EFFAB120FDF7F2FA2D
:103C80004DF22830FDF7E8FA0220FDF7EBFA4DF28D
:103C90002930FDF7E1FAE020FDF7E4FA4DF22A3091
:103CA000FDF7DAFA0320FDF7DDFA4DF22B30FDF7D0
:103CB000D3FA2620FDF7D6FA4DF22C30FDF7CCFAD8
:103CC0000320FDF7CFFA4DF22D30FDF7C5FA602045
:103CD000FDF7C8FA4DF22E30FDF7BEFA0320FDF7CE
:103CE000C1FA4DF22F30FDF7B7FAB420FDF7BAFA5A
:103CF0004DF23030FDF7B0FA0320FDF7B3FA4DF284
:103D00003130FDF7A9FAB920FDF7ACFA4DF23230A7
:103D1000FDF7A2FA0320FDF7A5FA4DF23330FDF7C7
:103D20009BFAC120FDF79EFA4FF45440FDF794FA38
:103D30000020FDF797FA4DF20140FDF78DFA37208C
:103D4000FDF790FA4DF20240FDF786FA0020FDF7EC
:103D500089FA4DF20340FDF77FFA4920FDF782FA18
:103D60004DF20440FDF778FA0020FDF77BFA4DF2A2
:103D70000540FDF771FA6B20FDF774FA4DF206402D
:103D8000FDF76AFA0020FDF76DFA4DF20740FDF7E6
:103D900063FA8620FDF766FA4DF20840FDF75CFAFB
:103DA0000020FDF75FFA4DF20940FDF755FA9D201E
:103DB000FDF758FA4DF20A40FDF74EFA0020FDF7E4
:103DC00051FA4DF20B40FDF747FAC320FDF74AFACE
:103DD0004DF20C40FDF740FA0020FDF743FA4DF29A
:103DE0000D40FDF739FAE020FDF73CFA4DF20E40A8
:103DF000FDF732FA0120FDF735FA4DF20F40FDF7DD
:103E00002BFA0D20FDF72EFA4DF21040FDF724FAA3
:103E10000120FDF727FA4DF21140FDF71DFA2F2082
:103E2000FDF720FA4DF21240FDF716FA0120FDF7DA
:103E300019FA4DF21340FDF70FFA6120FDF712FA5F
:103E40004DF21440FDF708FA0120FDF70BFA4DF290
:103E50001540FDF701FA8620FDF704FA4DF21640F1
:103E6000FDF7FAF90120FDF7FDF94DF21740FDF7D6
:103E7000F3F9BD20FDF7F6F94DF21840FDF7ECF926
:103E80000120FDF7EFF94DF21940FDF7E5F9E720C4
:103E9000FDF7E8F94DF21A40FDF7DEF90120FDF7D4
:103EA000E1F94DF21B40FDF7D7F9E820FDF7DAF90B
:103EB0004DF21C40FDF7D0F90220FDF7D3F94DF289
:103EC0001D40FDF7C9F90C20FDF7CCF94DF21E405D
:103ED000FDF7C2F90220FDF7C5F94DF21F40FDF7CD
:103EE000BBF93020FDF7BEF94DF22040FDF7B4F9E3
:103EF0000220FDF7B7F94DF22140FDF7ADF945205D
:103F0000FDF7B0F94DF22240FDF7A6F90220FDF7CA
:103F1000A9F94DF22340FDF79FF96320FDF7A2F9BF
:103F20004DF22440FDF798F90220FDF79BF94DF280
:103F30002540FDF791F97E20FDF794F94DF22640DA
:103F4000FDF78AF90220FDF78DF94DF22740FDF7C4
:103F500083F9B120FDF786F94DF22840FDF77CF991
:103F60000220FDF77FF94DF22940FDF775F9E020B9
:103F7000FDF778F94DF22A40FDF76EF90320FDF7C1
:103F800071F94DF22B40FDF767F92620FDF76AF92C
:103F90004DF22C40FDF760F90320FDF763F94DF277
:103FA0002D40FDF759F96020FDF75CF94DF22E40E8
:103FB000FDF752F90320FDF755F94DF22F40FDF7BB
:103FC0004BF9B420FDF74EF94DF23040FDF744F9BE
:103FD0000320FDF747F94DF23140FDF73DF9B920D7
:103FE000FDF740F94DF23240FDF736F90320FDF7B9
:103FF00039F94DF23340FDF72FF9C120FDF732F9C1
:104000004FF45540FDF728F90020FDF72BF94DF24C
:104010000150FDF721F93720FDF724F94DF2025048
:10402000FDF71AF90020FDF71DF94DF20350FDF7D9
:1040300013F94920FDF716F94DF20450FDF70CF97C
:104040000020FDF70FF94DF20550FDF705F96B2043
:10405000FDF708F94DF20650FDF7FEF80020FDF7D8
:1040600001F94DF20750FDF7F7F88620FDF7FAF851
:104070004DF20850FDF7F0F80020FDF7F3F84DF28F
:104080000950FDF7E9F89D20FDF7ECF84DF20A50D4
:10409000FDF7E2F80020FDF7E5F84DF20B50FDF7D3
:1040A000DBF8C320FDF7DEF84DF20C50FDF7D4F835
:1040B0000020FDF7D7F84DF20D50FDF7CDF8E020C8
:1040C000FDF7D0F84DF20E50FDF7C6F80120FDF7D0
:1040D000C9F84DF20F50FDF7BFF80D20FDF7C2F8FB
:1040E0004DF21050FDF7B8F80120FDF7BBF84DF286
:1040F0001150FDF7B1F82F20FDF7B4F84DF2125032
:10410000FDF7AAF80120FDF7ADF84DF21350FDF7C9
:10411000A3F86120FDF7A6F84DF21450FDF79CF8C6
:104120000120FDF79FF84DF21550FDF795F8862018
:10413000FDF798F84DF21650FDF78EF80120FDF7C7
:1041400091F84DF21750FDF787F8BD20FDF78AF87A
:104150004DF21850FDF780F80120FDF783F84DF27D
:104160001950FDF779F8E720FDF77CF84DF21A5069
:10417000FDF772F80120FDF775F84DF21B50FDF7C1
:104180006BF8E820FDF76EF84DF21C50FDF764F86F
:104190000220FDF767F84DF21D50FDF75DF80C2089
:1041A000FDF760F84DF21E50FDF756F80220FDF7BE
:1041B00059F84DF21F50FDF74FF83020FDF752F837
:1041C0004DF22050FDF748F80220FDF74BF84DF274
:1041D0002150FDF741F84520FDF744F84DF22250FB
:1041E000FDF73AF80220FDF73DF84DF22350FDF7B8
:1041F00033F86320FDF736F84DF22450FDF72CF824
:104200000220FDF72FF84DF22550FDF725F87E200E
:10421000FDF728F84DF22650FDF71EF80220FDF7B5
:1042200021F84DF22750FDF717F8B120FDF71AF8E5
:104230004DF22850FDF710F80220FDF713F84DF26B
:104240002950FDF709F8E020FDF70CF84DF22A504F
:10425000FDF702F80320FDF705F84DF22B50FCF7AF
:10426000FBFF2620FCF7FEFF4DF22C50FCF7F4FF7D
:104270000320FCF7F7FF4DF22D50FCF7EDFF602017
:10428000FCF7F0FF4DF22E50FCF7E6FF0320FCF7A1
:10429000E9FF4DF22F50FCF7DFFFB420FCF7E2FFFF
:1042A0004DF23050FCF7D8FF0320FCF7DBFF4DF256
:1042B0003150FCF7D1FFB920FCF7D4FF4DF232505A
:1042C000FCF7CAFF0320FCF7CDFF4DF23350FCF79B
:1042D000C3FFC120FCF7C6FF4FF45640FCF7BCFFFC
:1042E0000020FCF7BFFF4DF20160FCF7B5FF37205F
:1042F000FCF7B8FF4DF20260FCF7AEFF0020FCF7C0
:10430000B1FF4DF20360FCF7A7FF4920FCF7AAFFBD
:104310004DF20460FCF7A0FF0020FCF7A3FF4DF274
:104320000560FCF799FF6B20FCF79CFF4DF20660DF
:10433000FCF792FF0020FCF795FF4DF20760FCF7B9
:104340008BFF8620FCF78EFF4DF20860FCF784FFA0
:104350000020FCF787FF4DF20960FCF77DFF9D20F0
:10436000FCF780FF4DF20A60FCF776FF0020FCF7B7
:1043700079FF4DF20B60FCF76FFFC320FCF772FF73
:104380004DF20C60FCF768FF0020FCF76BFF4DF26C
:104390000D60FCF761FFE020FCF764FF4DF20E605A
:1043A000FCF75AFF0120FCF75DFF4DF20F60FCF7B0
:1043B00053FF0D20FCF756FF4DF21060FCF74CFF49
:1043C0000120FCF74FFF4DF21160FCF745FF2F2055
:1043D000FCF748FF4DF21260FCF73EFF0120FCF7AE
:1043E00041FF4DF21360FCF737FF6120FCF73AFF05
:1043F0004DF21460FCF730FF0120FCF733FF4DF263
:104400001560FCF729FF8620FCF72CFF4DF21660A3
:10441000FCF722FF0120FCF725FF4DF21760FCF7A7
:104420001BFFBD20FCF71EFF4DF21860FCF714FFC8
:104430000120FCF717FF4DF21960FCF70DFFE72094
:10444000FCF710FF4DF21A60FCF706FF0120FCF7A5
:1044500009FF4DF21B60FCF7FFFEE820FCF702FFAE
:104460004DF21C60FCF7F8FE0220FCF7FBFE4DF25B
:104470001D60FCF7F1FE0C20FCF7F4FE4DF21E600F
:10448000FCF7EAFE0220FCF7EDFE4DF21F60FCF7A0
:10449000E3FE3020FCF7E6FE4DF22060FCF7DCFE88
:1044A0000220FCF7DFFE4DF22160FCF7D5FE45202F
:1044B000FCF7D8FE4DF22260FCF7CEFE0220FCF79E
:1044C000D1FE4DF22360FCF7C7FE6320FCF7CAFE65
:1044D0004DF22460FCF7C0FE0220FCF7C3FE4DF253
:1044E0002560FCF7B9FE7E20FCF7BCFE4DF226608D
:1044F000FCF7B2FE0220FCF7B5FE4DF22760FCF798
:10450000ABFEB120FCF7AEFE4DF22860FCF7A4FE36
:104510000220FCF7A7FE4DF22960FCF79DFEE0208B
:10452000FCF7A0FE4DF22A60FCF796FE0320FCF794
:1045300099FE4DF22B60FCF78FFE2620FCF792FED1
:104540004DF22C60FCF788FE0320FCF78BFE4DF249
:104550002D60FCF781FE6020FCF784FE4DF22E609A
:10456000FCF77AFE0320FCF77DFE4DF22F60FCF78E
:1045700073FEB420FCF776FE4DF23060FCF76CFE63
:104580000320FCF76FFE4DF23160FCF765FEB920A9
:10459000FCF768FE4DF23260FCF75EFE0320FCF78C
:1045A00061FE4DF23360FCF757FEC120FCF75AFE66
:1045B0004FF47040FCF750FE5520FCF753FE4FF2CD
:1045C0000100FCF749FEAA20FCF74CFE4FF2020066
:1045D000FCF742FE5220FCF745FE4FF20300FCF7C9
:1045E0003BFE0820FCF73EFE4FF20400FCF734FED1
:1045F0000020FCF737FE4FF43540FCF72DFE50202D
:10460000FCF730FE4FF43140FCF726FECC20FCF7DF
:1046100029FE4FF43640FCF71FFE0220FCF722FE75
:104620004FF43840FCF718FE0120FCF71BFE4BF658
:104630000100FCF711FE0320FCF714FE4BF602000C
:10464000FCF70AFE0320FCF70DFE4BF60300FCF717
:1046500003FE0320FCF706FE4FF43C40FCF7FCFD94
:104660000520FCF7FFFD4BF60140FCF7F5FD0520AA
:10467000FCF7F8FD4BF60240FCF7EEFD0520FCF7D9
:10468000F1FD4BF60250FCF7E7FD0720FCF7EAFDD1
:104690004BF60350FCF7E0FD3120FCF7E3FD4BF651
:1046A0000260FCF7D9FD0720FCF7DCFD4BF6036048
:1046B000FCF7D2FD3120FCF7D5FD4BF60270FCF77C
:1046C000CBFD0720FCF7CEFD4BF60360FCF7C4FDE5
:1046D0003120FCF7C7FD4FF47F40FCF7BDFDAA2059
:1046E000FCF7C0FD4FF60170FCF7B6FD5520FCF756
:1046F000B9FD4FF60270FCF7AFFD2520FCF7B2FDC7
:104700004FF60370FCF7A8FD0120FCF7ABFD4FF25C
:104710000630FCF7A1FD1020FCF7A4FD4FF2084085
:10472000FCF79AFD0020FCF79DFD4FF45850FCF774
:1047300093FDC020FCF796FD4FF45450FCF78CFD20
:104740000020FCF78FFD4FF46850FCF785FD052035
:10475000FCF788FD4FF48850FCF77EFD322000F016
:1047600049FC4FF42450FCF777FD322000F042FC66
:104770000020FCF7ABFB4FF6FF70FCF783FB10BD8E
:1047800010B540F225510C4800F096F870B10A4877
:1047900000F04EF9C4B22146074800F04EF900BFC0
:1047A0004021054800F07BF80128F9D1402102485A
:1047B00000F060F810BD00000038014010B586B070
:1047C000044601210420FCF7E7FD01218803FCF7E2
:1047D000E3FD01210846FCF7DFFD4FF40070ADF862
:1047E000140003208DF8160018208DF8170005A975
:1047F0001E48FCF765FA4FF48060ADF81400042001
:104800008DF8170005A91948FCF75AFA0194002001
:10481000ADF80800ADF80A00ADF80C00ADF81000D6
:104820000C20ADF80E0001A9114800F095F8012107
:104830000F4800F028F840210D4800F01BF8012235
:1048400040F225510A4800F061F825208DF800005B
:1048500003208DF801008DF8020001208DF803007F
:104860006846FCF735FD06B010BD000000080140A9
:104870000038014001F40072B2F5007F00D100BFA2
:10488000CA430280704721B1828942F4005282817A
:1048900004E082894DF6FF731A4082817047024618
:1048A0000020B1F5007F00D100BF13880B400BB191
:1048B000012000E00020704770B50246002400236C
:1048C0000025002040F66A16B14200D100BFC1F3B6
:1048D000421501F01F03012606FA03F3012D02D150
:1048E0009689334006E0022D02D1168A334001E05A
:1048F000968A33400C12012606FA04F416883440D6
:1049000013B10CB1012000E0002070BDF0B50346EA
:10491000002400260025002040F66A17B94200D185
:1049200000BF1846C1F3421401F01F06012707FA21
:1049300006F5012C01D10C3004E0022C01D110301D
:1049400000E014301AB107682F43076002E00768DF
:10495000AF430760F0BD00002DE9F04786B0054683
:104960000E460024A24600BFA1460027B08900B130
:1049700000BF2F462C8A4CF6FF700440F088044399
:104980002C82AC894EF6F3100440B088318908437C
:10499000718908430443AC81AC8A4FF6FF40044060
:1049A000B0890443AC8201A8FCF706FD1F4887428A
:1049B00002D1DDF810A001E0DDF80CA0A88900F418
:1049C000004040B10AEBCA0000EB0A103168490010
:1049D000B0FBF1F807E00AEBCA0000EB0A103168FF
:1049E0008900B0FBF1F86420B8FBF0F00401200965
:1049F000642101FB1089A88900F4004040B13220F5
:104A000000EBC900B0FBF1F000F00700044308E040
:104A1000322000EB09106421B0FBF1F000F00F0030
:104A200004432C8106B0BDE8F08700000038014047
:104A300001468888C0F308007047C1F308028280ED
:104A4000704700BFFEE700000FB4054B10B503A987
:104A5000044A029800F018F810BC5DF814FB00003E
:104A6000096500086C00002002E008C8121F08C198
:104A7000002AFAD170477047002001E001C1121FDF
:104A8000002AFBD1704700002DE9FF4F8DB09B46F7
:104A90000F460446002606E025280BD05A460F99FB
:104AA0009047641C761C20780028F5D111B0304660
:104AB000BDE8F08F0025A8460122984900E0054393
:104AC00014F8013F203B02FA03F00842F7D12078A6
:104AD0002E2817D114F8010F45F004052A280ED00E
:104AE0006FF02F022078A0F1300109290AD808EBD5
:104AF000880102EB410100EB0108641CF2E757F862
:104B0000048B641C20786C280DD004DC4C2812D057
:104B10006A2811D104E074280DD07A280CD10AE05B
:104B200045F4001507E0617845F48015814202D113
:104B3000641C05F58015641C2278692A45D008DCC0
:104B4000002AB3D0582A69D0632A10D0642A08D129
:104B50003BE0702A67D0732A13D0752A5CD0782A7C
:104B60005CD010465A460F999047761CD3E017F850
:104B7000040B8DF8000000208DF80100E9460120AB
:104B800003E057F8049B4FF0FF3069074FF0000532
:104B900001D40AE06D1C45450DDA8542FADB19F8AF
:104BA00005100029F6D106E06D1C8542FCDB19F8E2
:104BB00005100029F8D12E4404E019F8010B5A46DB
:104BC0000F9990476D1EF8D2A5E00A200021CDE98B
:104BD0000801C5F3025002280DD001CFC117031EF2
:104BE00071F100030DDA4FF0000CD0EB0C006CEB10
:104BF00001012D2308E0FF1D27F00707F7E8020158
:104C0000EDE72B0504D52B238DF8283001233BE05D
:104C1000EB0739D02023F7E70A2000E0102000211D
:104C2000CDE9080107E01020002145F00405CDE999
:104C300008014FF00808C5F3025002280FD001CF39
:104C400000214FF0000A2B071FD5702A0DD0DDE997
:104C500008C38CF0100C5CEA030C0CD015E0FF1DAF
:104C600027F00707F7E80201EBE740228DF828203C
:104C70004FF0010A0BE050EA010306D030238DF813
:104C800028308DF8292002239A46582A04D024A2DD
:104C90000DF120090B9209E026A2F9E7DDE90823CE
:104CA000FBF762FA0B9B9B5C09F8013D50EA01029D
:104CB000F4D1ADEB090020300890680701D44FF023
:104CC00001080899884502DDA8EB010000E00020FA
:104CD0008046002506E00AA85A46405D0F99904795
:104CE0006D1C761C5545F6DB04E030205A460F99C2
:104CF0009047761CB8F10001A8F10108F5DC05E049
:104D000019F8010B5A460F999047761C0899481ECE
:104D100008900029F4DC641CC5E6000009280100A5
:104D20003031323334353637383961626364656621
:104D300000000000303132333435363738394142E3
:104D400043444546000000002DE9F04704460D4667
:104D500090469946AD1EE06A00EB153AC5F3C806C9
:104D600005F0070101208840C7B200BF51460AF193
:104D7000010A204601F04EFF10B10120BDE8F08786
:104D800000BF00BF04F13400805D384008B101204D
:104D900000E00020484501D10220EFE704F1340093
:104DA000805D784004F1340188550120E070A8F15D
:104DB0000100B0F1000800D1E0E77806000E071E00
:104DC000E0D10127701C0646B0F5007FD9D3CDE7AE
:104DD00070B504460D460020E070401E2063294651
:104DE000204601F017FF08B1042070BD04F2322004
:104DF00001F0BDFC4AF65521884201D00320F4E7BA
:104E000004F16A0001F076FC20F07F400D498842F1
:104E100001D10020E9E704F1860001F06BFC20F0ED
:104E20007F400849884201D10020DEE7082206A120
:104E300004F1370001F0C6FE08B90120D5E70220D1
:104E4000D3E70000464154004558464154202020F5
:104E500000000000024600E0521C107810B11078EB
:104E60008842F9D1107870470246891E9069801EE9
:104E7000884201D8002070475389D06A01FB0300A3
:104E8000F9E70146002002E04910421CD0B2012996
:104E9000FAD170472DE9F04707468A463C68BAF1D7
:104EA000000F06D1266916B1A069B04217D80126B5
:104EB00015E05146384601F039FB8046B8F1020F43
:104EC00002D20120BDE8F08708F1010008B9404690
:104ED000F8E7A069404501D94046F3E756462078F7
:104EE00004282ED101223146204601F08FF80546D4
:104EF0000DB1681C08B92846E4E701231A46294683
:104F00002046FFF721FF8146B9F1020F01D10120B0
:104F1000D8E7B9F1010F02D14FF0FF30D2E7BAF173
:104F2000000F02D10220F8712CE0F879022829D173
:104F3000701C854226D0B868301AB8610320F87119
:104F400020E0354600BF6D1CA069A84204D80225A8
:104F5000B54201D90020B5E72946384601F0E6FA06
:104F60008046B8F1000F00D10BE0B8F1010F02D07C
:104F700008F1010008B94046A4E7B542E3D100209A
:104F8000A0E700BF2078042805D1F879022802D1D3
:104F90004FF0000912E04FF0FF322946204601F0A1
:104FA0004BFF8146B9F1000F08D1BAF1000F05D0CF
:104FB0002A465146204601F03FFF8146B9F1000FD5
:104FC0000DD12561D4E90510801E814202D26069AD
:104FD000401E6061207940F00100207107E0B9F1C6
:104FE000010F02D14FF0FF3000E0012005462846B6
:104FF00068E700000146114A12884A434FF0E02357
:105000005A6100229A611A46126942F001021A613D
:1050100000BF4FF0E022106900F001021AB100F465
:105020008032002AF5D04FF0E022126922F001020E
:105030004FF0E0231A6100229A6170473600002089
:105040002DE9F04104460E46D4F8008000212046A8
:1050500000F046F905465DBB002700BF4046216BC6
:1050600001F0D8FD054605B121E098F800000428BC
:1050700005D1606B0078012121EAD01009E0606B56
:105080000078E52802D0606B007808B9012000E0C4
:10509000002020B1781C0746B04201D107E000276C
:1050A0000121204600F00AF80546002DD6D000BFA9
:1050B000042D00D107252846BDE8F0812DE9F047F1
:1050C000044689462568A06A00F12007206B40B19C
:1050D0002878042801D1800601E04FF40010B8427E
:1050E00002D80420BDE8F087C7F3080000286CD17F
:1050F000206B401C2063E06A38B92889B0EB571F49
:1051000063D8002020630420ECE76889401E00EA91
:105110005720002859D12046E16A01F007FA0646D7
:10512000012E01D80220DDE7701C08B90120D9E763
:10513000A869B04243D8B9F1000F03D10020206321
:105140000420CFE72046E16AFFF7A4FE06460EB929
:105150000720C7E7012E01D10220C3E7701C08B960
:105160000120BFE7E07940F00400E071284601F03B
:105170006FFF08B10120B5E74FF40072002105F17F
:10518000340001F03EFD4FF0000831462846FFF79D
:105190006BFE28630CE00120E870284601F058FF00
:1051A00008B101209EE708F10108286B401C286324
:1051B00068894045EFD8286BA0EB08002863E662B9
:1051C00031462846FFF750FE2063A762C7F3080167
:1051D00005F1340008446063002083E72DE9F05FA7
:1051E00004460F460426D4F800804FF0FF0AD34649
:1051F0006CE04046216B01F00DFD064606B168E00B
:10520000606B05780DB9042663E098F80000042867
:1052100013D117B1832D52D15BE0852D4FD1A06AF8
:10522000E063204601F0A9FA06462EB9D8F80C0032
:10523000007900F03F00A0714BE0606BC07A00F095
:105240003F0984F80690E52D0AD02E2D08D029F0CC
:105250002000082801D1012000E00020B84202D03F
:105260004FF0FF0A2BE0B9F10F0F1CD105F0400001
:1052700038B1606B90F80DB025F04005AA46A06AE1
:10528000E06355450BD1606B407B584507D1616B9E
:10529000206C01F08DFD10B1AAF1010000E0FF20AB
:1052A00000F0FF0A0BE0BAF1000F04D1606B01F0CF
:1052B00077FE584502D04FF0FF30E06309E000214F
:1052C0002046FFF7FBFE064606B102E0206B0028F1
:1052D0008FD100BF0EB1002020633046BDE8F09FA3
:1052E0002DE9F04104460D4626683078042801D1A6
:1052F000800601E04FF40010A84202D905F01F001B
:1053000010B10220BDE8F081A562A7682FB93078FE
:10531000032802DBB76A0020E07147B93089B0EB9F
:10532000551F01D80220EDE7B06A20631CE07089A8
:105330004FEA402811E03946204601F0F7F80746C9
:10534000781C08B90120DDE7022F02D3B069B8420A
:1053500001D80220D6E7A5EB08054545EBD2394632
:105360003046FFF781FD2063E762206B08B9022019
:10537000C8E7206B00EB55202063C5F3080106F158
:105380003400084460630020BCE7000070B50446A8
:10539000002514B1012C0BD103E0FCF765FB054699
:1053A00008E0FBF783F94FF400500549088001E05D
:1053B000012500BF00BF0DB1012070BD0020FCE73A
:1053C000540000202DE9F04706468946154646BBA5
:1053D000B9F1000F09D0B9F1010F13D0B9F1020FE3
:1053E00005D0B9F1030F19D106E0002418E04FF4FD
:1053F00000702860002413E01D48B0F85000288099
:1054000000240DE01A484FF400720023D0E9127115
:105410003846FAF7DAFE2860002401E0042400BFD1
:1054200022E0012E1FD1B9F1000F09D0B9F1010F0F
:1054300011D0B9F1020F05D0B9F1030F10D106E078
:1054400000240FE04FF40070288000240AE00820B8
:105450002880002406E0074800882860002401E036
:10546000042400BF00E001242046BDE8F0870000CE
:10547000D8100020540000202DE9F04107460E46C8
:1054800015461C464FF0000814B90420BDE8F08111
:1054900017B1012F22D112E0E2B229463046FCF7C3
:1054A000C5FE804607E0FCF7DFFAE2B22946304647
:1054B000FCF7BCFE8046B8F1000FF4D111E009E022
:1054C00069024FF400723046FBF73AF96D1C06F59D
:1054D0000076641E002CF3D1A04602E04FF00108D4
:1054E00000BF00BFB8F1000F01D10020CEE70120BE
:1054F000CCE70146002070472DE9F04107460E46F3
:1055000015461C464FF0000814B90420BDE8F08190
:1055100017B1012F22D112E0E2B229463046FDF741
:1055200023FA804607E0FCF79FFAE2B229463046AC
:10553000FDF71AFA8046B8F1000FF4D111E009E046
:1055400069024FF400723046FBF766F96D1C06F5F0
:105550000076641E002CF3D1A04602E04FF0010853
:1055600000BF00BFB8F1000F01D10020CEE701203D
:10557000CCE72DE9F74F8EB08A4600220CA90EA881
:1055800000F096FD8346BBF1000F0CD10C991098EA
:1055900001600C98D0E90510801E814204D80C9857
:1055A0004069CAF8000093E000260C9800780128B2
:1055B0001BD102240C98029000BF214602A800F0E3
:1055C000B5FF0746781C10B94FF0010B0CE0012F16
:1055D00002D14FF0020B07E007B9761C601C0446AD
:1055E0000C9989698842E8D368E00C98007804280F
:1055F00030D10C988069841E0C98D0F82C8000253E
:1056000000BF4DB9414608F101080C9801F002FBBA
:10561000B0F1000B00D01BE0082000900C98343053
:10562000405D01900BE0019800F0010000B9761C8C
:105630000198401001900098401E0090641E009850
:1056400008B1002CEFD1681CC0F30805002CD8D19C
:1056500000BF33E00C9884690C98D0F824800025B2
:10566000A94600BF7DB9414608F101080C9801F038
:10567000D1FA8346BBF1000F00D01EE00C9800F178
:1056800034094FF400750C980078022808D1484678
:1056900001F06DF800B9761C09F10209AD1E09E0B0
:1056A000484601F027F820F0704000B9761C09F157
:1056B00004092D1F601E041ED4D100BFCAF800606B
:1056C0000C9846610C98007940F001000C99087123
:1056D000584611B0BDE8F08F2DE9F74F90B016464F
:1056E0001198012803DD132013B0BDE8F08F10A836
:1056F00000F0DBFF0F900F98002801DA0B20F3E792
:10570000F9490F9851F820B0BBF1000F01D10C20DE
:10571000EAE700208BF800000F98C0B20C90002040
:105720000B900C98FFF732FE0190019800F00100F9
:1057300008B10320D8E7019800F0040008B10A205E
:10574000D2E700BF04AA01210C98FFF73BFE10B975
:105750000498802801D20120C6E7119808B10020E2
:1057600000E03F2082460498A0EB0A000490701EDF
:10577000304000B100269EB94FF4FA610498B0FBA6
:10578000F1F00A904FF0000801E008F10108D74855
:1057900030F818100A988142F7D8D54830F81860C8
:1057A000B6F5007F00D3760A06B90126802E00D90F
:1057B00080260498B0FBF6F7012540F6F670874284
:1057C00000D302254FF6F670874200D30325032D40
:1057D0000BD1082000EB870000F2FF104FEA5029A0
:1057E000202003900020029012E0012D05D107EB4C
:1057F0004700401C4008C01C01E07800001D8146A5
:1058000009F2FF104FEA5029012003902020029056
:1058100003985044079007984844069002990698C8
:105820000844059005983044A0EB0A00049988428A
:1058300001D90E2058E709AA03210C98FFF7C2FDF1
:1058400028B9099818B10998B0F5004F01D901207D
:105850000990099905980844401E491E88430990FB
:1058600009990598081A0990032D08D109990398F8
:1058700008440390099907980844079001E00998A3
:105880008144DDE90301081AA0EB09010298081A16
:10589000B0FBF6F7022D03D140F6F670874205D330
:1058A000032D05D14FF6F670874201D20E201BE77B
:1058B000032D02D10C200D9010E0012D06D104988B
:1058C000B0F5803F02D201200D9007E00498B0F5BA
:1058D000803F01D2042000E006200D9000BF119807
:1058E00010B1F0200E903CE04FF4007200210BF15B
:1058F000340001F086F90BF5F97401206070A07096
:105900000020E0700D982071FE20607104985044D2
:105910003F21B0FBF1F0FF21B0FBF1F009903F21F6
:10592000099841EA9000A0710998E07104F108001B
:1059300001F024FB04F10C00049901F01FFB4AF66E
:1059400055210BF2322001F025FB012300220BF13F
:1059500034010C98FFF7D0FD08B10120C4E6F8200F
:105960000E900BF134044FF400720021204601F038
:1059700048F90B225FA1204601F036F94FF4007878
:10598000414604F10B0001F005FB6673039881B2F8
:1059900004F10E0001F0FEFA01202074032D01D164
:1059A000002001E04FF4007080461FFA88F104F1F6
:1059B000110001F0EFFA0498B0F5803F06D2049888
:1059C00081B204F1130001F0E5FA04E004F12000D3
:1059D000049901F0D3FA0E9860753F2104F1180084
:1059E00001F0D8FAFF2104F11A0001F0D3FA514670
:1059F00004F11C0001F0C2FA00F055FE0990032DDD
:105A000025D104F14300099901F0B8FA494604F19F
:105A1000240001F0B3FA022104F12C0001F0AEFAE7
:105A2000012104F1300001F0B5FA062104F1320041
:105A300001F0B0FA802084F84000292084F8420068
:105A400013222FA104F1470001F0CEF816E004F173
:105A50002700099901F092FA1FFA89F104F1160062
:105A600001F098FA802084F82400292084F8260088
:105A7000132228A104F12B0001F0B6F84AF65521B3
:105A800004F5FF7001F086FA0123524621460C9876
:105A9000FFF732FD08B1012026E6032D06D10123D0
:105AA0000AF1060221460C98FFF726FD0798089098
:105AB0004FF0000876E04FF400720021204601F01C
:105AC000A0F80E980990032D30D0012D01D1164871
:105AD00001E06FF0FF0009990843099020460999F9
