:020000040800F2
:10000000D84D0020ED010008F50100082920000866
:10001000F9010008FB010008FD01000800000000D4
:10002000000000000000000000000000FF010008C8
:100030000102000800000000030200084D20000833
:10004000070200080702000807020008070200086C
:10005000070200080702000807020008070200085C
:10006000070200080702000807020008070200084C
:10007000C5080008D10800080702000807020008A8
:10008000070200080702000807020008070200082C
:10009000070200080702000807020008070200081C
:1000A000070200080702000807020008070200080C
:1000B00007020008070200080702000807020008FC
:1000C00007020008070200080702000807020008EC
:1000D000070200080702000807020008CD240008F4
:1000E00007020008070200080702000807020008CC
:1000F00007020008070200080702000807020008BC
:1001000007020008070200080702000807020008AB
:10011000070200080702000807020008070200089B
:10012000070200080702000807020008070200088B
:1001300000F002F800F04BF80AA090E8000C8244AE
:100140008344AAF10107DA4501D100F040F8AFF28B
:10015000090EBAE80F0013F0010F18BFFB1A43F0A5
:1001600001031847A02F0000C02F0000103A24BF41
:1001700078C878C1FAD8520724BF30C830C144BF0C
:1001800004680C607047000000230024002500264E
:10019000103A28BF78C1FBD8520728BF30C148BFEA
:1001A0000B607047702900F02181642900F0AE8057
:1001B000752900F0AB80782900F00B81732900F0DD
:1001C000CA82002070471FB51FBD10B510BD00F0DA
:1001D00049FB1146FFF7F7FF02F070FE00F067FBE6
:1001E00003B4FFF7F2FF03BC02F08EF90948804721
:1001F00009480047FEE7FEE7FEE7FEE7FEE7FEE709
:10020000FEE7FEE7FEE7FEE704480549054A064B20
:1002100070470000B920000831010008D8470020CD
:10022000D84D0020D8490020D84900207047B2F1AD
:1002300020030AD5C2F1200320FA02F001FA03F3E9
:1002400021FA02F140EA0300704721FA03F04FF06F
:10025000000170470FB4044910B503AA029800F0DA
:100260007FFA10BC5DF814FB1000002070B5044646
:1002700085690068C10601D5302600E02026C00748
:1002800007D070BDD4E9012130469047206A401C58
:1002900020626D1EF6D570BD70B504468569007884
:1002A000C00707D170BDD4E9012120209047206A02
:1002B000401C20626D1EF6D570BD70B50C4605461B
:1002C000012A05D02878800600D5EA69002302E0DB
:1002D000012305E05B1C934202D2E05C0028F9D1C7
:1002E000A869E618C01AA861286A18442862284636
:1002F000FFF7BCFF04E0D5E9012114F8010B90479A
:10030000B442F8D32846FFF7C7FF70BD2DE9F0418E
:100310000646002410687529314616A510D0AFF3A3
:100320000080002802DA404213A507E031688A07FE
:1003300001D512A502E0490704D511A5012401E069
:10034000AFF3008000210A2206F1240709E0B0FB88
:10035000F2FCB0FBF2F302FB1C003030785418467C
:10036000491C0028F3D123462A463046BDE8F04117
:1003700000F086B9000000002D0000002B000000F6
:1003800020000000F0B40D460188090502D51B4C81
:100390007C4402E0194C7C440E34002100F124031B
:1003A00005E002F00F061209A65D5E54491C002A02
:1003B000F7D102780023120704D5702D06D009B1B9
:1003C000022311342246F0BC00F05AB90123103444
:1003D000F8E770B504460D4621461068AFF300807B
:1003E000024629462046BDE87040CBE70368126804
:1003F00043F0200303600823C361C3E7362D0000E8
:100400002DE9F05F894604464FF0000ADFF824B179
:10041000FB44C0F820A02046E168884700287DD032
:10042000252806D0D4E901219047206A401C20628B
:10043000F1E700255F462046E16888472028064608
:1004400007DB312E05D2B81910F8200C08B105438E
:10045000F1E7A80701D525F00405C4F81CA0002782
:10046000C4F818A02A2E09D0304602F045F838B357
:1004700004EB8708303EC8F8186019E059F8041BEF
:10048000204604EB87029161E1688847012F064608
:1004900018D1E069002820DA25F020051DE0D8F801
:1004A000180000EB800006EB40003038C8F8180058
:1004B0002046E1688847064602F01EF80028EED183
:1004C000012F0AD02E2E08D12046E16888477F1CD4
:1004D0000646022F45F02005C4DBA069002803DA98
:1004E000404245F00105A061E80701D025F0100564
:1004F000A6B1A6F14100192802D8203645F40065BE
:100500004A463146204625604D46FFF74BFE60B116
:10051000012807D0ED1D25F0070000E007E000F1FD
:10052000080978E705F1040975E730467AE7206A9B
:10053000BDE8F09FDE2C000040EA010310B59B07E8
:100540000FD1042A0DD310C808C9121F9C42F8D03D
:1005500020BA19BA884201D9012010BD4FF0FF30EE
:1005600010BD1AB1D30703D0521C07E0002010BD04
:1005700010F8013B11F8014B1B1B07D110F8013B90
:1005800011F8014B1B1B01D1921EF1D1184610BD71
:10059000032A40F2308010F0030C00F0158011F8AF
:1005A000013BBCF1020F624498BF11F801CB00F887
:1005B000013B38BF11F8013BA2F1040298BF00F8DB
:1005C00001CB38BF00F8013B11F0030300F0DA80E3
:1005D000083AC0F0088051F8043B083A51F804CBBF
:1005E000A0E80810F5E7121D5CBF51F8043B40F885
:1005F000043BAFF30080D20724BF11F8013B11F890
:1006000001CB48BF11F8012B24BF00F8013B00F8D3
:1006100001CB48BF00F8012B704702F0FF0343EA0B
:10062000032242EA024200F0E1B84FF0000200B5B6
:10063000134694469646203922BFA0E80C50A0E805
:100640000C50B1F12001BFF4F7AF090728BFA0E8B3
:100650000C5048BF0CC05DF804EB890028BF40F87F
:10066000042B08BF704748BF20F8022B11F0804FC1
:1006700018BF00F8012B70477047704770477047EC
:100680002DE9F0470D4699469246044600F12408AC
:100690000168880604D5E06921F01001216000E0BE
:1006A0000120A84201DD471B00E00027A1697A195B
:1006B00002EB0900081AA0612078C00602D4204687
:1006C000FFF7D4FD002608E0D4E901211AF806005E
:1006D0009047206A401C761C20624E45F4DB20784F
:1006E000C0060AD52046FFF7C1FD06E0D4E9012186
:1006F00030209047206A401C2062381EA7F1010775
:10070000F4DC07E0D4E9012118F805009047206ADD
:10071000401C2062281EA5F10105F3DC2046FFF7EE
:10072000BBFD2078000602D50220BDE8F08701203D
:10073000FBE710B5436913B1AFF3008001E0FFF7A9
:10074000BCFD012010BD127800F124010A700022C6
:100750004A700122EDE711684FF0FF32E9E700002F
:10076000074B70B50D467B4400F065F804462846FB
:1007700000F074F810B14FF0FF3070BD204670BD2E
:10078000D325000010B5203AC0F00B80B1E8185016
:10079000203AA0E81850B1E81850A0E81850BFF46B
:1007A000F5AF5FEA027C24BFB1E81850A0E818500A
:1007B00044BF18C918C0BDE810405FEA827C24BF5E
:1007C00051F8043B40F8043B08BF7047D20728BFEC
:1007D00031F8023B48BF11F8012B28BF20F8023B3B
:1007E00048BF00F8012B70474FF000020429C0F009
:1007F000128010F0030C3FF41AAFCCF1040CBCF1E2
:10080000020F18BF00F8012BA8BF20F8022BA1EBA4
:100810000C01FFF70CBF5FEAC17C24BF00F8012B7D
:1008200000F8012B48BF00F8012B704701694A1CF2
:1008300002610878704700B58FB0CDE90131002121
:10084000059105497944CDE9031011466846FFF743
:10085000D7FD0FB000BD0000E5FFFFFF007B00F0FB
:1008600080007047754600F029F8AE4605006946DD
:10087000534620F00700854618B020B5FFF7C4FCAA
:10088000BDE820404FF000064FF000074FF0000891
:100890004FF0000B21F00701AC46ACE8C009ACE812
:1008A000C009ACE8C009ACE8C0098D4670470446F1
:1008B000AFF300802046FFF793FC0000004870472C
:1008C00078470020014800F089B900002800002086
:1008D000014800F083B900006C00002030B590F8AA
:1008E00040500124AC40C56B6C6004686360436891
:1008F000102B036803D099600068C26030BD9A6015
:100900000068C16030BD000010B5012804D040F27D
:10091000562108A001F028FE13490020C8611348A1
:10092000016941F004010161016941F04001016187
:1009300010BD000053544D3332463178785F484142
:100940004C5F4472697665725C5372635C73746D5C
:100950003332663178785F68616C5F666C617368AA
:100960005F65782E63000000584700200020024099
:10097000064A0021D16106490A6942F002020A6171
:100980004861086940F040000861704758470020FE
:1009900000200240044B0022DA61044A136943F04C
:1009A0000103136101807047584700200020024076
:1009B00014480022C168CB06134904D5CA6942F025
:1009C0000202CA611022C3685B0705D5CB6943F0F8
:1009D0000103CB6142F00402C369DB0707D0CB6996
:1009E00043F00403CB61C16921F00101C161A2F5AB
:1009F0008071013901D0C2607047C16921F00101E5
:100A0000C1617047002002405847002070B505467C
:100A100000F05AFE0646114C09E0681C07D025B1CB
:100A200000F052FE801BA84201D9032070BDE0688F
:100A3000C007F2D1E068800601D52020E060E068C0
:100A4000C00605D4E069C00702D1E068400703D5BD
:100A5000FFF7AEFF012070BD002070BD00200240F6
:100A600010B590F821100022022905D004218163DD
:100A700080F82020012010BD01680B6823F00E03D0
:100A80000B6001680B6823F001030B6090F84030A5
:100A9000C46B012101FA03F3636080F8211080F830
:100AA0002020104610BD00002DE9F05F90F82110C5
:100AB0000024022903D004218163012485E0016818
:100AC0000A6822F00E020A6001680A6822F0010238
:100AD0000A603F4E3E4FB215DFF8F4C0DFF8F090E9
:100AE000DFF8ECA0DFF8E8B0DFF8E4E00168783F79
:100AF00013011502ACF1640CA9F15009AAF13C0AEA
:100B0000ABF1280BAEF1140E4FF48018B14227D987
:100B1000B9420ED0614512D049451DD0514518D07B
:100B2000594518D0714501D1424615E0294EB142D0
:100B300001D1012210E0274E1436B14201D110221A
:100B40000AE0244E2836B14206D0224A3C32914275
:100B500001D11A4600E02A461E49091F0A602BE00F
:100B6000B94213D0614517D0494522D051451DD017
:100B700059451DD0714501D142461AE0B14202D11A
:100B80004FF0807215E0134EB14201D1012210E006
:100B9000104E1436B14201D110220AE00D4E283613
:100BA000B14206D00B4A3C32914201D11A4600E0D4
:100BB0002A46074980394A60012180F82110002126
:100BC00080F82010416B01B188472046BDE8F09FB6
:100BD0008000024008040240806B70472DE9F05FFE
:100BE000C16B0A6801680B68046C4FF0040808FACE
:100BF00004F8844D844E854FDFF814C2DFF8149258
:100C0000DFF814A2DFF814B2DFF814E218EA020FDA
:100C100065D05FEA437862D50A68920603D40A6811
:100C200022F004020A60DFF8F0814FF4806201686C
:100C300008F1140813011402414524D9A9420DD02A
:100C4000B1420FD0B9421AD0614515D0494515D0EF
:100C5000514501D1120312E0594501D104220EE0A1
:100C6000714501D140220AE06D4D1435A94206D0EC
:100C70006B4A2832914201D11A4600E02246674968
:100C8000091F0A6029E0A94213D0B14215D0B94228
:100C900020D061451BD049451BD0514502D14FF4AE
:100CA000800217E0414502D14FF0806212E05945C1
:100CB00001D104220EE0714501D140220AE0584DD5
:100CC0001435A94206D0564A2832914201D11A461B
:100CD00000E022464B4908394A60C16A71E04FF092
:100CE000020808FA04F818EA020F70D05FEA837865
:100CF0006DD50A68920606D40A6822F00A020A60D4
:100D0000012180F82110DFF810814FF40072016892
:100D100008F1140813011402414524D9A9420DD049
:100D2000B1420FD0B9421AD0614515D0494515D00E
:100D3000514501D1120312E0594501D102220EE0C2
:100D4000714501D120220AE0354D1435A94206D063
:100D5000334A2832914201D11A4600E022462F49F7
:100D6000091F0A6029E0A94213D0B14215D0B94247
:100D700020D061451BD049451BD0514502D14FF4CD
:100D8000001217E0414502D14FF0007212E05945C0
:100D900001D102220EE0714501D120220AE0204D4E
:100DA0001435A94206D01E4A2832914201D11A4672
:100DB00000E02246134908394A60002180F82010DB
:100DC000816A00291CD0BDE8F05F0847FFE70825CD
:100DD000A540154214D01A0712D50A6822F00E0257
:100DE0000A6090F84020C36B012101FA02F25A60B8
:100DF000816380F82110002180F82010016BE0E76A
:100E0000BDE8F09F080002401C0002403000024094
:100E100044000240580002406C00024008040240B6
:100E20001C04024070B504007ED05A4920685A4D17
:100E300088422DD057491431884229D0554928314C
:100E4000884225D053493C31884221D05149503104
:100E500088421DD04F496431884219D04D497831BC
:100E6000884215D0A84213D04B49143188420FD084
:100E70004949283188420BD047493C31884207D044
:100E800045495031884203D09A2144A001F06CFBBF
:100E9000606840B1102806D0B0F5804F03D09B2188
:100EA0003EA001F061FBA068402804D018B19C214D
:100EB0003AA001F059FBE068802804D018B19D21C8
:100EC00036A001F051FB206948B1B0F5807F06D013
:100ED000B0F5007F03D09E2130A001F045FB606992
:100EE00048B1B0F5806F06D0B0F5006F03D09F21F8
:100EF0002AA001F039FBA06928B1202803D0A02145
:100F000026A001F031FBE06960B1B0F5805F09D047
:100F1000B0F5005F06D0B0F5405F03D0A1211FA05F
:100F200001F022FB142000E00CE02168A9420BD262
:100F3000184A52420A44B2FBF0F08000206415487F
:100F400008380AE0012070BD134A52420A44B2FB3D
:100F5000F0F08000206410480838E063022084F834
:100F600021000A6843F6F0708243F4E90103184354
:100F7000D4E902352B4318432369184363691843A6
:100F8000A369184310430860002060630121617762
:100F9000207770BD080002400804024053544D33CE
:100FA00032463178785F48414C5F447269766572A9
:100FB0005C5372635C73746D3332663178785F684A
:100FC000616C5F646D612E63000000002DE9F041EB
:100FD000884604460025581E4FF6FF711E461746E8
:100FE000884204D340F26F111DA001F0BDFA94F8BD
:100FF000200001280DD0012084F8200094F8211051
:101000000020012907D084F8200002252846BDE8E9
:10101000F0810220FBE7022184F82110A063206800
:10102000016821F00101016033463A4641462046FD
:10103000FFF754FCE06A00282068016802D041F004
:101040000E0106E021F0040101602068016841F012
:101050000A0101602068016841F001010160D5E7E3
:1010600053544D3332463178785F48414C5F447277
:10107000697665725C5372635C73746D333266318A
:1010800078785F68616C5F646D612E6300000000BA
:10109000064810B54FF0FF31C16000220261C16007
:1010A000C26000F051FB002010BD000000100240A3
:1010B00070B5044600F008FB0546601C02D00448E9
:1010C0000078044400F000FB401BA042FAD370BD3E
:1010D000180000202DE9F05F044649480F4601261C
:1010E000017E012941D0012183460176DFF8149168
:1010F00020684CF2503A40B1022839D0A82142A0D1
:1011000001F032FA2068022832D0A068DFF82C8182
:101110004FF0FF35B0F1006F0AD3B8F80010B1F509
:10112000007F38D0B1F5C07F3FD0454988420BD908
:10113000E92135A001F018FAB8F80000B0F5007FF9
:101140002CD0B0F5C07F33D0D4E9020105EBC1212A
:1011500001443B48814203D9EA212BA001F004FA63
:101160005046FFF753FC50B344E00220BDE8F09F27
:1011700054465046FFF74AFC98BB0120FFF7C4FBDA
:101180002046FFF743FCD9F81010064621F0040171
:10119000C9F810102EE02B498842C9D8D4E90201C1
:1011A00005EBC12101442748D4E727498842BFD82D
:1011B000D4E9020105EBC12101442348CAE73D609F
:1011C000A56811E02846FFF7D3FB5046FFF71EFC49
:1011D000D9F81010060021F00201C9F8101001D052
:1011E0003D6007E005F50065D4E9020100EBC12090
:1011F000A842E7D800218BF818103046B6E7000067
:10120000584700200020024053544D333246317875
:10121000785F48414C5F4472697665725C537263D3
:101220005C73746D3332663178785F68616C5F66C9
:101230006C6173685F65782E63000000E0F7FF1F44
:10124000FFFF0308FFFF0708FFFF050803480169C8
:1012500041F0800101610020704700000020024041
:101260002DE9F05F06462C480D460024017E174606
:101270009846012925D0012181460176012E07D00B
:10128000022E05D0032E03D0B22124A001F06CF968
:10129000B5F1006F0AD32D480088B0F5007F13D058
:1012A000B0F5C07F12D02A48854203D9B3211BA0D4
:1012B00001F05AF94CF2503A5046FFF7A7FB38B10B
:1012C00026E00220BDE8F09F2248EDE72248EBE748
:1012D000012E02D0022E00D00426D346DFF87CA0D7
:1012E000220141463846FEF7A2FF81B205EB4400D9
:1012F000FFF750FB5846FFF789FBDAF8102022F081
:101300000102CAF8102018B9641CE4B2B442E7D351
:10131000002289F81820D5E75847002053544D3350
:1013200032463178785F48414C5F44726976657225
:101330005C5372635C73746D3332663178785F68C6
:10134000616C5F666C6173682E630000E0F7FF1FDD
:10135000FFFF0308FFFF0708FFFF0508002002400A
:10136000064900200A69120607D5054A4A60054A5F
:101370004A600969090600D5012070470020024033
:1013800023016745AB89EFCD2DE9F84F0027DFF842
:10139000BCA2DFF8BCB20D460446B946504514D095
:1013A0005C4512D0AB4884420FD0AB4884420CD08D
:1013B000AA48844209D0AA48844206D0A948844257
:1013C00003D0BD21A8A001F0CFF828680104090CC2
:1013D00001D0000C03D0BE21A3A001F0C5F86868BD
:1013E00000281FD00128FCD01128FAD00228F8D0FC
:1013F0001228F6D0A8498842F3D0A8498842F0D0F4
:10140000A7498842EDD0A7498842EAD0A649884238
:10141000E7D0A6498842E4D00328E2D0BF2192A0B9
:1014200001F0A2F80BE1012000FA07F801EA080632
:10143000464574D1544514D05C4512D08548844249
:101440000FD0854884420CD08448844209D0844817
:10145000844206D08348844203D0CD2182A001F08B
:1014600083F88D4869680A1A814259D00EDC032935
:1014700075D006DC002953D0012919D0022969D181
:1014800031E0112921D0122964D13AE0B2F5881F48
:1014900046D006DCB2F5803F42D0B2F5801F59D16C
:1014A0003EE0B2F5001F3BD0B2F5041F52D137E049
:1014B000E868022807D0012805D0032803D0D521E9
:1014C00069A001F051F8E8683EE0E868022807D01A
:1014D000012805D0032803D0DC2163A001F044F8E3
:1014E000E868001D30E0E868022807D0012805D030
:1014F000032803D0E3215CA001F036F8E868083047
:1015000022E0E868022807D0012805D0032803D08C
:10151000EA2155A001F028F8E8680C3014E08DE0CD
:10152000A86880B1012811D0022807D0F7214EA069
:1015300001F01AF8A86830B1012807D04FF0080967
:10154000C4F8148006E00420814603E04FF0080947
:10155000C4F81080FF2E05D8224605E0FFE74FF0C3
:101560000000F1E704F104024FEA870001D9A0F17D
:10157000200013684FF00F0101FA00FC23EA0C036E
:1015800009FA00FC43EA0C0313606868C00055D5F3
:101590004748826942F001028261806927F00302B4
:1015A00000F001000090434813189868BA07120F22
:1015B00091408843544501D1002118E05C4501D198
:1015C000012114E023498C4201D102210FE022497C
:1015D0008C4201D103210AE020498C4201D104212F
:1015E00005E01F498C4201D1052100E00621914010
:1015F000014399606868C0032F48016801D53143F1
:1016000000E0B1430160686880032C48016801D59F
:10161000314300E0B14301606868C00228480168B6
:1016200001D5314300E0B14301606868800225487C
:10163000016801D5314300E0B14301607F1C2E6891
:101640003146FE407FF4EFAEBDE8F88F0008014060
:10165000000C01400010014000140140001801403E
:10166000001C01400020014053544D333246317874
:10167000785F48414C5F4472697665725C5372636F
:101680005C73746D3332663178785F68616C5F6764
:1016900070696F2E6300000000001110000021101F
:1016A0000000311000001210000022100000321063
:1016B0000010024000000140000401400404014009
:1016C000080401400C040140014880687047000094
:1016D0001800002002488168027811448160704738
:1016E00018000020074810B5016841F010010160A2
:1016F000032000F0D1F80F2000F006F800F025F8E4
:10170000002010BD0020024070B50D4D04464FF47E
:101710007A712878B1FBF0F00A490968B1FBF0F062
:1017200000F014F948B9102C07D200222146501EAF
:1017300000F068F800206C6070BD012070BD0000F2
:1017400018000020240000207047704710B50400E6
:1017500003D5CE2109A000F007FF002C0DDB04F01B
:101760001F01012088406109890001F1E021C1F8D1
:101770008001BFF34F8FBFF36F8F10BD53544D33B4
:1017800032463178785F48414C5F447269766572C1
:101790005C5372635C73746D3332663178785F6862
:1017A000616C5F636F727465782E630010B504001E
:1017B00003D5BE2107A000F0D7FE002C09DB04F002
:1017C0001F01012088406109890001F1E021C1F871
:1017D000000110BD53544D3332463178785F484193
:1017E0004C5F4472697665725C5372635C73746DAE
:1017F0003332663178785F68616C5F636F727465ED
:10180000782E630070B515460C460646102A03D3A1
:10181000AA2114A000F0A8FE102C03D3AB2111A024
:1018200000F0A2FE1B480068C0F30223C3F10702C8
:101830002046042A00D90422191D072901D20023B9
:1018400000E0DB1E012404FA02F1491E0140994028
:101850009C40641E2C4021433046BDE8704000F09F
:101860003BBE000053544D3332463178785F4841D7
:101870004C5F4472697665725C5372635C73746D1D
:101880003332663178785F68616C5F636F7274655C
:10189000782E63000CED00E010B5044607280BD04D
:1018A000062C09D0052C07D0042C05D0032C03D01E
:1018B000922108A000F058FE124904F007020868BF
:1018C0004FF6FF03184040EA02200F4A1043086019
:1018D00010BD000053544D3332463178785F484193
:1018E0004C5F4472697665725C5372635C73746DAD
:1018F0003332663178785F68616C5F636F727465EC
:10190000782E63000CED00E00000FA05044805495C
:1019100000684968044AC1F30221515CC84070471D
:101920002400002000100240C2300008044805498D
:1019300000684968044AC1F3C221515CC84070473D
:101940002400002000100240C230000810B5401EE4
:10195000B0F1807F01D3012010BD4FF0E024606121
:101960000F21601700F0B8FD0020A0610720206162
:10197000002010BD704770B504460068C16821F4AE
:10198000F071C1602068416921F001014161206B63
:10199000012804D12068C16821F01001C1602068CD
:1019A00041694FF0100609064FF000050FD5416957
:1019B00021F080014161606B48B14563606BFFF7C6
:1019C0004FF820B1606BFFF707F920281ED0206880
:1019D000416949060FD5416921F040014161A06B81
:1019E00048B14563A06BFFF73BF820B1A06BFFF750
:1019F000F3F820280AD0E584E5852564202084F8C2
:101A00003E0084F83D002563002070BD266403205D
:101A100070BD0000074A0168914202D1016C06A026
:101A200004E00B4A914203D1016C0AA0FEF712BCFC
:101A30007047000000380140555341525431206531
:101A400072726F723A2030782578210A0000000007
:101A500000480040555341525433206572726F72F2
:101A60003A2030782578210A00000000F8B5026895
:101A700004461068D168536910F00F0F4FF000054D
:101A800054D003F0010601F4907737435FD0C207CA
:101A900005D0CA0503D5226C42F001022264420738
:101AA00005D5DA0703D0226C42F0020222648207D5
:101AB00005D5DA0703D0226C42F004022264020743
:101AC00007D501F02002324303D0226C42F0080215
:101AD0002264226C002A35D0800604D5880602D5FF
:101AE000204600F08EFB20684069216CC0F3801016
:101AF00001F008010143204625D000F061FB206879
:101B0000416949061BD5416921F040014161A06B43
:101B1000A8B158494163A06BFEF7C6FF002811D059
:101B2000A06B416B01B0BDE8F040084783060ED5BD
:101B30008B060CD52046BDE8F84000F062BB20467D
:101B4000FFF768FFF8BDFFF765FF2564F8BD266B5A
:101B50002023012E52D1C60650D5CE064ED5106890
:101B600050680090506940062AD5A16B086840680B
:101B70000004000CEAD0A68D8642E7D9E08588698A
:101B8000202818D0D06820F48070D0602068416987
:101B900021F0010141612068416921F0400141616A
:101BA00084F83E3025632068C16821F01001C160CF
:101BB000A06BFEF755FFA08DE18D401A81B219E0B0
:101BC000A08DE18D401A81B2E08D0028BED00029A1
:101BD000BCD0D06820F49070D0602068426922F0B8
:101BE0000102426184F83E3025632068C26822F019
:101BF0001002C2602046FFF7BDFEF8BD05062BD5DA
:101C00000D0629D594F83D002128F6D1A068B0F53D
:101C1000805F01D12069B0B1206A411C2162216836
:101C200000784860E08C401E0004000CE084E4D1A1
:101C30002068C16821F08001C1602068C16841F05E
:101C40004001C160F8BD206A0088C0F30800506000
:101C5000206A801C2062E5E74006F3D54806F1D5EE
:101C6000D168204621F04001D16084F83D3000F079
:101C7000D7F9F8BDBB20000870B5040020D0A069DA
:101C800033490028334A344B20681BD088420AD09D
:101C9000904208D0984206D04FF4B6712FA000F0C1
:101CA00063FCA069F8B1A069B0F5807F1BD0B0F5E6
:101CB000007F18D0B0F5407F15D040F26D110FE0D5
:101CC000012070BD88420ED090420CD098420AD0BC
:101CD0002E49884207D02E49884204D040F2711123
:101CE0001EA000F041FCA06838B1B0F5805F04D0C0
:101CF00040F2731119A000F037FC94F83D00002564
:101D000020B984F83C50204600F044F8242084F8A0
:101D10003D002068C16821F40051C160204600F0F8
:101D2000CBFA2068016921F4904101612068416982
:101D300021F02A0141612068C16841F40051C1606D
:101D40002564202084F83D0084F83E00002070BD0A
:101D500000380140004400400048004053544D33D7
:101D600032463178785F48414C5F447269766572DB
:101D70005C5372635C73746D3332663178785F687C
:101D8000616C5F756172742E63000000004C00404E
:101D900000500040704700002DE9F84F044690F8CD
:101DA0003E009A4616460D46202853D1FDB1F6B1A5
:101DB00094F83C0001284DD0012084F83C00002715
:101DC0002764222084F83E002763FFF77DFCA68568
:101DD0008146E685A0684FF48058404501D12069CE
:101DE00040B12E465FF0000584F83C7027E00120EA
:101DF000BDE8F88F0026F7E74B4600222021204659
:101E0000CDF800A000F030FB08B10320F0E726B1C8
:101E1000A06840451BD038B108E020684068C0F396
:101E2000080025F8020B07E0206980B120684068AF
:101E300000F07F0006F8010BE08D401EE085E08D8C
:101E40000028D9D1202084F83E000020D0E7206867
:101E50004068EFE70220CBE790F83E30202B0ED110
:101E600059B152B190F83C30012B08D0012380F8D1
:101E70003C300023036300F0BFBA0120704702200A
:101E80007047000070B5114D114CA5F58C40696884
:101E90006278491C00EB422000F080FB40B10DA0AD
:101EA000FEF7D8F90020A070BDE8704000F0FEBE3B
:101EB00060782321401CB0FBF1F201FB120060703E
:101EC0006868E1680844E060ECE70000B046002084
:101ED0000000002044617461204352432066616920
:101EE0006C6564210A000000704700002DE9F8438A
:101EF000044690F83D001F4616460D4620284CD15A
:101F0000C5B1BEB194F83C00012846D0012084F848
:101F10003C004FF00008C4F84080212084F83D00C8
:101F2000FFF7D2FBA6848146E684A068B0F5805F07
:101F300003D004E00120BDE8F883206928B12E46D3
:101F40005FF0000584F83C800EE00026FAE780216F
:101F5000204600F089FAA0B9AEB116F8010B21684D
:101F60004860E08C401EE084E08C4B464FF000025D
:101F700000970028EBD14FF04001204600F074FAA2
:101F800030B10320D7E735F8020BC0F30800E6E7CD
:101F9000202084F83D000020CDE70220CBE70000A0
:101FA00070B5044690F83D00202830D169B362B383
:101FB00094F83C0001282AD0012084F83C002162DA
:101FC000A284E28400252564212084F83D00636B0F
:101FD00010489862636B1048D862636B0F481863AF
:101FE000606B134645632668606B321DFEF7EEFF9B
:101FF00021686FF04000086084F83C502068416917
:1020000041F080014161002070BD012070BD0220BF
:1020100070BD000089210008B7210008CB2000080E
:1020200000F044BE7047000003490120086003A08F
:10203000FEF710F9FEE7000014000020486172640A
:10204000204572726F72210A00000000FFF742BB48
:10205000144910B54868144A10F00C03134803D013
:10206000042B01D0082B09D002604968104AC1F343
:102070000311515C0268CA40026010BD4A684B6897
:1020800002F470124FF0020413F4803F04EB92420A
:1020900002D04B689B0301D5064B00E0024B5A432C
:1020A000E2E700000010024000127A002400002045
:1020B000B230000800093D00704710B5406A0021A9
:1020C000C185C184FFF7A6FC10BD70B5446A2068C5
:1020D000406994F83D10C0F3C0100025212904D1B7
:1020E00018B1E584204600F083F82068406994F830
:1020F0003E10C0F38010222904D118B1E585204696
:1021000000F05EF8206C40F0100020642046FFF7DD
:1021100081FC70BD10B50146406A096809688906EE
:102120001BD40021C1850168CA6822F48072CA608C
:1021300001684A6922F001024A6101684A6922F095
:1021400040024A61202180F83E10016B012904D130
:102150000168CA6822F01002CA60016B012902D02E
:10216000FFF790FE10BD818DFFF704FC10BD10B588
:10217000406A016B012902D0FFF7B6FE10BD818DC8
:102180004908FFF7F7FB10BD10B50146406A096822
:10219000096889060CD40021C18401684A6922F0CB
:1021A00080024A610068C16841F04001C16010BD11
:1021B000FFF736FF10BD10B5406AFFF733FF10BDC3
:1021C0000168CA6822F49072CA6001684A6922F004
:1021D00001024A61016B012904D10168CA6822F039
:1021E0001002CA60202180F83E1000210163704770
:1021F0000168CA6822F0C002CA60202180F83D1040
:10220000704708B590F83E10222901D0022008BD81
:1022100082684FF480539A4201D1016921B1816AE9
:102220009A421BD04AB10AE00268816A5268C2F33E
:1022300008020A80816A891C08E0026972B102689A
:10224000526802F07F020A70816A491C8162C18D66
:10225000491E0904090CC18503D019E002685268BF
:10226000F1E70168CA6822F02002CA600168CA6802
:1022700022F48072CA6001684A6922F001024A6150
:10228000202180F83E10016B012903D0FFF7FAFDF1
:10229000002008BD002101630168CA6822F0100215
:1022A000CA6001680A68D20602D50A6849680091C6
:1022B000818DFFF75FFBEBE770B50446406840494E
:1022C000884204D940F653613EA000F04DF9E06821
:1022D00038B1B0F5005F04D040F6546139A000F089
:1022E00043F9206950B1B0F5806F07D0B0F5C06FE9
:1022F00004D040F6556133A000F036F960694FF61E
:10230000F371084200D120B940F656612DA000F0CB
:102310002BF920680169E26821F440511143016101
:102320002169A0680843616908432168CA6841F2CD
:102330000C639A430243CA6020684169A26921F490
:102340004071114341612B492068884202D1FFF757
:10235000EDFA01E0FFF7DAFA00EBC00101EB001241
:10236000606864218000B2FBF0F3B3FBF1F36FF01F
:1023700018067343B2FBF0F5B2FBF0F605EB8305EC
:10238000322303EB0515B5FBF1F5B6FBF1F605F0CD
:10239000F00505EB0615B2FBF0F6B2FBF0F0B0FB72
:1023A000F1F06FF01802504306EB800003EB0010D1
:1023B000B0FBF1F0216800F00F002844886070BD88
:1023C00020AA440053544D3332463178785F484157
:1023D0004C5F4472697665725C5372635C73746DB2
:1023E0003332663178785F68616C5F756172742E24
:1023F000630000000038014038B581628285002505
:10240000134604460564222084F83E00A26B13485C
:102410009062A26B1248D062A26B12481063A06B4C
:102420000A4645632168A06B091DFEF7CFFD2068B1
:1024300001684168009184F83C50C16841F48071A2
:10244000C1602068416941F0010141612068416932
:1024500041F040014161002038BD00001521000815
:102460006F210008CB2000082DE9F041984617465F
:102470000E460446069D1DE0681C1BD02DB1FFF7DB
:1024800023F9A0EB0800A84214D92068C16821F400
:10249000D071C1602068416921F0010141612020B3
:1024A00084F83D0084F83E00002084F83C000320BE
:1024B000BDE8F0812068006836EA000004D0002002
:1024C000B842D9D00020F3E70120F9E70148FFF72F
:1024D000CDBA0000144700200907090E002804DBCC
:1024E00000F1E02080F80014704700F00F0000F1C8
:1024F000E02080F8141D704730380A2801D20120EE
:1025000070470020704700000121034A1160014616
:1025100002A0FDF79FFEFEE71400002045786974D5
:102520006564212072657475726E636F64653D2504
:10253000640A000001B509480068002809D0009825
:102540004FF0FF330A2805D0012269460448FFF7FF
:10255000CDFC08BD022203A1F8E700001400002012
:10256000D04600200D0A00000122044B1A600B46E1
:102570000246034903A0FDF76DFEFEE714000020AC
:10258000A430000825733A2066696C652025732005
:102590006F6E206C696E652025640A00F0B500221C
:1025A000B1B1027848F28036120201234FF6FF756E
:1025B0000CE001D0C45C22430024170400D5724013
:1025C000641C05EA4202082CF7DB5B1C8B42F0DD41
:1025D0004FEA1220F0BD00002DE9F8431A4C2068A4
:1025E00000282ED11948416941F00101416140693B
:1025F000002500F0010000901548206065618027EB
:10260000A561C4E903754FF400581020C4F81C807C
:10261000C4E901052046FEF705FC0E4E0C48746324
:10262000666244341430C4E900056561A561C4E9FB
:102630000375C4F81C802046A560FEF7F3FBB46365
:102640006662BDE8F8830000280000200010024008
:102650001C000240144700202DE9F04F8DB04FF0D0
:1026600000084AA0FDF7F6FDCD22112105A8FDF7CF
:10267000D4FF4FF0FF33112205A94A48FFF736FC7B
:1026800049A0FDF7E7FDDFF834914D4F00254FF4E9
:10269000007A4FF4534B564651464948FDF7C5FF63
:1026A00042F21073324646493E48FFF775FB00245C
:1026B000385DAB2802D1641CB442F9DB41A0FDF7C0
:1026C000C9FDC4F50076042E40DB38190B90046870
:1026D00014EB090012D0584523D13FA0FDF7BAFDF5
:1026E000162E22D3162244480B99FDF751FF42487B
:1026F000162100BFFFF752FF70B116E03FA0FDF7B3
:10270000A9FD062E11D30B98016801918088ADF8C0
:102710000800062101A8EDE701213FA0FDF79AFD81
:102720000AE0214641A0FDF795FD41463AA0FDF79C
:1027300091FDB8F1000F09D014EB09001ED05845E7
:1027400020D100F0EBF80DB0BDE8F08F3DA0FDF713
:1027500081FD6D1C052D15D0274E4FF0FF34093E2D
:102760000821346030467460FFF718FF307223464A
:10277000092231460B48FFF7B9FB8CE701A800F0AE
:102780006FF8E0E74FF0FF30DDE70000456E74655D
:102790007220444655206D6F646520313131210A25
:1027A0000000000014470020456E74657220444606
:1027B00055206D6F6465210A0000000038CF0FCDF1
:1027C000B000002062656E67696E2066696E6420E5
:1027D0006865616465720A006865616465723D4898
:1027E00045414445525F4649524D574152455F4924
:1027F0004E464F0A00000000B9460020686561643B
:1028000065723D4845414445525F4352435F434FE3
:102810004E4649470A0000006865616465725F764C
:10282000616C69643D25640A00000000496E7661B0
:102830006C6964206865616465723A203078257837
:102840000A0000004661696C656420746F2072653F
:10285000636569766520686561646572210A0000B8
:10286000F0B52A4E87B0741FD4E90012CDE90012EA
:10287000007908B1002000E054208DF8050031787F
:10288000814227D022484FF00067012500F5806083
:10289000A04202D86D1C802DF8DBFEF761FD0120FF
:1028A0000021CDE9021007EB8521CDE9041006A92E
:1028B00002A8FEF70FFC002321460220009AFEF733
:1028C000CFFC12490023491E0220019AFEF7C8FCE2
:1028D000FEF7BCFC0F4D0822694620462E60FDF72E
:1028E0002BFE80B10020686008210A48FFF756FEE1
:1028F00028724FF0FF33092206490748FFF7F6FA1E
:1029000007B00020F0BD0120EDE7000005480008F9
:1029100000040008B0460020144700202DE9F04FC5
:102920009E489F498BB0008801EB802739469DA0C7
:10293000FDF790FCA14EA2A07168FDF78BFCF26838
:10294000B168A2A0521EFDF785FC3169A6A0FDF773
:1029500081FC317DAAA0FDF77DFC70680024A6F102
:1029600009094FF0FF3AB84205D94D460821C5E99B
:10297000004748460CE0B168A64FB94214D0A6A063
:10298000FDF768FC4D468D48C5E9007408210938FB
:10299000FFF704FE89492872544653460922093933
:1029A000A448FFF7A3FAF6E00844F168884206D08D
:1029B000A1A0FDF74FFC50460BB0BDE8F08F0C20F6
:1029C000FEF7F4FE0D20FEF7F1FE2720FEF7EEFEE7
:1029D000FFF702FEDFF87C82A34688F80040C8F8C3
:1029E000087088F80140D8F80810C8F80C1000F0FA
:1029F0005DF9FEF7B5FC71484FF00064FF22C66830
:102A0000102106A8761EFDF708FE0020924A04F267
:102A1000FF31944203D8914201D305460894A6425F
:102A200005D38E4203D8401B0A30099003E04C1CAA
:102A3000401C8028EADB09990127681ECDE906B70A
:102A40000A185E46294685A0FDF704FC0025444689
:102A5000A06802A900EB8520CDE9080706A8FEF7CB
:102A600039FB83A00899FDF7F5FB6D1C282DEFDBE2
:102A7000524DB34600236A6877490220FEF7F0FB07
:102A800075492A7D0023091D0220FEF7E9FB54E069
:102A90005F46CDF808B0FEF717FE064640F6AC5884
:102AA00017E000BFFEF710FE811B414511D978A049
:102AB000FDF7D0FB5F48FEF75EFF00B9A7700298F4
:102AC000401C0290032808D0FEF7FEFD064600F0E9
:102AD000EDF8207861788842E4D0207861788842E7
:102AE0002FD0E868A168A046401A4FF40076B042A3
:102AF00002D2064600270FE00027694898F8001028
:102B000000EB412038440268D8F808000023C119BE
:102B10000220FEF7A5FB3F1DB742EED398F8000058
:102B20002321401CB0FBF1F201FB120088F80000E9
:102B3000D8F808003044C8F80800E868A16888425E
:102B4000A6D1A07820B14FF4D37156A0FFF70CFDA9
:102B50000C20FEF7FBFD0D20FEF7F8FD2720FEF709
:102B6000F5FDE868A168884212D1A0684C460821AA
:102B7000C4E9000B11480938FFF710FD0F49207216
:102B80005346092209392B48FFF7B0F9002400E029
:102B90005446FEF75BFB20460EE70000E0F7FF1F00
:102BA00000B0FFFF417661696C61626C6520666C04
:102BB0006173683A2025750A00000000B9460020BC
:102BC00053697A653A2025750A00000041646472F1
:102BD0006573733A20307825303878202D2030788E
:102BE000253038780A000000456E74727920506FE5
:102BF000696E743A203078253038780A0000000079
:102C0000436865636B73756D3A2030782530327890
:102C10000A00000000500008496E76616C6964206B
:102C20006669726D77617265206164647265737341
:102C3000210A000014470020496E636F72726563B9
:102C400074206669726D776172652073697A652197
:102C50000A0000000000002000480008457261736F
:102C60006520706167652025647E25640A00000088
:102C700048414C5F464C41534845785F457261730B
:102C8000652061646472203D20307825780A000058
:102C9000446174612074696D656F7574210A000068
:102CA000B00000206D61696E2E63000070B51F4C8E
:102CB000A1784FF0FF30002936D11D4991F83D1021
:102CC000202931D161782322491CB1FBF2F302FBA8
:102CD00013112278914227D01649E268C968891AEF
:102CE00022D00120A070E068124D093D28604FF409
:102CF00000706860814200D269600E48082109387E
:102D0000FFF74CFC0B492872092209390848FFF7E4
:102D100047F9A8886178401C82B2074800EB41213E
:102D20000348FFF799F8002070BD00000000002064
:102D300014470020B9460020B000002010B50968F3
:102D40000446012904D0022902D04FF0FF3010BD03
:102D5000FFF7F0FB204610BD2DE9F041274D284E2E
:102D60002F1F6878341F4FF0FF38542812D02A786C
:102D700024A03968FDF76EFA294B396820461B8874
:102D80006F060A1807EB83239A4205D925A0FDF7A1
:102D900061FA30E029A006E0FFF700FC297802463E
:102DA000914225D12DA0FDF755FA224631462FA09C
:102DB000FDF750FA20680221B1EB107FE6D13068B0
:102DC0000821B1EB106FE1D14FF4FA70FEF770F902
:102DD0002CA0FDF73FFA314D30686860FEF758F9D6
:102DE000206880F30888686880470020BDE8F0818B
:102DF0002BA0FDF72FFA4046F8E700000448000832
:102E000004500008726573657276652073697A658F
:102E10003D25642C206372633D30782532780A00AA
:102E2000E0F7FF1F50726F6772616D20646174611B
:102E3000206572726F72210A000000004352432025
:102E4000636865636B20686173206265656E2064EA
:102E5000697361626C6564210A000000435243207B
:102E6000706173736564210A000000006170702056
:102E7000616464723D25702C206D73703D25700A6D
:102E8000000000004A756D7020746F206170706CD6
:102E900069636174696F6E2E2E2E0A000000002097
:102EA000435243206661696C656421203078253087
:102EB0003278213D3078253032780A001FB503245E
:102EC000FFF7C6F8FEF70EFC4FF4E13000F082F891
:102ED000012000F079F81FA0FDF7BCF92148016836
:102EE00021A0FDF7B7F94FF47A75641E214623A09F
:102EF000FDF7B0F92B46102269462648FEF74CFF35
:102F000048B9002069460A5CAB2A02D1401C10284F
:102F1000F9D3102802D0002CE7DC0CE0FFF79CFB73
:102F200004461DA0FDF796F90CB10A24DDE74FF425
:102F3000FA60FEF7BDF821A0FDF78CF94FF4FA70A6
:102F4000FEF7B6F8FFF708FFFA20FEF7B1F8012404
:102F5000CBE7000053544D3332463130782044469D
:102F6000550A00002400002053797374656D436F87
:102F70007265436C6F636B3D25750A0077616974F8
:102F8000207570677261646520636E743D25640A04
:102F9000000000001447002053656E6420616E79C4
:102FA00020636F6D6D616E6420746F20636F6E744B
:102FB000696E75652E2E2E0A000000006A756D7010
:102FC000206170700A00000001490860704700002D
:102FD000140000202DE9F0412C49054686B088698F
:102FE00040F004008861886900F00400049088695A
:102FF00040F008008861886900F008000490886942
:1030000040F480408861886900F480400490C86979
:1030100040F48020C861C869022400F48020049034
:103020004815CDE90004DFF86880694640460394FE
:10303000FEF7AAF96702002601200097CDE901609A
:1030400069464046FEF7A0F9CDE900740394114C9F
:1030500069462046FEF798F9E014CDE90006694676
:103060002046FEF791F90D480C240B494461C0E954
:103070000015FEF701FE0948094944304461C0E9E2
:103080000015FEF7F9FD06B0BDE8F0810010024022
:1030900000080140000C014000380140D0460020EB
:1030A000004800406173736572745F6661696C65A6
:1030B0006400000000000000000001020304060795
:1030C00008090000000001020304303132333435B6
:1030D0003637383941424344454640305800303154
:1030E000323334353637383961626364656640306F
:1030F0007800040000080000000000000002000149
:10310000000010002431000800000020280000000A
:103110006C0100084C31000828000020B04D000070
:10312000880100080000000000000000000000000E
:10313000000000000100000000000000010000008D
:0C31400010000000000000000024F4005B
:020000040800F2
:044804005454545460
:0400000508000131BD
:00000001FF
