:020000040800F2
:10500000A8C60020455100086D63000875620008BD
:1050100069630008E1570008E78C00080000000001
:10502000000000000000000000000000CD84000827
:10503000AD5B00080000000005690008E18500087C
:105040005F5100085F5100085F5100085F51000880
:105050005F5100085F5100085F5100085F51000870
:105060005F5100085F5100085F5100085F51000860
:105070005F5100085F5100085F5100085F51000850
:105080005F5100085F5100085F5100085F51000840
:105090005F5100085F5100085F5100085F51000830
:1050A0005F5100085F5100085F5100085F51000820
:1050B0005F5100085F5100083D8800085F510008FB
:1050C0005F5100085F5100085F5100085F51000800
:1050D0005F510008258A00085F5100085F510008F1
:1050E0005F5100085F5100085F5100085F510008E0
:1050F0005F5100085F5100085F5100085F510008D0
:105100005F5100089D6B00085F5100085F51000867
:105110005F5100085F5100085F5100085F510008AF
:105120005F5100085F5100085F5100085F5100089F
:10513000DFF80CD000F00EFB00480047E9BC000887
:10514000A8C600200648804706480047FEE7FEE75D
:10515000FEE7FEE7FEE7FEE7FEE7FEE7FEE7FEE727
:1051600021860008315100082DE9F05F0546002036
:1051700092469B4688460646814640241BE02846C8
:1051800041464746224600F040FA53465A46C01A66
:10519000914110D311461846224600F027FA2D1AE5
:1051A00067EB01084F4622460120002100F01EFA5D
:1051B00017EB00094E41201EA4F10104DFDC484634
:1051C00031462A464346BDE8F09F2DE9F0410024D0
:1051D000061B254671F1000605DA01240027D0EBF5
:1051E000070067EB0101161E73F1000605DA0027C0
:1051F000D2EB0702012567EB0303FFF7B5FF8646F5
:105200000E4617469C46AC4204D00025D0EB050E56
:1052100065EB010624B10020D2EB000760EB030C24
:10522000704631463A466346BDE8F08140EA0103E4
:105230009B0703D009E008C9121F08C0042AFAD24C
:1052400003E011F8013B00F8013B521EF9D2704710
:10525000D2B201E000F8012B491EFBD270470022B8
:10526000F6E710B513460A4604461946FFF7F0FF65
:10527000204610BDF0B480EA0102D40F4200B2EB28
:10528000410F02D20246084611464A0042D0C30DE1
:10529000DDB2C1F3C752AD1A202D35DAC1F31601C4
:1052A00041F4000204B15242C5F1200602FA06F1AF
:1052B0002A411044B3EBD05F23D0C4B1012DA0EB41
:1052C000C35009DCF0BC4FF0004202EAC352DBB22B
:1052D00000F5000000F0B2B9400000F1807000EB72
:1052E000C350A0F1807040EAD170490009E049083C
:1052F00041EAC071A0EBC35000F50000400800EB8C
:10530000C350F0BC00F091B96142012202EB4101AF
:10531000001BF6E7F0BC704781F00041AAE780F07F
:105320000040A7E780EA010210B502F00043400008
:1053300022D04A001FD0010E01EB1261C0F35600CB
:10534000C2F3560240F4000042F40002A0FB022027
:1053500000047F39140400D0401C50EA124001D4EC
:105360004000491EC2B20C0604EBD010401C40089D
:10537000802A02D003E0002010BD20F001000029A7
:1053800000DA0020184310BD2DE9FE4F81EA030426
:1053900004F0004421F0004100944FF0000B23F092
:1053A000004350EA01045ED052EA03045BD0C3F329
:1053B0000A54C1F30A552C44A4F2F3340194A0FB1F
:1053C0000254C1F3130141F48011C3F3130343F4F6
:1053D000801301FB024400FB034E840A970A44EA4F
:1053E000815447EA8357A4FB076802958D0A05FBA1
:1053F00007854FEA932C04FB0C542705029D4FEAC6
:10540000065847EA1637B5EB08056EEB070C870E12
:10541000920E47EA811742EA8312A7FB0201B6EB1C
:105420000B0164EB00042B0D43EA0C335E1844EBD4
:105430001C50DA465146E7FB0201C5F313044FEA5C
:105440000B3343EA14534FEA0432019C43EA060348
:10545000A4F10C040294009CCDE900B400F02BF9F7
:1054600003B0BDE8F08F00200146F9E72DE9F04DCB
:1054700081EA030404F0004B21F0004514464FF08C
:10548000000A23F0004150EA050220D054EA01024C
:105490001DD0C5F30A570246C5F31303C1F3130029
:1054A000C1F30A5640F4801543F48013A7EB0608B5
:1054B000101BD64608F2FD3873EB050002D308F145
:1054C000010801E092185B41B8F1000F03DA0020F7
:1054D0000146BDE8F08D00204FF480110646844659
:1054E0000EE0171B73EB050705D3121B63EB0503D7
:1054F00006434CEA010C49084FEA300092185B4120
:1055000050EA0107EDD152EA030012D082EA04000A
:1055100083EA0501084305D0101BAB4106D20122E6
:10552000002306E000224FF0004302E06FF001028A
:1055300053101AEB06004CEB085110EB0A0041EB3C
:105540000B01BDE8F04D00F0A7B8C10F80EAE07094
:105550000844CA079623002100F070B89623002261
:10556000114600F06BB820F00040C10DC0F31600EA
:1055700040F400007F2901DA00207047962903DCFF
:10558000C1F19601C840704796398840704700F0D5
:10559000004230F000400AD0C10D01F56071C0F347
:1055A000160042EA0151C20840071143704700202B
:1055B0000146704701F0004330B421F0004150EA49
:1055C000010206D00A0DA2F56072C1F31301002A90
:1055D00002DC30BC00207047440F44EAC104C10023
:1055E000E01830BC00EBC25000F01FB8202A04DBEA
:1055F000203A00FA02F1002070479140C2F12003E6
:1056000020FA03F3194390407047202A04DB203A24
:1056100021FA02F00021704721FA02F3D040C2F1D2
:10562000200291400843194670470029A8BF7047DF
:10563000401C490008BF20F00100704710B4B0FAC8
:1056400080FC00FA0CF050EA010404BF10BC704763
:1056500049B1CCF1200421FA04F411FA0CF118BF7D
:10566000012121430843A3EB0C01CB1D4FEA00614C
:105670004FEA102042BF002010BC704700EBC3501F
:1056800010440029A4BF10BC7047401C490008BF4B
:1056900020F0010010BC704710B5141E73F1000417
:1056A00008DA401C41F1000192185B411A4301D114
:1056B00020F0010010BD2DE9F04D92469B4611B13E
:1056C000B1FA81F202E0B0FA80F220329046FFF7A0
:1056D0008DFF04460F4640EA0A0041EA0B0153469B
:1056E0005A46084313D0114653EA010019D0C8F1B5
:1056F00040025046FFF789FF05460E465046594680
:105700004246FFF773FF084305D0012004E020461E
:105710003946BDE8F08D0020054346EAE0762C438B
:1057200037430A986305E40AA0EB08000022FD0A4B
:1057300044EA47540A3002D500200146E9E7010552
:1057400010196941DDE9084500196941BDE8F04DCE
:10575000A2E70000064C074D06E0E06840F00103B8
:1057600094E8070098471034AC42F6D3FFF7E4FC06
:10577000307A0308507A0308F0B5ADF5157D04467C
:10578000214611A003F0B2FA122211A1684604F0DA
:105790005FFF054655B9DDE904633246684604F00B
:1057A00024FD054615B1684604F059FC21466846BB
:1057B00005F0ACF809A1684605F0A8F8684604F0C1
:1057C0004EFC0DF5157DF0BD25730D0A000000009F
:1057D0006C6F6766696C652E74787400200A00002F
:1057E00000BFFEE770B504460225B4F5167F01DA66
:1057F00020250AE0B4F5165F01DD012505E04FF430
:10580000967094FBF0F0C0F12005284600F0E8FE09
:1058100070BD70B500254FF4803404E0802001F0A5
:10582000A9F900B103E02000A4F10104F6D100BF02
:105830000CB9032070BD40F2FF5001F055F9284625
:10584000F8E7000070B5044605E01548456B05F023
:10585000450000B100E0F8E700BF042001F08AF93C
:1058600020B1042001F040F9032070BD012001F0B7
:1058700081F920B1012001F037F90120F5E708484E
:105880000069A04201D01020EFE740F2FF50044928
:1058900088630846406908210840C0B2E5E7000077
:1058A0000080014070B500264FF4803505E01148B6
:1058B000446B04F0450000B103E02800A5F10105A8
:1058C000F5D100BF15B104F0040028B1032604206F
:1058D00001F00AF9304670BD012001F04BF918B112
:1058E0000126012001F000F940F2FF5001F0FCF820
:1058F0003046F0E70080014010B505E00B48446BEE
:1059000004F0450000B100E0F8E700BF042001F01A
:1059100031F920B1042001F0E7F8032010BD40F276
:10592000FF5001F0E1F80020F8E70000008001409E
:105930002DE9F04105460E464FF0000805E01F48EE
:10594000476B07F0450000B100E0F8E700BF042016
:1059500001F010F928B1042001F0C6F80320BDE8D9
:10596000F081012001F006F920B1012001F0BCF81E
:105970000120F4E711480069A84201D01020EEE7A9
:1059800040F2FF5001F0B0F80C48446904F4604064
:1059900018B9200C30804046E1E704F4005008B10B
:1059A0001320DCE704F4804008B11020D7E704F4AA
:1059B000004008B10F20D2E74046D0E70080014008
:1059C00070B500264FF4803505E00F48446B04F0B5
:1059D000450000B103E02800A5F10105F5D100BFA5
:1059E00015B104F0040028B10326042001F07CF86E
:1059F000304670BD04F0400018B10026402001F090
:105A000073F83046F5E700000080014021B10268DC
:105A100042F00102026004E002684FF6FE731A4091
:105A20000260704701684FF6FE721140016000216C
:105A3000016041608160C1604B49884208D14A4998
:105A40000839496841F00F01474A083A51608AE035
:105A500045491431884208D143490839496841F021
:105A6000F001414A083A51607DE03F4928318842BF
:105A700008D13D490839496841F470613A4A083A09
:105A8000516070E038493C31884208D136490839C4
:105A9000496841F47041344A083A516063E0324940
:105AA0005031884208D130490839496841F47021A1
:105AB0002D4A083A516056E02B496431884208D19A
:105AC00029490839496841F47001274A083A516068
:105AD00049E025497831884208D123490839496885
:105AE00041F07061204A083A51603CE01F49884209
:105AF00006D1011F096841F00F01021F116032E059
:105B00001A491431884208D11849091F096841F01F
:105B1000F001164A121F116025E01449283188420D
:105B200008D11249091F096841F470610F4A121F18
:105B3000116018E00D493C31884208D10B49091F1A
:105B4000096841F47041094A121F11600BE00749CE
:105B50005031884207D10549091F096841F4702175
:105B6000024A121F116070470800024008040240F8
:105B700010B50022026847F6F0739A430C6A8B68EE
:105B800023430C6923434C6923438C692343CC6929
:105B900023434C6A23438C6A23431A430260CB6835
:105BA00043600B6883604B68C36010BD70470000A2
:105BB00010B50446214610A003F098F8240300F025
:105BC00037F900F0CFF800200D490860202002F0DE
:105BD00015FCC4F3074002F011FCC4F3072002F0E7
:105BE0000DFCE0B202F00AFC01200649C1F8B00148
:105BF00000F0B8F810BD000066653A25780D0A007F
:105C0000B08121420080214208B501214FF4847007
:105C100000F09AFE4FF48050ADF8000010208DF88F
:105C2000030003208DF802006946124800F06AFA6A
:105C30004FF480510F4800F0F0FA8020ADF80000DA
:105C400069460D4800F05EFA80210B4800F0E5FA45
:105C500001200A49086002F08BFB002002F0EAFBF9
:105C600000F046F8064908800846018805A003F0C0
:105C70003DF808BD000C014000200140B0812142E8
:105C800014000020CAB9D3C3B5C4464C415348D010
:105C9000BEC6AC4944CAC7A3BA25580D0A000000C5
:105CA0002DE9F04106460C46174600200F490860D2
:105CB000032002F0A3FBC4F3074002F09FFBC4F3F0
:105CC000072002F09BFBE0B202F098FB002505E004
:105CD000FF2002F093FB7055681C85B2BD42F7DBD4
:105CE000012002490860BDE8F0810000B081214236
:105CF00010B5002400200E490860902002F07EFBC1
:105D0000002002F07BFB002002F078FB002002F074
:105D100075FBFF2002F072FB44EA0024FF2002F032
:105D20006DFB044301200349C1F8B001204610BDBA
:105D3000B08121420080214210B500240020074993
:105D40000860052002F05AFBFF2002F057FB0446D2
:105D500001200349C1F8B001204610BDB0812142A5
:105D60000080214210B500BFFFF7E6FF00F0010000
:105D70000028F9D110BD00002DE9F05F81460F46E3
:105D80001646DFF8A8B04FEA1738C7F30B0ACAF572
:105D90008054A64200DC344644E04FEA08314FF418
:105DA00080525846FFF77CFF002508E00AEB05000B
:105DB0001BF80000FF2800D003E0681C85B2A54254
:105DC000F4DB00BFA54216DA4046FFF7F1FE0025DE
:105DD00007E019F8050005EB0A010BF80100681C43
:105DE00085B2A542F5DB4FEA08314FF480525846A0
:105DF00000F02EF804E022463946484600F028F824
:105E0000A64200D10FE008F101084FF0000AA144BA
:105E10002744301B86B2B6F5805F02DD4FF4805414
:105E200000E03446B9E700BFBDE8F09F5C00002009
:105E300010B5002004490860062002F0DFFA0120B6
:105E40000249C1F8B00110BDB08121420080214259
:105E50002DE9F04107460E461446F0B2C0F58075B4
:105E6000AC4200DC254612E02A463146384600F0B6
:105E700013F8AC4200D10BE02F442E44601B84B2D7
:105E8000B4F5807F02DD4FF4807500E02546EBE736
:105E900000BFBDE8F08100002DE9F04106460C4648
:105EA0001746FFF7C5FF00200F490860022002F0E7
:105EB000A5FAC4F3074002F0A1FAC4F3072002F0E8
:105EC0009DFAE0B202F09AFA002504E0705D02F05B
:105ED00095FA681C85B2BD42F8DB012002490860D2
:105EE000FFF740FFBDE8F081B081214210B50024EA
:105EF0000EE04FF40D71002006F04CF9184941F8FE
:105F00002400084650F8240000B903E0601CC4B225
:105F1000042CEEDB00BF4FF41471002006F03AF9B8
:105F2000104908604FF41471002006F033F90E494F
:105F300008604FF40071002006F02CF90B4908604E
:105F4000042C0AD10748006838B10748006820B11E
:105F50000846006808B1002010BD0120FCE70000E1
:105F600030C10020440000204800002054000020E0
:105F70002DE9FC4107460D46002600240020009034
:105F8000019008205B49086010204860402088602C
:105F90000020C8604FF480600861084600F020FED1
:105FA0001020FFF74FFC044614B12046BDE8FC81E9
:105FB0005148008800044F4908603720486040205D
:105FC00088600020C8604FF480600861084600F0D7
:105FD00007FE3720FFF736FC04460CB12046E5E704
:105FE0004FF0FF3045490860082048603020886045
:105FF0000220C8600020086101204861084600F0C6
:106000008FFD00203B4908603320486040208860B5
:106010000020C8604FF480600861084600F0E0FD91
:106020003320FFF70FFC04460CB12046BEE70CE01E
:106030004FF4001000F09EFD38B100F0CBFD4DF89C
:106040002600761C022E00D306E02D48406B40F25D
:106050002A6108400028EBD000BF082000F08AFD2C
:1060600020B1082000F040FD04209FE7022000F04E
:1060700081FD20B1022000F037FD022096E72020AC
:1060800000F078FD20B1202000F02EFD06208DE7E5
:106090004FF4007000F06EFD28B14FF4007000F076
:1060A00023FD072082E740F2FF5000F01DFD00981D
:1060B0000006009901F47F4140EA0120009901F4B3
:1060C0007F0140EA1120009940EA11606860019860
:1060D0000006019901F47F4140EA0120019901F491
:1060E0007F0140EA1120019940EA116028602046B2
:1060F0005CE70000781000201C0000208C100020BD
:10610000008001402DE9F0410246002500260020D4
:1061100000230024002791F803C00CF00F0591F82C
:1061200003C00CF0100CBCF1000F03D091F802C0BA
:106130004CEA050591F800C0BCF1000F31D014689D
:1061400000202BE04FF0010C0CFA00F3B1F800C076
:106150000CEA03069E4220D183004FF00F0C0CFA8C
:1061600003F7BC4305FA03FC4CEA040491F803C0AE
:10617000BCF1280F06D14FF0010C0CFA00FCC2F85C
:1061800014C00AE091F803C0BCF1480F05D14FF0EC
:10619000010C0CFA00FCC2F810C0401C0828D1D336
:1061A0001460B1F800C0BCF1FF0F34DD546800206A
:1061B0002EE000F1080C4FF0010808FA0CF3B1F8DA
:1061C00000C00CEA03069E4221D183004FF00F0C61
:1061D0000CFA03F7BC4305FA03FC4CEA040491F8FB
:1061E00003C0BCF1280F05D100F1080C08FA0CF827
:1061F000C2F8148091F803C0BCF1480F07D100F138
:10620000080C4FF0010808FA0CF8C2F81080401C86
:106210000828CED35460BDE8F081016170470AB10F
:10622000016100E04161704710B5074802F038FB9A
:10623000401C064991FBF0F4034802F01AFB401C95
:1062400094FBF0F010BD00000004004000A24A04DE
:1062500010B5074802F010FB401C642100FB01F45C
:10626000034802F006FB401C94FBF0F010BD000058
:106270000004004000BFFEE772B6704762B6704788
:106280001CB50446002001900090214800880004BD
:10629000204908600D204860402088600020C860C8
:1062A0004FF480600861084600F09AFC1A48406B81
:1062B000009002E01848406B0090009800F0450004
:1062C0000028F7D0012000F055FC20B1012000F09B
:1062D0000BFC01201CBD042000F04CFC20B104206C
:1062E00000F002FC0320F5E70B4800690D2801D0FF
:1062F0001020EFE740F2FF5000F0F6FB064840693F
:1063000001900198C0F3432020700020E2E70000D4
:106310001C000020781000200080014008B50121F9
:10632000482000F011FB2020ADF8000010208DF86F
:10633000030003208DF8020069460948FFF7E2FEDA
:1063400020210748FFF769FF2020ADF800006946CB
:106350000448FFF7D7FE20210248FFF75EFF08BD83
:10636000000C01400018014000BFFEE7704700002C
:1063700070B5002100230F22C47804B3154C2468A3
:1063800004F4E064C4F5E064210AC1F10403CA40E6
:10639000447804FA03F184781440214309010E4C37
:1063A0000678A155047804F01F050124AC40057857
:1063B0006D11AD0005F1E025C5F8004109E0047854
:1063C00004F01F050124AC40044D0678761145F811
:1063D000264070BD0CED00E000E400E080E100E04C
:1063E00002490143024A1160704700000000FA05AB
:1063F0000CED00E070B500240EE00021204600F016
:1064000001FA002504E0002000F06CFA681CC5B217
:10641000802DF8DB601CC4B2082CEEDB70BD0000E0
:10642000002006E0044901EBC00100220A604A6036
:10643000401C8028F6DB704720130020F0B514467E
:1064400000267F2801DC3F2900DDF0BD0B46CF1779
:1064500001EB5777C7F3C702CF1701EB5777FF1050
:10646000A1EBC707FDB20123AB40DEB24CB10A4B32
:1064700003EBC0039B5C3343074F07EBC007BB54E0
:1064800008E0054B03EBC0039B5CB343024F07EBF3
:10649000C007BB5400BFD8E7201300202DE9FF4FF1
:1064A0008FB082468846934600200C90ABEB0A05DD
:1064B0001298A0EB0809CDF838A0CDF83480002D53
:1064C00001DD012605E00DB9002602E04FF0FF36A0
:1064D0006D42B9F1000F01DD012708E0B9F1000FAD
:1064E00001D1002703E04FF0FF37C9F1000986B959
:1064F000002409E00D9A04FB0722D1B20E9AD0B213
:106500000122FFF79BFF641C09F101008442F1D9CD
:1065100060E07FB9002409E00D9AD1B20E9A04FB25
:106520000622D0B20122FFF789FF641C681C844256
:10653000F2D94FE05046FFF711F804905846FFF7A4
:106540000DF803900499FEF7E7FE0590FFF71FF89A
:10655000CDE908014046FFF701F802901298FEF7D6
:10656000FDFF01900299FEF7D7FE0390FFF70FF8A9
:1065700000221A4BCDE90401FEF706FFCDE9060122
:10658000DDE90823FEF772FFCDE90A01FFF712F8F3
:106590000C9000241BE02046FEF7E0FF07900C99CA
:1065A000FEF7C0FE09900D98FEF7CFFF08900999FD
:1065B000FEF760FE0A90FEF7D6FFC0B20B900E9970
:1065C0002144C8B201220B99FFF738FF641C681CF4
:1065D0008442E0D913B0BDE8F08F00000000F03F26
:1065E00070B5044600251DE02A19382319462846AF
:1065F000FFF754FF2A19281920233821FFF74EFFEF
:1066000029190A19281920231946FFF747FF2919C4
:106610000A192919081938232021FFF73FFF022002
:1066200000FB0455802DDFDB70BD000008B50121A3
:10663000082000F089F914208DF8030003208DF85C
:1066400002000120ADF8000069460A48FFF75AFD34
:106650000220ADF8000069460648FFF753FD01220D
:1066600011460448FFF7DBFD012202210148FFF734
:10667000D6FD08BD0010014070B50546002413E0AA
:106680008020204100EA050202210E48FFF7C7FDE5
:10669000012211460B48FFF7C2FD002201210948E3
:1066A000FFF7BDFD601CC4B2082CE9DB01221146D6
:1066B0000448FFF7B4FD002201210248FFF7AFFDB7
:1066C00070BD00000010014010B5012202210948F0
:1066D000FFF7A5FD012211460648FFF7A0FD0022A5
:1066E00002210448FFF79BFD002201210148FFF72A
:1066F00096FD10BD0010014010B500220221074890
:10670000FFF78DFD012211460448FFF788FD0122A5
:1067100002210248FFF783FD10BD00000010014078
:1067200070B5002406E0002500E06D1CB5F57A7F09
:10673000FBD3641CB4F57A7FF5D3FFF777FFAE2067
:1067400000F0C0F8D52000F0BDF8802000F0BAF8C5
:10675000A82000F0B7F83F2000F0B4F8D32000F0F4
:10676000B1F8002000F0AEF8402000F0ABF8A12016
:1067700000F0A8F8C82000F0A5F8DA2000F0A2F890
:10678000122000F09FF8812000F09CF8CF2000F04C
:1067900099F8D92000F096F8F12000F093F8DB206A
:1067A00000F090F8302000F08DF8A42000F08AF876
:1067B000A62000F087F88D2000F084F8142000F067
:1067C00081F8AF2000F07EF8FFF714FE70BD0000E6
:1067D00070B5002411E00021204600F013F80025D8
:1067E00007E0074901EBC501085D00F07BF8681C74
:1067F000C5B2802DF5DB601CC4B2082CEBDB70BD8C
:106800002013002070B505460C4645F0B00000F09E
:1068100059F8102141EA141000F054F804F00F0068
:1068200000F050F870BD00002DE9F04105460E461D
:106830001746721ED206110E6A1E5206100EFFF780
:10684000E1FF002409E0A7F12001134A02EB011146
:10685000085D00F047F8601CC4B2082CF3DB721E20
:10686000D206110E6A1E012303EB4202D0B2FFF7DB
:10687000C9FF00240BE0A7F12001074A02EB011237
:1068800004F10801505C00F02DF8601CC4B2082C23
:10689000F1DBBDE8F081000032C800082DE9F041CD
:1068A00007460E461546002407E02A5D3019C1B29E
:1068B0003846FFF7B9FF601CC4B2285D0028F4D148
:1068C000BDE8F08110B50446FFF7FEFE7820FFF723
:1068D000D3FE0020FFF7D0FE2046FFF7CDFEFFF7E6
:1068E0000BFF10BD10B50446FFF7EEFE7820FFF752
:1068F000C3FE4020FFF7C0FE2046FFF7BDFEFFF7B6
:10690000FBFE10BD7047000029B1064A52690243E0
:10691000044B5A6104E0034A52698243014B5A61B5
:10692000704700000010024029B1064AD2690243B4
:10693000044BDA6104E0034AD2698243014BDA6115
:10694000704700000010024029B1064A92690243D4
:10695000044B9A6104E0034A92698243014B9A61B5
:10696000704700000010024030B5002100220024D2
:1069700000232D4D6D6805F00C0121B1042905D0CF
:10698000082923D105E0294D056022E0274D056047
:106990001FE0254D6D6805F47012234D6D6805F4F8
:1069A0008034022505EB92421CB9214D5543056008
:1069B0000BE01D4D6D6805F400351DB11C4D5543B0
:1069C000056002E0194D5543056002E0174D056072
:1069D00000BF00BF144D6D6805F0F0010909154DA9
:1069E0006B5C0568DD4045600F4D6D6805F4E06146
:1069F000090A104D6B5C4568DD4085600A4D6D6885
:106A000005F46051C90A0B4D6B5C4568DD40C560FB
:106A1000054D6D6805F44041890B074D6B5CC568F9
:106A2000B5FBF3F5056130BD0010024000127A009D
:106A300000093D0000000020100000207CB5054644
:106A4000002400200090019000260DB1022600E0F5
:106A500000262248406900F0007008B10E207CBD7D
:106A60001F49098888B26946FFF782FA04460CB1CB
:106A70002046F4E7019800F4802060B318480088AD
:106A800000041849086037204860402088600020D2
:106A9000C8604FF480600861084600F0A1F8372014
:106AA000FEF7D0FE04460CB12046D8E70D4806603C
:106AB00006200C494860402088600020C8604FF4E0
:106AC00080600861084600F08BF80620FEF7BAFEE9
:106AD00004462046C3E72520C1E7000000800140AE
:106AE0001C000020781000200149886370470000D6
:106AF000008001400149086070470000A00030425A
:106B00000146034A506820F0FF0008435060704778
:106B10000080014001490860704700008C05304248
:106B200000210A4B02685A6242689A621A46D16A88
:106B300021F0F701D0E902231A4303691A4343699C
:106B40001A431143014AD16270470000008001409E
:106B500000200649086048608860C8604862886212
:106B6000C862034888630020C86370470080014002
:106B7000FF07C00001460020034A526B0A400AB1D9
:106B8000012000E0002070470080014002480068BA
:106B900000F00300704700000080014010B500F0D5
:106BA00053FC10BD00210A4A516847F6FF62914329
:106BB000027D83681A4343681A43C3681A43036813
:106BC0001A4303691A431143014A51607047000098
:106BD000008001400148006870470000808001404B
:106BE0000021094B02689A601A46D1686FF30A01C6
:106BF000D0E901231A43C3681A4303691A431143B6
:106C0000014AD160704700000080014005490968D1
:106C100021F00301034A1160114609680143116024
:106C20007047000000800140014908607047000083
:106C30008080014070B58CB006460C461546012197
:106C40000220FFF761FE1348FEF7ECFE0021114819
:106C5000FEF7DCFE1048019002960395A008049010
:106C6000002005908020069080000790800008900A
:106C7000002009904FF400500A9000200B9001A9C9
:106C80000448FEF775FF00210248FEF7BFFE0CB076
:106C900070BD0000440402408080014070B504468D
:106CA000002516480078032801D1272070BD13481D
:106CB000007838B111480078012803D00F480078D7
:106CC000022818D1022C01D32720EFE7E0B2FFF70A
:106CD000B5FE05467DB90A48406820F4C050084911
:106CE000486008464068A1B240EAC12004494860B3
:106CF0000846406848602846D8E700001800002091
:106D000000800140F0B5014600200022BE4B1B78F8
:106D100081F85630BD4B1B88A1F85430BC4B1B6822
:106D20001A0E93090B70C2F383034B7002F0030336
:106D30008B70B74B1B68C3F30742CA70B44B1B88F8
:106D4000C3F307220A71B24B1A784A715B681A0EB4
:106D50001301CB80AE4B5B68C3F30742CB8843EA99
:106D60001213CB8002F00F030B72A94B9B88C3F365
:106D70000722D3094B72C2F380138B72C2F3401304
:106D8000CB72C2F300130B7300234B739E4B1B7823
:106D90003BB19D4B1B78012B03D09B4B1B78032BE6
:106DA0004FD193071B0D0B61994B1A790B6943EA7D
:106DB00082030B61964B9B681A0E0B6943EA921390
:106DC0000B61C2F3C2030B7502F007034B75904BC6
:106DD0009B68C3F3074253098B75C2F38203CB75DB
:106DE00093075B0F0B768A4B1B89C3F307220B7E3D
:106DF00043EAD2130B760B695B1C0024C1E9123401
:106E00000B7E9B1C012404FA03F3DC17D1E9125614
:106E1000A5FB037C06FB03C305FB0433C1E9127326
:106E20000C7A0123A3400B650024D1E912650B6D98
:106E3000A6FB037C05FB03C306FB0433C1E9127305
:106E40002EE0714B1B78022B2AD1714B1A799306D5
:106E50009B0A0B616E4B9B681A0E0B6943EA022377
:106E60000B616B4B9B68C3F307420B6913430B61C8
:106E7000674B1B89C3F307220B695B1C4FF400743B
:106E8000A3FB04464FF480630025A4FB037C06FBB0
:106E900003C304FB0533C1E912734FF400730B65A0
:106EA000C2F3801301F8193F93065B0E4B70584BE9
:106EB0001A7A4B7843EAD2134B7002F07F038B703F
:106EC000534BDB681A0ED309CB70C2F341130B711D
:106ED000C2F382034B7193071B0F8B714C4BDB6822
:106EE000C3F307428B7943EA92138B71C2F34013C9
:106EF000CB7100230B7202F001034B72444B9B8950
:106F0000C3F30722D3098B72C2F38013CB72C2F38F
:106F100040130B73C2F300134B73C2F381038B73E3
:106F200002F00303CB733A4B1A7B53080B74012313
:106F30004B74384B1B681A0ECA741939354B1B68D1
:106F4000C3F307421402CC85324B1B88C3F30722DC
:106F5000CB8D1343CB852F4B1A7814060C635B68DB
:106F60001A0E0B6B43EA02440C632A4B5B68C3F3B3
:106F700007420B6B43EA02240C63264B9B88C3F346
:106F800007220B6B13430B63224B1A7934235A5499
:106F9000204B9B681A0E35235A541E4B9B68C3F333
:106FA000074214068C631B4B1B89C3F307228B6BB0
:106FB00043EA02448C63174B1A7A8B6B43EA022430
:106FC0008C63144BDB681A0E8B6B13438B63114B72
:106FD000DB68C3F307423C235B5C43EA12143C23A7
:106FE0005C5413071C0DCC870A4B9B89C3F3072203
:106FF000CB8F1343CB87074B1A7B540840235C5439
:10700000012441235C54F0BD180000201C00002026
:10701000A4100020B41000207CB50025002401211C
:107020003020FFF791FC012140F20240FFF76CFC99
:107030004FF4F850ADF8000018208DF8030003203D
:107040008DF8020069463048FFF75CF80420ADF87F
:10705000000018208DF8030003208DF80200694617
:107060002A48FFF74FF88020ADF8000048208DF83F
:10707000030003208DF8020069462448FFF742F818
:10708000FFF766FD31208DF8040000208DF8050023
:107090008DF8060001208DF8070001A8FFF768F9B8
:1070A00000F0E4F8044614B900F036F804461CB9C0
:1070B0001748FFF727FE044634B91549B1F85410B4
:1070C000080400F04BFD04461CB90020FFF7E6FD64
:1070D00004461CB10F480078032812D10C4890F8E0
:1070E000560020B10A4890F85600012801D10A251F
:1070F00000E004252846FFF703FD002000F046FDD0
:10710000044620467CBD00000010014000140140F0
:10711000C81000201800002038B50024012000907D
:10712000FFF734FD08B9252038BD4A480078042807
:1071300021D000204849086002204860C0208860B3
:107140000020C8604FF4806008610846FFF748FDE2
:10715000FEF7A8FB04460CB12046E5E73F4840692E
:107160003F4908603D48806948603C48C069886084
:107170003A48006AC8603748007858B13548007806
:10718000012807D033480078062803D0314800781A
:10719000022816D1002030490860032048604020B2
:1071A00088600020C8604FF4806008610846FFF7DF
:1071B00017FD69460320FEF7BBFB04460CB12046D1
:1071C000B2E724480078032816D1BDF80000000477
:1071D0002149086003204860402088600020C86082
:1071E0004FF4806008610846FFF7FAFCFEF75AFB8F
:1071F00004460CB1204697E716480078042827D0AB
:10720000BDF8000017490860BDF8000000041249ED
:10721000086009204860C02088600020C8604FF4E2
:10722000806008610846FFF7DBFCFEF73BFB044685
:107230000CB1204678E7094840690B4908600748C7
:10724000806948600548C06988600448006AC86071
:10725000002069E71800002078100020008001401D
:10726000B41000201C000020A41000202DE9F047DD
:107270000027002400260025A046A146B2206C4924
:1072800008750020086048608860C860086108468A
:10729000FFF788FC0320FFF7B9FC0120FFF72AFC69
:1072A00000BF12E000206349086048608860C86041
:1072B0004FF4806008610846FFF792FCFEF7A9FAD8
:1072C000044604B903E0781CC7B24A2FEADB00BFCA
:1072D00014B12046BDE8F0874FF4D57055490860D9
:1072E00008204860402088600020C8604FF480601B
:1072F00008610846FFF774FCFEF762FB044624B9F8
:1073000001204D4908704FF080490020494908602C
:1073100037204860402088600020C8604FF48060BB
:1073200008610846FFF75CFC3720FEF78BFA04463D
:10733000002C4BD134E000203E49086037204860E3
:10734000402088600020C8604FF4806008610846D3
:10735000FFF746FC3720FEF775FA04460CB12046CD
:10736000B8E7364849EA00003249086029204860F9
:10737000402088600020C8604FF4806008610846A3
:10738000FFF72EFCFEF7B8FA04460CB12046A1E741
:107390002B484669012080EAD67080F001086D1CF8
:1073A000B8F1000F03D14FF6FF708542C3D34FF6FB
:1073B000FF70854202D31B2420468BE706F08040F5
:1073C000060032D002201C4908702EE01CE01D4847
:1073D0001849086001204860402088600020C8608B
:1073E0004FF4806008610846FFF7FAFBFEF784FA65
:1073F00004460CB120466DE711484669012080EA39
:10740000D67080F001086D1CB8F1000F03D14FF663
:10741000FF708542DBD34FF6FF70854202D31B24F9
:10742000204657E7032004490870204652E7000031
:10743000601000207810002018000020000010804C
:10744000008001400080FF8010B54948406B00F487
:10745000807070B347480078012814D10020464955
:1074600008600C204860402088600020C8604FF40D
:10747000806008610846FFF7B3FB0C20FEF7E2F9D5
:107480003E49087002E000203C4908703848806B93
:1074900040F48070364988630846C06B4CF23A313C
:1074A00088433349C8630120354908703348007860
:1074B00010BDFFE70220FFF75DFB68B10220FFF778
:1074C00013FB2B48C06B4CF23A3188432849C86300
:1074D00002202A490870EBE70820FFF74BFB68B150
:1074E0000820FFF701FB2248C06B4CF23A31884379
:1074F0001F49C863042021490870D9E72020FFF7FD
:1075000039FB68B12020FFF7EFFA1948C06B4CF245
:107510003A3188431649C863062018490870C7E7FE
:107520001020FFF727FB68B11020FFF7DDFA1048A5
:10753000C06B4CF23A3188430D49C86305200F49AE
:107540000870B5E74FF40070FFF714FB70B14FF40B
:107550000070FFF7C9FA0648C06B4CF23A31884315
:107560000349C863072005490870A1E700209FE789
:10757000008001402100002078100020220000201F
:10758000230000202DE9F84F8146174698460A9CB3
:107590004FF0000AD3464D464FF0FF36B9F1000FC9
:1075A00002D12620BDE8F88F00208249C8628248B7
:1075B0000078022805D10402780A40EAC8574FEA49
:1075C000682800207D4988604860401E08600120CE
:1075D00048610020C86008610846FFF7A1FA7548B5
:1075E000406900F0007008B10E20DBE7002C21DDBF
:1075F000B4F5006F1EDC601E2040D8B9204601F0B3
:1076000029FE00906E48046010206D4948604020BB
:1076100088600020C8604FF4806008610846FFF76A
:10762000DFFA1020FEF70EF98246BAF1000F03D000
:107630005046B7E72620B5E7009800015F4988600B
:10764000084644604FF0FF30086001204861022086
:10765000C860002008610846FFF762FA58480760D2
:10766000112057494860402088600020C8604FF4CE
:10767000806008610846FFF7B3FA1120FEF7E2F8D0
:107680008246BAF1000F01D050468BE74D48007892
:1076900000285AD1FEF7F0FD18E04FF40040FFF744
:1076A00069FA78B14FF0000B06E04248803000687C
:1076B00045F82B000BF1010BBBF1080FF5D320357A
:1076C000414E03E00EB904206CE7761E3948406B4A
:1076D00040F22A6108400028DFD00820FFF74AFA6C
:1076E00020B10820FFF700FA04205BE70220FFF733
:1076F00041FA20B10220FFF7F7F9022052E72020DB
:10770000FFF738FA20B12020FFF7EEF9062049E70D
:107710004FF40070FFF72EFA28B14FF40070FFF716
:10772000E3F907203EE703E0FFF754FA28602D1D38
:107730004FF40010FFF71EFA0028F5D1FEF79EFD6A
:1077400040F2FF50FFF7D0F931E01E4800780128E1
:107750002DD1002221464846FFF76CFA00201B4934
:1077600008701B4908701B4908701248C06B40F232
:107770002A3108430F49C8630120FFF7CBF900E025
:10778000761E1548006800F4005038B9114800789A
:1077900020B90E48007808B9002EF1D10EB90420A6
:1077A00000E70A48007810B1084890F800A0504659
:1077B000F8E6000000800140180000208C10002036
:1077C0007810002020000020FFFF7F002200002012
:1077D0002100002023000020000402402DE9FE4F7C
:1077E00083460C46914600200290002625462C46F2
:1077F000700240EAD5566D020BF00300F0B14FF075
:10780000000A18E04FF4007000904FEA4A20471930
:1078100046EBE0733A461648FFF7B4FE02904FF489
:10782000007213495846FDF701FD0BF5007B0AF184
:10783000010000F0FF0ACA45E4DB16E0B9F1010FD0
:1078400009D14FF400702A46334600905846FFF79E
:1078500099FE029009E04FF400702A463346CDE9C4
:107860000009584600F006F802900298BDE8FE8F25
:10787000201100202DE9FF5F17469846DDE90E46EE
:107880004FF00009CA464FF0FF35A949009808603B
:107890000020A849C862A8480078022805D104023F
:1078A000780A40EAC8574FEA68280020A349886050
:1078B0004860401E0860012048610020C8600861DF
:1078C0000846FFF72DF99B48406900F0007018B199
:1078D0000E2004B0BDE8F09F002C21DDB4F5006F50
:1078E0001EDC601E2040D8B9204601F0B3FC834660
:1078F000934804601020924948604020886000202E
:10790000C8604FF4806008610846FFF769F91020ED
:10791000FDF798FF8146B9F1000F03D04846D8E73C
:107920002620D6E7012E70D906FB04F0B0F1007FC7
:1079300001D32620CDE74FEA0B108049886006FB73
:1079400004F048604FF0FF300860012048610220D9
:10795000C860002008610846FFF7E2F87848076031
:10796000122077494860402088600020C8604FF4AA
:10797000806008610846FFF733F91220FDF762FFC7
:107980008146B9F1000F01D04846A2E76D48007862
:1079900000287DD1FEF770FC1EE04FF40040FFF799
:1079A000E9F8A8B14FF0000A08E0624880300068AA
:1079B0005F49096841F82A000AF1010ABAF1080F83
:1079C000F3D35B4800682030594908605E4D03E0FE
:1079D0000DB904207DE76D1E5648406B40F22A31F8
:1079E00008400028D9D00820FFF7C4F820B10820AB
:1079F000FFF77AF804206CE70220FFF7BBF828B104
:107A00000220FFF771F8022063E78EE02020FFF7E5
:107A1000B1F820B12020FFF767F8062059E74FF4AE
:107A20000070FFF7A7F828B14FF40070FFF75CF87B
:107A300007204EE709E0FFF7CDF83D4909680860E7
:107A40003B480068001D3A4908604FF40010FFF7FA
:107A500091F80028EFD14FF48070FFF78BF820B336
:107A60003548007838B134480078012803D03248CE
:107A70000078022819D10020314908600C204860A4
:107A8000402088600020C8604FF48060086100E0FA
:107A900012E00846FFF7A4F80C20FDF7D3FE81465C
:107AA000B9F1000F01D0484613E7FEF7E7FB40F2BB
:107AB000FF50FFF719F838E022480078012834D148
:107AC00006FB04F100220098FFF7B4F800201F49DC
:107AD000087001201E49087000201E4908701548D2
:107AE000C06B40F22A3108431249C8630846C06A95
:107AF00040F00800C86200E06D1E1748006800F4FE
:107B0000005008B9002DF7D10DB90420E1E600BFFF
:107B10001048007818B90D4800780028F8D00B48B4
:107B2000007810B1094890F800904846D1E600006E
:107B30002400002000800140180000208C1000204C
:107B40007810002020000020FFFF7F00220000208E
:107B500021000020230000200004024010B504464C
:107B600009480460072008494860402088600020D8
:107B7000C8604FF4806008610846FFF731F80720BD
:107B8000FDF760FE10BD00007810002001460020C7
:107B9000012900D011B9024B197000E0262070476E
:107BA000200000202DE9FF5F86B017469846149DFF
:107BB0000026002005900490002481460390824610
:107BC00002900195DDF818B0DDF818B0BBF1000F98
:107BD00003D126200AB0BDE8F09F0020C449C86246
:107BE000C44988604860401E086001204861002048
:107BF000C86008610846FEF793FFBD48406900F081
:107C0000007008B10E20E5E7BB480078022805D1D6
:107C10000502780A40EAC8574FEA6828002D1FDDA0
:107C2000B5F5006F1CDC681E2840C8B9284601F075
:107C300011FB0590B14805601020B0494860402014
:107C400088600020C8604FF4806008610846FEF735
:107C5000C7FF1020FDF7F6FD06461EB13046B9E716
:107C60002620B7E7A64800880004A44908600D2034
:107C70004860402088600020C8604FF48060086140
:107C80000846FEF7ADFF0D20FDF7DCFD06460EB100
:107C900030469FE79648406903904FF0FF341BE061
:107CA000641E974800880004944908600D204860CD
:107CB000402088600020C8604FF48060086108465A
:107CC000FEF78EFF0D20FDF7BDFD06460EB13046D6
:107CD00080E7874840690390039800F4807008B9F2
:107CE000002CDDD10CB9292074E7844807601820E6
:107CF00082494860402088600020C8604FF480605E
:107D000008610846FEF76CFF1820FDF79BFD06464C
:107D10000EB130465EE700207A49087005980001F0
:107D200074498860084645604FF0FF3008600120C4
:107D300048610020C86008610846FEF7F1FE4FF078
:107D4000FF347148007800287BD1FEF795FA43E0B4
:107D50004FF48040FEF70EFFC8B30198A0EB090076
:107D6000202821D20198A0EB090000F0030020B9DF
:107D70000198A0EB0900800804E00198A0EB09003D
:107D80008008401C02904FF0000A09E0DBF8000078
:107D9000FEF74AFF0AF1010A0BF1040B09F104098D
:107DA00002988245F2D30FE04FF0000A05E05BF83D
:107DB0002A00FEF739FF0AF1010ABAF1080FF6D3DB
:107DC0000BF1200B09F120096FF0404404E0FFE7BC
:107DD0000CB90420FEE6641E4548406B40F21A616F
:107DE00008400028B4D00820FEF7C4FE20B10820C7
:107DF000FEF77AFE0420EDE60220FEF7BBFE20B17E
:107E00000220FEF771FE0220E4E61020FEF7B2FE2B
:107E100020B11020FEF768FE0520DBE64FF400706D
:107E2000FEF7A8FE30B14FF40070FEF75DFE0720AC
:107E3000D0E606E0FEF722FA40F2FF502C498863B4
:107E40003EE03148007801283AD1102229460698B0
:107E5000FEF7F0FE00202D4908702A4908702C49D1
:107E600008702348C06B40F21A3108432049C863A8
:107E70000846C06A40F00800C86200E0641E254859
:107E8000006800F4005008B9002CF7D11CB9FFF7C6
:107E9000C3F804209EE64FF0FF3400E0641E1C4847
:107EA000007820B91948007808B9002CF6D10CB92F
:107EB00004208FE61548007810B11448007889E650
:107EC00040F2FF50FEF710FE04A8FEF7D9F906466F
:107ED00003E004A8FEF7D4F906463EB99DF8100069
:107EE0000728F6D09DF810000628F2D0304671E63B
:107EF000008001408C100020180000207810002025
:107F00001C00002021000020200000202200002072
:107F100023000020000402402DE9FE4F81460C465C
:107F2000924600200290002625462C46700240EA28
:107F3000D5566D0209F00300F0B14FF0000B18E0C8
:107F40004FF4007249461948FDF770F94FF400707C
:107F500000904FEA4B20471946EBE0733A4613482E
:107F6000FFF720FE029009F500790BF1010000F007
:107F7000FF0BD345E4DB16E0BAF1010F09D14FF452
:107F800000702A46334600904846FFF70BFE0290E9
:107F900009E04FF400702A463346CDE9000A48460E
:107FA00000F006F802900298BDE8FE8F2011002034
:107FB0002DE9FF5F84B0DDE9124700260020039021
:107FC0000290002580468146019007FB04FBDDF806
:107FD00010A0DDF810A0BAF1000F03D1262008B0E0
:107FE000BDE8F09F0020D849C862D8498860486041
:107FF000401E0860012048610020C86008610846F2
:10800000FEF78EFDD048406900F0007008B10E20E8
:10801000E5E7CF480078022808D10402DDE906012F
:10802000400A40EAC1504912CDE90601002C1FDD8B
:10803000B4F5006F1CDC601E2040C8B9204601F07A
:1080400009F90390C34804601020C24948604020E9
:1080500088600020C8604FF4806008610846FEF721
:10806000BFFD1020FDF7EEFB06461EB13046B6E719
:108070002620B4E7012F6FD907FB04F0B0F1007F91
:1080800001D32620ABE7B248007838B1B048007879
:10809000012803D0AE48007802282DD1AE480088D0
:1080A0000004AC4908603720486040208860002008
:1080B000C8604FF4806008610846FEF791FD3720E4
:1080C000FDF7C0FB06460EB1304688E7A1480760C1
:1080D0001720A0494860402088600020C8604FF405
:1080E000806008610846FEF77BFD1720FDF7AAFBBC
:1080F00006460EB1304672E7964906980860192088
:108100004860402088600020C8604FF480600861AB
:108110000846FEF765FD1920FDF794FB06460EB1F3
:1081200030465CE7039800018849886007FB04F04B
:1081300048604FF0FF300860012048610020C860AF
:1081400008610846FEF7ECFC84480078002871D1ED
:10815000451EFEF791F840E0DEE07B48406B00F4FE
:108160008040A8B3ABEB080020281ED2ABEB080080
:1081700000F0030018B9ABEB0800800803E0ABEB9C
:1081800008008008401C01904FF0000909E0DAF86F
:108190000000FEF749FD09F101090AF1040A08F19E
:1081A000040801988145F2D30FE04FF0000905E083
:1081B0005AF82900FEF738FD09F10109B9F1080F55
:1081C000F6D30AF1200A08F120086FF0404504E0D8
:1081D000FFE70DB9042002E76D1E5B48406B40F2DB
:1081E0001A3108400028B8D00820FEF7C3FC20B19F
:1081F0000820FEF779FC0420F1E60220FEF7BAFC25
:1082000020B10220FEF770FC0220E8E61020FEF705
:10821000B1FC20B11020FEF767FC0520DFE64FF42B
:108220000070FEF7A7FC30B14FF40070FEF75CFC65
:108230000720D4E62CE04FF48070FEF79BFC00B3DF
:108240004348007838B142480078012803D04048BC
:108250000078022815D100203E4908600C204860B3
:10826000402088600020C8604FF4806008610846A4
:10827000FEF7B6FC0C20FDF7E5FA06460EB13046D7
:10828000ADE6FDF7FBFF40F2FF50FEF72DFC43E0AB
:108290003248007801283FD107FB04F110220498EE
:1082A000FEF7C8FC00202E49087001202D490870F7
:1082B00000202D4908702448C06B40F21A31084351
:1082C0002149C8630846C06A40F00800C8624FF000
:1082D000FF3500E06D1E2548006800F4005008B925
:1082E000002DF7D11DB9FEF797FE042077E64FF079
:1082F000FF3500E06D1E1C48007820B91848007852
:1083000008B9002DF6D10DB9042068E614480078AC
:1083100010B11348007862E640F2FF50FEF7E4FB2C
:1083200002A8FDF7ADFF064603E002A8FDF7A8FF8F
:1083300006463EB99DF808000728F6D09DF80800CB
:108340000628F2D030464AE6008001408C1000201A
:1083500018000020781000201C00002020000020C1
:108360002200002021000020230000200004024001
:1083700000B587B001210820FEF7E6FA0121880345
:10838000FEF7D2FA4FF46040ADF8180018208DF8CF
:108390001B0003208DF81A0006A91648FDF7B2FE4F
:1083A0000020ADF804004FF48270ADF80600002004
:1083B000ADF808000220ADF80A000120ADF80C006D
:1083C0004002ADF80E003820ADF810000020ADF8E6
:1083D00012000720ADF8140001A9074800F058F872
:1083E0000121054800F03AF8FF2000F007F807B037
:1083F00000BD0000000C01400038004010B50446EC
:1084000000BF02210A4800F035F80028F9D02146C3
:10841000074800F03BF800BF0121054800F02AF8AA
:108420000028F9D0024800F02EF8C0B210BD0000BC
:108430000038004010B50446074800884FF6C77161
:10844000084005490880084600882043088001212B
:10845000014800F003F810BD0038004021B1028847
:1084600042F04002028004E002884FF6BF731A40D7
:10847000028070470246002013890B400BB1012097
:1084800000E000207047014688897047818170476D
:1084900010B50022028802F441520B884C88234315
:1084A0008C882343CC8823430C8923434C89234362
:1084B0008C892343CC8923431A430280838B4FF258
:1084C000FF74234083830B8A038210BD704710B56D
:1084D00000F002F810BD00000CB5002001900090E3
:1084E0003348006840F480303149086000BF3048AC
:1084F000006800F4003000900198401C0190009842
:1085000018B90198B0F5A06FF1D12948006800F4BE
:10851000003010B10120009001E000200090009890
:10852000012843D12348006840F010002149086029
:108530000846006820F0030008600846006840F024
:10854000020008601A4840681949486008464068B7
:1085500048600846406840F48060486008464068CB
:1085600020F47C1048600846406840F4E8104860F9
:108570000846006840F08070086000BF0C48006842
:1085800000F000700028F9D00948406820F003008E
:10859000074948600846406840F00200486000BF54
:1085A0000348406800F00C000828F9D10CBD000019
:1085B0000010024000200240042808D14FF0E021C2
:1085C000096941F004014FF0E022116107E04FF02A
:1085D000E021096921F004014FF0E02211617047A8
:1085E0007047000010B504466FF00400FFF7E4FF89
:1085F000E11704EB5171C1F3C701074A117010462E
:10860000007800EB4001C1EBC0104FF6FF7101EAAA
:10861000C0000249088010BD280000202A00002068
:1086200010B51348006840F0010011490860084681
:108630004068104908400E494860084600680E49E5
:1086400008400B4908600846006820F48020086054
:108650000846406820F4FE0048604FF41F00886020
:10866000FFF735FF4FF000600449086010BD0000BF
:10867000001002400000FFF8FFFFF6FE08ED00E0EA
:10868000F0B50C46154600220021068C4FF6FE7709
:108690003E400684028B018C4FF60C7632407E1CE5
:1086A00006EA03162E433243104EB0420ED0104E4F
:1086B000B0420BD0B0F1804F08D00E4EB04205D082
:1086C0000D4EB04202D00D4EB04206D14FF6FD76AF
:1086D000314044F00106314305E04FF6F576314074
:1086E00044F00106314302830184F0BD002C0140B7
:1086F000003401400004004000080040000C00402D
:10870000F0B50C461546002200210026078C4FF6D6
:10871000EF7C07EA0C070784028B018C4FF6FF778A
:1087200007EA041640F6FF473A404FF6FF7707EA9C
:1087300003373A434FF6FF7707EA05273A43114FCD
:10874000B8420ED0104FB8420BD0B0F1804F08D0D5
:108750000E4FB84205D00E4FB84202D00D4FB8426E
:1087600006D14FF6DF77394046F01007394305E070
:108770004FF65F77394044F0100739430283018494
:10878000F0BD0000002C0140003401400004004016
:1087900000080040000C004000B587B00121042013
:1087A000FEF7D2F801210220FEF7BEF848208DF82E
:1087B0001B004020ADF8180003208DF81A0006A910
:1087C0001C48FDF79FFC1C4800F06DF80020ADF838
:1087D0001200ADF80E004FF6FF70ADF81000472004
:1087E000ADF80C0000208DF8140003A9124800F029
:1087F000C7F80020ADF800000F20ADF808000020F9
:10880000ADF80200ADF806000120ADF8040069469D
:10881000094800F04EF85021074800F088F804217C
:10882000054800F08DF80121034800F016F807B064
:1088300000BD0000000801400004004010B5012107
:10884000034800F01CF80121014800F003F810BDB6
:1088500000080040CA430282704721B1028842F0FA
:108860000102028004E002884FF6FE731A40028083
:1088700070470146888E70470146088F704730B5B3
:108880000246002000230024158A05EA0103958989
:1088900005EA010413B10CB1012000E0002030BD55
:1088A0000146088D704701894FF6F8721140018129
:1088B00070472DE9F04105460C46002601276088E7
:1088C00008B9022600E00026A088012801D102276D
:1088D00000E001272088A0B92389A2886188284662
:1088E000FFF7CEFEE188284600F033F823893A46A8
:1088F00031462846FFF704FFE188284600F032F8A9
:1089000013E02389A28861882846FFF7F9FEE188F1
:10891000284600F027F823893A4631462846FFF7D3
:10892000AFFEE188284600F014F8BDE8F0810A4661
:10893000002101894FF68F7319401143018170475F
:1089400002894FF6F8731A40028102890A430281B4
:108950007047028B4FF6F3731A400283028B0A436F
:1089600002837047028B4FF2FF331A400283028B5F
:108970004FF6FF7303EA01231A4302837047000096
:10898000002202881D4B98420ED01D4B98420BD0FE
:10899000B0F1804F08D01B4B984205D01A4B98423B
:1089A00002D01A4B984204D14FF68F731A404B886D
:1089B0001A43174B984207D0164B984204D04FF6F3
:1089C000FF431A40CB881A4302808B8883850B882B
:1089D00003850A4B98420BD0094B984208D00E4BA6
:1089E000984205D00D4B984202D00D4B984201D1D0
:1089F0000B7A03860123838270470000002C01401C
:108A0000003401400004004000080040000C004019
:108A100000100040001400400040014000440140AC
:108A20000048014010B540F225510C4800F096F87E
:108A300070B10A4800F04EF9C4B22146074800F070
:108A40004EF900BF4021054800F07BF80128F9D11C
:108A50004021024800F060F810BD000000380140DD
:108A600010B586B0044601210420FDF76DFF0121F9
:108A70008803FDF769FF01210846FDF765FF4FF404
:108A80000070ADF8140003208DF8160018208DF842
:108A9000170005A91E48FDF735FB4FF48060ADF8BF
:108AA000140004208DF8170005A91948FDF72AFBCA
:108AB00001940020ADF80800ADF80A00ADF80C00F4
:108AC000ADF810000C20ADF80E0001A9114800F01F
:108AD00095F801210F4800F028F840210D4800F0DA
:108AE0001BF8012240F225510A4800F061F82520C8
:108AF0008DF8000003208DF801008DF802000120A0
:108B00008DF803006846FDF733FC06B010BD000089
:108B1000000801400038014001F40072B2F5007F06
:108B200000D100BFCA430280704721B1828942F45C
:108B30000052828104E082894DF6FF731A408281DF
:108B4000704702460020B1F5007F00D100BF1388B6
:108B50000B400BB1012000E00020704770B50246C9
:108B6000002400230025002040F66A16B14200D1FF
:108B700000BFC1F3421501F01F03012606FA03F3FB
:108B8000012D02D19689334006E0022D02D1168ACA
:108B9000334001E0968A33400C12012606FA04F4B1
:108BA0001688344013B10CB1012000E0002070BDE4
:108BB000F0B50346002400260025002040F66A1781
:108BC000B94200D100BF1846C1F3421401F01F069C
:108BD000012707FA06F5012C01D10C3004E0022C24
:108BE00001D1103000E014301AB107682F4307603C
:108BF00002E00768AF430760F0BD00002DE9F047D1
:108C000086B005460E460024A24600BFA1460027B6
:108C1000B08900B100BF2F462C8A4CF6FF7004408B
:108C2000F08804432C82AC894EF6F3100440B088DF
:108C300031890843718908430443AC81AC8A4FF6FB
:108C4000FF400440B0890443AC8201A8FDF78CFECC
:108C50001F48874202D1DDF810A001E0DDF80CA02A
:108C6000A88900F4004040B10AEBCA0000EB0A10EA
:108C700031684900B0FBF1F807E00AEBCA0000EBED
:108C80000A1031688900B0FBF1F86420B8FBF0F0FD
:108C900004012009642101FB1089A88900F4004027
:108CA00040B1322000EBC900B0FBF1F000F007004A
:108CB000044308E0322000EB09106421B0FBF1F01E
:108CC00000F00F0004432C8106B0BDE8F0870000DF
:108CD0000038014001468888C0F308007047C1F39E
:108CE00008028280704700BFFEE700000FB4054B0A
:108CF00010B503A9044A029800F02CF810BC5DF8E6
:108D000014FB00006DB80008580000200FB4084B99
:108D100010B504A902AA039800F01CF8044602A9A1
:108D2000002000F077F9204610BC5DF814FB00002D
:108D30001590000802E008C8121F08C1002AFAD1E5
:108D400070477047002001E001C1121F002AFBD1CB
:108D5000704700002DE9FF4F8DB09B460F4604463B
:108D6000002606E025280BD05A460F999047641C30
:108D7000761C20780028F5D111B03046BDE8F08F80
:108D80000025A8460122984900E0054314F8013F58
:108D9000203B02FA03F00842F7D120782E2817D1A1
:108DA00014F8010F45F004052A280ED06FF02F02A9
:108DB0002078A0F1300109290AD808EB880102EBDC
:108DC000410100EB0108641CF2E757F8048B641CB6
:108DD00020786C280DD004DC4C2812D06A2811D1E0
:108DE00004E074280DD07A280CD10AE045F400156F
:108DF00007E0617845F48015814202D1641C05F5D5
:108E00008015641C2278692A45D008DC002AB3D07A
:108E1000582A69D0632A10D0642A08D13BE0702A0E
:108E200067D0732A13D0752A5CD0782A5CD010469C
:108E30005A460F999047761CD3E017F8040B8DF82B
:108E4000000000208DF80100E946012003E057F8FA
:108E5000049B4FF0FF3069074FF0000501D40AE092
:108E60006D1C45450DDA8542FADB19F8051000291D
:108E7000F6D106E06D1C8542FCDB19F805100029CF
:108E8000F8D12E4404E019F8010B5A460F99904787
:108E90006D1EF8D2A5E00A200021CDE90801C5F336
:108EA000025002280DD001CFC117031E71F100033B
:108EB0000DDA4FF0000CD0EB0C006CEB01012D2310
:108EC00008E0FF1D27F00707F7E80201EDE72B0593
:108ED00004D52B238DF8283001233BE0EB0739D054
:108EE0002023F7E70A2000E010200021CDE9080147
:108EF00007E01020002145F00405CDE908014FF0FE
:108F00000808C5F3025002280FD001CF00214FF00E
:108F1000000A2B071FD5702A0DD0DDE908C38CF09D
:108F2000100C5CEA030C0CD015E0FF1D27F00707BE
:108F3000F7E80201EBE740228DF828204FF0010A04
:108F40000BE050EA010306D030238DF828308DF86D
:108F5000292002239A46582A04D024A20DF1200980
:108F60000B9209E026A2F9E7DDE90823FCF7FCF8FB
:108F70000B9B9B5C09F8013D50EA0102F4D1ADEB7B
:108F8000090020300890680701D44FF001080899C3
:108F9000884502DDA8EB010000E0002080460025A6
:108FA00006E00AA85A46405D0F9990476D1C761C52
:108FB0005545F6DB04E030205A460F999047761C61
:108FC000B8F10001A8F10108F5DC05E019F8010B82
:108FD0005A460F999047761C0899481E0890002918
:108FE000F4DC641CC5E6000009280100303132338E
:108FF00034353637383961626364656600000000D5
:1090000030313233343536373839414243444546BE
:10901000000000000A68531C0B60107070472DE9B7
:10902000F04704460D4690469946AD1EE06A00EBB7
:10903000153AC5F3C80605F0070101208840C7B2FC
:1090400000BF51460AF1010A204602F0A1FF10B10B
:109050000120BDE8F08700BF00BF04F13400805D4F
:10906000384008B1012000E00020484501D102202D
:10907000EFE704F13400805D784004F13401885555
:109080000120E070A8F101005FEA000800D1E0E7EC
:109090007806000E0700E0D10127701C0646B0F5E7
:1090A000007FD9D3CDE7000070B504460D460020FF
:1090B000E070401E20632946204602F069FF08B197
:1090C000042070BD04F2322002F07CFD4AF65521E6
:1090D000884201D00320F4E704F16A0002F035FD74
:1090E00020F07F400D49884201D10020E9E704F1DA
:1090F000860002F02AFD20F07F400849884201D115
:109100000020DEE7082206A104F1370002F018FF74
:1091100008B90120D5E70220D3E7000046415400FA
:10912000455846415420202000000000024600E03F
:10913000521C107810B110788842F9D1107870471D
:109140002DE9F84F824615461E46DAF800000090D9
:10915000DAF8480000F104094FF4007200232846B1
:109160003146FCF701F807460098B0F80AC062469D
:1091700000233846FBF7F8FF834600BF59F8044B3D
:1091800014B90020BDE8F88FA34500D204E0ABEB92
:10919000040B09F10409F1E700BFD9F800005844B5
:1091A000F0E70246891E9069801E884201D800209F
:1091B00070475389D06A01FB0300F9E72DE9F047B6
:1091C00080460C4604F11A0002F0FCFC10B10020AD
:1091D000BDE8F087207800F03F00401E00EB8001E2
:1091E00001EBC0054FF00109002621E01849895D17
:1091F000081902F0E7FC0746B9F1000F11D0FF2D66
:109200000BD2384601F0D4FF824629466D1C38F84F
:10921000110001F0CDFF824501D00020D8E7B9460A
:1092200005E04FF6FF70874201D00020D0E7761CA2
:109230000D2EDBD3207800F0400038B1B9F1000FDB
:1092400004D038F8150008B10020C1E70120BFE7BD
:1092500030CE00080146002002E04910421CD0B286
:109260000129FAD170472DE9F04707468A463C6844
:10927000BAF1000F06D1266916B1A069B04217D81D
:10928000012615E05146384602F068FB8046B8F1E9
:10929000020F02D20120BDE8F08708F1010008B9F1
:1092A0004046F8E7A069404501D94046F3E75646F5
:1092B000207804282ED101223146204601F0E5FF16
:1092C00005460DB1681C08B92846E4E701231A4693
:1092D00029462046FFF7A3FE8146B9F1020F01D1CE
:1092E0000120D8E7B9F1010F02D14FF0FF30D2E7EA
:1092F000BAF1000F02D10220F8712CE0F8790228AF
:1093000029D1701C854226D0B868301AB861032074
:10931000F87120E0354600BF6D1CA069A84204D852
:109320000225B54201D90020B5E72946384602F0AA
:1093300015FB8046B8F1000F00D10BE0B8F1010F2A
:1093400002D008F1010008B94046A4E7B542E3D1D4
:109350000020A0E700BF2078042805D1F879022872
:1093600002D14FF0000912E04FF0FF3229462046AB
:1093700002F068FF8146B9F1000F08D1BAF1000F81
:1093800005D02A465146204602F05CFF8146B9F1DD
:10939000000F0DD12561D4E90510801E814202D253
:1093A0006069401E6061207940F00100207107E093
:1093B000B9F1010F02D14FF0FF3000E00120054666
:1093C000284668E72DE9F34F83B08146049800688A
:1093D0000190D9F840A000200646054600BF284667
:1093E0006D1C01990C5C202C03DB2F2C01D05C2C14
:1093F0000AD100E06D1C0198405D2F28FAD0019839
:10940000405D5C28F6D032E0FF2E03D3062005B085
:10941000BDE8F08FE4B2812C13DBE0B2FE2810DC53
:1094200028466D1C01990F5C07EB042084B2402F85
:1094300001DB7E2F05DD802F01DBFE2F01DD062005
:10944000E5E70121204601F067FE04460CB906203D
:10945000DDE7802C06DA214671A0FFF767FE08B130
:109460000620D4E73046761C2AF81040B7E700BF44
:109470000198411904980160202C01DA042000E0D1
:109480000020804608E0701E3AF81040202C02D0E0
:109490002E2C00D002E0761E002EF4D100BF00205A
:1094A0002AF816000EB90620B1E70B222021D9F8C0
:1094B000380002F064FD002500E06D1C3AF815004C
:1094C0002028FAD03AF815002E28F6D00DB148F031
:1094D000030800E0761E26B1701E3AF810002E2810
:1094E000F8D10020074602904FF0080B00BF284635
:1094F0006D1C3AF8104004B963E0202C03D02E2CE8
:1095000004D1B54202D048F00308F0E7029858456C
:1095100001D2B54214D1BBF10B0F02D148F00308C0
:109520004FE0B54201D048F00308B54200D948E009
:109530003546082002904FF00B0BB806070ED6E711
:10954000802C09DB204601F033FE0021009001F061
:10955000E3FD044648F00208FF2C11DDABF10100E9
:109560000299884204D848F00308CDF808B0BEE755
:109570002212D9F838300298411C02911A5419E08D
:1095800024B1214629A0FFF7D1FD18B15F2448F08E
:1095900003080FE0412C04DB5A2C02DC47F00207E1
:1095A00008E0612C06DB7A2C04DC47F00107A4F10B
:1095B000200084B2D9F838300298411C02911C5422
:1095C00095E700BFD9F838000078E52803D10520D9
:1095D000D9F838100870BBF1080F01D1B806070E92
:1095E00007F00C000C2803D007F00300032801D17A
:1095F00048F0020808F0020058B907F003000128FB
:1096000001D148F0100807F00C00042801D148F0FF
:109610000808D9F8380080F80B800020F7E6000031
:10962000222A3A3C3E3F7C7F000000002B2C3B3D31
:109630005B5D00002DE9F04704460E464022002104
:10964000204602F09CFC85202070C02084F8200079
:10965000304603F0C8F88246514604F1240002F077
:10966000C6FF402500274FF001084FF0010900BF59
:10967000C12228466D1C2254002228466D1C22540B
:1096800000BFB9F1000F06D036F817005FEA0009F5
:1096900001D0781CC7B26019494602F0A8FFAD1C82
:1096A00005F01F000028ECD108F1010000F0FF08D0
:1096B00036F817000028DBD184F8237084F8018085
:1096C000BDE8F0870146114A12884A434FF0E02373
:1096D0005A6100229A611A46126942F001021A6127
:1096E00000BF4FF0E022106900F001021AB100F44F
:1096F0008032002AF5D04FF0E022126922F00102F8
:109700004FF0E0231A6100229A6170472A0000207E
:109710002DE9F04104460E46D4F800800021204691
:1097200000F055FB05465DBB002700BF4046216B9E
:1097300002F02EFC054605B121E098F8000004284F
:1097400005D1606B0078012121EAD01009E0606B3F
:109750000078E52802D0606B007808B9012000E0AD
:10976000002020B1781C0746B04201D107E0002755
:109770000121204600F0DAF80546002DD6D000BFC2
:10978000042D00D107252846BDE8F0812DE9F04FD2
:1097900085B0044626680021204600F018FB0746E5
:1097A0001FB1384605B0BDE8F08F307804284CD1A1
:1097B000206C03F018F801903EE0F16801F12400FC
:1097C00002F000FA0199884200D035E0F06890F884
:1097D000230003904FF0400A002002901FE00AF09F
:1097E0001F0008B90AF1020AF16801EB0A0002F051
:1097F000E9F9009001F0DCFC8346226C029932F812
:10980000110001F0D5FC834500D00BE00398401E09
:10981000C0B203900AF1020A0298401C0290039819
:109820000028DCD100BF039828B9216C029831F8D8
:10983000100000B906E000BF0021204600F006F944
:109840000700BAD000BF3846ACE74FF0FF09CDF8AB
:1098500010904FF0FF30E06300BF3046216B02F004
:1098600097FB074607B15EE0606B05780DB90427EA
:1098700059E0606BC07A00F03F0884F80680E52D5F
:1098800005D008F0080040B1B8F10F0F05D04FF037
:10989000FF094FF0FF30E0633EE0B8F10F0F1FD13A
:1098A000206C98B305F0400038B1606B407B0490A9
:1098B00025F04005A946A06AE0634D450CD1606BD8
:1098C000417B0498814207D1616B206CFFF776FCE5
:1098D00010B1A9F1010000E0FF2000F0FF091BE03A
:1098E000B9F1000F06D1606B02F0BEFE0499884208
:1098F00000D118E0A06BC07A00F0010038B90B224B
:10990000D4E90D0102F01CFB08B90CE004E04FF0B3
:10991000FF094FF0FF30E0630021204600F006F819
:109920000746002F99D000BF38463BE72DE9F047A6
:10993000044689462568A06A00F12007206B40B1E3
:109940002878042801D1800601E04FF40010B842C5
:1099500002D80420BDE8F087C7F3080000286CD1C6
:10996000206B401C2063E06A38B92889B0EB571F90
:1099700063D8002020630420ECE76889401E00EAD9
:109980005720002859D12046E16A01F0E7FF06463A
:10999000012E01D80220DDE7701C08B90120D9E7AB
:1099A000A869B04243D8B9F1000F03D10020206369
:1099B0000420CFE72046E16AFFF755FC06460EB9C2
:1099C0000720C7E7012E01D10220C3E7701C08B9A8
:1099D0000120BFE7E07940F00400E071284602F082
:1099E0009BFE08B10120B5E74FF40072002105F19C
:1099F000340002F0C4FA4FF0000831462846FFF761
:109A0000D0FB28630CE00120E870284602F084FEB9
:109A100008B101209EE708F10108286B401C28636B
:109A200068894045EFD8286BA0EB08002863E66200
:109A300031462846FFF7B5FB2063A762C7F308014C
:109A400005F1340008446063002083E72DE9F05FEE
:109A500004460F460426D4F800804FF0FF0AD34690
:109A60006CE04046216B02F093FA064606B168E0CE
:109A7000606B05780DB9042663E098F800000428AF
:109A800013D117B1832D52D15BE0852D4FD1A06A40
:109A9000E063204602F0BAF806462EB9D8F80C006A
:109AA000007900F03F00A0714BE0606BC07A00F0DD
:109AB0003F0984F80690E52D0AD02E2D08D029F014
:109AC0002000082801D1012000E00020B84202D087
:109AD0004FF0FF0A2BE0B9F10F0F1CD105F0400049
:109AE00038B1606B90F80DB025F04005AA46A06A29
:109AF000E06355450BD1606B407B584507D1616BE6
:109B0000206C02F05BFB10B1AAF1010000E0FF2025
:109B100000F0FF0A0BE0BAF1000F04D1606B02F015
:109B2000A3FD584502D04FF0FF30E06309E000216B
:109B30002046FFF7FBFE064606B102E0206B002838
:109B40008FD100BF0EB1002020633046BDE8F09FEA
:109B50002DE9F04F99B004462668D4F838A0D4F81F
:109B600040B09AF80B0000F0A00018B1062019B020
:109B7000BDE8F08F4FF0000901E009F101093BF861
:109B800019000028F9D1307804285DD109F10E00C0
:109B90000F21B0FBF1F0871C39462046FFF7B8FDD6
:109BA00005460DB12846E2E7781E2022A16A02FB95
:109BB0001010E063E07900F0040000283ED0E07966
:109BC00000F00300E07171894902D4E904305918AA
:109BD00040F10000C4E90410204601F03BFB0546BB
:109BE0000DB12846C3E7214602A801F0F1FF054662
:109BF0000DB12846BBE7D4E90412CDE90012F168A3
:109C000001F13800DDE9002302F0C3FCD4E90412BD
:109C1000CDE90012F16801F12800DDE9002302F02E
:109C2000B8FCE07940F00100F16881F8210002A859
:109C300002F0E3FC05460DB1284698E75946F06866
:109C4000FFF7F8FC002092E70C22514615A802F01D
:109C500089F99DF85F0000F0010038B300208AF810
:109C60000B0020644FF001080DE043465A4615A949
:109C7000504601F00DFE2046FFF788FD054605B170
:109C800004E008F10108B8F1640FEED300BFB8F1A9
:109C9000640F01D107206AE7042D01D0284666E74A
:109CA0009DF85F008AF80B00C4F840B09DF85F0093
:109CB00000F0020030B109F10C000D21B0FBF1F011
:109CC000401C00E00120074639462046FFF720FDF2
:109CD000054645BB781E070025D0A06AA0EB4711BA
:109CE000204600F074F80546EDB9A06B02F0BCFC0C
:109CF000149000BF3046216B02F04AF9054605B1C9
:109D000010E0FAB2616B206C149B02F03DFB012065
:109D1000F07000212046FFF709FE054615B9781EB0
:109D20000700E7D100BFBDB93046216B02F030F922
:109D300005468DB920220021606B02F020F90B222C
:109D4000D4E90D0102F00EF9A06BC07A00F0180002
:109D5000616B08730120F070284608E72DE9F04197
:109D600004462668A76AE06B401C08B9002003E09F
:109D70002046E16B00F02BF805462DBB00BF3046B6
:109D8000216B02F005F9054605B119E03078042889
:109D900006D1606B007800F07F00616B087002E014
:109DA000E520616B08700120F070A06AB84200D312
:109DB00006E000212046FFF7B9FD0546002DDED064
:109DC00000BF042D00D102252846BDE8F0812DE911
:109DD000F04104460D4626683078042801D18006FB
:109DE00001E04FF40010A84202D905F01F0010B1A5
:109DF0000220BDE8F081A562A7682FB9307803285A
:109E000002DBB76A0020E07147B93089B0EB551F1B
:109E100001D80220EDE7B06A20631CE070894FEAA8
:109E2000402811E03946204601F098FD0746781C8D
:109E300008B90120DDE7022F02D3B069B84201D88A
:109E40000220D6E7A5EB08054545EBD2394630465A
:109E5000FFF7A7F92063E762206B08B90220C8E783
:109E6000206B00EB55202063C5F3080106F1340098
:109E7000084460630020BCE770B50446002514B1B7
:109E8000012C0BD103E0FDF7C7F8054608E0FBF70E
:109E9000BBFE4FF400500549088001E0012500BFDA
:109EA00000BF0DB1012070BD0020FCE74000002084
:109EB0002DE9F04706468946154646BBB9F1000F25
:109EC00009D0B9F1010F13D0B9F1020F05D0B9F1E2
:109ED000030F19D106E0002418E04FF40070286049
:109EE000002413E01D48B0F85000288000240DE045
:109EF0001A484FF400720023D0E912713846FBF77C
:109F000064F92860002401E0042400BF22E0012E4F
:109F10001FD1B9F1000F09D0B9F1010F11D0B9F17A
:109F2000020F05D0B9F1030F10D106E000240FE0B5
:109F30004FF40070288000240AE0082028800024C4
:109F400006E0074800882860002401E0042400BFE0
:109F500000E001242046BDE8F0870000C810002082
:109F6000400000202DE9F04107460E4615461C46EC
:109F70004FF0000814B90420BDE8F08117B1012F9B
:109F800022D112E0E2B229463046FDF727FC804696
:109F900007E0FDF741F8E2B229463046FDF71EFC26
:109FA0008046B8F1000FF4D111E009E069024FF4E6
:109FB00000723046FBF774FE6D1C06F50076641ED9
:109FC000002CF3D1A04602E04FF0010800BF00BF13
:109FD000B8F1000F01D10020CEE70120CCE7014607
:109FE000002070472DE9F04107460E4615461C46F5
:109FF0004FF0000814B90420BDE8F08117B1012F1B
:10A0000022D112E0E2B229463046FDF785FF8046B4
:10A0100007E0FDF701F8E2B229463046FDF77CFF84
:10A020008046B8F1000FF4D111E009E069024FF465
:10A0300000723046FBF7A0FE6D1C06F50076641E2C
:10A04000002CF3D1A04602E04FF0010800BF00BF92
:10A05000B8F1000F01D10020CEE70120CCE738B5E0
:10A060000546284600F08CFD04464CB96946284652
:10A0700002F07BFB04460CB900202860204638BD66
:10A080002046FCE72DE9F74F8EB08A4600220CA946
:10A090000EA801F04DF98346BBF1000F0CD10C99CD
:10A0A000109801600C98D0E90510801E814204D8F8
:10A0B0000C984069CAF8000093E000260C980078DC
:10A0C00001281BD102240C98029000BF214602A84F
:10A0D00001F044FC0746781C10B94FF0010B0CE06E
:10A0E000012F02D14FF0020B07E007B9761C601C6C
:10A0F00004460C9989698842E8D368E00C98007896
:10A10000042830D10C988069841E0C98D0F82C80DB
:10A11000002500BF4DB9414608F101080C9801F037
:10A1200037FF5FEA000B00D01BE0082000900C987E
:10A130003430405D01900BE0019800F0010000B95F
:10A14000761C0198401001900098401E0090641EFB
:10A15000009808B1002CEFD1681CC0F30805002C52
:10A16000D8D100BF33E00C9884690C98D0F82480D3
:10A170000025A94600BF7DB9414608F101080C98A9
:10A1800001F006FF8346BBF1000F00D01EE00C98E3
:10A1900000F134094FF400750C980078022808D1BA
:10A1A000484601F00FFD00B9761C09F10209AD1E09
:10A1B00009E0484601F0C9FC20F0704000B9761C67
:10A1C00009F104092D1F601E0400D4D100BFCAF894
:10A1D00000600C9846610C98007940F001000C99E1
:10A1E0000871584611B0BDE8F08F2DE9F04F8FB0DF
:10A1F000044615461E460DA9204602F0B6FA0E90FA
:10A200000E9818B994F829000E9018B10E980FB056
:10A21000BDE8F08FA06C00287CD04FF0FF3185EABC
:10A2200001007140084355D1A06C03900398006869
:10A2300005900398001D039002200490D4F808B004
:10A24000BBF1000F38D000BFCDF81CB00020089043
:10A250000498801C049000BFCDF824B00898401CDE
:10A2600008905946204601F079FB8346BBF1010F67
:10A2700003D8022084F82900C9E70BF1010018B9BE
:10A28000012084F82900C2E70998401C8345E3D0E7
:10A29000DDE9040188420BD8039908980860039807
:10A2A000001D03900399079808600398001D039010
:10A2B0000D9880695845C7D80498A16C0860DDE9FD
:10A2C0000401884203D80021039801608FE1112026
:10A2D0000E908CE1D4E90410491BB04101D2D4E9BD
:10A2E0000456C4E90C56002185EA01007140084378
:10A2F000ECD06F1E66F100033A462046FEF720FFC1
:10A30000A063A16B0D98FEF74CFF0690069828B944
:10A31000022000E04CE084F8290078E76F1E66F127
:10A3200000014FF4007200233846FAF71DFF0D9923
:10A330004989491E01400698081806904FF400729A
:10A340004FF00003D4E90C713846FAF70DFF0021F5
:10A350004A404B401A43B9D0E16B06988142B5D0D0
:10A3600094F8280000F0400090B1E26B0D99487815
:10A37000012304F14C01FFF735FE18B1012084F8E8
:10A38000290044E794F8280020F0400084F82800D1
:10A390000D994878012304F14C01069AFFF7E2FD7C
:10A3A00018B1012084F8290031E70698E0631EE126
:10A3B000D4E90410491BB04106D294F8280000F0FB
:10A3C000020008B9D4E90456D4E90C01CDE90A0128
:10A3D00000200C9020636063002185EA0100714039
:10A3E000084374D00D9840894FEA40290023DDE9E5
:10A3F0000A015840594008432DD06F1E66F10001F4
:10A400004A463846FAF7B0FE07468846DDE90A10A4
:10A41000491E60F100004A460023CDE900100846BD
:10A420000199FAF7A1FE381A78EB010813D3DDE998
:10A430000A104F1E60F10001A9F1010027EA000097
:10A440000021C4E90C01D4E90C31ED1A66EB0106D8
:10A45000D4F838A01BE0D4F808A0BAF1000F14D14A
:10A4600000212046FEF7FFFE8246BAF1010F03D11C
:10A47000022084F82900CAE60AF1010018B9012077
:10A4800084F82900C3E6C4F808A0C4F838A0BAF1DB
:10A49000000F63D035E094F8280000F0020050B1BE
:10A4A00051462046FEF7DFFE8246BAF1000F07D183
:10A4B00000264D462AE05146204601F04FFA8246DA
:10A4C0000AF1010020B9012084F829009FE645E047
:10A4D000BAF1010F03D90D988069504503D80220C5
:10A4E00084F8290093E6C4F838A0D4E90C2012EBD4
:10A4F000090240F10000C4E90C20B5EB090566F142
:10A5000000060020B9EB0501B041C4D300BFD4E977
:10A510000C1049197041C4E90C104FF4007200236B
:10A5200028463146FAF720FE00214A404B401A43A4
:10A5300014D051460D98FEF734FE0C900C9818B9C3
:10A54000022084F8290062E64FF4007200232846B6
:10A550003146FAF709FE0C9908440C904FF400724A
:10A560000023D4E90C713846FAF7FEFD00214A4079
:10A570004B401A432AD0E16B0C98814226D094F8C4
:10A58000280000F0400090B1E26B0D99487801235B
:10A5900004F14C01FFF726FD18B1012084F82900D1
:10A5A00035E694F8280020F0400084F828000D9942
:10A5B0004878012304F14C010C9AFFF7D3FC18B141
:10A5C000012084F8290022E60C98E063D4E90C13FA
:10A5D000D4E90420511A984109D2D4E90C01C4E904
:10A5E000040194F8280040F0200084F828000E9818
:10A5F0000DE60000F7B582B016460398019001A859
:10A6000001F06BFA0546002D02DA0B2005B0F0BD13
:10A610000E4850F825400CB100202070029810B16F
:10A620000020029908700949029841F82500029813
:10A6300008B1012E01D00020E8E7002202A903A8FA
:10A6400000F076FE07463846E0E7000020C1002013
:10A650002DE9F74396B0044616461CB9092019B0F7
:10A66000BDE8F0830020206006F01F06324603A9F3
:10A6700017A800F05DFE0546002D7DD103980490DB
:10A680004FF48C6000F086FD07460FB91120E6E715
:10A69000CDF848D0149707F500700499C86004A855
:10A6A000179901F071F805462DB91298C07A00F09B
:10A6B000800000B1062506F01C0000287ED045B1C0
:10A6C000042D03D104A8FFF743FA054646F0080617
:10A6D0000AE09DF8160000F0110008B1072503E01C
:10A6E00006F0040000B10825002D68D106F008002E
:10A6F000002864D001F0EFF981460398007804281F
:10A7000066D1039820600399C96801F1340001F013
:10A710001CFAA0600399C96801F1380001F021FA20
:10A72000C4E904010398C06890F8210000F0020019
:10A73000E0710399C96801F10800494601F01DFF65
:10A7400000200399C96808750399C96801F10C00D4
:10A75000494601F012FF00200399C968487520207E
:10A760000399C96808710399C96801F1340000218F
:10A7700001F003FF039900E0C6E0C96801F1380069
:10A780000022134601F005FF0399C96801F1280072
:10A790000022134601F0FDFE01200399C96881F8EB
:10A7A000210004A801F029FF0546002D5AD1A06818
:10A7B000002857D000222046A16801E041E051E086
:10A7C00001F044FE0546A068401E0399086149E077
:10A7D000119901F10E00494601F0CFFE119901F1E6
:10A7E0001600494601F0C9FE20201199C87211993E
:10A7F000039801F097F9804600221199039801F01F
:10A80000AAFE119901F11C00002101F0B6FE012001
:10A810000399C870B8F1000F24D00398D0F8309095
:10A820000022414604A801F011FE0546D5B949466B
:10A83000039801F0ADFB0546A8F1010003990861FA
:10A8400010E07DB99DF8160000F0100008B1042555
:10A8500008E006F0020028B19DF8160000F00100A3
:10A8600000B107254DB906F0080008B146F02006F2
:10A870000398006B206411986064EDBB0398007826
:10A88000042821D10399C96801F1340001F05DF970
:10A89000A0600399C96801F1380001F062F9C4E9C8
:10A8A00004010398C06890F8210000F00200E071F4
:10A8B0000698E061089820F0FF009DF81710084303
:10A8C0002062139860620CE01199039801F02AF954
:10A8D000A060119901F11C0001F037F90021C4E9D1
:10A8E00004010020A06484F8290020636063E06311
:10A8F00084F82860039800E003E020600398C08893
:10A90000A080384600F04DFC2846A8E60FB42DE99B
:10A91000F04F9FB0289801900020029003902AA841
:10A920001E9000BF299810F8014B299004B90DE141
:10A93000252C04D0214601A801F066FDF2E7002095
:10A9400006468146299810F8014B2990302C05D1F4
:10A950000126299810F8014B299006E02D2C04D1EE
:10A960000226299810F8014B299009E009EB89008B
:10A9700004EB4000A0F13009299810F8014B299010
:10A98000302C01DB392CF1DD6C2C01D04C2C05D1A5
:10A9900046F00406299810F8014B299004B9D5E037
:10A9A0002546612D04DB7A2D02DCA5F12000C5B21D
:10A9B0004F2D49D006DC422D43D0432D38D0442DB5
:10A9C0004CD144E0532D04D0552D41D0582D45D1C4
:10A9D00041E01E9850F804BB1E904FF0000801E0C3
:10A9E00008F101081BF808000028F9D106F0020060
:10A9F00048B903E0202101A801F006FD404608F116
:10AA000001084845F6D304E01BF8011B01A801F03A
:10AA1000FBFC9BF800000028F6D103E0202101A8F0
:10AA200001F0F2FC404608F101084845F6D379E709
:10AA30001E9810F8042BD1B21E9001A801F0E4FC7E
:10AA400070E702201D900EE008201D900BE000BF73
:10AA50000A201D9007E010201D9004E0214601A867
:10AA600001F0D2FC5EE700BF06F0040028B11E989A
:10AA700000681E99091D1E910CE0442D05D11E98F9
:10AA800000681E99091D1E9104E01E9800681E9919
:10AA9000091D1E918246442D06D10AF0004018B1CE
:10AAA000CAF1000A46F00806002700BF1D98BAFB4D
:10AAB000F0F100FB11A0C5B21D98BAFBF0FA092D08
:10AAC00006DD782C01D1272000E007202844C5B2FC
:10AAD00005F13000C2B238467F1C14A90A54BAF1FD
