:020000040800F2
:10000000C8C2002045010008D1120008DF0D000819
:10001000CD120008B50200086F4A00080000000079
:10002000000000000000000000000000212F000878
:100030005106000800000000591300083530000880
:100040005F0100085F0100085F0100085F01000810
:100050005F0100085F0100085F0100085F01000800
:100060005F0100085F0100085F0100085F010008F0
:100070005F0100085F0100085F0100085F010008E0
:100080005F0100085F0100085F0100085F010008D0
:100090005F0100085F0100085F0100085F010008C0
:1000A0005F0100085F0100085F0100085F010008B0
:1000B0005F0100085F0100085F0100085F010008A0
:1000C0005F0100085F0100085F0100085F01000890
:1000D0005F010008AD4700085F0100085F010008EC
:1000E0005F0100085F0100085F0100085F01000870
:1000F0005F0100085F0100085F0100085F01000860
:100100005F010008F11500085F0100085F010008A9
:100110005F0100085F0100085F0100085F0100083F
:100120005F0100085F0100085F0100085F0100082F
:10013000DFF80CD000F0ACF800480047F168000888
:10014000C8C200200648804706480047FEE7FEE791
:10015000FEE7FEE7FEE7FEE7FEE7FEE7FEE7FEE777
:1001600075300008310100082DE9F05F05460020D8
:1001700092469B4688460646814640241BE0284618
:1001800041464746224600F072F853465A46C01A86
:10019000914110D311461846224600F059F82D1A05
:1001A00067EB01084F4622460120002100F050F87D
:1001B00017EB00094E41201EA4F10104DFDC484684
:1001C00031462A464346BDE8F09F2DE9F041002420
:1001D000061B254671F1000605DA01240027D0EB45
:1001E000070067EB0101161E73F1000605DA002710
:1001F000D2EB0702012567EB0303FFF7B5FF864645
:100200000E4617469C46AC4204D00025D0EB050EA6
:1002100065EB010624B10020D2EB000760EB030C74
:10022000704631463A466346BDE8F08140EA010334
:100230009B0703D009E008C9121F08C0042AFAD29C
:1002400003E011F8013B00F8013B521EF9D2704760
:10025000202A04DB203A00FA02F100207047914086
:10026000C2F1200320FA03F3194390407047202A7B
:1002700004DB203A21FA02F00021704721FA02F350
:10028000D040C2F120029140084319467047000057
:10029000064C074D06E0E06840F0010394E80700D3
:1002A00098471034AC42F6D3FFF746FF683903088D
:1002B0008839030800BFFEE770B500254FF480348D
:1002C00004E0802001F080F900B103E02000A4F1F7
:1002D0000104F6D100BF0CB9032070BD40F2FF50FD
:1002E00001F02CF92846F8E770B5044605E01548FA
:1002F000456B05F0450000B100E0F8E700BF0420C1
:1003000001F062F920B1042001F018F9032070BD5A
:10031000012001F059F920B1012001F00FF901206D
:10032000F5E708480069A04201D01020EFE740F24D
:10033000FF50044988630846406908210840C0B25C
:10034000E5E700000080014070B500264FF48035DD
:1003500005E01148446B04F0450000B103E02800BB
:10036000A5F10105F5D100BF15B104F0040028B1D5
:100370000326042001F0E2F8304670BD012001F0B0
:1003800023F918B10126012001F0D8F840F2FF50FE
:1003900001F0D4F83046F0E70080014010B505E0E8
:1003A0000B48446B04F0450000B100E0F8E700BFE3
:1003B000042001F009F920B1042001F0BFF8032066
:1003C00010BD40F2FF5001F0B9F80020F8E700003E
:1003D000008001402DE9F04105460E464FF000082F
:1003E00005E01F48476B07F0450000B100E0F8E763
:1003F00000BF042001F0E8F828B1042001F09EF8C5
:100400000320BDE8F081012001F0DEF820B10120D9
:1004100001F094F80120F4E711480069A84201D0E6
:100420001020EEE740F2FF5001F088F80C484469D4
:1004300004F4604018B9200C30804046E1E704F431
:10044000005008B11320DCE704F4804008B110200C
:10045000D7E704F4004008B10F20D2E74046D0E7C8
:100460000080014070B500264FF4803505E00F484C
:10047000446B04F0450000B103E02800A5F101053C
:10048000F5D100BF15B104F0040028B10326042003
:1004900001F054F8304670BD04F0400018B1002659
:1004A000402001F04BF83046F5E7000000800140A5
:1004B00021B1026842F00102026004E002684FF6D6
:1004C000FE731A400260704701684FF6FE721140D9
:1004D00001600021016041608160C1604B49884238
:1004E00008D14A490839496841F00F01474A083A9A
:1004F00051608AE045491431884208D1434908399E
:10050000496841F0F001414A083A51607DE03F49B5
:100510002831884208D13D490839496841F4706161
:100520003A4A083A516070E038493C31884208D173
:1005300036490839496841F47041344A083A5160F3
:1005400063E032495031884208D13049083949685E
:1005500041F470212D4A083A516056E02B4964312C
:10056000884208D129490839496841F47001274A6D
:10057000083A516049E025497831884208D1234939
:100580000839496841F07061204A083A51603CE0FE
:100590001F49884206D1011F096841F00F01021F5F
:1005A000116032E01A491431884208D11849091FF4
:1005B000096841F0F001164A121F116025E0144944
:1005C0002831884208D11249091F096841F4706135
:1005D0000F4A121F116018E00D493C31884208D1C2
:1005E0000B49091F096841F47041094A121F116043
:1005F0000BE007495031884207D10549091F0968B6
:1006000041F47021024A121F116070470800024035
:100610000804024010B50022026847F6F0739A43BE
:100620000C6A8B6823430C6923434C6923438C6910
:100630002343CC6923434C6A23438C6A23431A43E4
:100640000260CB6843600B6883604B68C36010BD79
:100650007047000010B50446214610A004F00AFAC5
:10066000240300F037F900F0CFF800200D490860AE
:10067000202002F0EDFBC4F3074002F0E9FBC4F3D5
:10068000072002F0E5FBE0B202F0E2FB01200649A0
:10069000C1F8B00100F0B8F810BD000066653A2559
:1006A000780D0A00B08121420080214208B5012165
:1006B0004FF4847000F072FE4FF48050ADF80000EB
:1006C00010208DF8030003208DF8020069461248BF
:1006D00000F0F8FA4FF480510F4800F07EFB8020C4
:1006E000ADF8000069460D4800F0ECFA80210B4897
:1006F00000F073FB01200A49086002F063FB002050
:1007000002F0C2FB00F046F806490880084601885E
:1007100005A004F0AFF908BD000C01400020014025
:10072000B081214220000020CAB9D3C3B5C4464CD1
:10073000415348D0BEC6AC4944CAC7A3BA25580DD8
:100740000A0000002DE9F04106460C46174600203D
:100750000F490860032002F07BFBC4F3074002F05E
:1007600077FBC4F3072002F073FBE0B202F070FBEA
:10077000002505E0FF2002F06BFB7055681C85B278
:10078000BD42F7DB012002490860BDE8F0810000AE
:10079000B081214210B5002400200E49086090204D
:1007A00002F056FB002002F053FB002002F050FB49
:1007B000002002F04DFBFF2002F04AFB44EA002437
:1007C000FF2002F045FB044301200349C1F8B001BA
:1007D000204610BDB08121420080214210B5002486
:1007E000002007490860052002F032FBFF2002F0DC
:1007F0002FFB044601200349C1F8B001204610BD7B
:10080000B08121420080214210B500BFFFF7E6FF12
:1008100000F001000028F9D110BD00002DE9F05FC3
:1008200081460F461646DFF8A8B04FEA1738C7F3DF
:100830000B0ACAF58054A64200DC344644E04FEA75
:1008400008314FF480525846FFF77CFF002508E03E
:100850000AEB05001BF80000FF2800D003E0681C2D
:1008600085B2A542F4DB00BFA54216DA4046FFF789
:10087000F1FE002507E019F8050005EB0A010BF869
:100880000100681C85B2A542F5DB4FEA08314FF440
:100890008052584600F02EF804E022463946484679
:1008A00000F028F8A64200D10FE008F101084FF04F
:1008B000000AA1442744301B86B2B6F5805F02DDF2
:1008C0004FF4805400E03446B9E700BFBDE8F09F24
:1008D0006800002010B5002004490860062002F0DE
:1008E000B7FA01200249C1F8B00110BDB081214220
:1008F000008021422DE9F04107460E461446F0B231
:10090000C0F58075AC4200DC254612E02A4631462F
:10091000384600F013F8AC4200D10BE02F442E44CF
:10092000601B84B2B4F5807F02DD4FF4807500E077
:100930002546EBE700BFBDE8F08100002DE9F0415E
:1009400006460C461746FFF7C5FF00200F49086012
:10095000022002F07DFAC4F3074002F079FAC4F3F2
:10096000072002F075FAE0B202F072FA002504E006
:10097000705D02F06DFA681C85B2BD42F8DB0120A3
:1009800002490860FFF740FFBDE8F081B0812142D5
:1009900010B500240EE04FF40D71002006F040FA6F
:1009A000184941F82400084650F8240000B903E033
:1009B000601CC4B2042CEEDB00BF4FF414710020A5
:1009C00006F02EFA104908604FF41471002006F06A
:1009D00027FA0E4908604FF40071002006F020FA53
:1009E0000B490860042C0AD10748006838B1074851
:1009F000006820B10846006808B1002010BD012041
:100A0000FCE7000050BD00205000002054000020F2
:100A10006000002051B18200A2F1C042126842F091
:100A200001038200A2F1C042136009E08200A2F13A
:100A3000C0421268034B1A408300A3F1C0431A60FE
:100A400070470000FEFF0F00D0E901121143C26899
:100A50001143026911434269114382691143C2691A
:100A60001143026A1143426A1143826A1143C26A06
:100A70001143026B114302689200A2F1C04211605F
:100A8000816808290BD101688900A1F1C04109687A
:100A900041F0400201688900A1F1C0410A60416B48
:100AA0000968426B526841EA0211426B926841EA5E
:100AB0000221426B928941EA0241426B128A41EA69
:100AC0000251426B127D41EA0261426B926911430D
:100AD0000268521C9200A2F1C0421160C16AB1F5D5
:100AE000804F1BD1816B0968826B526841EA021109
:100AF000826B926841EA0221826B128A41EA0251BA
:100B0000826B127D41EA0261826B92691143026835
:100B10009200A2F1C042C2F8041107E06FF07042E7
:100B200001688900A1F1C041C1F8042170470000AB
:100B30002DE9FC4107460D460026002400200090C8
:100B4000019008205B4908601020486040208860C0
:100B50000020C8604FF480600861084600F06AFD1C
:100B60001020FFF7C1FB044614B12046BDE8FC810C
:100B70005148008800044F490860372048604020F1
:100B800088600020C8604FF480600861084600F06B
:100B900051FD3720FFF7A8FB04460CB12046E5E7DE
:100BA0004FF0FF30454908600820486030208860D9
:100BB0000220C8600020086101204861084600F05A
:100BC000D9FC00203B490860332048604020886001
:100BD0000020C8604FF480600861084600F02AFDDC
:100BE0003320FFF781FB04460CB12046BEE70CE042
:100BF0004FF4001000F0E8FC38B100F015FD4DF89E
:100C00002600761C022E00D306E02D48406B40F2F1
:100C10002A6108400028EBD000BF082000F0D4FC77
:100C200020B1082000F08AFC04209FE7022000F099
:100C3000CBFC20B1022000F081FC022096E72020AE
:100C400000F0C2FC20B1202000F078FC06208DE7E7
:100C50004FF4007000F0B8FC28B14FF4007000F0C1
:100C60006DFC072082E740F2FF5000F067FC00981F
:100C70000006009901F47F4140EA0120009901F447
:100C80007F0140EA1120009940EA116068600198F4
:100C90000006019901F47F4140EA0120019901F425
:100CA0007F0140EA1120019940EA11602860204646
:100CB0005CE7000080100020280000209410002035
:100CC000008001402DE9F041024600250026002069
:100CD00000230024002791F803C00CF00F0591F8C1
:100CE00003C00CF0100CBCF1000F03D091F802C04F
:100CF0004CEA050591F800C0BCF1000F31D0146832
:100D000000202BE04FF0010C0CFA00F3B1F800C00A
:100D10000CEA03069E4220D183004FF00F0C0CFA20
:100D200003F7BC4305FA03FC4CEA040491F803C042
:100D3000BCF1280F06D14FF0010C0CFA00FCC2F8F0
:100D400014C00AE091F803C0BCF1480F05D14FF080
:100D5000010C0CFA00FCC2F810C0401C0828D1D3CA
:100D60001460B1F800C0BCF1FF0F34DD54680020FE
:100D70002EE000F1080C4FF0010808FA0CF3B1F86E
:100D800000C00CEA03069E4221D183004FF00F0CF5
:100D90000CFA03F7BC4305FA03FC4CEA040491F88F
:100DA00003C0BCF1280F05D100F1080C08FA0CF8BB
:100DB000C2F8148091F803C0BCF1480F07D100F1CC
:100DC000080C4FF0010808FA0CF8C2F81080401C1B
:100DD0000828CED35460BDE8F0810161704700BFA0
:100DE000FEE772B6704762B6704700001CB5044655
:100DF00000200190009021480088000420490860EC
:100E00000D204860402088600020C8604FF480605A
:100E10000861084600F00EFC1A48406B009002E0A2
:100E20001848406B0090009800F045000028F7D06B
:100E3000012000F0C9FB20B1012000F07FFB012060
:100E40001CBD042000F0C0FB20B1042000F076FBA4
:100E50000320F5E70B4800690D2801D01020EFE7CB
:100E600040F2FF5000F06AFB06484069019001988B
:100E7000C0F3432020700020E2E70000280000209B
:100E8000801000200080014070B506460F48408861
:100E9000401E83B20D480088401E82B200210846E1
:100EA00000F08AF800240CE0002504E0304600F051
:100EB000E1F9681C85B205484088A842F6DC601C50
:100EC00084B202480088A042EEDC70BD1800002009
:100ED00000B502461048827172B94FF4585000F0C4
:100EE000BDF9002000F0C0F94FF448700A4948806D
:100EF0004FF4F07008800DE04FF4585000F0AEF958
:100F0000602000F0B1F94FF4F070034948804FF4CD
:100F10004870088000BD00001800002070B504462D
:100F20000D4616462B4622462946204600F044F838
:100F3000304600F09FF970BD2DE9F04304460D46A0
:100F400016461F46DDF81C80B44201DCBD4201DDBF
:100F5000BDE8F0833B4632462946204600F02CF897
:100F6000301B401C84B2781B401C85B20BE0A946A4
:100F700002E0404600F07EF95FEA0900A9F10101B4
:100F80001FFA81F9F5D12000A4F101018CB2EED154
:100F900000BFDDE710B50246012000E050430B0022
:100FA000A1F10104E1B2F9D110BD000001480088AF
:100FB000704700000008006C30B504460D464FF441
:100FC000285000F04BF9201200F04EF942F60120B3
:100FD00000F044F9E0B200F047F942F6022000F0D8
:100FE0003DF9101200F040F942F6032000F036F906
:100FF000D0B200F039F94FF42C5000F02FF928123C
:1010000000F032F942F6013000F028F9E8B200F0C1
:101010002BF942F6023000F021F9181200F024F901
:1010200042F6033000F01AF9D8B200F01DF94FF47F
:10103000305000F013F930BD2DE9F84F80460E46D0
:1010400017461C46B3462046E31704EB5373DB10E8
:1010500021464FEAE47C04EB5C7C4FEAEC0CA4EB09
:10106000CC0CBCF1000F02D04FF0010C01E04FF0AE
:10107000000C6344224604EBD27C4FEA6C0C03FB69
:101080000CF3DBB20093A7F12000C7B2002556E0B5
:101090000C2C07D107EB47002B4901EB800010F81F
:1010A000059013E0102C05D1284800EB071010F82C
:1010B00005900BE0182C07D107EBC700244901EB82
:1010C000800010F8059001E0BDE8F88F4FF0000AAD
:1010D0002FE009F0800030B11E48028831464046BA
:1010E000FFF71CFF07E00A9828B91B480288314621
:1010F0004046FFF713FF4FEA49604FEA1069701C42
:1011000086B216484088B04200DCDDE7A6EB0B0053
:10111000A0420AD15E4608F101001FFA80F80F488C
:101120000088404500DCCFE706E00AF1010000F04E
:10113000FF0ABAF1080FCCDB00BF681CC5B20098EB
:101140008542A5DB00BFBFE774710008E8750008A1
:10115000D87B000814000020160000201800002092
:101160002DE9FF4F81B0074691461E460E9D4FF078
:10117000000A002439E0301B401EC1B20A20FFF7EC
:1011800009FFB9FBF0F00A21B0FBF1F201FB1208F4
:10119000BAF1000F16D1701EA04213DDB8F1000F96
:1011A0000ED10020AB4605EBDB71491001FB047149
:1011B000009088B22B4620220299FFF73DFF12E0F3
:1011C0004FF0010A0020AB4605EBDB71491001FB33
:1011D0000471009088B208F13001CAB22B4602991E
:1011E000FFF72AFF00BF601CC4B2B442C3DB05B0E6
:1011F000BDE8F08F2DE9F84704460D469046994624
:10120000DDE9096704F0FF0A08EB04001FFA80F823
:1012100009EB05001FFA80F916E0444502DB54464D
:10122000A81985B24D4500DB14E0002000903A7803
:10123000334629462046FFF7FFFE304606EBD071C5
:1012400004EB61018CB27F1C38787E2802DC387890
:101250002028E2DA00BFBDE8F887000001490880D5
:1012600070470000FE07006C0149088070470000CD
:101270000008006C01490880704700000008006CFD
:1012800008B50121482000F089F82020ADF80000C1
:1012900010208DF8030003208DF8020069460948EC
:1012A000FFF710FD20210748FFF797FD2020ADF83C
:1012B000000069460448FFF705FD20210248FFF7BA
:1012C0008CFD08BD000C01400018014000BFFEE786
:1012D0007047000070B5002100230F22C47804B3CA
:1012E000154C246804F4E064C4F5E064210AC1F1FB
:1012F0000403CA40447804FA03F18478144021437B
:1013000009010E4C0678A155047804F01F0501244C
:10131000AC4005786D11AD0005F1E025C5F8004140
:1013200009E0047804F01F050124AC40044D067860
:10133000761145F8264070BD0CED00E000E400E0B9
:1013400080E100E002490143024A11607047000059
:101350000000FA050CED00E07047000029B1064AD4
:1013600052690243044B5A6104E0034A52698243C2
:10137000014B5A61704700000010024029B1064A33
:10138000D2690243044BDA6104E0034AD269824322
:10139000014BDA61704700000010024029B1064A93
:1013A00092690243044B9A6104E0034A92698243C2
:1013B000014B9A61704700000010024030B50021D7
:1013C0000022002400232D4D6D6805F00C0121B191
:1013D000042905D0082923D105E0294D056022E024
:1013E000274D05601FE0254D6D6805F47012234DF3
:1013F0006D6805F48034022505EB92421CB9214D3D
:10140000554305600BE01D4D6D6805F400351DB1B9
:101410001C4D5543056002E0194D5543056002E03F
:10142000174D056000BF00BF144D6D6805F0F00159
:101430000909154D6B5C0568DD4045600F4D6D6811
:1014400005F4E061090A104D6B5C4568DD4085607C
:101450000A4D6D6805F46051C90A0B4D6B5C456817
:10146000DD40C560054D6D6805F44041890B074DB1
:101470006B5CC568B5FBF3F5056130BD001002403B
:1014800000127A0000093D0000000020100000203A
:101490007CB50546002400200090019000260DB187
:1014A000022600E000262248406900F0007008B1E2
:1014B0000E207CBD1F49098888B26946FFF738FBBA
:1014C00004460CB12046F4E7019800F4802060B394
:1014D00018480088000418490860372048604020F8
:1014E00088600020C8604FF480600861084600F002
:1014F000A1F83720FEF7F8FE04460CB12046D8E7E5
:101500000D48066006200C49486040208860002095
:10151000C8604FF480600861084600F08BF8062030
:10152000FEF7E2FE04462046C3E72520C1E700009F
:1015300000800140280000208010002001498863BD
:1015400070470000008001400149086070470000BA
:10155000A00030420146034A506820F0FF000843D3
:1015600050607047008001400149086070470000EA
:101570008C05304200210A4B02685A6242689A6226
:101580001A46D16A21F0F701D0E902231A43036910
:101590001A4343691A431143014AD162704700005C
:1015A0000080014000200649086048608860C860EB
:1015B00048628862C862034888630020C863704735
:1015C00000800140FF07C00001460020034A526B23
:1015D0000A400AB1012000E000207047008001406D
:1015E0000248006800F003007047000000800140DE
:1015F00010B500F053FC10BD00210A4A516847F6AF
:10160000FF629143027D83681A4343681A43C368AB
:101610001A4303681A4303691A431143014A51608C
:1016200070470000008001400148006870470000DA
:10163000808001400021094B02689A601A46D168F7
:101640006FF30A01D0E901231A43C3681A430369FF
:101650001A431143014AD1607047000000800140E5
:101660000549096821F00301034A11601146096820
:10167000014311607047000000800140014908608B
:10168000704700008080014070B58CB006460C4663
:10169000154601210220FFF761FE1348FEF714FFF3
:1016A00000211148FEF704FF1048019002960395AF
:1016B000A0080490002005908020069080000790EC
:1016C00080000890002009904FF400500A900020FC
:1016D0000B9001A90448FEF79DFF00210248FEF788
:1016E000E7FE0CB070BD0000440402408080014061
:1016F00070B50446002516480078032801D127203C
:1017000070BD1348007838B111480078012803D023
:101710000F480078022818D1022C01D32720EFE7C8
:10172000E0B2FFF7B5FE05467DB90A48406820F4EF
:10173000C0500849486008464068A1B240EAC1204C
:10174000044948600846406848602846D8E70000D9
:101750002400002000800140F0B501460020002256
:10176000BE4B1B7881F85630BD4B1B88A1F8543016
:10177000BC4B1B681A0E93090B70C2F383034B70AA
:1017800002F003038B70B74B1B68C3F30742CA70A8
:10179000B44B1B88C3F307220A71B24B1A784A7103
:1017A0005B681A0E1301CB80AE4B5B68C3F3074234
:1017B000CB8843EA1213CB8002F00F030B72A94BC4
:1017C0009B88C3F30722D3094B72C2F380138B7239
:1017D000C2F34013CB72C2F300130B7300234B739D
:1017E0009E4B1B783BB19D4B1B78012B03D09B4B31
:1017F0001B78032B4FD193071B0D0B61994B1A7963
:101800000B6943EA82030B61964B9B681A0E0B69C6
:1018100043EA92130B61C2F3C2030B7502F0070394
:101820004B75904B9B68C3F3074253098B75C2F30A
:101830008203CB7593075B0F0B768A4B1B89C3F32F
:1018400007220B7E43EAD2130B760B695B1C002444
:10185000C1E912340B7E9B1C012404FA03F3DC174C
:10186000D1E91256A5FB037C06FB03C305FB043339
:10187000C1E912730C7A0123A3400B650024D1E95E
:1018800012650B6DA6FB037C05FB03C306FB04334B
:10189000C1E912732EE0714B1B78022B2AD1714BD8
:1018A0001A7993069B0A0B616E4B9B681A0E0B69A3
:1018B00043EA02230B616B4B9B68C3F307420B693E
:1018C00013430B61674B1B89C3F307220B695B1C36
:1018D0004FF40074A3FB04464FF480630025A4FB7F
:1018E000037C06FB03C304FB0533C1E912734FF409
:1018F00000730B65C2F3801301F8193F93065B0E6A
:101900004B70584B1A7A4B7843EAD2134B7002F063
:101910007F038B70534BDB681A0ED309CB70C2F375
:1019200041130B71C2F382034B7193071B0F8B7131
:101930004C4BDB68C3F307428B7943EA92138B71FC
:10194000C2F34013CB7100230B7202F001034B7200
:10195000444B9B89C3F30722D3098B72C2F38013D4
:10196000CB72C2F340130B73C2F300134B73C2F379
:1019700081038B7302F00303CB733A4B1A7B53083A
:101980000B7401234B74384B1B681A0ECA74193937
:10199000354B1B68C3F307421402CC85324B1B88BE
:1019A000C3F30722CB8D1343CB852F4B1A78140634
:1019B0000C635B681A0E0B6B43EA02440C632A4B00
:1019C0005B68C3F307420B6B43EA02240C63264BAC
:1019D0009B88C3F307220B6B13430B63224B1A79CB
:1019E00034235A54204B9B681A0E35235A541E4BED
:1019F0009B68C3F3074214068C631B4B1B89C3F31C
:101A000007228B6B43EA02448C63174B1A7A8B6B69
:101A100043EA02248C63144BDB681A0E8B6B13436E
:101A20008B63114BDB68C3F307423C235B5C43EAE7
:101A300012143C235C5413071C0DCC870A4B9B8962
:101A4000C3F30722CB8F1343CB87074B1A7B540872
:101A500040235C54012441235C54F0BD2400002049
:101A600028000020AC100020BC1000207CB5002510
:101A7000002401213020FFF791FC012140F20240B7
:101A8000FFF76CFC4FF4F850ADF8000018208DF80B
:101A9000030003208DF8020069463048FFF712F971
:101AA0000420ADF8000018208DF8030003208DF805
:101AB000020069462A48FFF705F98020ADF80000CA
:101AC00048208DF8030003208DF802006946244861
:101AD000FFF7F8F8FFF766FD31208DF804000020CD
:101AE0008DF805008DF8060001208DF8070001A88B
:101AF000FFF7F0FB00F0E4F8044614B900F036F804
:101B000004461CB91748FFF727FE044634B91549A7
:101B1000B1F85410080400F04BFD04461CB9012034
:101B2000FFF7E6FD04461CB10F480078032812D1E8
:101B30000C4890F8560020B10A4890F85600012849
:101B400001D10A2500E004252846FFF703FD002007
:101B500000F046FD044620467CBD00000010014018
:101B600000140140D01000202400002038B50024CB
:101B700001200090FFF734FD08B9252038BD4A4800
:101B80000078042821D000204849086002204860DD
:101B9000C02088600020C8604FF48060086108465B
:101BA000FFF748FDFEF7D0FB04460CB12046E5E701
:101BB0003F4840693F4908603D48806948603C486B
:101BC000C06988603A48006AC8603748007858B1F0
:101BD00035480078012807D033480078062803D01C
:101BE00031480078022816D10020304908600320CF
:101BF0004860402088600020C8604FF48060086121
:101C00000846FFF717FD69460320FEF7E3FB04468D
:101C10000CB12046B2E724480078032816D1BDF85D
:101C200000000004214908600320486040208860CB
:101C30000020C8604FF4806008610846FFF7FAFC96
:101C4000FEF782FB04460CB1204697E71648007861
:101C5000042827D0BDF8000017490860BDF800002F
:101C600000041249086009204860C02088600020F4
:101C7000C8604FF4806008610846FFF7DBFCFEF7A0
:101C800063FB04460CB1204678E7094840690B49DC
:101C900008600748806948600548C0698860044852
:101CA000006AC860002069E724000020801000203E
:101CB00000800140BC10002028000020AC10002053
:101CC0002DE9F0470027002400260025A046A14664
:101CD000B2206C4908750020086048608860C860C0
:101CE00008610846FFF788FC0320FFF7B9FC0120D4
:101CF000FFF72AFC00BF12E000206349086048603B
:101D00008860C8604FF4806008610846FFF792FC65
:101D1000FEF7D2FA044604B903E0781CC7B24A2F92
:101D2000EADB00BF14B12046BDE8F0874FF4D57060
:101D30005549086008204860402088600020C8603D
:101D40004FF4806008610846FFF774FCFEF78AFBD9
:101D5000044624B901204D4908704FF08049002005
:101D60004949086037204860402088600020C860EA
:101D70004FF4806008610846FFF75CFC3720FEF7EF
:101D8000B3FA0446002C4BD134E000203E490860F1
:101D900037204860402088600020C8604FF4806091
:101DA00008610846FFF746FC3720FEF79DFA044617
:101DB0000CB12046B8E7364849EA000032490860CD
:101DC00029204860402088600020C8604FF480606F
:101DD00008610846FFF72EFCFEF7E0FA04460CB156
:101DE0002046A1E72B484669012080EAD67080F0A2
:101DF00001086D1CB8F1000F03D14FF6FF7085424A
:101E0000C3D34FF6FF70854202D31B2420468BE7D5
:101E100006F08040060032D002201C4908702EE0F7
:101E20001CE01D4818490860012048604020886077
:101E30000020C8604FF4806008610846FFF7FAFB95
:101E4000FEF7ACFA04460CB120466DE7114846692E
:101E5000012080EAD67080F001086D1CB8F1000FF7
:101E600003D14FF6FF708542DBD34FF6FF708542FA
:101E700002D31B24204657E703200449087020465C
:101E800052E700006810002080100020240000208D
:101E900000001080008001400080FF8010B549489C
:101EA000406B00F4807070B347480078012814D16B
:101EB0000020464908600C204860402088600020CF
:101EC000C8604FF4806008610846FFF7B3FB0C2040
:101ED000FEF70AFA3E49087002E000203C4908700B
:101EE0003848806B40F48070364988630846C06B80
:101EF0004CF23A3188433349C863012035490870B0
:101F00003348007810BDFFE70220FFF75DFB68B1A2
:101F10000220FFF713FB2B48C06B4CF23A31884389
:101F20002849C86302202A490870EBE70820FFF718
:101F30004BFB68B10820FFF701FB2248C06B4CF255
:101F40003A3188431F49C863042021490870D9E702
:101F50002020FFF739FB68B12020FFF7EFFA19487E
:101F6000C06B4CF23A3188431649C86306201849C1
:101F70000870C7E71020FFF727FB68B11020FFF7B4
:101F8000DDFA1048C06B4CF23A3188430D49C86302
:101F900005200F490870B5E74FF40070FFF714FBF8
:101FA00070B14FF40070FFF7C9FA0648C06B4CF2ED
:101FB0003A3188430349C863072005490870A1E7FF
:101FC00000209FE7008001402D00002080100020AD
:101FD0002E0000202F0000202DE9F84F81461746E3
:101FE00098460A9C4FF0000AD3464D464FF0FF3604
:101FF000B9F1000F02D12620BDE8F88F00208249F8
:10200000C86282480078022805D10402780A40EAB2
:10201000C8574FEA682800207D4988604860401E04
:102020000860012048610020C86008610846FFF789
:10203000A1FA7548406900F0007008B10E20DBE796
:10204000002C21DDB4F5006F1EDC601E2040D8B9E5
:10205000204602F02CFF00906E48046010206D496D
:102060004860402088600020C8604FF480600861AC
:102070000846FFF7DFFA1020FEF736F98246BAF17C
:10208000000F03D05046B7E72620B5E700980001BF
:102090005F498860084644604FF0FF3008600120C7
:1020A00048610220C860002008610846FFF762FA14
:1020B0005848076011205749486040208860002038
:1020C000C8604FF4806008610846FFF7B3FA11203A
:1020D000FEF70AF98246BAF1000F01D050468BE7AD
:1020E0004D48007800285AD1FEF77BFE18E04FF4E7
:1020F0000040FFF769FA78B14FF0000B06E0424864
:102100008030006845F82B000BF1010BBBF1080F84
:10211000F5D32035414E03E00EB904206CE7761E5E
:102120003948406B40F22A6108400028DFD008207F
:10213000FFF74AFA20B10820FFF700FA04205BE716
:102140000220FFF741FA20B10220FFF7F7F9022041
:1021500052E72020FFF738FA20B12020FFF7EEF9F0
:10216000062049E74FF40070FFF72EFA28B14FF42C
:102170000070FFF7E3F907203EE703E0FFF754FAAA
:1021800028602D1D4FF40010FFF71EFA0028F5D12E
:10219000FEF729FE40F2FF50FFF7D0F931E01E486C
:1021A000007801282DD1002221464846FFF76CFA1D
:1021B00000201B4908701B4908701B490870124811
:1021C000C06B40F22A3108430F49C8630120FFF772
:1021D000CBF900E0761E1548006800F4005038B9CD
:1021E0001148007820B90E48007808B9002EF1D1C6
:1021F0000EB9042000E70A48007810B1084890F8AA
:1022000000A05046F8E600000080014024000020B5
:1022100094100020801000202C000020FFFF7F0081
:102220002E0000202D0000202F000020000402407E
:102230002DE9FE4F83460C46914600200290002671
:1022400025462C46700240EAD5566D020BF003007D
:10225000F0B14FF0000A18E04FF4007000904FEA20
:102260004A20471946EBE0733A461648FFF7B4FE9A
:1022700002904FF4007213495846FDF7D7FF0BF553
:10228000007B0AF1010000F0FF0ACA45E4DB16E01A
:10229000B9F1010F09D14FF400702A46334600907E
:1022A0005846FFF799FE029009E04FF400702A4665
:1022B0003346CDE90009584600F006F8029002982E
:1022C000BDE8FE8F281100202DE9FF5F17469846D4
:1022D000DDE90E464FF00009CA464FF0FF35A94927
:1022E000009808600020A849C862A8480078022821
:1022F00005D10402780A40EAC8574FEA682800204E
:10230000A34988604860401E0860012048610020A1
:10231000C86008610846FFF72DF99B48406900F046
:10232000007018B10E2004B0BDE8F09F002C21DD34
:10233000B4F5006F1EDC601E2040D8B9204602F0C4
:10234000B6FD8346934804601020924948604020BF
:1023500088600020C8604FF4806008610846FFF77D
:1023600069F91020FDF7C0FF8146B9F1000F03D0D5
:102370004846D8E72620D6E7012E70D906FB04F0A0
:10238000B0F1007F01D32620CDE74FEA0B10804942
:10239000886006FB04F048604FF0FF3008600120C1
:1023A00048610220C860002008610846FFF7E2F893
:1023B00078480760122077494860402088600020F4
:1023C000C8604FF4806008610846FFF733F91220B7
:1023D000FDF78AFF8146B9F1000F01D04846A2E718
:1023E0006D48007800287DD1FEF7FBFC1EE04FF41D
:1023F0000040FFF7E9F8A8B14FF0000A08E0624892
:10240000803000685F49096841F82A000AF1010A32
:10241000BAF1080FF3D35B480068203059490860CF
:102420005E4D03E00DB904207DE76D1E5648406BFC
:1024300040F22A3108400028D9D00820FFF7C4F81C
:1024400020B10820FFF77AF804206CE70220FFF79C
:10245000BBF828B10220FFF771F8022063E78EE095
:102460002020FFF7B1F820B12020FFF767F8062001
:1024700059E74FF40070FFF7A7F828B14FF4007048
:10248000FFF75CF807204EE709E0FFF7CDF83D497C
:10249000096808603B480068001D3A4908604FF42D
:1024A0000010FFF791F80028EFD14FF48070FFF78C
:1024B0008BF820B33548007838B1344800780128CB
:1024C00003D032480078022819D100203149086031
:1024D0000C204860402088600020C8604FF4806075
:1024E000086100E012E00846FFF7A4F80C20FDF7B1
:1024F000FBFE8146B9F1000F01D0484613E7FEF715
:1025000072FC40F2FF50FFF719F838E022480078DB
:10251000012834D106FB04F100220098FFF7B4F83B
:1025200000201F49087001201E49087000201E4924
:1025300008701548C06B40F22A3108431249C8633D
:102540000846C06A40F00800C86200E06D1E1748E7
:10255000006800F4005008B9002DF7D10DB904202F
:10256000E1E600BF1048007818B90D48007800284F
:10257000F8D00B48007810B1094890F80090484610
:10258000D1E600003000002000800140240000203F
:1025900094100020801000202C000020FFFF7F00FE
:1025A0002E0000202D0000202F00002000040240FB
:1025B00010B50446094804600720084948604020D7
:1025C00088600020C8604FF4806008610846FFF70B
:1025D00031F80720FDF788FE10BD000080100020B4
:1025E00001460020012900D011B9024B197000E00A
:1025F000262070472C0000202DE9FF5F86B017468B
:102600009846149D002600200590049000248146E1
:102610000390824602900195DDF818B0DDF818B0FD
:10262000BBF1000F03D126200AB0BDE8F09F0020C7
:10263000C449C862C44988604860401E08600120DF
:1026400048610020C86008610846FEF793FFBD4856
:10265000406900F0007008B10E20E5E7BB48007843
:10266000022805D10502780A40EAC8574FEA6828CF
:10267000002D1FDDB5F5006F1CDC681E2840C8B9B1
:10268000284602F014FC0590B14805601020B049BE
:102690004860402088600020C8604FF48060086176
:1026A0000846FEF7C7FF1020FDF71EFE06461EB1C6
:1026B0003046B9E72620B7E7A64800880004A449B9
:1026C00008600D204860402088600020C8604FF4FA
:1026D000806008610846FEF7ADFF0D20FDF704FE9F
:1026E00006460EB130469FE79648406903904FF08A
:1026F000FF341BE0641E974800880004944908607A
:102700000D204860402088600020C8604FF4806041
:1027100008610846FEF78EFF0D20FDF7E5FD064631
:102720000EB1304680E7874840690390039800F473
:10273000807008B9002CDDD10CB9292074E78448D9
:102740000760182082494860402088600020C860E7
:102750004FF4806008610846FEF76CFF1820FDF713
:10276000C3FD06460EB130465EE700207A49087088
:102770000598000174498860084645604FF0FF30B5
:102780000860012048610020C86008610846FEF723
:10279000F1FE4FF0FF347148007800287BD1FEF73E
:1027A00020FB43E04FF48040FEF70EFFC8B30198D2
:1027B000A0EB0900202821D20198A0EB090000F02D
:1027C000030020B90198A0EB0900800804E00198FB
:1027D000A0EB09008008401C02904FF0000A09E0BD
:1027E000DBF80000FEF74AFF0AF1010A0BF1040BC7
:1027F00009F1040902988245F2D30FE04FF0000A74
:1028000005E05BF82A00FEF739FF0AF1010ABAF188
:10281000080FF6D30BF1200B09F120096FF04044AB
:1028200004E0FFE70CB90420FEE6641E4548406B57
:1028300040F21A6108400028B4D00820FEF7C4FE18
:1028400020B10820FEF77AFE0420EDE60220FEF714
:10285000BBFE20B10220FEF771FE0220E4E610204C
:10286000FEF7B2FE20B11020FEF768FE0520DBE681
:102870004FF40070FEF7A8FE30B14FF40070FEF781
:102880005DFE0720D0E606E0FEF7ADFA40F2FF500D
:102890002C4988633EE03148007801283AD1102263
:1028A00029460698FEF7F0FE00202D4908702A49B7
:1028B00008702C4908702348C06B40F21A31084355
:1028C0002049C8630846C06A40F00800C86200E0BA
:1028D000641E2548006800F4005008B9002CF7D1A8
:1028E0001CB9FFF7C3F804209EE64FF0FF3400E068
:1028F000641E1C48007820B91948007808B9002CDB
:10290000F6D10CB904208FE61548007810B11448B0
:10291000007889E640F2FF50FEF710FE04A8FEF7AB
:1029200065FA064603E004A8FEF760FA06463EB9DB
:102930009DF810000728F6D09DF810000628F2D068
:10294000304671E6008001409410002024000020F1
:1029500080100020280000202D0000202C000020E6
:102960002E0000202F000020000402402DE9FE4F21
:1029700081460C46924600200290002625462C46B1
:10298000700240EAD5566D0209F00300F0B14FF035
:10299000000B18E04FF4007249461948FDF746FC59
:1029A0004FF4007000904FEA4B20471946EBE0735C
:1029B0003A461348FFF720FE029009F500790BF123
:1029C000010000F0FF0BD345E4DB16E0BAF1010F84
:1029D00009D14FF400702A46334600904846FFF76D
:1029E0000BFE029009E04FF400702A463346CDE911
:1029F000000A484600F006F802900298BDE8FE8FF3
:102A0000281100202DE9FF5F84B0DDE91247002680
:102A1000002003900290002580468146019007FB2C
:102A200004FBDDF810A0DDF810A0BAF1000F03D10F
:102A3000262008B0BDE8F09F0020D849C862D849D8
:102A400088604860401E0860012048610020C8601E
:102A500008610846FEF78EFDD048406900F000701E
:102A600008B10E20E5E7CF480078022808D104021B
:102A7000DDE90601400A40EAC1504912CDE90601EC
:102A8000002C1FDDB4F5006F1CDC601E2040C8B9AF
:102A9000204602F00CFA0390C34804601020C2499B
:102AA0004860402088600020C8604FF48060086162
:102AB0000846FEF7BFFD1020FDF716FC06461EB1C6
:102AC0003046B6E72620B4E7012F6FD907FB04F0A4
:102AD000B0F1007F01D32620ABE7B248007838B1CF
:102AE000B0480078012803D0AE48007802282DD1E4
:102AF000AE4800880004AC49086037204860402098
:102B000088600020C8604FF4806008610846FEF7C6
:102B100091FD3720FDF7E8FB06460EB1304688E709
:102B2000A14807601720A049486040208860002025
:102B3000C8604FF4806008610846FEF77BFD1720EF
:102B4000FDF7D2FB06460EB1304672E7964906986D
:102B5000086019204860402088600020C8604FF459
:102B6000806008610846FEF765FD1920FDF7BCFB93
:102B700006460EB130465CE703980001884988603C
:102B800007FB04F048604FF0FF3008600120486107
:102B90000020C86008610846FEF7ECFC8448007815
:102BA000002871D1451EFEF71CF940E0DEE07B48AD
:102BB000406B00F48040A8B3ABEB080020281ED285
:102BC000ABEB080000F0030018B9ABEB080080087D
:102BD00003E0ABEB08008008401C01904FF00009B7
:102BE00009E0DAF80000FEF749FD09F101090AF1F0
:102BF000040A08F1040801988145F2D30FE04FF070
:102C0000000905E05AF82900FEF738FD09F101092D
:102C1000B9F1080FF6D30AF1200A08F120086FF085
:102C2000404504E0FFE70DB9042002E76D1E5B4854
:102C3000406B40F21A3108400028B8D00820FEF757
:102C4000C3FC20B10820FEF779FC0420F1E6022045
:102C5000FEF7BAFC20B10220FEF770FC0220E8E685
:102C60001020FEF7B1FC20B11020FEF767FC052014
:102C7000DFE64FF40070FEF7A7FC30B14FF40070B0
:102C8000FEF75CFC0720D4E62CE04FF48070FEF7E2
:102C90009BFC00B34348007838B1424800780128D3
:102CA00003D040480078022815D100203E49086032
:102CB0000C204860402088600020C8604FF480608D
:102CC00008610846FEF7B6FC0C20FDF70DFB064632
:102CD0000EB13046ADE6FEF786F840F2FF50FEF743
:102CE0002DFC43E03248007801283FD107FB04F176
:102CF00010220498FEF7C8FC00202E49087001201D
:102D00002D49087000202D4908702448C06B40F2FE
:102D10001A3108432149C8630846C06A40F00800D8
:102D2000C8624FF0FF3500E06D1E2548006800F4D2
:102D3000005008B9002DF7D11DB9FEF797FE042009
:102D400077E64FF0FF3500E06D1E1C48007820B993
:102D50001848007808B9002DF6D10DB9042068E6AE
:102D60001448007810B11348007862E640F2FF5032
:102D7000FEF7E4FB02A8FEF739F8064603E002A8D6
:102D8000FEF734F806463EB99DF808000728F6D04D
:102D90009DF808000628F2D030464AE6008001403F
:102DA0009410002024000020801000202800002023
:102DB0002C0000202E0000202D0000202F000020DD
:102DC0000004024000B587B001210820FEF7E6FAB2
:102DD00001218803FEF7D2FA4FF46040ADF81800E5
:102DE00018208DF81B0003208DF81A0006A916483C
:102DF000FDF768FF0020ADF804004FF48270ADF8D5
:102E000006000020ADF808000220ADF80A000120FD
:102E1000ADF80C004002ADF80E003820ADF81000FF
:102E20000020ADF812000720ADF8140001A90748F2
:102E300000F058F80121054800F03AF8FF2000F0B2
:102E400007F807B000BD0000000C0140003800404A
:102E500010B5044600BF02210A4800F035F80028EA
:102E6000F9D02146074800F03BF800BF0121054892
:102E700000F02AF80028F9D0024800F02EF8C0B27D
:102E800010BD00000038004010B504460748008817
:102E90004FF6C7710840054908800846008820435E
:102EA00008800121014800F003F810BD00380040FF
:102EB00021B1028842F04002028004E002884FF60D
:102EC000BF731A40028070470246002013890B40EE
:102ED0000BB1012000E0002070470146888970474F
:102EE0008181704710B50022028802F441520B889C
:102EF0004C8823438C882343CC8823430C89234369
:102F00004C8923438C892343CC8923431A43028071
:102F1000838B4FF2FF74234083830B8A038210BD9F
:102F2000704710B500F002F810BD00000CB500208D
:102F3000019000903348006840F4803031490860C7
:102F400000BF3048006800F4003000900198401C39
:102F50000190009818B90198B0F5A06FF1D12948F7
:102F6000006800F4003010B10120009001E0002062
:102F700000900098012843D12348006840F01000D9
:102F8000214908600846006820F0030008600846F0
:102F9000006840F0020008601A484068194948601B
:102FA0000846406848600846406840F480604860D1
:102FB0000846406820F47C1048600846406840F4A9
:102FC000E81048600846006840F08070086000BF64
:102FD0000C48006800F000700028F9D009484068EB
:102FE00020F00300074948600846406840F00200AE
:102FF000486000BF0348406800F00C000828F9D181
:103000000CBD00000010024000200240042808D13E
:103010004FF0E021096941F004014FF0E022116115
:1030200007E04FF0E021096921F004014FF0E022B0
:10303000116170477047000010B504466FF004003E
:10304000FFF7E4FFE11704EB5171C1F3C701074A31
:1030500011701046007800EB4001C1EBC0104FF634
:10306000FF7101EAC0000249088010BD3400002051
:103070003600002010B51348006840F001001149E7
:10308000086008464068104908400E4948600846F4
:1030900000680E4908400B4908600846006820F4A3
:1030A000802008600846406820F4FE0048604FF425
:1030B0001F008860FFF735FF4FF00060044908608B
:1030C00010BD0000001002400000FFF8FFFFF6FEF8
:1030D00008ED00E000B59DB001210802FEF73EF9C1
:1030E00001200790002008900F20099000200A90EE
:1030F0000B900C900D9015200090019005200290EF
:103100000020039004900590069006200E90002069
:103110000F90109010201190002012901490139096
:10312000159016904FF480501790002018904FF48F
:103130008040199000201A9007A81B90CDF870D0FD
:103140000EA8FDF781FC01210620FDF763FC1DB0F0
:1031500000BD000008B501214FF4B470FEF71EF960
:103160004CF23370ADF8000018208DF803000320F6
:103170008DF8020069461848FDF7A4FD4FF68070EF
:10318000ADF8000018208DF8030003208DF8020030
:1031900069461248FDF796FD41F20100ADF80000C6
:1031A00018208DF8030003208DF8020069460C48B2
:1031B000FDF788FD0120ADF8000010208DF8030018
:1031C00003208DF8020069460648FDF77BFD0120CB
:1031D0000549086008BD00000014014000180140C6
:1031E00000200140000C01408081214210B5FFF712
:1031F000B1FFFFF76FFF322001F012FF4FF45A408A
:10320000FEF72CF8FDF7D2FEFE4988804FF45B40B4
:10321000FEF724F8FDF7CAFEFA4988800846808840
:103220004FF6FF7101EA0020F64988804FF45C40B8
:10323000FEF714F8FDF7BAFEF24989880843F14910
:10324000888008468188F0A001F014FC4FF470409B
:10325000FEF704F85520FEF707F84FF20100FDF7DE
:10326000FDFFAA20FEF700F84FF20200FDF7F6FF7F
:103270005220FDF7F9FF4FF20300FDF7EFFF0820A2
:10328000FDF7F2FF4FF20400FDF7E8FF0120FDF724
:10329000EBFF4FF43040FDF7E1FF0020FDF7E4FFC6
:1032A0004BF20100FDF7DAFF0020FDF7DDFF4BF2E6
:1032B0000200FDF7D3FF0020FDF7D6FF4FF43640A4
:1032C000FDF7CCFF3420FDF7CFFF4BF20160FDF797
:1032D000C5FF3420FDF7C8FF4BF20260FDF7BEFFCB
:1032E0003420FDF7C1FF4FF43140FDF7B7FF002058
:1032F000FDF7BAFF4BF20110FDF7B0FF0020FDF71C
:10330000B3FF4BF20210FDF7A9FF0020FDF7ACFF61
:103310004FF43740FDF7A2FF3420FDF7A5FF4BF235
:103320000170FDF79BFF3420FDF79EFF4BF202700A
:10333000FDF794FF3420FDF797FF4FF43240FDF77F
:103340008DFF0020FDF790FF4BF20120FDF786FF77
:103350000020FDF789FF4BF20220FDF77FFF0020E0
:10336000FDF782FF4FF43840FDF778FF0520FDF7A9
:103370007BFF4BF60100FDF771FF0520FDF774FFA1
:103380004BF60200FDF76AFF0520FDF76DFF4FF4D5
:103390003F40FDF763FF0120FDF766FF4FF4334028
:1033A000FDF75CFF0F20FDF75FFF4BF20130FDF7EB
:1033B00055FF0F20FDF758FF4BF20230FDF74EFF8F
:1033C0000F20FDF751FF4FF43940FDF747FF242050
:1033D000FDF74AFF4BF60110FDF740FF2420FDF7F3
:1033E00043FF4BF60210FDF739FF2420FDF73CFFA9
:1033F0004FF43540FDF732FF0820FDF735FF4BF263
:103400000150FDF72BFF0820FDF72EFF4BF2025075
:10341000FDF724FF0820FDF727FF4FF43A40FDF7A2
:103420001DFF1420FDF720FF4BF60120FDF716FFCE
:103430001420FDF719FF4BF60220FDF70FFF1420B3
:10344000FDF712FF4FF43C40FDF708FF0020FDF7A9
:103450000BFF4BF60140FDF701FFBC20FDF704FF19
:103460004BF60240FDF7FAFE0020FDF7FDFE4FF49B
:103470003D40FDF7F3FE0020FDF7F6FE4BF6015050
:10348000FDF7ECFEBC20FDF7EFFE4BF60250FDF71A
:10349000E5FE0020FDF7E8FE4FF43E40FDF7DEFEBE
:1034A0000020FDF7E1FE4BF60160FDF7D7FE2D2071
:1034B000FDF7DAFE4FF45140FDF7D0FE0020FDF796
:1034C000D3FE4DF20110FDF7C9FE3720FDF7CCFE0B
:1034D0004DF20210FDF7C2FE0020FDF7C5FE4DF2D1
:1034E0000310FDF7BBFE4920FDF7BEFE4DF20410B0
:1034F000FDF7B4FE0020FDF7B7FE4DF20510FDF715
:10350000ADFE6B20FDF7B0FE4DF20610FDF7A6FEF6
:103510000020FDF7A9FE4DF20710FDF79FFE862063
:10352000FDF7A2FE4DF20810FDF798FE0020FDF712
:103530009BFE4DF20910FDF791FE9D20FDF794FED4
:103540004DF20A10FDF78AFE0020FDF78DFE4DF2C8
:103550000B10FDF783FEC320FDF786FE4DF20C1025
:10356000FDF77CFE0020FDF77FFE4DF20D10FDF70C
:1035700075FEE020FDF778FE4DF20E10FDF76EFEB1
:103580000120FDF771FE4DF20F10FDF767FE0D20D3
:10359000FDF76AFE4DF21010FDF760FE0120FDF709
:1035A00063FE4DF21110FDF759FE2F20FDF75CFE72
:1035B0004DF21210FDF752FE0120FDF755FE4DF2BF
:1035C0001310FDF74BFE6120FDF74EFE4DF2141077
:1035D000FDF744FE0120FDF747FE4DF21510FDF703
:1035E0003DFE8620FDF740FE4DF21610FDF736FE3B
:1035F0000120FDF739FE4DF21710FDF72FFEBD201B
:103600000AE0000018000020204C43442049443ABE
:1036100025780D0A00000000FDF726FE4DF2181077
:10362000FDF71CFE0120FDF71FFE4DF21910FDF7FE
:1036300015FEE720FDF718FE4DF21A10FDF70EFEFD
:103640000120FDF711FE4DF21B10FDF707FEE820EB
:10365000FDF70AFE4DF21C10FDF700FE0220FDF7FB
:1036600003FE4DF21D10FDF7F9FD0C20FDF7FCFDEA
:103670004DF21E10FDF7F2FD0220FDF7F5FD4DF2B3
:103680001F10FDF7EBFD3020FDF7EEFD4DF2201091
:10369000FDF7E4FD0220FDF7E7FD4DF22110FDF7F7
:1036A000DDFD4520FDF7E0FD4DF22210FDF7D6FDD2
:1036B0000220FDF7D9FD4DF22310FDF7CFFD632069
:1036C000FDF7D2FD4DF22410FDF7C8FD0220FDF7F5
:1036D000CBFD4DF22510FDF7C1FD7E20FDF7C4FDA9
:1036E0004DF22610FDF7BAFD0220FDF7BDFD4DF2AB
:1036F0002710FDF7B3FDB120FDF7B6FD4DF2281000
:10370000FDF7ACFD0220FDF7AFFD4DF22910FDF7EE
:10371000A5FDE020FDF7A8FD4DF22A10FDF79EFD66
:103720000320FDF7A1FD4DF22B10FDF797FD26209C
:10373000FDF79AFD4DF22C10FDF790FD0320FDF7EB
:1037400093FD4DF22D10FDF789FD6020FDF78CFDF6
:103750004DF22E10FDF782FD0320FDF785FD4DF2A1
:103760002F10FDF77BFDB420FDF77EFD4DF23010EC
:10377000FDF774FD0320FDF777FD4DF23110FDF7E5
:103780006DFDB920FDF770FD4DF23210FDF766FDBD
:103790000320FDF769FD4DF23310FDF75FFDC120F9
:1037A000FDF762FD4FF45240FDF758FD0020FDF794
:1037B0005BFD4DF20120FDF751FD3720FDF754FD73
:1037C0004DF20220FDF74AFD0020FDF74DFD4DF2C0
:1037D0000320FDF743FD4920FDF746FD4DF204208F
:1037E000FDF73CFD0020FDF73FFD4DF20520FDF704
:1037F00035FD6B20FDF738FD4DF20620FDF72EFD5F
:103800000020FDF731FD4DF20720FDF727FD862052
:10381000FDF72AFD4DF20820FDF720FD0020FDF701
:1038200023FD4DF20920FDF719FD9D20FDF71CFD3C
:103830004DF20A20FDF712FD0020FDF715FD4DF2B7
:103840000B20FDF70BFDC320FDF70EFD4DF20C2004
:10385000FDF704FD0020FDF707FD4DF20D20FDF7FB
:10386000FDFCE020FDF700FD4DF20E20FDF7F6FC1B
:103870000120FDF7F9FC4DF20F20FDF7EFFC0D20C4
:10388000FDF7F2FC4DF21020FDF7E8FC0120FDF7FA
:10389000EBFC4DF21120FDF7E1FC2F20FDF7E4FCDD
:1038A0004DF21220FDF7DAFC0120FDF7DDFC4DF2B0
:1038B0001320FDF7D3FC6120FDF7D6FC4DF2142058
:1038C000FDF7CCFC0120FDF7CFFC4DF21520FDF7F4
:1038D000C5FC8620FDF7C8FC4DF21620FDF7BEFCA6
:1038E0000120FDF7C1FC4DF21720FDF7B7FCBD200C
:1038F000FDF7BAFC4DF21820FDF7B0FC0120FDF7F2
:10390000B3FC4DF21920FDF7A9FCE720FDF7ACFC54
:103910004DF21A20FDF7A2FC0120FDF7A5FC4DF2A7
:103920001B20FDF79BFCE820FDF79EFC4DF21C20C0
:10393000FDF794FC0220FDF797FC4DF21D20FDF7EA
:103940008DFC0C20FDF790FC4DF21E20FDF786FC4F
:103950000220FDF789FC4DF21F20FDF77FFC30208F
:10396000FDF782FC4DF22020FDF778FC0220FDF7E8
:103970007BFC4DF22120FDF771FC4520FDF774FC26
:103980004DF22220FDF76AFC0220FDF76DFC4DF29E
:103990002320FDF763FC6320FDF766FC4DF2242035
:1039A000FDF75CFC0220FDF75FFC4DF22520FDF7E2
:1039B00055FC7E20FDF758FC4DF22620FDF74EFC0D
:1039C0000220FDF751FC4DF22720FDF747FCB12006
:1039D000FDF74AFC4DF22820FDF740FC0220FDF7E0
:1039E00043FC4DF22920FDF739FCE020FDF73CFCBB
:1039F0004DF22A20FDF732FC0320FDF735FC4DF295
:103A00002B20FDF72BFC2620FDF72EFC4DF22C2061
:103A1000FDF724FC0320FDF727FC4DF22D20FDF7D8
:103A20001DFC6020FDF720FC4DF22E20FDF716FC5A
:103A30000320FDF719FC4DF22F20FDF70FFCB420F9
:103A4000FDF712FC4DF23020FDF708FC0320FDF7D6
:103A50000BFC4DF23120FDF701FCB920FDF704FC11
:103A60004DF23220FDF7FAFB0320FDF7FDFB4DF28E
:103A70003320FDF7F3FBC120FDF7F6FB4FF4534075
:103A8000FDF7ECFB0020FDF7EFFB4DF20130FDF7F9
:103A9000E5FB3720FDF7E8FB4DF20230FDF7DEFBDA
:103AA0000020FDF7E1FB4DF20330FDF7D7FB492085
:103AB000FDF7DAFB4DF20430FDF7D0FB0020FDF7F7
:103AC000D3FB4DF20530FDF7C9FB6B20FDF7CCFBB6
:103AD0004DF20630FDF7C2FB0020FDF7C5FB4DF2AD
:103AE0000730FDF7BBFB8620FDF7BEFB4DF208302B
:103AF000FDF7B4FB0020FDF7B7FB4DF20930FDF7F1
:103B0000ADFB9D20FDF7B0FB4DF20A30FDF7A6FBA3
:103B10000020FDF7A9FB4DF20B30FDF79FFBC32002
:103B2000FDF7A2FB4DF20C30FDF798FB0020FDF7EE
:103B30009BFB4DF20D30FDF791FBE020FDF794FB70
:103B40004DF20E30FDF78AFB0120FDF78DFB4DF2A3
:103B50000F30FDF783FB0D20FDF786FB4DF2103093
:103B6000FDF77CFB0120FDF77FFB4DF21130FDF7E7
:103B700075FB2F20FDF778FB4DF21230FDF76EFB41
:103B80000120FDF771FB4DF21330FDF767FB61205B
:103B9000FDF76AFB4DF21430FDF760FB0120FDF7E5
:103BA00063FB4DF21530FDF759FB8620FDF75CFBFA
:103BB0004DF21630FDF752FB0120FDF755FB4DF29B
:103BC0001730FDF74BFBBD20FDF74EFB4DF21830D3
:103BD000FDF744FB0120FDF747FB4DF21930FDF7DF
:103BE0003DFBE720FDF740FB4DF21A30FDF736FBB9
:103BF0000120FDF739FB4DF21B30FDF72FFBE820CC
:103C0000FDF732FB4DF21C30FDF728FB0220FDF7DB
:103C10002BFB4DF21D30FDF721FB0C20FDF724FBA3
:103C20004DF21E30FDF71AFB0220FDF71DFB4DF291
:103C30001F30FDF713FB3020FDF716FB4DF220304F
:103C4000FDF70CFB0220FDF70FFB4DF22130FDF7D5
:103C500005FB4520FDF708FB4DF22230FDF7FEFA8B
:103C60000220FDF701FB4DF22330FDF7F7FA632048
:103C7000FDF7FAFA4DF22430FDF7F0FA0220FDF7D5
:103C8000F3FA4DF22530FDF7E9FA7E20FDF7ECFA64
:103C90004DF22630FDF7E2FA0220FDF7E5FA4DF28B
:103CA0002730FDF7DBFAB120FDF7DEFA4DF22830C0
:103CB000FDF7D4FA0220FDF7D7FA4DF22930FDF7CF
:103CC000CDFAE020FDF7D0FA4DF22A30FDF7C6FA22
:103CD0000320FDF7C9FA4DF22B30FDF7BFFA26207D
:103CE000FDF7C2FA4DF22C30FDF7B8FA0320FDF7CC
:103CF000BBFA4DF22D30FDF7B1FA6020FDF7B4FAB2
:103D00004DF22E30FDF7AAFA0320FDF7ADFA4DF281
:103D10002F30FDF7A3FAB420FDF7A6FA4DF23030AC
:103D2000FDF79CFA0320FDF79FFA4DF23130FDF7C5
:103D300095FAB920FDF798FA4DF23230FDF78EFA78
:103D40000320FDF791FA4DF23330FDF787FAC120D9
:103D5000FDF78AFA4FF45440FDF780FA0020FDF792
:103D600083FA4DF20140FDF779FA3720FDF77CFA2E
:103D70004DF20240FDF772FA0020FDF775FA4DF2A0
:103D80000340FDF76BFA4920FDF76EFA4DF204404F
:103D9000FDF764FA0020FDF767FA4DF20540FDF7E4
:103DA0005DFA6B20FDF760FA4DF20640FDF756FA1A
:103DB0000020FDF759FA4DF20740FDF74FFA862033
:103DC000FDF752FA4DF20840FDF748FA0020FDF7E2
:103DD0004BFA4DF20940FDF741FA9D20FDF744FAF8
:103DE0004DF20A40FDF73AFA0020FDF73DFA4DF298
:103DF0000B40FDF733FAC320FDF736FA4DF20C40C5
:103E0000FDF72CFA0020FDF72FFA4DF20D40FDF7DB
:103E100025FAE020FDF728FA4DF20E40FDF71EFAD4
:103E20000120FDF721FA4DF20F40FDF717FA0D20A2
:103E3000FDF71AFA4DF21040FDF710FA0120FDF7D8
:103E400013FA4DF21140FDF709FA2F20FDF70CFA95
:103E50004DF21240FDF702FA0120FDF705FA4DF28E
:103E60001340FDF7FBF96120FDF7FEF94DF2144018
:103E7000FDF7F4F90120FDF7F7F94DF21540FDF7D4
:103E8000EDF98620FDF7F0F94DF21640FDF7E6F961
:103E90000120FDF7E9F94DF21740FDF7DFF9BD20EC
:103EA000FDF7E2F94DF21840FDF7D8F90120FDF7D2
:103EB000DBF94DF21940FDF7D1F9E720FDF7D4F910
:103EC0004DF21A40FDF7CAF90120FDF7CDF94DF288
:103ED0001B40FDF7C3F9E820FDF7C6F94DF21C4081
:103EE000FDF7BCF90220FDF7BFF94DF21D40FDF7CB
:103EF000B5F90C20FDF7B8F94DF21E40FDF7AEF90B
:103F00000220FDF7B1F94DF21F40FDF7A7F930206F
:103F1000FDF7AAF94DF22040FDF7A0F90220FDF7C8
:103F2000A3F94DF22140FDF799F94520FDF79CF9E1
:103F30004DF22240FDF792F90220FDF795F94DF27E
:103F40002340FDF78BF96320FDF78EF94DF22440F5
:103F5000FDF784F90220FDF787F94DF22540FDF7C2
:103F60007DF97E20FDF780F94DF22640FDF776F9C8
:103F70000220FDF779F94DF22740FDF76FF9B120E6
:103F8000FDF772F94DF22840FDF768F90220FDF7C0
:103F90006BF94DF22940FDF761F9E020FDF764F976
:103FA0004DF22A40FDF75AF90320FDF75DF94DF275
:103FB0002B40FDF753F92620FDF756F94DF22C4022
:103FC000FDF74CF90320FDF74FF94DF22D40FDF7B9
:103FD00045F96020FDF748F94DF22E40FDF73EF916
:103FE0000320FDF741F94DF22F40FDF737F9B420DA
:103FF000FDF73AF94DF23040FDF730F90320FDF7B7
:1040000033F94DF23140FDF729F9B920FDF72CF9CC
:104010004DF23240FDF722F90320FDF725F94DF26C
:104020003340FDF71BF9C120FDF71EF94FF4554051
:10403000FDF714F90020FDF717F94DF20150FDF7D7
:104040000DF93720FDF710F94DF20250FDF706F992
:104050000020FDF709F94DF20350FDF7FFF8492064
:10406000FDF702F94DF20450FDF7F8F80020FDF7D6
:10407000FBF84DF20550FDF7F1F86B20FDF7F4F871
:104080004DF20650FDF7EAF80020FDF7EDF84DF28D
:104090000750FDF7E3F88620FDF7E6F84DF20850EB
:1040A000FDF7DCF80020FDF7DFF84DF20950FDF7D1
:1040B000D5F89D20FDF7D8F84DF20A50FDF7CEF85F
:1040C0000020FDF7D1F84DF20B50FDF7C7F8C320E3
:1040D000FDF7CAF84DF20C50FDF7C0F80020FDF7CF
:1040E000C3F84DF20D50FDF7B9F8E020FDF7BCF82C
:1040F0004DF20E50FDF7B2F80120FDF7B5F84DF284
:104100000F50FDF7ABF80D20FDF7AEF84DF2105053
:10411000FDF7A4F80120FDF7A7F84DF21150FDF7C7
:104120009DF82F20FDF7A0F84DF21250FDF796F8FC
:104130000120FDF799F84DF21350FDF78FF861203B
:10414000FDF792F84DF21450FDF788F80120FDF7C5
:104150008BF84DF21550FDF781F88620FDF784F8B5
:104160004DF21650FDF77AF80120FDF77DF84DF27B
:104170001750FDF773F8BD20FDF776F84DF2185093
:10418000FDF76CF80120FDF76FF84DF21950FDF7BF
:1041900065F8E720FDF768F84DF21A50FDF75EF874
:1041A0000120FDF761F84DF21B50FDF757F8E820AC
:1041B000FDF75AF84DF21C50FDF750F80220FDF7BC
:1041C00053F84DF21D50FDF749F80C20FDF74CF85F
:1041D0004DF21E50FDF742F80220FDF745F84DF272
:1041E0001F50FDF73BF83020FDF73EF84DF2205010
:1041F000FDF734F80220FDF737F84DF22150FDF7B6
:104200002DF84520FDF730F84DF22250FDF726F845
:104210000220FDF729F84DF22350FDF71FF8632027
:10422000FDF722F84DF22450FDF718F80220FDF7B3
:104230001BF84DF22550FDF711F87E20FDF714F81C
:104240004DF22650FDF70AF80220FDF70DF84DF269
:104250002750FDF703F8B120FDF706F84DF228507E
:10426000FCF7FCFF0220FCF7FFFF4DF22950FCF7A2
:10427000F5FFE020FCF7F8FF4DF22A50FCF7EEFFC7
:104280000320FCF7F1FF4DF22B50FCF7E7FF26204F
:10429000FCF7EAFF4DF22C50FCF7E0FF0320FCF79F
:1042A000E3FF4DF22D50FCF7D9FF6020FCF7DCFF57
:1042B0004DF22E50FCF7D2FF0320FCF7D5FF4DF254
:1042C0002F50FCF7CBFFB420FCF7CEFF4DF230505F
:1042D000FCF7C4FF0320FCF7C7FF4DF23150FCF799
:1042E000BDFFB920FCF7C0FF4DF23250FCF7B6FF1E
:1042F0000320FCF7B9FF4DF23350FCF7AFFFC120AC
:10430000FCF7B2FF4FF45640FCF7A8FF0020FCF783
:10431000ABFF4DF20160FCF7A1FF3720FCF7A4FFD3
:104320004DF20260FCF79AFF0020FCF79DFF4DF272
:104330000360FCF793FF4920FCF796FF4DF2046001
:10434000FCF78CFF0020FCF78FFF4DF20560FCF7B7
:1043500085FF6B20FCF788FF4DF20660FCF77EFFBF
:104360000020FCF781FF4DF20760FCF777FF862005
:10437000FCF77AFF4DF20860FCF770FF0020FCF7B5
:1043800073FF4DF20960FCF769FF9D20FCF76CFF9D
:104390004DF20A60FCF762FF0020FCF765FF4DF26A
:1043A0000B60FCF75BFFC320FCF75EFF4DF20C6077
:1043B000FCF754FF0020FCF757FF4DF20D60FCF7AF
:1043C0004DFFE020FCF750FF4DF20E60FCF746FF7A
:1043D0000120FCF749FF4DF20F60FCF73FFF0D2075
:1043E000FCF742FF4DF21060FCF738FF0120FCF7AC
:1043F0003BFF4DF21160FCF731FF2F20FCF734FF3B
:104400004DF21260FCF72AFF0120FCF72DFF4DF260
:104410001360FCF723FF6120FCF726FF4DF21460C8
:10442000FCF71CFF0120FCF71FFF4DF21560FCF7A5
:1044300015FF8620FCF718FF4DF21660FCF70EFF03
:104440000120FCF711FF4DF21760FCF707FFBD20BC
:10445000FCF70AFF4DF21860FCF700FF0120FCF7A3
:1044600003FF4DF21960FCF7F9FEE720FCF7FCFEB4
:104470004DF21A60FCF7F2FE0120FCF7F5FE4DF25A
:104480001B60FCF7EBFEE820FCF7EEFE4DF21C6033
:10449000FCF7E4FE0220FCF7E7FE4DF21D60FCF79E
:1044A000DDFE0C20FCF7E0FE4DF21E60FCF7D6FEB0
:1044B0000220FCF7D9FE4DF21F60FCF7CFFE302042
:1044C000FCF7D2FE4DF22060FCF7C8FE0220FCF79C
:1044D000CBFE4DF22160FCF7C1FE4520FCF7C4FE87
:1044E0004DF22260FCF7BAFE0220FCF7BDFE4DF251
:1044F0002360FCF7B3FE6320FCF7B6FE4DF22460A8
:10450000FCF7ACFE0220FCF7AFFE4DF22560FCF795
:10451000A5FE7E20FCF7A8FE4DF22660FCF79EFE6D
:104520000220FCF7A1FE4DF22760FCF797FEB120B8
:10453000FCF79AFE4DF22860FCF790FE0220FCF793
:1045400093FE4DF22960FCF789FEE020FCF78CFE1B
:104550004DF22A60FCF782FE0320FCF785FE4DF247
:104560002B60FCF77BFE2620FCF77EFE4DF22C60D4
:10457000FCF774FE0320FCF777FE4DF22D60FCF78C
:104580006DFE6020FCF770FE4DF22E60FCF766FEBB
:104590000320FCF769FE4DF22F60FCF75FFEB420AC
:1045A000FCF762FE4DF23060FCF758FE0320FCF78A
:1045B0005BFE4DF23160FCF751FEB920FCF754FE72
:1045C0004DF23260FCF74AFE0320FCF74DFE4DF23F
:1045D0003360FCF743FEC120FCF746FE4FF4704009
:1045E000FCF73CFE5520FCF73FFE4FF20100FCF7C4
:1045F00035FEAA20FCF738FE4FF20200FCF72EFE33
:104600005220FCF731FE4FF20300FCF727FE082092
:10461000FCF72AFE4FF20400FCF720FE0020FCF716
:1046200023FE4FF43540FCF719FE5020FCF71CFE2A
:104630004FF43140FCF712FECC20FCF715FE4FF48E
:104640003640FCF70BFE0220FCF70EFE4FF438401C
:10465000FCF704FE0120FCF707FE4BF60100FCF717
:10466000FDFD0320FCF700FE4BF60200FCF7F6FD13
:104670000320FCF7F9FD4BF60300FCF7EFFD0320E8
:10468000FCF7F2FD4FF43C40FCF7E8FD0520FCF799
:10469000EBFD4BF60140FCF7E1FD0520FCF7E4FDE6
:1046A0004BF60240FCF7DAFD0520FCF7DDFD4BF68A
:1046B0000250FCF7D3FD0720FCF7D6FD4BF6035064
:1046C000FCF7CCFD3120FCF7CFFD4BF60260FCF788
:1046D000C5FD0720FCF7C8FD4BF60360FCF7BEFDE7
:1046E0003120FCF7C1FD4BF60270FCF7B7FD072047
:1046F000FCF7BAFD4BF60360FCF7B0FD3120FCF788
:10470000B3FD4FF47F40FCF7A9FDAA20FCF7ACFDF8
:104710004FF60170FCF7A2FD5520FCF7A5FD4FF602
:104720000270FCF79BFD2520FCF79EFD4FF6037001
:10473000FCF794FD0120FCF797FD4FF20630FCF7E3
:104740008DFD1020FCF790FD4FF20840FCF786FD30
:104750000020FCF789FD4FF45850FCF77FFDC02086
:10476000FCF782FD4FF45450FCF778FD0020FCF775
:104770007BFD4FF46850FCF771FD0520FCF774FDDC
:104780004FF48850FCF76AFD322000F049FC4FF4EA
:104790002450FCF763FD322000F042FC0020FCF7BF
:1047A00097FB4FF6FF70FCF76FFB10BD10B540F2A2
:1047B00025510C4800F096F870B10A4800F04EF907
:1047C000C4B22146074800F04EF900BF4021054819
:1047D00000F07BF80128F9D14021024800F060F890
:1047E00010BD00000038014010B586B0044601211C
:1047F0000420FCF7D3FD01218803FCF7CFFD012144
:104800000846FCF7CBFD4FF40070ADF81400032010
:104810008DF8160018208DF8170005A91E48FCF722
:1048200051FA4FF48060ADF8140004208DF81700A1
:1048300005A91948FCF746FA01940020ADF80800D4
:10484000ADF80A00ADF80C00ADF810000C20ADF882
:104850000E0001A9114800F095F801210F4800F061
:1048600028F840210D4800F01BF8012240F22551A4
:104870000A4800F061F825208DF8000003208DF82B
:1048800001008DF8020001208DF803006846FCF756
:1048900021FD06B010BD00000008014000380140B5
:1048A00001F40072B2F5007F00D100BFCA4302805C
:1048B000704721B1828942F40052828104E08289EA
:1048C0004DF6FF731A408281704702460020B1F511
:1048D000007F00D100BF13880B400BB1012000E026
:1048E0000020704770B502460024002300250020F8
:1048F00040F66A16B14200D100BFC1F3421501F083
:104900001F03012606FA03F3012D02D196893340D5
:1049100006E0022D02D1168A334001E0968A334028
:104920000C12012606FA04F41688344013B10CB1B7
:10493000012000E0002070BDF0B5034600240026F1
:104940000025002040F66A17B94200D100BF184682
:10495000C1F3421401F01F06012707FA06F5012CE6
:1049600001D10C3004E0022C01D1103000E01430F1
:104970001AB107682F43076002E00768AF4307607A
:10498000F0BD00002DE9F04786B005460E46002434
:10499000A24600BFA1460027B08900B100BF2F4644
:1049A0002C8A4CF6FF700440F08804432C82AC89BA
:1049B0004EF6F3100440B0883189084371890843EA
:1049C0000443AC81AC8A4FF6FF400440B0890443F5
:1049D000AC8201A8FCF7F2FC1F48874202D1DDF847
:1049E00010A001E0DDF80CA0A88900F4004040B15F
:1049F0000AEBCA0000EB0A1031684900B0FBF1F87D
:104A000007E00AEBCA0000EB0A1031688900B0FB2E
:104A1000F1F86420B8FBF0F004012009642101FBE7
:104A20001089A88900F4004040B1322000EBC90091
:104A3000B0FBF1F000F00700044308E0322000EB87
:104A400009106421B0FBF1F000F00F0004432C8149
:104A500006B0BDE8F08700000038014001468888B4
:104A6000C0F308007047C1F308028280704700BF9E
:104A7000FEE700000FB4054B10B503A9044A0298E5
:104A800000F018F810BC5DF814FB0000A1650008E8
:104A90006400002002E008C8121F08C1002AFAD1F1
:104AA00070477047002001E001C1121F002AFBD1AE
:104AB000704700002DE9FF4F8DB09B460F4604461E
:104AC000002606E025280BD05A460F999047641C13
:104AD000761C20780028F5D111B03046BDE8F08F63
:104AE0000025A8460122984900E0054314F8013F3B
:104AF000203B02FA03F00842F7D120782E2817D184
:104B000014F8010F45F004052A280ED06FF02F028B
:104B10002078A0F1300109290AD808EB880102EBBE
:104B2000410100EB0108641CF2E757F8048B641C98
:104B300020786C280DD004DC4C2812D06A2811D1C2
:104B400004E074280DD07A280CD10AE045F4001551
:104B500007E0617845F48015814202D1641C05F5B7
:104B60008015641C2278692A45D008DC002AB3D05D
:104B7000582A69D0632A10D0642A08D13BE0702AF1
:104B800067D0732A13D0752A5CD0782A5CD010467F
:104B90005A460F999047761CD3E017F8040B8DF80E
:104BA000000000208DF80100E946012003E057F8DD
:104BB000049B4FF0FF3069074FF0000501D40AE075
:104BC0006D1C45450DDA8542FADB19F80510002900
:104BD000F6D106E06D1C8542FCDB19F805100029B2
:104BE000F8D12E4404E019F8010B5A460F9990476A
:104BF0006D1EF8D2A5E00A200021CDE90801C5F319
:104C0000025002280DD001CFC117031E71F100031D
:104C10000DDA4FF0000CD0EB0C006CEB01012D23F2
:104C200008E0FF1D27F00707F7E80201EDE72B0575
:104C300004D52B238DF8283001233BE0EB0739D036
:104C40002023F7E70A2000E010200021CDE9080129
:104C500007E01020002145F00405CDE908014FF0E0
:104C60000808C5F3025002280FD001CF00214FF0F1
:104C7000000A2B071FD5702A0DD0DDE908C38CF080
:104C8000100C5CEA030C0CD015E0FF1D27F00707A1
:104C9000F7E80201EBE740228DF828204FF0010AE7
:104CA0000BE050EA010306D030238DF828308DF850
:104CB000292002239A46582A04D024A20DF1200963
:104CC0000B9209E026A2F9E7DDE90823FBF74CFA8D
:104CD0000B9B9B5C09F8013D50EA0102F4D1ADEB5E
:104CE000090020300890680701D44FF001080899A6
:104CF000884502DDA8EB010000E000208046002589
:104D000006E00AA85A46405D0F9990476D1C761C34
:104D10005545F6DB04E030205A460F999047761C43
:104D2000B8F10001A8F10108F5DC05E019F8010B64
:104D30005A460F999047761C0899481E08900029FA
:104D4000F4DC641CC5E60000092801003031323370
:104D500034353637383961626364656600000000B7
:104D600030313233343536373839414243444546A1
:104D7000000000002DE9F04704460D469046994694
:104D8000AD1EE06A00EB153AC5F3C80605F0070151
:104D900001208840C7B200BF51460AF1010A2046EF
:104DA00001F084FF10B10120BDE8F08700BF00BF13
:104DB00004F13400805D384008B1012000E000209B
:104DC000484501D10220EFE704F13400805D7840CE
:104DD00004F1340188550120E070A8F101005FEA78
:104DE000000800D1E0E77806000E0700E0D10127B7
:104DF000701C0646B0F5007FD9D3CDE770B50446E8
:104E00000D460020E070401E20632946204601F038
:104E10004DFF08B1042070BD04F2322001F0F3FC14
:104E20004AF65521884201D00320F4E704F16A00D4
:104E300001F0ACFC20F07F400D49884201D10020F8
:104E4000E9E704F1860001F0A1FC20F07F40084969
:104E5000884201D10020DEE7082206A104F13700D4
:104E600001F0FCFE08B90120D5E70220D3E70000DD
:104E7000464154004558464154202020000000007F
:104E8000024600E0521C107810B110788842F9D127
:104E9000107870470246891E9069801E884201D8AA
:104EA000002070475389D06A01FB0300F9E70146EF
:104EB000002002E04910421CD0B20129FAD170470B
:104EC0002DE9F04707468A463C68BAF1000F06D143
:104ED000266916B1A069B04217D8012615E05146DF
:104EE000384601F06FFB8046B8F1020F02D2012074
:104EF000BDE8F08708F1010008B94046F8E7A0696D
:104F0000404501D94046F3E75646207804282ED183
:104F100001223146204601F0C5F805460DB1681C56
:104F200008B92846E4E701231A4629462046FFF738
:104F300021FF8146B9F1020F01D10120D8E7B9F173
:104F4000010F02D14FF0FF30D2E7BAF1000F02D1CA
:104F50000220F8712CE0F879022829D1701C8542D2
:104F600026D0B868301AB8610320F87120E03546C1
:104F700000BF6D1CA069A84204D80225B54201D922
:104F80000020B5E72946384601F01CFB8046B8F101
:104F9000000F00D10BE0B8F1010F02D008F10100C1
:104FA00008B94046A4E7B542E3D10020A0E700BF1E
:104FB0002078042805D1F879022802D14FF00009A1
:104FC00012E04FF0FF322946204601F081FF814672
:104FD000B9F1000F08D1BAF1000F05D02A465146A9
:104FE000204601F075FF8146B9F1000F0DD1256112
:104FF000D4E90510801E814202D26069401E6061C2
:10500000207940F00100207107E0B9F1010F02D1D1
:105010004FF0FF3000E001200546284668E7000019
:105020000146114A12884A434FF0E0235A61002298
:105030009A611A46126942F001021A6100BF4FF0EC
:10504000E022106900F001021AB100F48032002A57
:10505000F5D04FF0E022126922F001024FF0E02378
:105060001A6100229A617047360000202DE9F04154
:1050700004460E46D4F800800021204600F046F990
:1050800005465DBB002700BF4046216B01F00EFEC8
:10509000054605B121E098F80000042805D1606BB1
:1050A0000078012121EAD01009E0606B0078E52842
:1050B00002D0606B007808B9012000E0002020B128
:1050C000781C0746B04201D107E0002701212046A5
:1050D00000F00AF80546002DD6D000BF042D00D1FF
:1050E00007252846BDE8F0812DE9F04704468946AA
:1050F0002568A06A00F12007206B40B128780428B9
:1051000001D1800601E04FF40010B84202D804201B
:10511000BDE8F087C7F3080000286CD1206B401C65
:105120002063E06A38B92889B0EB571F63D80020A4
:1051300020630420ECE76889401E00EA572000281D
:1051400059D12046E16A01F03DFA0646012E01D808
:105150000220DDE7701C08B90120D9E7A869B04238
:1051600043D8B9F1000F03D1002020630420CFE71A
:105170002046E16AFFF7A4FE06460EB90720C7E7FE
:10518000012E01D10220C3E7701C08B90120BFE73E
:10519000E07940F00400E071284601F0A5FF08B175
:1051A0000120B5E74FF40072002105F1340001F051
:1051B00074FD4FF0000831462846FFF76BFE286368
:1051C0000CE00120E870284601F08EFF08B10120B4
:1051D0009EE708F10108286B401C28636889404558
:1051E000EFD8286BA0EB08002863E662314628461A
:1051F000FFF750FE2063A762C7F3080105F13400F2
:1052000008446063002083E72DE9F05F04460F4601
:105210000426D4F800804FF0FF0AD3466CE04046E5
:10522000216B01F043FD064606B168E0606B05782E
:105230000DB9042663E098F80000042813D117B1D3
:10524000832D52D15BE0852D4FD1A06AE0632046CB
:1052500001F0DFFA06462EB9D8F80C00007900F00C
:105260003F00A0714BE0606BC07A00F03F0984F80A
:105270000690E52D0AD02E2D08D029F02000082810
:1052800001D1012000E00020B84202D04FF0FF0A17
:105290002BE0B9F10F0F1CD105F0400038B1606B65
:1052A00090F80DB025F04005AA46A06AE063554588
:1052B0000BD1606B407B584507D1616B206C01F0CE
:1052C000C3FD10B1AAF1010000E0FF2000F0FF0AC9
:1052D0000BE0BAF1000F04D1606B01F0ADFE584550
:1052E00002D04FF0FF30E06309E000212046FFF7D5
:1052F000FBFE064606B102E0206B00288FD100BFFE
:105300000EB1002020633046BDE8F09F2DE9F0414A
:1053100004460D4626683078042801D1800601E055
:105320004FF40010A84202D905F01F0010B102206E
:10533000BDE8F081A562A7682FB93078032802DBA9
:10534000B76A0020E07147B93089B0EB551F01D82A
:105350000220EDE7B06A20631CE070894FEA402824
:1053600011E03946204601F02DF90746781C08B9AE
:105370000120DDE7022F02D3B069B84201D8022034
:10538000D6E7A5EB08054545EBD239463046FFF791
:1053900081FD2063E762206B08B90220C8E7206B1B
:1053A00000EB55202063C5F3080106F134000844E2
:1053B00060630020BCE7000070B50446002514B10E
:1053C000012C0BD103E0FCF751FB054608E0FBF78D
:1053D0006DF94FF400500549088001E0012500BF38
:1053E00000BF0DB1012070BD0020FCE74C00002083
:1053F0002DE9F04706468946154646BBB9F1000F30
:1054000009D0B9F1010F13D0B9F1020F05D0B9F1EC
:10541000030F19D106E0002418E04FF40070286053
:10542000002413E01D48B0F85000288000240DE04F
:105430001A484FF400720023D0E912713846FAF787
:10544000C4FE2860002401E0042400BF22E0012EF5
:105450001FD1B9F1000F09D0B9F1010F11D0B9F185
:10546000020F05D0B9F1030F10D106E000240FE0C0
:105470004FF40070288000240AE0082028800024CF
:1054800006E0074800882860002401E0042400BFEB
:1054900000E001242046BDE8F0870000D010002085
:1054A0004C0000202DE9F04107460E4615461C46EB
:1054B0004FF0000814B90420BDE8F08117B1012FA6
:1054C00022D112E0E2B229463046FCF7B1FE804616
:1054D00007E0FCF7CBFAE2B229463046FCF7A8FE1B
:1054E0008046B8F1000FF4D111E009E069024FF4F1
:1054F00000723046FBF726F96D1C06F50076641E37
:10550000002CF3D1A04602E04FF0010800BF00BF1D
:10551000B8F1000F01D10020CEE70120CCE7014611
:10552000002070472DE9F04107460E4615461C46FF
:105530004FF0000814B90420BDE8F08117B1012F25
:1055400022D112E0E2B229463046FDF70FFA80463A
:1055500007E0FCF78BFAE2B229463046FDF706FA7F
:105560008046B8F1000FF4D111E009E069024FF470
:1055700000723046FBF752F96D1C06F50076641E8A
:10558000002CF3D1A04602E04FF0010800BF00BF9D
:10559000B8F1000F01D10020CEE70120CCE72DE9C2
:1055A000F74F8EB08A4600220CA90EA800F0CCFD61
:1055B0008346BBF1000F0CD10C99109801600C9838
:1055C000D0E90510801E814204D80C984069CAF8C1
:1055D000000093E000260C98007801281BD10224DB
:1055E0000C98029000BF214602A800F0EBFF07468E
:1055F000781C10B94FF0010B0CE0012F02D14FF0D5
:10560000020B07E007B9761C601C04460C998969F7
:105610008842E8D368E00C980078042830D10C98D0
:105620008069841E0C98D0F82C80002500BF4DB9ED
:10563000414608F101080C9801F038FB5FEA000BC5
:1056400000D01BE0082000900C983430405D0190A1
:105650000BE0019800F0010000B9761C01984010A1
:1056600001900098401E0090641E009808B1002C24
:10567000EFD1681CC0F30805002CD8D100BF33E07F
:105680000C9884690C98D0F824800025A94600BFA6
:105690007DB9414608F101080C9801F007FB8346EB
:1056A000BBF1000F00D01EE00C9800F134094FF45C
:1056B00000750C980078022808D1484601F0A3F83C
:1056C00000B9761C09F10209AD1E09E0484601F057
:1056D0005DF820F0704000B9761C09F104092D1F17
:1056E000601E0400D4D100BFCAF800600C98466167
:1056F0000C98007940F001000C990871584611B0DF
:10570000BDE8F08F2DE9F74F90B0164611980128AB
:1057100003DD132013B0BDE8F08F10A801F011F8DD
:105720000F900F98002801DA0B20F3E7F9490F9842
:1057300051F820B0BBF1000F01D10C20EAE70020A6
:105740008BF800000F98C0B20C9000200B900C98C2
:10575000FFF732FE0190019800F0010008B103202C
:10576000D8E7019800F0040008B10A20D2E700BF92
:1057700004AA01210C98FFF73BFE10B90498802879
:1057800001D20120C6E7119808B1002000E03F20B7
:1057900082460498A0EB0A000490701E304000B1CD
:1057A00000269EB94FF4FA610498B0FBF1F00A901C
:1057B0004FF0000801E008F10108D74830F8181050
:1057C0000A988142F7D8D54830F81860B6F5007FBE
:1057D00000D3760A06B90126802E00D980260498C7
:1057E000B0FBF6F7012540F6F670874200D302259C
:1057F0004FF6F670874200D30325032D0BD1082006
:1058000000EB870000F2FF104FEA502920200390A0
:105810000020029012E0012D05D107EB4700401C4B
:105820004008C01C01E07800001D814609F2FF100D
:105830004FEA502901200390202002900398504401
:1058400007900798484406900299069808440590E6
:1058500005983044A0EB0A000499884201D90E2033
:1058600058E709AA03210C98FFF7C2FD28B9099847
:1058700018B10998B0F5004F01D901200990099994
:1058800005980844401E491E8843099009990598C7
:10589000081A0990032D08D1099903980844039028
:1058A000099907980844079001E009988144DDE9C7
:1058B0000301081AA0EB09010298081AB0FBF6F7D9
:1058C000022D03D140F6F670874205D3032D05D192
:1058D0004FF6F670874201D20E201BE7032D02D14E
:1058E0000C200D9010E0012D06D10498B0F5803FFA
:1058F00002D201200D9007E00498B0F5803F01D25C
:10590000042000E006200D9000BF119810B1F02097
:105910000E903CE04FF4007200210BF1340001F0D6
:10592000BCF90BF5F97401206070A0700020E070E4
:105930000D982071FE206071049850443F21B0FB07
:10594000F1F0FF21B0FBF1F009903F21099841EA05
:105950009000A0710998E07104F1080001F05AFB71
:1059600004F10C00049901F055FB4AF655210BF2A5
:10597000322001F05BFB012300220BF134010C9873
:10598000FFF7D0FD08B10120C4E6F8200E900BF11E
:1059900034044FF400720021204601F07EF90B22FE
:1059A0005FA1204601F06CF94FF40078414604F104
:1059B0000B0001F03BFB6673039881B204F10E000B
:1059C00001F034FB01202074032D01D1002001E0FF
:1059D0004FF4007080461FFA88F104F1110001F0C5
:1059E00025FB0498B0F5803F06D2049881B204F1FB
:1059F000130001F01BFB04E004F12000049901F006
:105A000009FB0E9860753F2104F1180001F00EFBB0
:105A1000FF2104F11A0001F009FB514604F11C00BA
:105A200001F0F8FA00F08BFE0990032D25D104F166
:105A30004300099901F0EEFA494604F1240001F00F
:105A4000E9FA022104F12C0001F0E4FA012104F149
:105A5000300001F0EBFA062104F1320001F0E6FA21
:105A6000802084F84000292084F8420013222FA1CE
:105A700004F1470001F004F916E004F12700099948
:105A800001F0C8FA1FFA89F104F1160001F0CEFA0C
:105A9000802084F82400292084F82600132228A1DD
:105AA00004F12B0001F0ECF84AF6552104F5FF70E3
:105AB00001F0BCFA0123524621460C98FFF732FD53
:105AC00008B1012026E6032D06D101230AF10602C2
:105AD00021460C98FFF726FD079808904FF0000824
